:100000000C94A1020C94BE020C94D9020C94BE0272
:100010000C94BE020C94BE020C94BE020C94BE0260
:100020000C94BE020C94A11A0C9427110C94BE02DD
:100030000C94BE020C94BE020C94BE020C94BE0240
:100040000C94BE020C94BE020C94BE020C94BE0230
:100050000C94BE022A00130012000C0015001700B9
:100060001C00180008001A0014002B0028003300A0
:100070000F000E0009000A000B000D00070016001B
:10008000040029004C002700260025002100220042
:100090002300240020001F001E003500E50038006A
:1000A00037003600190005001100100006001B0083
:1000B0001D00E100E4000000E600E70022522C00F1
:1000C0002C002152E300E2000000E0004C00270277
:1000D00026022502210222022302240220021F02FC
:1000E0001E02010001004F005200510001000100FA
:1000F00001005000A800A900AA00010001000100B1
:1001000001000100010001000100010001000100E7
:100110000100010001004E004B004D0001000100F4
:1001200001004A000100010001000100010001007E
:1001300001000100010001000100010001000100B7
:1001400001000100010027002600250021002200F7
:100150002300240020001F001E00010001003000C9
:100160002F002E003D003E003F002D003C003B00D4
:100170003A0001000100010001000100010001003E
:100180000100010001000100010001000100320036
:1001900034008700430044004500640042004100F1
:1001A0004000010001000100010001000100010008
:1001B0000100010001000100010001001E0F050007
:1001C000047F3F1F643214643214783C1E1E140AEC
:1001D0000500010101010101010101020202020207
:1001E00002020202030303030303030304040404DF
:1001F00004040405050505050606060606070707A7
:10020000070708080808090909090A0A0A0B0B0B5D
:100210000C0C0C0D0D0D0E0E0E0F0F0F10101111FA
:10022000111212131314141515161617171818197E
:10023000191A1A1B1B1C1D1D1E1E1F2020212222E5
:10024000232424252626272829292A2B2C2D2D2E28
:100250002F30313232333435363738393A3B3C3D42
:100260003E3F404142434445464748494A4C4D4E33
:100270004F50515354555658595A5B5D5E5F6162F9
:1002800064656668696B6C6D6F7072737577787A88
:100290007B7D7E8082838587888A8C8E8F919395E3
:1002A00096989A9C9EA0A2A3A5A7A9ABADAFB1B307
:1002B000B5B7BABCBEC0C2C4C6C9CBCDCFD1D4D6E7
:1002C000D8DBDDDFE2E4E7E9EBEEF0F3F5F8FAFD89
:1002D000FFFFAA7F55402223252628292A2C2D2FCF
:1002E0003032333536383A3B3D3E4042434547494C
:1002F0004A4C4E5051535557595A5C5E6062646681
:1003000068696B6D6F71737577797B7D7F8183858C
:1003100087898A8C8E90929496989A9C9E9FA1A38E
:10032000A5A7A8AAACAEAFB1B3B4B6B8B9BBBCBEB2
:10033000BFC1C2C3C5C6C7C9CACBCCCDCED0D1D22E
:10034000D2D3D4D5D6D7D7D8D9D9DADADBDBDBDC30
:10035000DCDCDCDCDDDDDDDDDCDCDCDCDCDBDBDBDC
:10036000DADAD9D9D8D7D7D6D5D4D3D2D2D1D0CE3C
:10037000CDCCCBCAC9C7C6C5C3C2C1BFBEBCBBB941
:10038000B8B6B4B3B1AFAEACAAA8A7A5A3A19F9EBF
:100390009C9A98969492908E8C8A89878583817F87
:1003A0007D7B79777573716F6D6B69686664626068
:1003B0005E5C5A5957555351504E4C4A4947454334
:1003C00042403E3D3B3A3836353332302F2D2C2AD1
:1003D000292826252322000000000000000000003C
:1003E0000001010203040506080A0C0F1114181C71
:1003F0002024292E33393F464C535B626A71798140
:100400008A929AA2AAB2B9C1C8CFD5DCE1E7EBF0D3
:10041000F4F7FAFCFDFEFFFEFDFCFAF7F4F0EBE763
:10042000E1DCD5CFC8C1B9B2AAA29A928A8179710A
:100430006A625B534C463F39332E2924201C181422
:10044000110F0C0A08060504030201010000000058
:1004500000000000000005010980A10185031901C9
:100460002AB700150126B700950175108100C00557
:100470000C0901A101850419012AA002150126A079
:1004800002950175108100C005010906A10105074B
:1004900019E029E7150025019508750181029501EC
:1004A000750881030507190029FF150026FF00952F
:1004B0000675088100050819012905150025019513
:1004C0000575019102950175039103C00A034A0065
:1004D0004A0035003000000016034B005000720047
:1004E00065007000750062006C0069006300000028
:1004F0000403090409023B00020100A0FA090400F8
:10050000000103010100092101010001224400074B
:10051000058103080001090401000103000000092E
:1005200021010100012232000705830308000112A6
:1005300001100100000008504B50000002010200B1
:10054000010011241FBECFE5D8E0DEBFCDBF22E001
:10055000A6EFB0E001C01D92A837B207E1F710E0A6
:10056000A0E6B0E0E4ECF2E402C005900D92A63FF4
:10057000B107D9F70E94101B0C940F210C940000B6
:10058000A82FB92F80E090E041E050EA609530E07C
:1005900009C02D9182279795879510F0842795277C
:1005A000305EC8F36F5FA8F30895EADF8D939D93E3
:1005B0000895CF93CFB7CF93C395839BE9F7839BE0
:1005C0000EC0839B0CC0839B0AC0839B08C0839B87
:1005D00006C0C0915202C395C0935202A6C0DF93D9
:1005E000C0915102DD27CA5ADD4F839B02C0DF91C3
:1005F000E6CF2F930F931F9300B32FEF03FB20F948
:100600004F933F9310B34FEF012703FB21F93BE0DA
:1006100031C04E7F012F10B3216028C0102F4D7FB5
:100620002260000000B329C04B7F2460012F00002E
:1006300010B32BC010B3477F28602AC04F7E00B391
:1006400020612CC04F7D10B320622FC04F7B00B3C0
:10065000206432C0422700B349934FEF00001027B7
:1006600013FB20F910B31C70C9F1297F91F2012707
:1006700003FB21F900B3237F89F2315058F1102791
:1006800013FB22F910B3277E79F2012703FB23F92C
:100690002F7C81F200B3102713FB24F92F7971F21C
:1006A00000C010B3012703FB25F92F7359F200C0D6
:1006B00000B3102713FB26F9223040F200C010B31C
:1006C000012703FB27F9243028F64F77206810B361
:1006D0000000F9CF10E81ABF00271CC03B5031952D
:1006E000C31BD04010E81ABF0881033C11F10B3442
:1006F00001F120914F021981110F1213EDCF4A81A0
:10070000441F093669F10D3211F0013E29F74F708F
:1007100009F0042F009355023F914F911F910F91C3
:100720002F91DF91CAB7C7FD47CFCF91CFBFCF91F0
:10073000189520915502222379F310915302112329
:1007400009F044C034300AF443C03093530220937C
:100750005002109151023BE0311B3093510238C0DE
:1007600000915302013094F50AE54F7049F430913D
:100770007F0034FD2FC000937F00CCE2D2E02EC07A
:10078000433059F0443091F03091370234FD22C0AB
:1007900000933702C8E3D2E021C030916C0234FDEF
:1007A00019C000936C02CDE6D2E018C0309143022C
:1007B00034FD10C000934302C4E4D2E00FC027957B
:1007C000A8F45150A9F4220F0000F9CF4AE503C064
:1007D00042ED01C0432FC4E1D0E032E011B31C6010
:1007E000939A11BB02B320E41CE05F93012756E00B
:1007F00002BB279520F4515021F4220FF9CF012795
:1008000056E000003B5A02BBD0F2279528F4515025
:1008100029F4220F0000F9CF012756E0279502BBEB
:1008200020F4515021F4220FF9CF012756E02991ED
:10083000332302BB21F6037F10915402110FC651DE
:10084000D04002BB11F010934F0210E81ABF0860AD
:1008500011B3137F402F437F5F9100C000C002BBE4
:1008600011BB42BB59CF482F209128029091EF0134
:1008700057E0291302C080E0089530E0529FF00154
:10088000539FF00D1124E051FE4F8181681306C083
:100890008081481303C085818111EECF2F5F3F4FC8
:1008A0002770E7CFFC019381933059F130F49130F8
:1008B000C1F09230F1F080E00895913209F440C027
:1008C0009232C9F784819581009709F44BC0019752
:1008D00091F786E594E09093EE018093ED0182E339
:1008E00008958FE295E09093EE018093ED0182E10F
:1008F000089584EF94E09093EE018093ED018BE3F3
:10090000089582818130A1F0882351F0823099F6D8
:100910008CEC94E09093EE018093ED018AE00895D1
:1009200080EF94E09093EE018093ED0184E00895D0
:1009300088ED94E09093EE018093ED0186E10895B7
:1009400084819581009731F0019709F0B4CF8FE150
:1009500095E002C086E095E09093EE018093ED0172
:1009600089E0089588E894E09093EE018093ED018A
:1009700084E408950895089508958091E801089504
:100980009C01FC0132969FEF80E04191461751F0A7
:100990009F3F19F4411101C0982F8F5F8630A9F74E
:1009A0009F3F09F40895290F311D97FD3A95F901EC
:1009B00062830895A3E0B0E0E0EEF4E00C94221F1F
:1009C0002091D5013091D60128173907A1F09093D5
:1009D000D6018093D501E091D301F091D4013097F5
:1009E00051F024E029839B838A830084F185E02DE4
:1009F000CE01019609952396E2E00C943E1FA3E0F8
:100A0000B0E0E5E0F5E00C94221F2091D101309197
:100A1000D20128173907A1F09093D2018093D10118
:100A2000E091D301F091D401309751F023E0298374
:100A30009B838A830084F185E02DCE010196099580
:100A40002396E2E00C943E1FE091D301F091D40193
:100A5000309729F00190F081E02D0995089580E00C
:100A60000895B0E0A0E0E7E3F5E00C94181F8C01D6
:100A700086B597B56CE070E00E94FE1E60177107A6
:100A800058F0C80169E070E00E94FE1ECB01CDB7AE
:100A9000DEB7ECE00C94341F86B597B5E6B4F7B436
:100AA000C6B4D7B4C6E0D0E0BE010E94FE1E30E05E
:100AB00020E0060F171F211D311D4801590185E057
:100AC000880C991CAA1CBB1C8A95D1F7C701BE01D2
:100AD0000E94FE1EF12CE12CA7019601260F371F64
:100AE000411D511DC501B4010E94DE2069017A013A
:100AF000E6B5F7B5CA01B9010E94491F9B01AC01D7
:100B0000DF010E94CB209B01AC01C701B6010E940E
:100B1000491F2FE096958795779567952A95D1F788
:100B200006B517B530E020E0061717072807390784
:100B300008F0ACCF66B577B5A9CF8D30B8F4811188
:100B400016C09FB59F7D9FBDA6B5B7B5282F30E0D5
:100B50000E9400212CE030E040E050E00E94DE20C6
:100B6000C9010E94310599BD88BD08958CE09FB5EB
:100B70009062E9CF282F220F220F220F9091CC01F3
:100B80009770922B9093CC01987F21E009F420E09C
:100B90009091CC0120FB90F99093CC010E949D058F
:100BA0000895FA01811101C0FB0109950895809112
:100BB000C40180FD0AC0E4E6F1E0118210821282D5
:100BC000339681E0E838F807C1F76CE070E084E61E
:100BD00091E00E94E80E08959091C40190FF0CC02E
:100BE000E4E6F1E0818360834283339691E0E83864
:100BF000F907C1F70E94D70508958091C401982F85
:100C00009C7F29F4837084608093C40108958C3A9A
:100C1000E8F38370886AF8CFAF92BF92DF92EF92C9
:100C2000FF920F931F93CF93DF93082F162FE901A5
:100C3000E42FF0E0EF52FE4F611110C0E4915E2FFF
:100C40004E2F4983E8835A83DF91CF911F910F91F3
:100C5000FF90EF90DF90BF90AF900895E62EF12CBB
:100C60004491D42EE42FF0E026E0829FC0011124AD
:100C70002FEF30E0B9010E94FE1E802F90E0880F18
:100C8000991F55E5569FD001579FB00D11248A1B1F
:100C90009B0B982F990F890F5901AE18BF08AE9E74
:100CA000D001AF9EB00DBE9EB00D11245B2F189FDA
:100CB00080011124012F11275901A01AB10AAE9EFB
:100CC0008001AF9E100DBE9E100D11245901A81A6F
:100CD000B108AE9CC001AF9C900DBE9C900D11243C
:100CE000892F9927281B390B2E9FC0012F9F900D0C
:100CF0003E9F900D1124E92F62307105A1F050F450
:100D00006115710509F49DCF6130710581F0EB2FFC
:100D1000512F97CF6430710569F080F0663071050E
:100D200009F48FCFF4CFE42F4B2F592F8ACFE42F24
:100D3000412F87CFEB2F542F492F83CF4B2F5D2D82
:100D4000E12F7FCFA3E0B0E0E8EAF6E00C94221FA9
:100D50009091C40190FF0AC09E012F5F3F4F0E94F7
:100D60000C064B8169818A810E94EC052396E2E0A2
:100D70000C943E1FCF93DF93EC01E4ECF1E0438150
:100D800062818C810E94A2068C818F5F8C83DF91AF
:100D9000CF910895CF93DF93EC01EC81F0E0EA521C
:100DA000FD4F4491E4ECF1E0628181810E94A20652
:100DB0008C818F5F8C83DF91CF910895EF92FF92AA
:100DC0000F931F93CF93DF938C01C4E6D1E0F12CF6
:100DD000E12CF80194816091C6018091C501F6E093
:100DE000EF16F104ECF49923E9F09E014091C7015C
:100DF0000E940C062FEFE21AF20A23968CE0E81606
:100E0000F10439F70E94D705F801848190E001963A
:100E1000817099278483CDB7DEB7E6E00C943A1F42
:100E2000992319F39E0140E0E3CFA3E0B0E0EBE1AA
:100E3000F7E00C94201F8C018091630181110AC09E
:100E40009E012F5F3F4F4FEF6FEF0E940C068A818C
:100E500080936301F8016481613069F080916301DE
:100E600040E0662361F040E0623011F4409163019C
:100E700080E060E004C06091630140E080E00E9497
:100E8000EC05F801848190E0019663E070E00E9437
:100E9000731F84832396E4E00C943C1FB0E0A0E031
:100EA000E4E5F7E00C94181FEC014C81042F10E0EE
:100EB0009801D8010E9400219B01AC010E94CB2027
:100EC0004B015C01E0E2F0E0E01BF10BA5E5B0E0D6
:100ED000AC019B010E94CB206B017C019F01DF01D3
:100EE0000E948D1F9B01AC010E94D6209B01AC018A
:100EF000280D391D4A1D5B1DC701B6010E94DE2069
:100F0000F22E822F90E039E23F1598F143E0249FC2
:100F10009001112435952795122F109594E6C92E2E
:100F200091E0D92E00E085E5E82EEF188E2D01FD29
:100F30008F2D9601412F6091C6010E940C060F5F14
:100F400053E0C50ED11C0C3089F70E94D7059C8157
:100F500081E0992319F0903219F48FEF80937B0090
:100F600080917B00890F8C83CDB7DEB7ECE00C94C9
:100F7000341F25E530E0A901481B590BCA019A012D
:100F8000220F331F280F391F37FFC4CF2F5F3F4F6A
:100F9000C1CF0F931F93CF93DF93C4E6D1E0FE013F
:100FA000118210821282339681E0E838F807C1F787
:100FB00010E000E080916201082E000C990B0817E8
:100FC00019078CF180917A00082E000C990B80177C
:100FD00091074CF19E014091C7016091C60180913B
:100FE000C5010E940C060F5F1F4F23960C301105A0
:100FF00009F70E94D7058091790090916201980FBE
:101000009093620120917A00280F20937A001216A3
:1010100014F49B301CF0819580937900DF91CF917F
:101020001F910F910895198218821A82DCCFB0E0C7
:10103000A0E0EDE1F8E00C941B1FFC018281DD24AF
:10104000DA9480FD02C0DD24D39404E611E0D0E000
:10105000C0E02CE0B22EF80111821082128294E0DE
:10106000E92EF12CC12C809161018C0D8D30C4F1E1
:101070006B2D0E94651F892F082E000C990B8C1771
:101080009D0791F48091C7018E9DA0018F9D500D09
:101090001124559547955595479598016091C6013E
:1010A0008091C5010E940C06CD0CF1E0EF1AF10809
:1010B000D1F621960D5F1F4FCC30D10561F60E940D
:1010C000D7058091610191E0D91210C081110CC047
:1010D0008BE080936101CDB7DEB7E9E00C94371F58
:1010E00087FFCACF845FC8CF8150F3CF90E00196CD
:1010F000BE010E94731FEDCFEF92FF921F93CF931B
:10110000DF93EC0184E6E82E81E0F82E10E08C817C
:1011100097014091C7016091C601810F0E940C06A2
:101120001B5E83E0E80EF11C1C3F89F70E94D70587
:101130009A818C8190FF08C08F5F8C83DF91CF9163
:101140001F91FF90EF9008958150F7CF80E00895B0
:10115000F894E82FE295EF70F0E031A9282F2F7076
:1011600081E090E001C0880F2A95EAF7982F9095CA
:10117000932391AB92A9892B82AB78940895909197
:10118000400192FF10C041E0282F2471243009F063
:1011900040E031E0282F2871283009F030E0431773
:1011A00011F02CE0822793FF10C041E0282F24711A
:1011B000243109F040E031E0282F2871283109F06E
:1011C00030E0431711F02CE082273091410130FFCD
:1011D00010C051E0282F2171213009F050E041E08A
:1011E000282F2871283009F040E0541711F029E029
:1011F000822731FF10C041E0282F2171213109F0F1
:1012000040E031E0282F2871283109F030E0431701
:1012100011F029E0822794FD877E08958238910598
:10122000B9F1B0F48133910509F47DC048F48932F5
:10123000910509F46DC08A32910509F47BC00895C7
:101240008533910509F45FC08933910509F108954B
:10125000833E9105D9F138F4803E910529F1823E13
:10126000910579F10895863E9105D9F1873E910562
:1012700009F43EC0843E910541F52091410121FFD2
:1012800024C08091400184FD19C087EE90E008954C
:1012900020914001237009F05AC02091410123FFA1
:1012A00014C089E290E008952091400120FD38C0EB
:1012B0003091410130FF09C024FF43C090E080E03D
:1012C00008952091400122FDF7CF0895209140011B
:1012D00022FD3AC03091410130FD39C024FFF5CFE5
:1012E000EDCF2091400123FFF0CF24FDE7CFCDCFFC
:1012F0002091400123FD2EC03091410131FFEECFFE
:1013000084EE90E008952091400125FFDECFC9CF03
:101310002091400125FD21C02091410123FFD5CF1F
:1013200089E390E0D2CF2091400126FFCECF8AE220
:1013300090E008952091400126FFC7CF81E390E01F
:10134000089583EE90E0089582EE90E0089580EE97
:1013500090E0089586EE90E0089585E390E008958A
:10136000972F7530B8F46C30A8F48330B0F470E087
:101370002CE0929F600D711D1124FB019CE3899F5D
:10138000E00DF11D1124EE0FFF1FEC5AFF4F859168
:101390009491089580E090E0089581E0FCCF1F9340
:1013A000CF93DF930E940E09EC01C11580E5D807A9
:1013B000F0F5C11580E4D80708F09CC0C03ED10507
:1013C00020F5CD3CD10508F082C0C83AD10578F4AB
:1013D000C53AD10508F073C0C130D10519F1209785
:1013E00009F1C430D105F0F4D0E0C0E01BC0C33C2B
:1013F000D105D0F7C85AD0E0CC0FDD1FCD57DF4F55
:101400000990D881C02DD4640DC0C11580E2D807E1
:1014100008F0D1C0C11581E0D80708F05AC0C83E15
:10142000D10510F7CE01DF91CF911F910895C036FD
:1014300082E5D80718F5C03482E5D80708F06BC0FC
:10144000C03282E5D80708F05FC0C11582E5D80731
:1014500008F497C02C2F2695269580E2289F9001AE
:1014600011248C2F8370C1E0D0E002C0CC0FDD1FAF
:101470008A95E2F7C22BD32BDD68D4CFC03A82E540
:10148000D80760F4C03882E5D80708F459C0CF7196
:10149000D0E0DC2FCC27C46FD06AC4CFC03C82E53B
:1014A000D80708F462C0C03E82E5D80708F09CCF98
:1014B000DC2FCC27CC27DF71C06FD06AB3CFC55AE1
:1014C000D0E0C058DF4FC881D0E0D064ABCFD0654A
:1014D000A9CF8D2F0E94BF08182FCE0199270E94F7
:1014E0000E09C12FD0E0DC2FCC27CC27DF71C82B11
:1014F000D92B98CFCE0199270E940E09CC27DF70F7
:10150000C82BD92BD06A8ECFCF71D0E0DC2FCC275F
:10151000C16FD06A87CF2C2F26952695277080E241
:10152000289F900111248C2F8370C1E0D0E002C06D
:10153000CC0FDD1F8A95E2F7C22BD32BDC6872CF6C
:101540002C2F26952695277080E2289F9001112444
:101550008C2F8370C1E0D0E002C0CC0FDD1F8A95D4
:10156000E2F7C22BD32BDA685DCF8C2F8F710E94EC
:10157000BF08C82FD0E0DC2FCC27CC27DF71D0628A
:1015800051CF8C2F8F710E94BF0855E0D695C7951B
:101590005A95E1F7CF70D0E0DC2FCC27282F30E030
:1015A00084FF05C044E0220F331F4A95E1F7C22BA8
:1015B000D32BD06937CF8D2F8F710E94BF08182F82
:1015C000CE0199270E940E09C12FD0E0DC2FCC2735
:1015D000CC27DF71C82BD92BD2CF809590912C01CD
:1015E000982390932C01089520912C0180912B0138
:1015F000282B80912A01882381F0282B30E08AEF64
:1016000090E0FC014191CF0141113F5FF1E080305A
:101610009F07B9F7311110922A012093F800E09149
:10162000D301F091D401309731F00280F381E02DA5
:1016300088EF90E009950895809128029091EF013C
:10164000981301C008958F5F8770FACFB0E0A0E0D3
:10165000ECE2FBE00C941B1F7C0100913E01109119
:101660003F0180913C0190913D01082B192BCFE067
:10167000D0E0CC24C394D12CBC2EC6010C2E02C0C9
:10168000880F991F0A94E2F780239123892B49F44C
:10169000219790F7B12C8B2DCDB7DEB7E9E00C94F4
:1016A000371FB7018C2F0E94B0090E94CF09019704
:1016B00079F3F1CFCF93DF93EC010E94260BBE01AB
:1016C0000E94B0090E94CF09DF91CF910895953013
:1016D00078F58C3068F5E82FF0E08CE0989FE00D0D
:1016E000F11D11249E2F977083E0F695E7958A955A
:1016F000E1F7EE0FFF1FEE0FFF1FEE5FFE4F50E012
:1017000040E080E0219130E0092E02C03695279517
:101710000A94E2F721703327042E01C0220F0A94A5
:10172000EAF7822B4F5F5F4F4430510559F7089518
:1017300080E00895953098F58C3088F5E82FF0E03A
:101740008CE0989FE00DF11D11248E2F877041E0F1
:1017500001C0440F8A95EAF783E0F695E7958A95EC
:10176000E1F7EE0FFF1FEE0FFF1FEE5FFE4F30E0C1
:1017700020E070E05191DF011197CB01022E02C0F1
:10178000969587950A94E2F7817081958527842341
:1017900085278C932F5F3F4F2430310559F70895EB
:1017A00090933F0180933E01089521E030E002C014
:1017B000220F331F8A95E2F72095309580913E01E4
:1017C00090913F01822393230E94D00B0895909122
:1017D00029018095892380932901282F277069F496
:1017E000891759F09091410192FF07C0869586951F
:1017F00086950E94D50B10922901089521E030E0D2
:1018000002C0220F331F8A95E2F780913E0190912A
:101810003F01822B932B0E94D00B089590933D01A2
:1018200080933C010895FC0124812223C1F0808132
:1018300091810E945A0B92959F70963091F058F4C6
:10184000925F9F70923058F4803F19F030F4883ED8
:1018500030F481E008959A5FF4CF843FD1F380E0C3
:101860000895883EB0F3813FD1F7F3CF882321F06C
:101870000E94ED0A0E94F40A0895882339F090919D
:101880002C01982B90932C010E94F40A0895882330
:1018900091F19CEF980F913A80F4EAEFF0E020E0AC
:1018A00031E09191891303C0DF0111971C922E172B
:1018B0003F07B9F70E94F40A089590E2980F983014
:1018C00050F4877091E001C0990F8A95EAF7892F4B
:1018D0000E94ED0AEFCF9BE5980F933028F490E03B
:1018E00080E00E94FF040895885A8B3120F490E034
:1018F00080E00E94DA040895CF93C82F8823B1F0C6
:101900008CEF8C0F813A00F5EAEFF0E080E091E097
:10191000DF012D91C21761F08A179B07D1F76C2F59
:1019200088EF90E00E94C0040E94F40ACF910895CD
:101930002191C21303C0DF0111971C928E179F07DC
:10194000B9F70E94F40AEBCF80E28C0F883068F47C
:10195000C77021E030E001C0220FCA95EAF78091FC
:101960002C01822B80932C01DFCFEBE5EC0FE330D1
:1019700040F4F0E0E058FF4F808190E00E94FF04C7
:10198000D5CFC85ACB3190F6EC2FF0E0EE0FFF1F09
:10199000ED57FF4F808191810E94DA04C7CFA6E006
:1019A000B0E0E5EDFCE00C94211F49835A834981A6
:1019B0005A819923A1F0222391F0CA010E94260B9B
:1019C000182F682F89819A810E949A0B69817A81E8
:1019D000812F0E94B0092696E3E00C943D1FCA01B6
:1019E0000E94670B182FF2CFCF93DF9380915302A1
:1019F000835087FD53C090915102CCE0D0E0C91BC9
:101A0000D109CA5ADD4F90915002903108F444C078
:101A10009D3209F00DC1883009F03EC083EC8093FF
:101A20002C028AE580937F001092EC0188818076F9
:101A300009F4B0C0803259F48981833009F49AC026
:101A400040F4813009F479C0823009F48BC080E021
:101A500080C08A3009F491C08B3009F492C089307B
:101A6000B1F78A819B818115924069F48C819D81B7
:101A7000892B49F481E08093EB018E819F819093C3
:101A8000EA018093E901888187FFD0C08E8190E8C8
:101A90009093EC0180937E001092530280917F001E
:101AA00084FF3EC080917E008F3FD1F1C82F8930E6
:101AB00008F0C8E0982F9C1B90937E0090912C0218
:101AC00028E8922790932C028823E9F08091ED0179
:101AD0009091EE012091EC0126FFC6C0FC012C2F55
:101AE000ADE2B2E034913D9331962150D9F79C019B
:101AF0002F5F3F4F8FEF8C0F820F932F911D90938D
:101B0000EE018093ED016C2F8DE292E00E94D502F0
:101B1000CC5FCC3019F08FEF80937E00C0937F00B4
:101B200084E190B39C7031F48150D9F71092540243
:101B300010924F02DF91CF9108958C819D81892B66
:101B400009F085CF8FED91E09093EE018093ED0148
:101B500088E09F8191119ECF9E81981708F09ACFBF
:101B6000892F98CF8EED91E09093EE018093ED0157
:101B700081E0EFCF8DE790E0F7CF8B818093DE019E
:101B800066CF8C819D81892B09F061CF8A818093FA
:101B90007D005DCF2A8110923502998191110AC092
:101BA0001092360225E332E082E03093EE0120937A
:101BB000ED01CFCF953029F42093540225E332E094
:101BC000F4CF9630C9F49B81913051F4CE010E943C
:101BD000520490E49093EC018F3F09F454CFB9CFB5
:101BE0009230A1F3933091F3913281F3923271F3F9
:101BF00090E49093EC01ADCF983089F0993019F4CE
:101C00002093E701DBCF9A3071F09B30B9F69BE46B
:101C10009093380290936D0290934402CFCF27EEB9
:101C200031E081E0C2CF25E332E0FBCF8FEF2FCF51
:101C30008091EC0187FF30CF8091E9019091EA011A
:101C4000892B71F08091EB01813051F48881809370
:101C5000E8011092EA011092E90110927E001CCF77
:101C60008EE180937F0018CFDC012C2FEDE2F2E0B3
:101C70003D9131932150E1F73ACF1F93CF93DF93FA
:101C8000E82F792F162FEA01888184FF1CC0298153
:101C900088E828272983CE010296DC012E2F372FD2
:101CA000512F5E0FF90121912D939F01452F4E1B5E
:101CB0001416C4F3612F0E94D5021C5F1883DF91B4
:101CC000CF911F9108958AE58883E5CFFF920F9306
:101CD0001F93CF93DF93D82F8B01F42EC5E0D13023
:101CE00039F0D33081F0CDB7DEB7E5E00C943B1F7F
:101CF0008091370284FF0EC047E352E06F2DC80188
:101D00000E943D0EF0CF80916C0284FF03C04CE630
:101D100052E0F4CF0E94F40C87E99AE30197F1F7BF
:101D200000C00000C150D9F6DECFB0E0A0E0EBE982
:101D3000FEE00C941C1FE82E8B01EA016A0183E08F
:101D4000D694C7948A95E1F7F12CFC141D0468F031
:101D5000C77031F04C2F50E0B8018E2D0E94660EF6
:101D6000CDB7DEB7E8E00C94381F48E050E0B8018A
:101D70008E2D0E94660E085F1F4FF394E6CF43E05E
:101D800050E0BC0183E00E94950E0895CF93DF934D
:101D9000EC0148E050E0BC0181E00E94950E88E033
:101DA000FE01AFEDB1E001900D928A95E1F7DF9170
:101DB000CF91089560E081E090E00E948F2088E15B
:101DC0009CE00FB6F894A89581BD0FBE91BDFFCFE2
:101DD0000F931F93CF93DF938C01EB018091D00180
:101DE000811105C00E94811E81E08093D001AE0167
:101DF000440F551F4C0F5D1F24E630E0B80180EB07
:101E00000E94BB1EDF91CF911F910F910895682F03
:101E100086E090E00E946C20089586E090E00E94A9
:101E200048208093CC0182FD05C085E68093CC01DB
:101E30000E94070F8091CC01883620F08770806661
:101E40008093CC019091CC01892F817090FF04C0C8
:101E5000892F8695869586950E949D050895B0E008
:101E6000A0E0E5E3FFE00C94141FFC0162804480D5
:101E700081E08483E6EDF2E07490E5E5F3E0E4913F
:101E80000091C7010695015810E0000F111F012FA6
:101E90001127C8E8D1E024E6C22E21E0D22E34EC8E
:101EA000832E31E0932EAA24AA94B12C55245A945F
:101EB000E719EE2EF12C82E0861530F08091C501F5
:101EC00088838091C6018983411016C01B821A82C3
:101ED00096014A81698188810E940C06259683E0DB
:101EE000C80ED11C8C169D0631F70E94D705CDB7C0
:101EF000DEB7E0E10C94301F8B818823E9F081503C
:101F00008B83859DC00111246C8170E00E94FE1EB0
:101F1000FB01FF27EA52FD4F8491E82FE719E59D69
:101F2000C0011124B7010E94FE1E8091C701689F65
:101F3000B00111247A83CCCF0E941E20B5010E94EB
:101F4000731F8017910724F682E0861588F40E949B
:101F50001E20B5010E94731F88830E941E202091BD
:101F6000C6012695622F70E00E94731F280F2983F7
:101F70001A828091C701893C20F088EC8C838B8386
:101F8000A7CF8431D8F784E1F9CFB0E0A0E0EBEC43
:101F9000FFE00C94181F49015A016B017C010E945B
:101FA000FD058401A4016A2D7B2D88E090E00E944C
:101FB0007D2094014A2D5B2DB601C70100E20E94ED
:101FC000B71F622F84E290E00E946C20CDB7DEB78D
:101FD000ECE00C94341FA3E0B0E0E1EFFFE00C94E0
:101FE000151FF82E762EE42E622E9091C40190FFDC
:101FF0002FC0E92FE695E695AE2FB0E0A653BF4F70
:102000008C9180935F019C7F943031F59E012F5F0E
:102010003F4F8F2D0E940C064B8169818A810E945F
:10202000EC05F092C5017092C601E092C7016620EE
:1020300079F02091C4016091C8017091C9013F2DD0
:10204000472D5E2D8091CA019091CB010E94C50F52
:102050002396EFE00C94311F823019F4E090C70111
:10206000E0CF863019F4F090C501DBCF8930D9F389
:102070008931B9F6E9518E2F8170582EE695F0E03E
:10208000EF52FD4FE4910E2F10E084E6C82E81E060
:10209000D82EB12CA12C9CE0892E912CC501B40125
:1020A0000E94FE1E8F2D511013C0860F96014E2DDB
:1020B000672D0E940C06A00EB11E83E0C80ED11C35
:1020C00088E8C81681E0D80649F70E94D705A9CF4D
:1020D000861BECCFE4ECF1E0438122E1421B08F4E3
:1020E00040E021E0628181810E94EB0F0895E4ECE1
:1020F000F1E0438122E1420F08F44FEF21E06281D9
:1021000081810E94EB0F0895E4ECF1E062812FE001
:10211000621B08F460E021E0438181810E94EB0FA3
:102120000895E4ECF1E062812FE0620F08F46FEFB4
:1021300021E0438181810E94EB0F0895E4ECF1E0FE
:10214000818121E0438162818C500E94EB0F0895D0
:10215000E4ECF1E0818121E043816281845F0E94AF
:10216000EB0F08958091C801882319F08150809366
:10217000C8012091C4013091C5014091C601509120
:10218000C7016091C8017091C9018091CA01909105
:10219000CB010E94C50F08958091C801833018F4C7
:1021A0008F5F8093C8012091C4013091C501409197
:1021B000C6015091C7016091C8017091C901809119
:1021C000CA019091CB010E94C50F089590914101E1
:1021D00092FB222720F9281779F080FB92F990933F
:1021E0004101609140017091410184E090E00E94C2
:1021F000892082E00E94E70B089510922C01EAEFFB
:10220000F0E086E0DF011D928A95E9F790E080E03A
:102210000E94FF0490E080E00E94DA0410922B01FB
:102220000E94F40A08950E94FD102FEB87E299E0C6
:10223000215080409040E1F700C0000088E19CE020
:102240000FB6F894A89581BD0FBE91BDFFCF7894CD
:102250001F921FB61F9211248F939F93AF93BF932A
:102260008091D7019091D801A091D901B091DA0164
:102270000196A11DB11D8093D7019093D801A09321
:10228000D901B093DA01BF91AF919F918F911F90C7
:102290001FBE1F9018959C014FB7F8948091D701ED
:1022A0009091D801A091D901B091DA014FBF821B62
:1022B000930B08952FB7F8948091D7019091D8018E
:1022C000A091D901B091DA012FBF08950F931F9308
:1022D000CF93DF93C62FD42F022FFC018581882353
:1022E000A9F060932B020E945A1190932A028093C6
:1022F0002902C77081E001C0880FCA95EAF70E94E1
:102300003D0CDF91CF911F910F91089580912B0289
:10231000681335C08091290290912A020E944B11C6
:10232000883C910560F510E21D0FCD17B9F080E2F1
:102330008C0F883040F4C77081E001C0880FCA95C7
:10234000EAF70E94360C183048F481E09D2F977010
:1023500001C0880F9A95EAF70E943D0C802F0E94D9
:102360007C0C802F0E94470C183058F6D77081E003
:1023700001C0880FDA95EAF70E94360CC2CFC77009
:1023800081E001C0880FCA95EAF7F6CF809152022A
:10239000882369F0109252020E945A119093DD0135
:1023A0008093DC011092DB018091DB010895809124
:1023B000DB018111F9CF8091DC019091DD010E9458
:1023C0004B11069788F381E08093DB01EDCF90916C
:1023D000C40190FF35C09370811133C09460909315
:1023E000C401662391F02091C4013091C501409150
:1023F000C6015091C7016091C8017091C9018091D7
:10240000CA019091CB010E94C50F6091C4016695ED
:10241000669570E04BE050E08EE690E00E942E2042
:10242000892BB9F01092600181E080935C0120E07B
:102430004091C7016091C6018091C5010E94EB0FD8
:1024400008958B3210F0986ACACF880F880F982BA6
:10245000C6CF81E0809360010E945A1190935A0187
:1024600080935901E1CF8091C40186958695815072
:1024700009F48AE261E00E94E71108958091C401A5
:10248000869586958F5F8B3208F081E061E00E942F
:10249000E71108959091C40190FF09C09695969513
:1024A000981728F0961718F40E943E12089561E0DC
:1024B0000E94E7110895B0E0A0E0E1E6F2E10C949B
:1024C0001A1F8C01FC018481882371F121E0408175
:1024D00051816281738195810E94CF0CEC01F801DA
:1024E0008581FE01882309F4DBC4F857E730F10544
:1024F00008F0DFC4EF5EFE4D0C94871F8CE00E9455
:10250000BA058091CC010E94070F80912901877044
:1025100059F0F8018581882339F08091410182FFCB
:1025200003C082E00E94E70BCDB7DEB7EAE00C946F
:10253000361F80E0E4CF8091CC01982F987F79F00E
:1025400088508093CC01887F91E009F490E08091DD
:10255000CC0190FB80F98093CC010E94070F809101
:10256000CC018695869586951EC08091CC01982FCA
:102570009695969596959C3040F49F5F990F990F8C
:10258000990F8770892B8093CC018091CC01816059
:10259000E2CF8091CC0180FF09C08E7F8093CC0177
:1025A0000E94070F80E00E949D05AFCF80FDADCF58
:1025B00081608093CC01813019F489E08093CC0153
:1025C0008091CC01CACF9091CC01892F86958695B8
:1025D00086958F5F8F7197708D3048F4880F880FC4
:1025E000880F892B8093CC018091CC01ACCF909344
:1025F000CC01FACF8091CC0181FF09C08D7F8093FF
:10260000CC010E94070F89B78B7F89BFA8CF81FDBE
:102610007CCF82608093CC010E94070F1092CF0183
:102620001092CE011092CD0189B7846089BF6DCF21
:1026300026E241EE61EEC8010E94661166CF27E2F4
:1026400045EE65EEF8CF26E241EE60EEF4CF27E2EC
:1026500045EE64EEF0CF26E241EE62EEECCF27E2EB
:1026600045EE66EEE8CF28E241E0EBCF80914001F5
:1026700081608093400195C0809141018860809382
:1026800041018FC0809140018260F3CF8091400171
:102690008460EFCF809140018860EBCF8091410151
:1026A0008160EDCF809141018260E9CF809140014E
:1026B0008061DFCF809140018062DBCF809140015B
:1026C0008064D7CF0E94FD10809140018068D1CFF7
:1026D000809140018C60CDCF809141018360CFCF4C
:1026E000809140018E7FC5CF80914101877FC7CF08
:1026F000809140018D7FBDCF809140018B7FB9CF0C
:1027000080914001877FB5CF809141018E7FB7CF07
:10271000809141018D7FB3CF809140018F7EA9CF01
:10272000809140018F7DA5CF809140018F7BA1CF0B
:102730000E94FD10809140018F779BCF80914001D6
:10274000837F97CF809141018C7F99CF8091400109
:1027500082FB992790F921E0922790FB82F990FB68
:1027600083F987CF80914101982F909591708E7F4A
:10277000892B90FB81F983CF90914001892F8F7B2A
:1027800096FF806476CF0E94FD1090914001892FC2
:1027900097FB87F980586DCF61E08EE090E00E9452
:1027A0006C20609140017091410184E090E00E94B2
:1027B00089200E94FD10A9CE60E0EFCF90914001EA
:1027C000892F8F7E94FF806154CF90914001892F93
:1027D0008E7F90FF81604DCF90914101892F877F3F
:1027E00093FF88604CCF8091000181110FC089E276
:1027F000EAEFF0E020E031E09191891303C0DF01BE
:1028000011971C922E173F07B9F714C385E3F0CF39
:102810008091C40180FF19C0282F2E7F2093C4010E
:102820003091C5014091C6015091C7016091C80126
:102830007091C9018091CA019091CB010E94C50F8E
:10284000109260010E94D70560CE81608093C40120
:1028500061E0869586950E94E71157CE43E352E1E9
:102860006EE372E10E94D10550CE4EE352E163E384
:1028700072E1F8CF4EE950E168EA70E1F3CF48EA3F
:1028800050E16EE970E1EECF44E850E161E970E1BA
:10289000E9CF41E950E164E870E1E4CF4AE650E174
:1028A00067E770E1DFCF47E750E16AE670E1DACF32
:1028B00042EB50E16CEC70E1D5CF4CEC50E162EBB7
:1028C00070E1D0CF61E081E0C6CF65E082E00E9498
:1028D0004A121BCE68E086E0FACF6EE089E0F7CFBF
:1028E00064E18FE0F4CF67E185E1F1CF61E088E159
:1028F000B2CF62E289E1EBCF61E083E2ACCF6AE282
:1029000085E2E5CF0E94FD10FFEB27E239E0F150B0
:1029100020403040E1F700C000000E94DA0E6FEF67
:102920007FEF90E080E00E9489200E941311809147
:10293000410182FB882780F991E089270E94E610F7
:10294000F8018581C081D181882309F44DC0CE0171
:102950000E94260BF82E682FCE010E949A0BBE0112
:102960008F2D0E94B0090E94CF09D82FC92FA82E01
:10297000F801C580B680B2943FE0B322809129016E
:10298000877009F1FC2CCC20F9F0892F807F8034EE
:1029900069F080E28D0F8830B0F0892F807E803220
:1029A00029F4F1E0FD1778F4BB2069F08091410132
:1029B00082FF09C082E00E94E70B809129018770A5
:1029C000FF24F3948111F12CEC2EE2942FE0E2220B
:1029D0002BE02E1508F46DC0EE2DF0E0E85EFE4D04
:1029E0000C94871F80E0AACFCE010E94670BF82EBF
:1029F000B6CF3C2F3F70D32EC07F19F0D29490EF0A
:102A0000D922CC20B9F0DD2069F080E28D0F88302A
:102A100010F0A11009C080912C01D82AD0922C016D
:102A20000E94F40A8D2F43C080912B01D82AD092A6
:102A30002B01F6CF8D2F0E94470CDD20D1F1D05E07
:102A4000D83010F0A11004C08D2D0E94ED0A06C0F0
:102A5000D09480912B01D822D0922B010E94F40AAD
:102A600028C08C2F8F70D82EC07FC03219F0D2941E
:102A700080EFD822AA2059F091E0A91609F479C074
:102A8000CC2009F485C0BB2009F447C0CBCF80918E
:102A9000410182FD3EC0CC20B1F1DD2039F08091B2
:102AA0002C01D82AD0922C010E94F40A80E00E94C6
:102AB0007C0C2E2D2850330B2430310510F40E944D
:102AC0002405FF20A9F08091290180FD11C0F801A3
:102AD00015828695869586950E94FE0BC8010E94F8
:102AE0005B12809129018695869586950E94D50B6B
:102AF00020E0F80140815181628173818481958158
:102B00000E94CF0C11CD80E00E94470CDD2089F29D
:102B10009BCFCC20A1F0B11004C08D2D0E943D0CA4
:102B2000C8CFE1E0BE12C5CF80912A019D2D982328
:102B3000D91609F4BECFD82AD0922A01BACFB11043
:102B4000B8CF8D2D0E94360C90912A018D2D8923AE
:102B500029F08D2D8095892380932A018091010190
:102B60009D2D982309F4A5CFD094D822D0920101AD
:102B7000A0CFCC2029F0F5E0FB1508F49ACFCDCFFB
:102B800024E02B1508F495CF8D2D0E94360C91CFA3
:102B9000BB20D1F339E3A31209C08FEF9DEEE2E031
:102BA00081509040E040E1F700C000008D2F0E946E
:102BB000470C7FCF8C2F86958695837069F0813086
:102BC00009F077CF8D2F9C2F9370C11002C080E049
:102BD00090E00E94DA046DCF8D2F9C2F9370C1106E
:102BE00002C080E090E00E94FF0463CF8C2F8370CE
:102BF00009F03FC0C1105DCF4D2F429546954770FB
:102C0000440F440F2D2F2F7030E0042E02C0220FEE
:102C1000331F0A94E2F790E080E0D4FF09C08FE010
:102C200090E002C0880F991F4A95E2F78095909531
:102C3000C695C695C370C23099F078F440913C01B6
:102C400050913D01C13039F0822B932B8423952381
:102C50000E940E0C2ECF242B352B822B932BF8CFDA
:102C6000822B932B20913C0130913D0182279327A9
:102C7000EFCF8695CC2011F08C2F8170882309F43A
:102C800018CF4D2F429546954770440F440F2D2F76
:102C90002F7030E0042E02C0220F331F0A94E2F797
:102CA00090E080E0D4FF09C08FE090E002C0880F80
:102CB000991F4A95E2F780959095C695C695C37081
:102CC000C23099F078F440913E0150913F01C130FB
:102CD00039F0822B932B842395230E94D00BE9CECD
:102CE000242B352B822B932BF8CF822B932B2091E7
:102CF0003E0130913F0182279327EFCFCF70CC2048
:102D000029F08C2F0E94FE0B8D2F08CF8D2F0E9453
:102D1000360C8C2F0E94D50BCCCE8D2FF2EFAF1638
:102D200099F1FA1570F020EFA216D1F031EFA31649
:102D300091F0CC2009F45BC0B11074CE8C2F8F7150
:102D400027C093EFA91639F1E4EFAE12F2CF8091CC
:102D5000410182FD2EC08C2F8F71CC20D9F218C07A
:102D6000CC2069F0F4E0FB1508F4A3CECF7181E02C
:102D700090E002C0880F991FCA95E2F7B8CF25E00E
:102D80002B1508F496CEF2CF8C2F8F71C110C2CFC5
:102D90000E94FE0B8ECE90E080E0CC2009F49DCF07
:102DA000CF7181E090E002C0880F991FCA95E2F7C9
:102DB00094CFCC2089F0CF718C2F0E94FE0B809194
:102DC000410182FF07C038E0C39FC0011124836026
:102DD000809329018C2FDCCF81E00E94E70B81E0FA
:102DE0008B1508F066CE82E00E94E70B62CEBB2016
:102DF00059F0893309F0DACE9FEFEDEEF2E0915011
:102E0000E040F040E1F7D0CE8C2F8F7183CFC631F8
:102E1000FCE7DF0729F580912C018A7A91E009F41B
:102E200090E09093000169E2811165E388EF90E002
:102E30000E94C0040E94F40A68CBC6312CE7D20776
:102E400009F4D1CC80912C018272FE01E052F84746
:102E5000E531F10508F074CDEC5DFE4D0C94871F53
:102E6000C3303CE7D30709F45ACD50F4C1159CE7B1
:102E7000D90709F447CDC130DC4709F456CD60CD00
:102E8000CB35FCE7DF0709F4ADCDCC352CE7D20715
:102E900009F44DCDCA35DC4709F052CD81E04ECD65
:102EA000E851FC47E730F10540F6E75CFE4D0C9435
:102EB000871FFE01E851FC47E730F105B0F310929F
:102EC0002B02CE019057839708F0A1CF84E090E0C9
:102ED0000E9456209093410180934001FE01E150F1
:102EE000F047E232F10508F0C1CBE05CFE4D0C94F6
:102EF000871FCF93DF9380912801807F09F04DC019
:102F000080912701882309F448C0E091280250915C
:102F1000EF01C0912301D0912201609124017091B1
:102F2000250147E05E17C9F18E2F90E0E49FF00184
:102F30001124E051FE4F2481222391F1489FF0019A
:102F4000499FF00D1124DF01A051BE4F11962C9125
:102F500011972C1325C02C912D1322C015962C915E
:102F6000159721111DC012962D913C91261B370BF0
:102F7000283C3105A8F4809128018F7080618093EE
:102F80002801EA50FE4F80818F708061808382E249
:102F900091E00E945B120E941C0BDF91CF9108957B
:102FA000FC013196E770BECFA4E1B0E0EAEDF7E1B5
:102FB0000C94181F8C0186E0F801DE011F96019029
:102FC0000D928A95E1F7F8018481E58092E2A92EBD
:102FD00091E0B92E90912601911128C0882319F112
:102FE000EE20F1F0C8010E94130CF82E8823C1F0E6
:102FF00087E0F801D50101900D928A95E1F7809163
:103000002601813031F480912201909123010E94A8
:103010005A0B0E9479178F2D6496ECE00C94341FA4
:10302000C8010E945B12FF24F394F5CFD080C180C9
:1030300082809380F0902701209124013091250116
:10304000A401421B530BFF2009F4D9C0483C510591
:1030500008F092C08823F9F2909123018091280111
:10306000282F207F09F056C0C91214C09091220168
:10307000D91210C0E11048C08F7080618093280180
:1030800082E291E00E945B1280912801F801868320
:10309000F12CC1CFE11038C06C2D8D2D0E9433046E
:1030A0006C2D8D2D0E943304E82E8111F1CFDF8627
:1030B000C88A8F8598890E945A0B292F22952F70D4
:1030C000243058F49F70223088F0992399F0F80149
:1030D0009681907F79F4FE2C9ECF2A5F2F7022304C
:1030E00068F0C8010E945B12EF2CF5CF992311F014
:1030F000882389F3805E883070F3F3CF803F58F3E4
:10310000815F833070F7E7CF8091280181608093E1
:103110002801BECFC91207C090912201D91203C065
:10312000EE2009F48DC0C8010E94130C882309F415
:1031300077CFEE2009F474CF80912801803288F097
:103140002091220130912301398728879B868A8626
:10315000909126019C871D868E87CE0108960E943D
:103160005B1287E0F801A2E2B1E001900D928A952E
:10317000E1F70E94791757CF90912801292F207FDE
:1031800051F482E291E00E945B1287E0F501119216
:103190008A95E9F77DCF882309F43DCF80912301FB
:1031A0008C1110C080912201D8120CC0E1100AC00D
:1031B0009683C8010E945B1287E0F50111928A95FF
:1031C000E9F729CFC8010E94130C882309F428CFFE
:1031D000EE2009F425CF80912801803210F2209151
:1031E0002201309123013A8329839C828B82909122
:1031F00026019D831E828F83CE010196B0CF483C6D
:103200005105D0F6882309F40ECFFE2CEE2009F4E8
:1032100007CF809123018C1120C080912201D81208
:103220001CC08091280180FD0FC0982F907F61F015
:103230008683903F31F0982F907F905F8F70892B1D
:103240008683C8010E945B1287E0F801A2E2B1E028
:1032500001900D928A95E1F7DECEC8010E94130C11
:1032600081117FCF80912801816080932801C8015E
:103270000E945B12D0CEABE1B0E0E1E4F9E10C9446
:10328000201F4E8B5F8B688F798F8A8F9B8F192FB2
:10329000911110922B011D8A86E0FE017696DE01C7
:1032A0001F9601900D928A95E1F70A8D002341F057
:1032B00021E04F85588969897A89C8010E94CF0C1D
:1032C0000B8B1C8B87E0FE013F96DE011896019068
:1032D0000D928A95E1F7CE0108960E94D4178111CC
:1032E0002AC087E0FE013896DE01119601900D920A
:1032F0008A95E1F78C858823F1F02091EF0130E089
:10330000C90101968770992740912802481719062C
:10331000E9F097E0929FD001939FB00D1124A05146
:10332000BE4FFE01319601900D929A95E1F7809380
:10333000EF010E941C0B17E0809128029091EF0191
:10334000891312C06B96E4E00C943C1F0E94FD10A0
:103350001092EF011092280287E0E2E2F1E0DF0133
:103360001D928A95E9F7E7CF819FC0011124805112
:103370009E4F0E94D417882329F38091280290E061
:1033800001968770992780932802D6CFAAE0B0E0F3
:10339000ECECF9E10C94141F8E010F5F1F4F8AE0D3
:1033A000F80111928A95E9F799EBE92E90E0F92E50
:1033B00068012EEB422E20E0522E66246394712C7D
:1033C0004AEC842E40E0942EF70181917F018F3FDB
:1033D00009F445C0F894E82FE295EF70F0E021A9D8
:1033E0008F70A30102C0440F551F8A95E2F7CA01EE
:1033F000922F982B91AB92A98095892382AB7894D8
:1034000000C0EEEBF0E021E030E0B12CA12C4191C6
:103410004F3F09F44BC0A42FA295AF70B0E0D096F7
:103420008C9190E04F7002C0959587954A95E2F790
:1034300080FD3CC0C901A82AB92A220F331F8E166D
:103440009F0629F7F701319780818F3F11F00E9485
:10345000A80858E75A95F1F7F601B182A082F2E088
:10346000CF0ED11C4E145F0409F0AECF4AE050E0FD
:10347000B80182E391E00E943B20892BE1F08AE0D1
:10348000F801A2E3B1E001900D928A95E1F781E0A5
:10349000809331010E945A119093300180932F0143
:1034A00010E0812F2A96E0E10C94301F90E080E03C
:1034B000C2CF10E01FC010913101112389F3809118
:1034C0002F01909130010E944B11059748F34AE07B
:1034D00050E062E371E083E491E00E943B20892B9D
:1034E00041F38AE0E2E3F1E0A3E4B1E001900D9260
:1034F0008A95E1F710923101D4CFA6E0B0E0E3E87D
:10350000FAE10C94201F0E945A118C0180912D0128
:1035100090912E018017910781F019821A820E94E2
:103520005A11682F49815A81792F80E090E00E94DA
:103530003B1910932E0100932D012696E4E00C9484
:103540003C1F1F920F920FB60F9211242F933F939F
:103550004F935F936F937F938F939F93AF93BF939B
:10356000EF93FF9380917C008130A1F08F5F809377
:103570007C00FF91EF91BF91AF919F918F917F91CF
:103580006F915F914F913F912F910F900FBE0F90D0
:103590001F9018958091CE019091CF01019660ED1A
:1035A00072E00E94FE1E9093CF018093CE0165E0F1
:1035B00070E00E94FE1E67FD6FE78091CD018230B2
:1035C00031F4603441F489B78B7F89BF04C0813006
:1035D00011F46F37C1F3E62FF0E0EA52FC4F24916B
:1035E000A6B5B7B530E00E9400212FEF30E040E0F3
:1035F00050E00E94DE20C9016CE070E00E94FE1ED7
:103600008091CC01869586958695282F269FC001AE
:10361000279F900D11240E94310599BD88BDA9CF27
:10362000CDB7DEB728970FB6F894DEBF0FBECDBF7B
:1036300084B7806884BF84B7806884BF0E945A11B1
:103640009093DD018093DC0186EA98E09093F70087
:103650008093F60085B7886085BF8BB780688BBF85
:103660008BE48093380280936D02809344028AE554
:103670008093370280936C02809343028B9A80E0A0
:10368000815009F0C8C08B9878948BE083BF8BEB96
:103690008CBF82E089BF09EB10E0F80181918F01B6
:1036A0008F3F11F00E94A808F0E00E3B1F07A9F71A
:1036B0000EEB10E02AECE22E20E0F22ED8018D91E4
:1036C0008D018F3F11F00E94A808E016F106B1F7B6
:1036D0008AE0E3E4F1E0DF01282F1D922A95E9F763
:1036E000E2E3F1E0DF011D928A95E9F790E080E0E6
:1036F0000E945620863E9E4F09F466C066EE7EEF1D
:1037000090E080E00E94892060E082E090E00E94EA
:103710006C2081E090E090933D0180933C0161E05A
:1037200083E090E00E946C2060E074E184E090E02F
:103730000E94892060E086E090E00E946C2060E0BA
:1037400087E090E00E946C2040E050E0BA0188E001
:1037500090E00E947D2060E084E290E00E946C2076
:1037600060E087E190E00E946C2060E08CE090E0F7
:103770000E946C2060E08DE090E00E946C20198235
:103780001A821B821C821D821E821F82188648E0BC
:1037900050E068E170E0CE0101960E945C2040E0BC
:1037A00050E0BA0180E290E00E947D2040E050E0CD
:1037B000BA018FE090E00E947D2040E050E0BA0125
:1037C00083E190E00E947D2082E090E00E9448200A
:1037D00080934D0184E090E00E9456209093410137
:1037E000809340010E94C619EFE3F9E121E0E15026
:1037F000F0402040E1F700C000000E94C61980910F
:10380000430180FF10C06FEF7FEF90E080E00E94E7
:1038100089200E94DA0EA895A7EBBBE01197F1F77B
:1038200000C000002DCF83E090E00E94482090E08F
:103830000E940E0C8C9A949882E28FBD89E18EBD15
:103840008FEF9FEF97BD86BD0E940D0F8091CC0139
:1038500081FF09C01092CF011092CE011092CD01CC
:1038600089B7846089BF0E940D0F80914201811148
:103870007EC088E090E00E9450204B015C0184E211
:1038800090E00E944820282F30E040E050E060E0C7
:1038900070E080E090E000E20E949C1F2829392916
:1038A0004A295B292093C4013093C5014093C60186
:1038B0005093C7016093C8017093C9018093CA01F6
:1038C0009093CB012C7F09F042C025E02093C401E6
:1038D0001092C5012FEF2093C6012093C7011092CB
:1038E000C80125E030E04FEF5FEF60E00E94C50FB8
:1038F00088E090E00E9450206B017C0184E290E01F
:103900000E944820282F30E040E050E060E070E066
:1039100080E090E00E949C1FB22FA32FF42FE52F90
:103920005B0197018601BC29A12BFE29E32BB093F3
:10393000C401A093C501F093C601E093C701609351
:10394000C801B092C9018093CA019093CB010E9433
:10395000FD05109260018091C40180FF05C060E008
:10396000869586950E94E71181E08093420184E666
:1039700090E09093D4018093D3013FEB84ED91E0EC
:10398000315080409040E1F700C000008CE0582E9C
:1039900098E5692E91E0792E442443940E94C61143
:1039A00081117CC00E94F40C8091E7018823B1F35F
:1039B0008091370284FFF2CF0E94C6191EE4A12E27
:1039C00011E0B12E03E4802E01E0902ED401F50128
:1039D000219131918D919D916E167F0609F469C0F8
:1039E00028173907A9F3312CF401019111914F01E6
:1039F000D501CD90DD905D01C016D10659F1212C85
:103A0000EE24E394F12CC026D126C6018E219F21FD
:103A1000892BB1F029823A820E945A119C838B83B0
:103A20004D8291E0970120233123232B09F490E06C
:103A30009E8349815A816B817C818D810E943B19D3
:103A40002394EE0CFF1CBCE02B12DFCFF501329764
:103A5000118300833394E5E03E12C6CF8FB7F8940C
:103A60004091D7015091D8016091D9017091DA014C
:103A70008FBF25C08091DB01882319F080E00E9470
:103A8000BA050E94C619E3E4F1E081919191892B76
:103A900009F0D5C0A1E0ED34FA07B9F70E94C611CC
:103AA0008111E8CF0E94FD100E940D0F0E94240595
:103AB00079CF2817390709F096CF0E947D1A809197
:103AC00060018823D9F180915F01E091C401E695FE
:103AD000E695E81BE0935B01823009F044C0F0E01A
:103AE000E353FE4FE4910E2F10E0FAECEF2EF6E0D8
:103AF000FF2E80915C01882361F010925C010E948E
:103B00005A1190935A018093590110925E011092BC
:103B10005D010E945A11E0915901F0915A018E1BEA
:103B20009F0B8F3F9F4750F4E00FF11FF0935A0116
:103B3000E093590189E591E0F70109950E94240578
:103B400090915801891709F429CF809358018FB7B4
:103B5000F8944091D7015091D8016091D9017091AA
:103B6000DA018FBF1BCF863059F4F0E0E653FE4FE9
:103B7000E4910E2F10E0EAEBEE2EE6E0FE2EB9CF38
:103B8000893061F4E695F0E0E953FE4FE4910E2FA1
:103B900010E07CE7E72E78E0F72EABCF8F3061F4B2
:103BA000E695F0E0EC53FE4FE4910E2F10E067E154
:103BB000E62E68E0F62E9DCF853159F4F0E0EF5304
:103BC000FE4FE4910E2F10E059ECE52E57E0F52E54
:103BD00090CF08E210E02EE4E22E27E0F22E8831AA
:103BE00009F487CF833249F4EFEBF1E005911491AA
:103BF00045E1E42E47E0F42E7CCF04EF11E09EED8A
:103C0000E92E96E0F92E843209F473CF853281F4DF
:103C10008E2F63E00E94591FE92FF0E0E454FE4F1D
:103C2000E4910E2F10E03FE2E32E3FE0F32E61CF50
:103C300000ED17E08AEBE82E84E0F82E5ACFF894D6
:103C400091B3939A892F8C6081BB82B3852582BB07
:103C5000FFE52AEE30E0F15020403040E1F700C0AF
:103C6000000082B3852582BB91BB9398789416CFD0
:103C7000EF92FF920F931F93CF93DF93182FEB01D7
:103C800016BE84EA86BF0E945A117C0106B607FE62
:103C900021C081B1887F883021F081B1887F803157
:103CA00069F513B984E886BF0E945A118C0106B6E3
:103CB00007FE1DC021B1287F90E080E0283191F0FF
:103CC00081E090E0203411F490E080E091958195BE
:103CD000910908C0C7010E944B11C817D907B0F657
:103CE0008EEF9FEFCDB7DEB7E6E00C943A1FC80128
:103CF0000E944B11C817D907D0F6F2CF8FEF9FEF74
:103D0000F1CF11B887E080B985B3836085BB86B7F2
:103D1000846086BF86B7816086BF86B7806486BFB1
:103D200008950F931F93CF93DF93EB0183B984E83A
:103D300086BF0E945A118C0106B607FE10C021B141
:103D4000287F81E090E0283211F490E080E09195A6
:103D500081959109DF91CF911F910F910895CF3FE8
:103D6000DC0751F3C8010E944B11C817D90720F78F
:103D70008EEF9FEFEFCFB0E0A0E0E1ECFEE10C941E
:103D8000171F782E5B016A0189010E945A114C01AC
:103D9000C1E0D0E00431110558F0C5E0D0E00F3F9C
:103DA000100731F0C80164E170E00E94FE1EEB01D3
:103DB000BE01872D0E94381E7C0197FF09C00F3F6E
:103DC0001007B1F3C4010E944B110817190780F7BF
:103DD000E501CA0CDB1CCC15DD0511F0F7FE08C0AF
:103DE00084E986BFC701CDB7DEB7EDE00C94331F81
:103DF000B80189910E94911E7C01EDCFAA1BBB1BCB
:103E000051E107C0AA1FBB1FA617B70710F0A61BDA
:103E1000B70B881F991F5A95A9F780959095BC01FB
:103E2000CD0108952F923F924F925F926F927F92B1
:103E30008F929F92AF92BF92CF92DF92EF92FF92BA
:103E40000F931F93CF93DF93CDB7DEB7CA1BDB0B66
:103E50000FB6F894DEBF0FBECDBF09942A8839880B
:103E600048885F846E847D848C849B84AA84B98412
:103E7000C884DF80EE80FD800C811B81AA81B9811E
:103E8000CE0FD11D0FB6F894DEBF0FBECDBFED0132
:103E90000895DB018F939F930E94CB20BF91AF9138
:103EA000A29F800D911DA39F900DB29F900D112494
:103EB0000895991B79E004C0991F961708F0961B86
:103EC000881F7A95C9F78095089587FB082E0626E6
:103ED00087FD819567FD61950E94591F0EF49195AC
:103EE00007FC8195089597FB072E16F4009407D0E0
:103EF00077FD09D00E94FE1E07FC05D03EF4909588
:103F000081959F4F0895709561957F4F0895EE0FAD
:103F1000FF1F0590F491E02D09940E9400213323A6
:103F200012F48A1B9B0B0C94971F0E940021B7FF71
:103F30000895821B930B0895002E083090F0982F5F
:103F4000872F762F652F542F432F322F222708508B
:103F5000F4CF220F331F441F551F661F771F881F82
:103F6000991F0A95B2F7002D089597FD1094002E21
:103F7000083098F00850232F342F452F562F672FE5
:103F8000782F892F912DF4CF159497958795779554
:103F9000679557954795379527950A95AAF7112460
:103FA000002D08958F929F92AF92BF92CF92DF9291
:103FB000EF92FF92CF93DF93EC01688179818A8140
:103FC0009B81611571058105910521F464E279ED0C
:103FD0008BE597E02DE133EF41E050E00E94AC200B
:103FE00049015A019B01AC01A7EAB1E40E94CB2030
:103FF0006B017C01ACEEB4EFA50194010E94D920C5
:10400000DC01CB018C0D9D1DAE1DBF1DB7FF03C094
:104010000197A109B04888839983AA83BB839F77BE
:10402000DF91CF91FF90EF90DF90CF90BF90AF9056
:104030009F908F9008950E94D21F089580E690E08F
:104040000E94D21F0895B0E0A0E08093600090939A
:104050006100A0936200B09363000895FC01415099
:10406000504030F001900616D1F73197CF010895F6
:10407000882799270895FB01DC0104C08D910190E8
:10408000801921F441505040C8F7881B990B0895BE
:10409000E199FECF9FBB8EBBE09A99278DB308951F
:1040A000A6E1B0E044E050E00C949E20A8E1B0E02E
:1040B00042E050E00C949E20DC01A40FB51F41505B
:1040C000504048F0CB01840F951F2E910E946D2027
:1040D00041505040D0F70895262FE199FECF9FBB65
:1040E0008EBBE09A01970DB2021631F02DBB0FB6D0
:1040F000F894E29AE19A0FBE08950396272F0E9442
:104100006D200E946C20252F0E946D20242F0C947E
:104110006D200196272F0E946D200C946C20262F75
:10412000E199FECF9FBB8EBB2DBB0FB6F894E29AF0
:10413000E19A0FBE01960895DC01CB01FC01E199E3
:10414000FECF06C0FFBBEEBBE09A31960DB20D92DA
:1041500041505040B8F70895052E97FB1EF4009487
:104160000E94C32057FD07D00E94DE2007FC03D029
:104170004EF40C94C32050954095309521953F4FB7
:104180004F4F5F4F089590958095709561957F4F43
:104190008F4F9F4F08950E940021A59F900DB49FBF
:1041A000900DA49F800D911D11240895B7FF0C94CC
:1041B000CB200E94CB20821B930B0895A1E21A2EE4
:1041C000AA1BBB1BFD010DC0AA1FBB1FEE1FFF1FBB
:1041D000A217B307E407F50720F0A21BB30BE40B0B
:1041E000F50B661F771F881F991F1A9469F7609552
:1041F0007095809590959B01AC01BD01CF0108950C
:10420000A29FB001B39FC001A39F700D811D112417
:10421000911DB29F700D811D1124911D0895F89478
:10422000FFCF7E129912C9129B12B512E312FA1235
:10423000F914F91431153115DA155915591559159F
:10424000F6157E168D168D1608142E1435143A1494
:104250003F14441449144E14531458145D1462143A
:1042600065146A146D1470147314761479147C1424
:104270007F142313271318131F132B132F13331318
:104280007013E5137813421346137C134A138013FB
:104290008C135613DE135A1390135E139413BC132E
:1042A00062139813C31368139E13A6134E1384133B
:1042B000521388136C13A213B213CC13DC133C13E8
:0442C0007413EC1374
:1042C40001000000BD04C60EBC04BB04BF0E0119EE
:1042D4001A1B1C1D1E1F2021220102010101FF5A6D
:1042E400818283E200E900EA00B500B600B700CDA0
:1042F400008301CC008A019201940121022302244B
:10430400022502260227022A02B300B4006F0070BD
:10431400009F01CB019F02A00260616263649091DF
:10432400929394959697373635340001020202022F
:104334000606060909090909090F0F0F0F0F0F15C2
:1043440015151819191919191919191919232425C1
:06435400252525252500AA
:00000001FF
