:100000000C949F020C94BC020C94D7020C94BC027A
:100010000C94BC020C94BC020C94BC020C94BC0268
:100020000C94BC020C94BD1A0C9456110C94BC0296
:100030000C94BC020C94BC020C94BC020C94BC0248
:100040000C94BC020C94BC020C94BC020C94BC0238
:100050000C94BC024C00130012000C001500170099
:100060001C00180008001A0014002B0028003300A0
:100070000F000E0009000A000B000D00070016001B
:10008000040029002A002700260025002100220064
:100090002300240020001F001E003500E50038006A
:1000A00037003600190005001100100006001B0083
:1000B0001D00E100E4000000E600E70022522C00F1
:1000C0002C002152E300E2000000E00001004E009D
:1000D0004B004D000100010001004A000100010039
:1000E0000100010001004F00520051000100010019
:1000F00001005000010001000100010001000100A9
:1001000001000100010001000100010001000100E7
:1001100001000100010001000100010001000100D7
:1001200001000100010001000100010001000100C7
:1001300001000100010001000100010001000100B7
:1001400001000100010030002F0001003D0001000E
:10015000010001003C003B003A00010001003200B8
:1001600034000100410001000100010040003F0097
:100170003E00010001002E002D00010001000100E1
:1001800001000100A800A900AA00010001008700E9
:10019000640001004500010001000100440043002B
:1001A0004200010001000100010001000100010006
:1001B0000100010001000100010001001E0F050007
:1001C000047F3F1F643214643214783C1E1E140AEC
:1001D0000500010101010101010101020202020207
:1001E00002020202030303030303030304040404DF
:1001F00004040405050505050606060606070707A7
:10020000070708080808090909090A0A0A0B0B0B5D
:100210000C0C0C0D0D0D0E0E0E0F0F0F10101111FA
:10022000111212131314141515161617171818197E
:10023000191A1A1B1B1C1D1D1E1E1F2020212222E5
:10024000232424252626272829292A2B2C2D2D2E28
:100250002F30313232333435363738393A3B3C3D42
:100260003E3F404142434445464748494A4C4D4E33
:100270004F50515354555658595A5B5D5E5F6162F9
:1002800064656668696B6C6D6F7072737577787A88
:100290007B7D7E8082838587888A8C8E8F919395E3
:1002A00096989A9C9EA0A2A3A5A7A9ABADAFB1B307
:1002B000B5B7BABCBEC0C2C4C6C9CBCDCFD1D4D6E7
:1002C000D8DBDDDFE2E4E7E9EBEEF0F3F5F8FAFD89
:1002D000FFFFAA7F55402223252628292A2C2D2FCF
:1002E0003032333536383A3B3D3E4042434547494C
:1002F0004A4C4E5051535557595A5C5E6062646681
:1003000068696B6D6F71737577797B7D7F8183858C
:1003100087898A8C8E90929496989A9C9E9FA1A38E
:10032000A5A7A8AAACAEAFB1B3B4B6B8B9BBBCBEB2
:10033000BFC1C2C3C5C6C7C9CACBCCCDCED0D1D22E
:10034000D2D3D4D5D6D7D7D8D9D9DADADBDBDBDC30
:10035000DCDCDCDCDDDDDDDDDCDCDCDCDCDBDBDBDC
:10036000DADAD9D9D8D7D7D6D5D4D3D2D2D1D0CE3C
:10037000CDCCCBCAC9C7C6C5C3C2C1BFBEBCBBB941
:10038000B8B6B4B3B1AFAEACAAA8A7A5A3A19F9EBF
:100390009C9A98969492908E8C8A89878583817F87
:1003A0007D7B79777573716F6D6B69686664626068
:1003B0005E5C5A5957555351504E4C4A4947454334
:1003C00042403E3D3B3A3836353332302F2D2C2AD1
:1003D000292826252322000000000000000000003C
:1003E0000001010203040506080A0C0F1114181C71
:1003F0002024292E33393F464C535B626A71798140
:100400008A929AA2AAB2B9C1C8CFD5DCE1E7EBF0D3
:10041000F4F7FAFCFDFEFFFEFDFCFAF7F4F0EBE763
:10042000E1DCD5CFC8C1B9B2AAA29A928A8179710A
:100430006A625B534C463F39332E2924201C181422
:10044000110F0C0A08060504030201010000000058
:1004500000000000000005010980A10185031901C9
:100460002AB700150126B700950175108100C00557
:100470000C0901A101850419012AA002150126A079
:1004800002950175108100C005010906A10105074B
:1004900019E029E7150025019508750181029501EC
:1004A000750881030507190029FF150026FF00952F
:1004B0000675088100050819012905950575019142
:1004C00002950175039103C00A034A004A003500F2
:1004D0003000000016034B005000720065007000F1
:1004E000750062006C0069006300000004030904E9
:1004F00009023B00020100A0FA0904000001030107
:1005000001000921010100012240000705810308C3
:10051000000109040100010300000009210101009C
:1005200001223200070583030800011201100100B7
:10053000000008504B50000002010200010011248D
:100540001FBECFE5D8E0DEBFCDBF22E0A2EFB0E016
:1005500001C01D92A63FB207E1F710E0A0E6B0E0AF
:10056000EEE4F2E402C005900D92A23FB107D9F784
:100570000E942F1B0C94D4200C940000A82FB92F9C
:1005800080E090E041E050EA609530E009C02D91B4
:1005900082279795879510F084279527305EC8F3BA
:1005A0006F5FA8F30895EADF8D939D930895CF932D
:1005B000CFB7CF93C395839BE9F7839B0EC0839BF3
:1005C0000CC0839B0AC0839B08C0839B06C0C0915C
:1005D000D002C395C093D002A6C0DF93C091CF02D2
:1005E000DD27CC52DD4F839B02C0DF91E6CF2F93F6
:1005F0000F931F9300B32FEF03FB20F94F933F930B
:1006000010B34FEF012703FB21F93BE031C04E7FD0
:10061000012F10B3216028C0102F4D7F22600000F1
:1006200000B329C04B7F2460012F000010B32BC002
:1006300010B3477F28602AC04F7E00B320612CC0D2
:100640004F7D10B320622FC04F7B00B3206432C0B7
:10065000422700B349934FEF0000102713FB20F906
:1006600010B31C70C9F1297F91F2012703FB21F916
:1006700000B3237F89F2315058F1102713FB22F980
:1006800010B3277E79F2012703FB23F92F7C81F237
:1006900000B3102713FB24F92F7971F200C010B3B7
:1006A000012703FB25F92F7359F200C000B310276F
:1006B00013FB26F9223040F200C010B3012703FBE0
:1006C00027F9243028F64F77206810B30000F9CFBF
:1006D00010E81ABF00271CC03B503195C31BD04007
:1006E00010E81ABF0881033C11F10B3401F120918D
:1006F000CD021981110F1213EDCF4A81441F093623
:1007000069F10D3211F0013E29F74F7009F0042F05
:100710000093D3023F914F911F910F912F91DF9141
:10072000CAB7C7FD47CFCF91CFBFCF9118952091C2
:10073000D302222379F31091D102112309F044C08E
:1007400034300AF443C03093D1022093CE0210918A
:10075000CF023BE0311B3093CF0238C00091D10271
:10076000013094F50AE54F7049F430917C0034FD76
:100770002FC000937C00CAEAD2E02EC0433059F06B
:10078000443091F03091B50234FD22C00093B5029F
:10079000C6EBD2E021C03091EA0234FD19C00093CB
:1007A000EA02CBEED2E018C03091C10234FD10C095
:1007B0000093C102C2ECD2E00FC02795A8F45150BB
:1007C000A9F4220F0000F9CF4AE503C042ED01C0B1
:1007D000432FC4E1D0E032E011B31C60939A11BB07
:1007E00002B320E41CE05F93012756E002BB27958B
:1007F00020F4515021F4220FF9CF012756E00000D8
:100800003B5A02BBD0F2279528F4515029F4220F0D
:100810000000F9CF012756E0279502BB20F4515084
:1008200021F4220FF9CF012756E02991332302BB8F
:1008300021F6037F1091D202110FC651D04002BBA6
:1008400011F01093CD0210E81ABF086011B3137FA6
:10085000402F437F5F9100C000C002BB11BB42BB71
:1008600059CF482F2091A60290916D0257E029138D
:1008700002C080E0089530E0529FF001539FF00DD8
:100880001124E259FD4F8181681306C0808148130D
:1008900003C085818111EECF2F5F3F4F2770E7CFD7
:1008A000FC019381933059F130F49130C1F09230D2
:1008B000F1F080E00895913209F440C09232C9F716
:1008C00084819581009709F44AC0019791F786E5E4
:1008D00094E090936C0280936B0282E308958BE224
:1008E00095E090936C0280936B0282E1089580EF13
:1008F00094E090936C0280936B028BE30895828165
:100900008130A1F0882351F0823099F688EC94E090
:1009100090936C0280936B028AE008958CEE94E0D1
:1009200090936C0280936B0284E0089584ED94E0D0
:1009300090936C0280936B0286E1089582818823F4
:1009400031F0813009F0B5CF8BE195E002C082E053
:1009500095E090936C0280936B0289E0089588E89B
:1009600094E090936C0280936B0280E40895089564
:1009700008958091660208959C01FC0132969FEFD4
:1009800080E04191461751F09F3F19F4411101C099
:10099000982F8F5F8630A9F79F3F09F40895290F9C
:1009A000311D97FD3A95F90162830895A3E0B0E007
:1009B000ECEDF4E00C94E71E2091D4013091D501C8
:1009C00028173907A1F09093D5018093D401E091C5
:1009D000D201F091D301309751F024E029839B8319
:1009E0008A830680F781E02DCE0101960995239632
:1009F000E2E00C94031FA3E0B0E0E1E0F5E00C942A
:100A0000E71E2091D0013091D10128173907A1F0BC
:100A10009093D1018093D001E091D201F091D30164
:100A2000309751F023E029839B838A830680F781E6
:100A3000E02DCE01019609952396E2E00C94031F68
:100A4000E091D201F091D301309729F00190F0812B
:100A5000E02D0995089580E00895B0E0A0E0E3E37B
:100A6000F5E00C94DD1E8C0186B597B56CE070E066
:100A70000E94C31E6017710758F0C80169E070E05A
:100A80000E94C31ECB01CDB7DEB7ECE00C94F91E7B
:100A900086B597B5E6B4F7B4C6B4D7B4C6E0D0E02F
:100AA000BE010E94C31E30E020E0060F171F211D6B
:100AB000311D4801590185E0880C991CAA1CBB1CFA
:100AC0008A95D1F7C701BE010E94C31EF12CE12C0B
:100AD000A7019601260F371F411D511DC501B40105
:100AE0000E94A32069017A01E6B5F7B5CA01B901F0
:100AF0000E940E1F9B01AC01DF010E9490209B0110
:100B0000AC01C701B6010E940E1F2FE09695879594
:100B1000779567952A95D1F706B517B530E020E0AF
:100B2000061717072807390708F0ACCF66B577B561
:100B3000A9CF8D30C0F4811117C09FB59F7D9FBD97
:100B40009498A6B5B7B5282F30E00E94C5202CE0B8
:100B500030E040E050E00E94A320C9010E942D0532
:100B600099BD88BD08958CE09FB590629FBDE9CF87
:100B7000FA01811101C0FB01099508958091C4011A
:100B8000982F9E7F29F4817082608093C40108951C
:100B90008635E8F381708465F8CFAF92BF92DF921B
:100BA000EF92FF920F931F93CF93DF93082F162F8F
:100BB000E901E42FF0E0EF52FE4F611110C0E49123
:100BC0005E2F4E2F4983E8835A83DF91CF911F9187
:100BD0000F91FF90EF90DF90BF90AF900895E62EB9
:100BE000F12C4491D42EE42FF0E026E0829FC00146
:100BF00011242FEF30E0B9010E94C31E802F90E036
:100C0000880F991F55E5569FD001579FB00D1124AD
:100C10008A1B9B0B982F990F890F5901AE18BF089B
:100C2000AE9ED001AF9EB00DBE9EB00D11245B2FC5
:100C3000189F80011124012F11275901A01AB10A10
:100C4000AE9E8001AF9E100DBE9E100D1124590165
:100C5000A81AB108AE9CC001AF9C900DBE9C900D2F
:100C60001124892F9927281B390B2E9FC0012F9FF4
:100C7000900D3E9F900D1124E92F62307105A1F077
:100C800050F46115710509F49DCF6130710581F053
:100C9000EB2F512F97CF6430710569F080F06630EB
:100CA000710509F48FCFF4CFE42F4B2F592F8ACF42
:100CB000E42F412F87CFEB2F542F492F83CF4B2F7A
:100CC0005D2DE12F7FCF80E00895F894E82FE29525
:100CD000EF70F0E031A9282F2F7081E090E001C083
:100CE000880F2A95EAF7982F9095932391AB92A9B4
:100CF000892B82AB7894089590913C0192FF06C0B5
:100D0000282F28712830F9F4877F846093FF06C06C
:100D1000282F28712831F1F4877E846120913D01CC
:100D200020FF06C0382F38713830D9F4877F8160B2
:100D300021FF06C0282F28712831D1F4877E8161D8
:100D400094FD877E0895282F24712430F9F68B7F37
:100D50008860DCCF282F2471243101F78B7E8861D5
:100D6000DDCF382F3171313019F78E7F8860E0CFB9
:100D7000282F2171213121F78E7E8861E1CF8238C1
:100D80009105B9F1B0F48133910509F47DC048F4BF
:100D90008932910509F46DC08A32910509F47BC04E
:100DA00008958533910509F45FC08933910509F1F0
:100DB0000895833E9105D9F138F4803E910529F1DB
:100DC000823E910579F10895863E9105D9F1873EDD
:100DD000910509F43EC0843E910541F520913D0105
:100DE00021FF24C080913C0184FD19C087EE90E072
:100DF000089520913C01237009F05AC020913D01D3
:100E000023FF14C089E290E0089520913C0120FD69
:100E100038C030913D0130FF09C024FF43C090E04D
:100E200080E0089520913C0122FDF7CF08952091A4
:100E30003C0122FD3AC030913D0130FD39C024FF14
:100E4000F5CFEDCF20913C0123FFF0CF24FDE7CF7C
:100E5000CDCF20913C0123FD2EC030913D0131FFCB
:100E6000EECF84EE90E0089520913C0125FFDECF87
:100E7000C9CF20913C0125FD21C020913D0123FFD8
:100E8000D5CF89E390E0D2CF20913C0126FFCECF91
:100E90008AE290E0089520913C0126FFC7CF81E3CC
:100EA00090E0089583EE90E0089582EE90E008953A
:100EB00080EE90E0089586EE90E0089585E390E05E
:100EC0000895972F7530B8F46C30A8F48330B0F4DF
:100ED00070E02CE0929F600D711D1124FB019CE3DA
:100EE000899FE00DF11D1124EE0FFF1FEC5AFF4FFB
:100EF00085919491089580E090E0089581E0FCCF81
:100F00001F93CF93DF930E94BF06EC01C11580E5CC
:100F1000D807F0F5C11580E4D80708F09CC0C03EA2
:100F2000D10520F5CD3CD10508F082C0C83AD105E5
:100F300078F4C53AD10508F073C0C130D10519F174
:100F4000209709F1C430D105F0F4D0E0C0E01BC017
:100F5000C33CD105D0F7C85AD0E0CC0FDD1FC05834
:100F6000DF4F0990D881C02DD4640DC0C11580E237
:100F7000D80708F0D1C0C11581E0D80708F05AC0E1
:100F8000C83ED10510F7CE01DF91CF911F91089592
:100F9000C03682E5D80718F5C03482E5D80708F0D6
:100FA0006BC0C03282E5D80708F05FC0C11582E58A
:100FB000D80708F497C02C2F2695269580E2289F05
:100FC000900111248C2F8370C1E0D0E002C0CC0FBF
:100FD000DD1F8A95E2F7C22BD32BDD68D4CFC03A50
:100FE00082E5D80760F4C03882E5D80708F459C014
:100FF000CF71D0E0DC2FCC27C46FD06AC4CFC03C07
:1010000082E5D80708F462C0C03E82E5D80708F040
:101010009CCFDC2FCC27CC27DF71C06FD06AB3CF39
:10102000C55AD0E0C358DF4FC881D0E0D064ABCF01
:10103000D065A9CF8D2F0E947C06182FCE0199274D
:101040000E94BF06C12FD0E0DC2FCC27CC27DF7158
:10105000C82BD92B98CFCE0199270E94BF06CC2749
:10106000DF70C82BD92BD06A8ECFCF71D0E0DC2FA8
:10107000CC27C16FD06A87CF2C2F26952695277055
:1010800080E2289F900111248C2F8370C1E0D0E072
:1010900002C0CC0FDD1F8A95E2F7C22BD32BDC6890
:1010A00072CF2C2F26952695277080E2289F9001DD
:1010B00011248C2F8370C1E0D0E002C0CC0FDD1F63
:1010C0008A95E2F7C22BD32BDA685DCF8C2F8F7114
:1010D0000E947C06C82FD0E0DC2FCC27CC27DF7104
:1010E000D06251CF8C2F8F710E947C0655E0D6952F
:1010F000C7955A95E1F7CF70D0E0DC2FCC27282F89
:1011000030E084FF05C044E0220F331F4A95E1F729
:10111000C22BD32BD06937CF8D2F8F710E947C06C5
:10112000182FCE0199270E94BF06C12FD0E0DC2FD7
:10113000CC27CC27DF71C82BD92BD2CF80959091AB
:101140002801982390932801089580912801909177
:101150002701892B8093F40090912601992391F027
:10116000892B8093F40020E086EF90E0FC01319120
:10117000CF0131112F5FF0E08C3F9F07B9F72111AC
:1011800010922601E091D201F091D301309731F015
:101190000280F381E02D84EF90E00995089580911D
:1011A000A60290916D02981301C008958F5F877019
:1011B000FACFB0E0A0E0EFEDF8E00C94E01E7C0187
:1011C00000913A0110913B018091290190912A01EF
:1011D000082B192BCFE0D0E0CC24C394D12CBC2E0B
:1011E000C6010C2E02C0880F991F0A94E2F78023D3
:1011F0009123892B49F4219790F7B12C8B2DCDB7F2
:10120000DEB7E9E00C94FC1EB7018C2F0E94610749
:101210000E948007019779F3F1CFCF93DF93EC0120
:101220000E94D908BE010E9461070E948007DF91D9
:10123000CF910895953078F58C3068F5E82FF0E07F
:101240008CE0989FE00DF11D11249E2F977083E094
:10125000F695E7958A95E1F7EE0FFF1FEE0FFF1F5A
:10126000E250FF4F50E040E080E0219130E0092E55
:1012700002C0369527950A94E2F721703327042E91
:1012800001C0220F0A94EAF7822B4F5F5F4F443070
:10129000510559F7089580E00895953098F58C3000
:1012A00088F5E82FF0E08CE0989FE00DF11D112407
:1012B0008E2F877041E001C0440F8A95EAF783E0E2
:1012C000F695E7958A95E1F7EE0FFF1FEE0FFF1FEA
:1012D000E250FF4F30E020E070E05191DF011197C4
:1012E000CB01022E02C0969587950A94E2F7817091
:1012F00081958527842385278C932F5F3F4F24304A
:10130000310559F7089590933B0180933A01089570
:1013100021E030E002C0220F331F8A95E2F72095CA
:10132000309580913A0190913B01822393230E9452
:101330008309089590912501809589238093250143
:10134000282F277069F4891759F090913D0192FF79
:1013500007C08695869586950E948809109225017A
:10136000089521E030E002C0220F331F8A95E2F792
:1013700080913A0190913B01822B932B0E9483092B
:10138000089590932A01809329010895FC012481F6
:101390002223C1F0808191810E940D0992959F7056
:1013A000963091F058F4925F9F70923058F4803FDD
:1013B00019F030F4883E30F481E008959A5FF4CF5C
:1013C000843FD1F380E00895883EB0F3813FD1F7A8
:1013D000F3CF882321F00E949E080E94A50808955B
:1013E000882339F090912801982B909328010E942E
:1013F000A5080895882391F19CEF980F913A80F405
:10140000E6EFF0E02CEF30E09191891303C0DF01AB
:1014100011971C922E173F07B9F70E94A50808954F
:1014200090E2980F983050F4877091E001C0990FC6
:101430008A95EAF7892F0E949E08EFCF9BE5980FC7
:10144000933028F490E080E00E94FB040895885ACD
:101450008B3120F490E080E00E94D6040895CF9371
:10146000C82F8823B1F08CEF8C0F813A00F5E6EF9E
:10147000F0E08CEF90E0DF012D91C21761F08A1748
:101480009B07D1F76C2F84EF90E00E94BC040E9470
:10149000A508CF9108952191C21303C0DF011197D0
:1014A0001C928E179F07B9F70E94A508EBCF80E228
:1014B0008C0F883068F4C77021E030E001C0220F43
:1014C000CA95EAF780912801822B80932801DFCF0B
:1014D000EBE5EC0FE33040F4F0E0E358FF4F8081A0
:1014E00090E00E94FB04D5CFC85ACB3190F6EC2F88
:1014F000F0E0EE0FFF1FE058FF4F808191810E94C6
:10150000D604C7CF80E00E9499050895A6E0B0E018
:10151000ECE8FAE00C94E61E49835A8349815A812B
:101520009923A1F0222391F0CA010E94D908182F13
:10153000682F89819A810E944D0969817A81812F62
:101540000E9461072696E3E00C94021FCA010E94E4
:101550001A09182FF2CFCF93DF938091D1028350D5
:1015600087FD67C09091CF02CCE0D0E0C91BD109C4
:10157000CC52DD4F9091CE02903108F458C09D328C
:1015800009F0F4C0883009F052C083EC8093AA02BD
:101590008AE580937C0010926A028881807609F443
:1015A00097C0803229F58981813099F48C819D81A1
:1015B000892BF1F48DE592E090936C0280936B029D
:1015C00088E09F81911131C09E81981770F5892F15
:1015D0002CC0823041F48CE592E090936C028093B1
:1015E0006B0281E0EECF8A3029F48B8180935C021C
:1015F00080E0E7CF8930E1F78A819B8181159240B5
:1016000069F48C819D81892B49F481E08093690282
:101610008E819F819093680280936702888187FF03
:10162000A3C08E8190E890936A0280937B00109211
:10163000D10280917C0084FF3EC080917B008F3F6F
:10164000D1F1C82F893008F0C8E0982F9C1B9093E7
:101650007B009091AA0228E892279093AA028823FF
:10166000E9F080916B0290916C0220916A0226FF52
:1016700099C0FC012C2FABEAB2E034913D93319636
:101680002150D9F79C012F5F3F4F8FEF8C0F820FB6
:10169000932F911D90936C0280936B026C2F8BEAB9
:1016A00092E00E94D302CC5FCC3019F08FEF809390
:1016B0007B00C0937C0084E190B39C7031F4815036
:1016C000D9F71092D2021092CD02DF91CF910895F6
:1016D0002A811092B302998191110AC01092B4022A
:1016E00023EB32E082E030936C0220936B0269CFEF
:1016F000953029F42093D20223EB32E0F4CF9630D8
:10170000C9F49B81913051F4CE010E94500490E4C1
:1017100090936A028F3F09F481CF53CF9230A1F3A7
:10172000933091F3913281F3923271F390E490937C
:101730006A0247CF983089F0993019F420936502F6
:10174000DBCF9A3071F09B30B9F69BE49093B602F0
:101750009093EB029093C202CFCF25E632E081E076
:10176000C2CF23EB32E0FBCF8FEF5CCF80916A02D8
:1017700087FF5DCF8091670290916802892B71F09D
:1017800080916902813051F48881809366021092C1
:1017900068021092670210927B0049CF8EE180931D
:1017A0007C0045CFDC012C2FEBEAF2E03D91319338
:1017B0002150E1F767CF1F93CF93DF93E82F792F65
:1017C000162FEA01888184FF1CC0298188E8282718
:1017D0002983CE010296DC012E2F372F512F5E0F69
:1017E000F90121912D939F01452F4E1B1416C4F32F
:1017F000612F0E94D3021C5F1883DF91CF911F914C
:1018000008958AE58883E5CF2091EA0224FF05C088
:101810004AEE52E063E00E94DB0B0895CF93DF9322
:10182000CAE0D0E08091B50284FF1CC080915A02CA
:1018300090915B02981799F028E0829FC0011124D3
:1018400045EB52E068E086529E4F0E94DB0B809190
:101850005A0290E001968F70992780935A02DF9187
:10186000CF9108950E94AB0A87EB9BE00197F1F7B7
:1018700000C000002197B1F6F2CFCF93DF93EC01C7
:10188000A0915B02B0E0CD0101968F709927209165
:101890005A02281779F093E0AA0FBB1F9A95E1F737
:1018A000A652BE4F98E0FE0101900D929A95E1F785
:1018B00080935B020E94AB0A0E940E0C88E0FE013E
:1018C000ADE5B2E001900D928A95E1F7DF91CF91FD
:1018D000089560E081E090E00E94542088E19CE05F
:1018E0000FB6F894A89581BD0FBE91BDFFCF682FAC
:1018F00086E090E00E94312008958091C40180FD2F
:101900000AC0E4E6F1E0118210821282339681E08F
:10191000E838F807C1F780916001811105C00E9485
:10192000061E81E08093600124E630E044E250E04E
:1019300064E671E080EB0E94A31E0895B0E0A0E091
:10194000E4EAFCE00C94D91EFC016280448081E052
:101950008483E6EDF2E07490E5E5F3E0E491009134
:10196000C7010695015810E0000F111F012F112724
:10197000C8E8D1E024E6C22E21E0D22E34EC832E3A
:1019800031E0932EAA24AA94B12C55245A94E71935
:10199000EE2EF12C82E0861530F08091C50188830F
:1019A0008091C6018983411016C01B821A8296015C
:1019B0004A81698188810E94CD05259683E0C80E01
:1019C000D11C8C169D0631F70E947D0CCDB7DEB779
:1019D000E0E10C94F51E8B818823E9F081508B8324
:1019E000859DC00111246C8170E00E94C31EFB0123
:1019F000FF27EA52FD4F8491E82FE719E59DC001CA
:101A00001124B7010E94C31E8091C701689FB001D5
:101A100011247A83CCCF0E94E31FB5010E94381FA6
:101A20008017910724F682E0861588F40E94E31F50
:101A3000B5010E94381F88830E94E31F2091C601D0
:101A40002695622F70E00E94381F280F29831A8282
:101A50008091C701893C20F088EC8C838B83A7CFD1
:101A60008431D8F784E1F9CFEF92FF920F931F935F
:101A7000CF93DF938C01C4E6D1E0F12CE12CF80187
:101A800094816091C6018091C501F6E0EF16F104E2
:101A9000ECF49923E9F09E014091C7010E94CD0525
:101AA0002FEFE21AF20A23968CE0E816F10439F7D8
:101AB0000E947D0CF801848190E001968170992745
:101AC0008483CDB7DEB7E6E00C94FF1E992319F3AB
:101AD0009E0140E0E3CFB0E0A0E0E1E7FDE00C9440
:101AE000DD1EEC014C81042F10E09801D8010E940A
:101AF000C5209B01AC010E9490204B015C01E0E2FB
:101B0000F0E0E01BF10BA5E5B0E0AC019B010E9409
:101B100090206B017C019F01DF010E94521F9B01FD
:101B2000AC010E949B209B01AC01280D391D4A1D70
:101B30005B1DC701B6010E94A320F22E822F90E008
:101B400039E23F1598F143E0249F90011124359527
:101B50002795122F109594E6C92E91E0D92E00E01A
:101B600085E5E82EEF188E2D01FD8F2D9601412F72
:101B70006091C6010E94CD050F5F53E0C50ED11CD8
:101B80000C3089F70E947D0C9C8181E0992319F02B
:101B9000903219F48FEF8093790080917900890F4A
:101BA0008C83CDB7DEB7ECE00C94F91E25E530E070
:101BB000A901481B590BCA019A01220F331F280F94
:101BC000391F37FFC4CF2F5F3F4FC1CF0F931F93F4
:101BD000CF93DF93C4E6D1E0FE011182108212821E
:101BE000339681E0E838F807C1F710E000E0809113
:101BF0006201082E000C990B081719078CF18091CF
:101C00007800082E000C990B801791074CF19E016B
:101C10004091C7016091C6018091C5010E94CD0528
:101C20000F5F1F4F23960C30110509F70E947D0CA2
:101C30008091770090916201980F909362012091BA
:101C40007800280F20937800121614F49B301CF0B3
:101C5000819580937700DF91CF911F910F91089527
:101C6000198218821A82DCCFB0E0A0E0EAE3FEE03D
:101C70000C94E01EFC018281DD24DA9480FD02C018
:101C8000DD24D39404E611E0D0E0C0E02CE0B22ED5
:101C9000F80111821082128294E0E92EF12CC12CFD
:101CA000809161018C0D8D30C4F16B2D0E942A1F33
:101CB000892F082E000C990B8C179D0791F48091A9
:101CC000C7018E9DA0018F9D500D112455954795FC
:101CD0005595479598016091C6018091C5010E9474
:101CE000CD05CD0CF1E0EF1AF108D1F621960D5F8C
:101CF0001F4FCC30D10561F60E947D0C80916101AF
:101D000091E0D91210C081110CC08BE08093610169
:101D1000CDB7DEB7E9E00C94FC1E87FFCACF845F25
:101D2000C8CF8150F3CF90E00196BE010E94381FCA
:101D3000EDCFEF92FF921F93CF93DF93EC0184E6F8
:101D4000E82E81E0F82E10E08C8197014091C701C8
:101D50006091C601810F0E94CD051B5E83E0E80EF5
:101D6000F11C1C3F89F70E947D0C9A818C8190FFA9
:101D700008C08F5F8C83DF91CF911F91FF90EF9010
:101D800008958150F7CF9091C40190FF0CC0E4E614
:101D9000F1E0818360834283339691E0E838F9076C
:101DA000C1F70E947D0C0895A3E0B0E0EAEDFEE0EB
:101DB0000C94E51E8C018091630181110AC09E0183
:101DC0002F5F3F4F4FEF6FEF0E94CD058A818093C9
:101DD0006301F8016481613069F08091630140E042
:101DE000662361F040E0623011F44091630180E0CD
:101DF00060E004C06091630140E080E00E94C30E97
:101E0000F801848190E0019663E070E00E94381F41
:101E100084832396E4E00C94011FA3E0B0E0E3E1A7
:101E2000FFE00C94E71E9091C40190FF0AC09E0150
:101E30002F5F3F4F0E94CD054B8169818A810E94AF
:101E4000C30E2396E2E00C94031FCF93DF93EC01C3
:101E5000E4ECF1E0438162818C810E940D0F8C8162
:101E60008F5F8C83DF91CF910895CF93DF93EC0147
:101E7000EC81F0E0EA52FD4F4491E4ECF1E0628144
:101E800081810E940D0F8C818F5F8C83DF91CF91B8
:101E90000895B0E0A0E0EFE4FFE00C94DD1E4901FE
:101EA0005A016B017C010E94BE058401A4016A2DC8
:101EB0007B2D88E090E00E94422094014A2D5B2D0A
:101EC000B601C70100E20E947C1F622F84E290E00D
:101ED0000E943120CDB7DEB7ECE00C94F91EA3E0F0
:101EE000B0E0E5E7FFE00C94DA1EF82E762EE42E43
:101EF000622E9091C40190FF2EC0E92FE695AE2F7F
:101F0000B0E0A953BF4F8C9180935E019E7F9230C9
:101F100031F59E012F5F3F4F8F2D0E94CD054B81E4
:101F200069818A810E94C30EF092C5017092C60138
:101F3000E092C701662079F02091C4016091C80148
:101F40007091C9013F2D472D5E2D8091CA0190915E
:101F5000CB010E94490F2396EFE00C94F61E8230CD
:101F600019F4E090C701E0CF863019F4F090C50174
:101F7000DBCF8930D9F38931B9F6E9518E2F8170E1
:101F8000582EE695F0E0EF52FD4FE4910E2F10E051
:101F900084E6C82E81E0D82EB12CA12C9CE0892E9D
:101FA000912CC501B4010E94C31E8F2D511013C086
:101FB000860F96014E2D672D0E94CD05A00EB11EF5
:101FC00083E0C80ED11C88E8C81681E0D80649F71E
:101FD0000E947D0CA9CF861BECCFE4ECF1E043819D
:101FE00022E1421B08F440E021E0628181810E94ED
:101FF0006F0F0895E4ECF1E0438122E1420F08F411
:102000004FEF21E0628181810E946F0F0895E4EC1F
:10201000F1E062812FE0621B08F460E021E043817F
:1020200081810E946F0F0895E4ECF1E062812FE05E
:10203000620F08F46FEF21E0438181810E946F0FEE
:102040000895E4ECF1E0818121E0438162818C50CC
:102050000E946F0F0895E4ECF1E0818121E043815B
:102060006281845F0E946F0F08958091C801882368
:1020700019F081508093C8012091C4013091C501AD
:102080004091C6015091C7016091C8017091C9018A
:102090008091CA019091CB010E94490F08958091CF
:1020A000C801833018F48F5F8093C8012091C40168
:1020B0003091C5014091C6015091C7016091C8019E
:1020C0007091C9018091CA019091CB010E94490F82
:1020D0000895E4ECF1E083E0808311828FEF828346
:1020E00083831482758123E030E04FEF5FEF60E07F
:1020F000868197810E94490F089590913D0192FB3E
:10210000222720F9281779F080FB92F990933D015E
:1021100060913C0170913D0184E090E00E944E206E
:1021200082E00E949A09089510922801E6EFF0E0FB
:1021300086E0DF011D928A95E9F790E080E00E9439
:10214000FB0490E080E00E94D604109227010E94D8
:10215000A50808950E9494102FEB87E299E0215082
:1021600080409040E1F700C0000088E19CE00FB69D
:10217000F894A89581BD0FBE91BDFFCFA8E0B0E057
:10218000E4ECF0E10C94E71E66EE7EEF90E080E078
:102190000E944E2060E082E090E00E94312060E0EA
:1021A00083E090E00E94312010922A0110922901D0
:1021B00060E074E184E090E00E944E2060E086E000
:1021C00090E00E9431206FEF87E090E00E94312084
:1021D00040E050E0BA0188E090E00E94422060E0D8
:1021E00084E290E00E94312060E087E190E00E946C
:1021F000312060E08CE090E00E94312060E08DE0D2
:1022000090E00E94312019821A821B821C821D825A
:102210001E821F82188648E050E068E170E0CE011F
:1022200001960E94212040E050E0BA0180E290E057
:102230000E94422040E050E0BA018FE090E00E940E
:10224000422040E050E0BA0183E190E00E94422049
:102250002896E2E00C94031F90E080E00E941B208F
:10226000863E9E4F51F00E94BE108091CC0184703A
:1022700081668093CC010E94770C86E090E00E94FA
:102280000D208093CC01883620F087708066809383
:10229000CC019091CC01892F817090FF04C0892FCF
:1022A0008695869586950E949905089578941F9243
:1022B0001FB61F9211248F939F93AF93BF9380916A
:1022C000D6019091D701A091D801B091D901019682
:1022D000A11DB11D8093D6019093D701A093D80181
:1022E000B093D901BF91AF919F918F911F901FBE65
:1022F0001F9018959C014FB7F8948091D60190914A
:10230000D701A091D801B091D9014FBF821B930B87
:1023100008952FB7F8948091D6019091D701A0919C
:10232000D801B091D9012FBF08950F931F93CF9378
:10233000DF93C62FD42F022FFC0185818823A9F0BB
:102340006093A9020E9489119093A8028093A7022A
:10235000C77081E001C0880FCA95EAF70E94F009B2
:10236000DF91CF911F910F9108958091A902681379
:1023700035C08091A7029091A8020E947A11883CF2
:10238000910560F510E21D0FCD17B9F080E28C0FBA
:10239000883040F4C77081E001C0880FCA95EAF721
:1023A0000E94E909183048F481E09D2F977001C020
:1023B000880F9A95EAF70E94F009802F0E942F0A51
:1023C000802F0E94FA09183058F6D77081E001C0BA
:1023D000880FDA95EAF70E94E909C2CFC77081E059
:1023E00001C0880FCA95EAF7F6CF9091C40190FF1B
:1023F00034C09170811132C092609093C401662301
:1024000091F02091C4013091C5014091C6015091D5
:10241000C7016091C8017091C9018091CA01909172
:10242000CB010E94490F6091C401669570E04BE0BA
:1024300050E08CE690E00E94F31F892BB1F01092DF
:102440005F0181E080935B0120E04091C7016091D2
:10245000C6018091C5010E946F0F08958B3210F064
:102460009465CBCF880F982BC8CF81E080935F0114
:102470000E9489119093590180935801E2CF809175
:10248000C4018695815009F48AE261E00E94F51149
:1024900008958091C40186958F5F8B3208F081E0AA
:1024A00061E00E94F51108959091C40190FF08C069
:1024B0009695981728F0961718F40E9449120895D7
:1024C00061E00E94F5110895B0E0A0E0EAE6F2E1D3
:1024D0000C94DF1E8C01FC018481882309F43EC02A
:1024E00021E0408151816281738195810E94860A39
:1024F000EC01F8018581FE01882309F4EDC4F85749
:10250000E730F10508F0F1C4EA52FF4D0C944C1F7E
:102510008091CC01877080668093CC01887F91E0A8
:1025200009F490E08091CC0190FB80F98093CC017C
:102530008CE00E9499058091CC010E94770C8091DB
:102540002501877059F0F8018581882339F0809141
:102550003D0182FF03C082E00E949A09CDB7DEB739
:10256000EAE00C94FB1E8091CC0187708E7F8093F3
:10257000CC0180E0DECF8091CC01982F987F79F05C
:1025800088508093CC01887F91E009F490E080919D
:10259000CC0190FB80F98093CC010E94770C809154
:1025A000CC018695869586951EC08091CC01982F8A
:1025B0009695969596959C3040F49F5F990F990F4C
:1025C000990F8770892B8093CC018091CC01816019
:1025D000E2CF8091CC0180FF09C08E7F8093CC0137
:1025E0000E94770C80E00E949905A9CF80FDA7CFBB
:1025F00081608093CC01813019F489E08093CC0113
:102600008091CC01CACF9091CC01892F8695869577
:1026100086958F5F8F7197708D3048F4880F880F83
:10262000880F892B8093CC018091CC01ACCF909303
:10263000CC01FACF8091CC0181FF09C08D7F8093BE
:10264000CC010E94770C89B78B7F89BFA8CF81FD11
:1026500076CF82608093CC010E94770C1092CF01DC
:102660001092CE011092CD0189B7846089BF67CFE7
:1026700026E241EE61EEC8010E94951160CF27E28B
:1026800045EE65EEF8CF26E241EE60EEF4CF27E2AC
:1026900045EE64EEF0CF26E241EE62EEECCF27E2AB
:1026A00045EE66EEE8CF28E241E0EBCF80913C01B9
:1026B000816080933C0195C080913D01886080934A
:1026C0003D018FC080913C018260F3CF80913C013D
:1026D0008460EFCF80913C018860EBCF80913D0119
:1026E0008160EDCF80913D018260E9CF80913C0116
:1026F0008061DFCF80913C018062DBCF80913C0123
:102700008064D7CF0E94941080913C018068D1CF23
:1027100080913C018C60CDCF80913D018360CFCF13
:1027200080913C018E7FC5CF80913D01877FC7CFCF
:1027300080913C018D7FBDCF80913C018B7FB9CFD3
:1027400080913C01877FB5CF80913D018E7FB7CFCF
:1027500080913D018D7FB3CF80913C018F7EA9CFC9
:1027600080913C018F7DA5CF80913C018F7BA1CFD3
:102770000E94941080913C018F779BCF80913C0107
:10278000837F97CF80913D018C7F99CF80913C01D1
:1027900082FB992790F921E0922790FB82F990FB28
:1027A00083F987CF80913D01982F909591708E7F0E
:1027B000892B90FB81F983CF90913C01892F8F7BEE
:1027C00096FF806476CF0E94941090913C01892FEF
:1027D00097FB87F980586DCF61E08EE090E00E9412
:1027E000312060913C0170913D0184E090E00E94B5
:1027F0004E200E949410A3CE60E0EFCF90913C0158
:10280000892F8F7E94FF806154CF90913C01892F56
:102810008E7F90FF81604DCF90913D01892F877F02
:1028200093FF88604CCF8091FC0081110FC089E23A
:10283000E6EFF0E02CEF30E09191891303C0DF0167
:1028400011971C922E173F07B9F710C385E3F0CFFD
:102850008091C40180FF19C0282F2E7F2093C401CE
:102860003091C5014091C6015091C7016091C801E6
:102870007091C9018091CA019091CB010E94490FCA
:1028800010925F010E947D0C5ACE81608093C4013A
:1028900061E086950E94F51152CE4FE352E169E462
:1028A00072E10E94B8054BCE49E452E16FE372E158
:1028B000F8CF41E250E16BE270E1F3CF4BE250E13F
:1028C00061E270E1EECF47E050E164E170E1E9CF11
:1028D00044E150E167E070E1E4CF4DEE5FE06AEF84
:1028E0007FE0DFCF4AEF5FE06DEE7FE0DACF45E3D8
:1028F00050E16FE470E1D5CF4FE450E165E370E162
:10290000D0CF61E081E0C6CF65E082E00E94541242
:1029100016CE68E086E0FACF6EE089E0F7CF64E19A
:102920008FE0F4CF67E185E1F1CF61E088E1B2CFDC
:1029300062E289E1EBCF61E083E2ACCF6AE285E25B
:10294000E5CF0E949410FFEB27E239E0F1502040E0
:102950003040E1F700C000000E94690C6FEF7FEF8C
:1029600090E080E00E944E200E94AA1080913D01DC
:1029700082FB882780F991E089270E947D10F80169
:102980008581C081D181882309F44AC0CE010E948B
:10299000D908F82E682FCE010E944D09BE018F2D57
:1029A0000E9461070E948007D82FC92FA82EF80126
:1029B000C580B680B2943FE0B32280912501877034
:1029C000F1F0FC2CCC20E1F0892F807F803451F095
:1029D00080E28D0F883098F0B11004C0892F807E7E
:1029E000803269F080913D0182FF09C082E00E943F
:1029F0009A09809125018770FF24F3948111F12CAD
:102A0000EC2EE2942FE0E222FBE0FE1508F46DC00C
:102A1000EE2DF0E0E352FF4D0C944C1F80E0ADCF63
:102A2000CE010E941A09F82EB9CF2C2F2F70D22E6A
:102A3000C07F19F0D29490EFD922CC20B9F0DD20DC
:102A400069F080E28D0F883010F0A11009C08091EC
:102A50002801D82AD09228010E94A5088D2F43C0B2
:102A600080912701D82AD0922701F6CF8D2F0E947E
:102A7000FA09DD20D1F1D05ED83010F0A11004C0E9
:102A80008D2D0E949E0806C0D09480912701D822E7
:102A9000D09227010E94A50828C03C2F3F70D32E5A
:102AA000C07FC03219F0D29480EFD822AA2059F00A
:102AB00081E0A81609F479C0CC2009F485C0BB20B8
:102AC00009F447C0CBCF80913D0182FD3EC0CC20B0
:102AD000B1F1DD2039F080912801D82AD092280167
:102AE0000E94A50880E00E942F0A2E2D2850330B4B
:102AF0002430310510F40E942005FF20A9F08091B8
:102B0000250180FD11C0F801158286958695869570
:102B10000E94B109C8010E94641280912501869526
:102B2000869586950E94880920E0F80140815181B0
:102B300062817381848195810E94860A0FCD80E035
:102B40000E94FA09DD2089F29BCFCC20A1F0B110C0
:102B500004C08D2D0E94F009C8CF91E0B912C5CFF5
:102B6000809126019D2D9823D91609F4BECFD82A2D
:102B7000D0922601BACFB110B8CF8D2D0E94E909AD
:102B8000909126018D2D892329F08D2D8095892303
:102B9000809326018091FD009D2D982309F4A5CFF7
:102BA000D094D822D092FD00A0CFCC2029F0E5E02F
:102BB000EB1508F49ACFCDCFF4E0FB1508F495CFD0
:102BC0008D2D0E94E90991CFBB20D1F329E3A212F8
:102BD00009C03FEF8DEE92E0315080409040E1F728
:102BE00000C000008D2F0E94FA097FCF8C2F8695A0
:102BF0008695837069F0813009F077CF8D2F9C2FF7
:102C00009370C11002C080E090E00E94D6046DCFA6
:102C10008D2F9C2F9370C11002C080E090E00E9425
:102C2000FB0463CF8C2F837009F03FC0C1105DCFD0
:102C30004D2F429546954770440F440F2D2F2F700E
:102C400030E0042E02C0220F331F0A94E2F790E016
:102C500080E0D4FF09C08FE090E002C0880F991F88
:102C60004A95E2F780959095C695C695C370C23097
:102C700099F078F44091290150912A01C13039F03E
:102C8000822B932B842395230E94C1092ECF242BC2
:102C9000352B822B932BF8CF822B932B209129015C
:102CA00030912A0182279327EFCF8695CC2011F00F
:102CB0008C2F8170882309F418CF4D2F42954695AB
:102CC0004770440F440F2D2F2F7030E0042E02C0A8
:102CD000220F331F0A94E2F790E080E0D4FF09C08E
:102CE0008FE090E002C0880F991F4A95E2F7809527
:102CF0009095C695C695C370C23099F078F440910E
:102D00003A0150913B01C13039F0822B932B84233F
:102D100095230E948309E9CE242B352B822B932BFC
:102D2000F8CF822B932B20913A0130913B018227DF
:102D30009327EFCFCF70CC2029F08C2F0E94B109C0
:102D40008D2F08CF8D2F0E94E9098C2F0E948809B2
:102D5000CCCE8D2FE2EFAE1699F1EA1570F0F0EFC0
:102D6000AF16D1F021EFA21691F0CC2009F45BC090
:102D7000B11074CE8C2F8F7127C033EFA31639F1A9
:102D800094EFA912F2CF80913D0182FD2EC08C2FCD
:102D90008F71CC20D9F218C0CC2069F0E4E0EB159B
:102DA00008F4A3CECF7181E090E002C0880F991F94
:102DB000CA95E2F7B8CFF5E0FB1508F496CEF2CF4E
:102DC0008C2F8F71C110C2CF0E94B1098ECE90E0BE
:102DD00080E0CC2009F49DCFCF7181E090E002C06B
:102DE000880F991FCA95E2F794CFCC2089F0CF7154
:102DF0008C2F0E94B10980913D0182FF07C028E01D
:102E0000C29FC00111248360809325018C2FDCCFE9
:102E100081E00E949A0931E03B1508F066CE82E01D
:102E20000E949A0962CEBB2059F0893309F0DACEAC
:102E30008FEF9DEEE2E081509040E040E1F7D0CE90
:102E40008C2F8F7183CFC631FCE7DF0729F5809186
:102E500028018A7A91E009F490E09093FC0069E2FD
:102E6000811165E384EF90E00E94BC040E94A508F4
:102E700066CBC6312CE7D20709F4D5CC8091280166
:102E80008272FE01E052F847E531F10508F077CD96
:102E9000E751FF4D0C944C1FC3303CE7D30709F4B6
:102EA0005DCD50F4C1159CE7D90709F44ACDC13076
:102EB000DC4709F459CD63CDCB35FCE7DF0709F4D6
:102EC000ADCDCC352CE7D20709F450CDCA35DC475F
:102ED00009F055CD81E051CDE851FC47E730F105CF
:102EE00040F6E250FF4D0C944C1FFE01E851FC47A8
:102EF000E730F105B0F31092A902CE019057839705
:102F000008F0A1CF84E090E00E941B2090933D0147
:102F100080933C01FE01E150F047E232F10508F0F8
:102F2000C5CBEB5FFE4D0C944C1FCF93DF9380918C
:102F30002401807F09F04DC080912301882309F48A
:102F400048C0E091A60250916D02C0911F01D0913E
:102F50001E01609120017091210147E05E17C9F1C7
:102F60008E2F90E0E49FF0011124E259FD4F24815F
:102F7000222391F1489FF001499FF00D1124DF01B8
:102F8000A259BD4F11962C9111972C1325C02C914D
:102F90002D1322C015962C91159721111DC0129644
:102FA0002D913C91261B370B283C3105A8F48091CC
:102FB00024018F70806180932401EC58FD4F808143
:102FC0008F70806180838EE191E00E9464120E9484
:102FD000CF08DF91CF910895FC013196E770BECF05
:102FE000A4E1B0E0E6EFF7E10C94DD1E8C0186E091
:102FF000F801DE011F9601900D928A95E1F7F80124
:103000008481E5809EE1A92E91E0B92E9091220164
:10301000911128C0882319F1EE20F1F0C8010E9417
:10302000C609F82E8823C1F087E0F801D501019088
:103030000D928A95E1F780912201813031F48091DF
:103040001E0190911F010E940D090E9495178F2D5E
:103050006496ECE00C94F91EC8010E946412FF24EF
:10306000F394F5CFD080C18082809380F0902301CB
:103070002091200130912101A401421B530BFF201C
:1030800009F4D9C0483C510508F092C08823F9F2F0
:1030900090911F0180912401282F207F09F056C0B4
:1030A000C91214C090911E01D91210C0E11048C07D
:1030B0008F708061809324018EE191E00E94641200
:1030C00080912401F8018683F12CC1CFE11038C032
:1030D0006C2D8D2D0E9431046C2D8D2D0E9431049C
:1030E000E82E8111F1CFDF86C88A8F8598890E94EA
:1030F0000D09292F22952F70243058F49F7022300B
:1031000088F0992399F0F8019681907F79F4FE2C4C
:103110009ECF2A5F2F70223068F0C8010E9464128F
:10312000EF2CF5CF992311F0882389F3805E883046
:1031300070F3F3CF803F58F3815F833070F7E7CFB0
:1031400080912401816080932401BECFC91207C001
:1031500090911E01D91203C0EE2009F48DC0C80160
:103160000E94C609882309F477CFEE2009F474CFB2
:1031700080912401803288F020911E0130911F013E
:10318000398728879B868A86909122019C871D8695
:103190008E87CE0108960E94641287E0F801AEE1A6
:1031A000B1E001900D928A95E1F70E94951757CFF3
:1031B00090912401292F207F51F48EE191E00E940B
:1031C000641287E0F50111928A95E9F77DCF882393
:1031D00009F43DCF80911F018C1110C080911E0118
:1031E000D8120CC0E1100AC09683C8010E94641274
:1031F00087E0F50111928A95E9F729CFC8010E946D
:10320000C609882309F428CFEE2009F425CF809140
:103210002401803210F220911E0130911F013A8367
:1032200029839C828B82909122019D831E828F83B1
:10323000CE010196B0CF483C5105D0F6882309F461
:103240000ECFFE2CEE2009F407CF80911F018C11C8
:1032500020C080911E01D8121CC08091240180FDE5
:103260000FC0982F907F61F08683903F31F0982FA8
:10327000907F905F8F70892B8683C8010E946412B3
:1032800087E0F801AEE1B1E001900D928A95E1F797
:10329000DECEC8010E94C60981117FCF8091240132
:1032A000816080932401C8010E946412D0CEABE1FA
:1032B000B0E0EDE5F9E10C94E51E4E8B5F8B688F75
:1032C000798F8A8F9B8F192F9111109227011D8A58
:1032D00086E0FE017696DE011F9601900D928A959A
:1032E000E1F70A8D002341F021E04F855889698973
:1032F0007A89C8010E94860A0B8B1C8B87E0FE012D
:103300003F96DE01189601900D928A95E1F7CE0165
:1033100008960E94F01781112AC087E0FE013896B6
:10332000DE01119601900D928A95E1F78C85882334
:10333000F1F020916D0230E0C90101968770992764
:103340004091A60248171906E9F097E0929FD00134
:10335000939FB00D1124A259BD4FFE0131960190EB
:103360000D929A95E1F780936D020E94CF0817E0C5
:103370008091A60290916D02891312C06B96E4E0D1
:103380000C94011F0E94941010926D021092A602DC
:1033900087E0EEE1F1E0DF011D928A95E9F7E7CFE2
:1033A000819FC001112482599D4F0E94F0178823EC
:1033B00029F38091A60290E0019687709927809367
:1033C000A602D6CFAAE0B0E0E8EEF9E10C94D91E4F
:1033D0008E010F5F1F4F8AE0F80111928A95E9F77D
:1033E00096EBE92E90E0F92E68012BEB422E20E0BF
:1033F000522E66246394712C47EC842E40E0942E68
:10340000F70181917F018F3F09F445C0F894E82FBF
:10341000E295EF70F0E021A98F70A30102C0440F84
:10342000551F8A95E2F7CA01922F982B91AB92A96A
:103430008095892382AB789400C0EBEBF0E021E02B
:1034400030E0B12CA12C41914F3F09F464C0A42F6E
:10345000A295AF70B0E0D0968C9190E04F7002C012
:10346000959587954A95E2F780FD55C0C901A82A30
:10347000B92A220F331F8E169F0629F7F7013197BD
:1034800080818F3F11F00E94650658E75A95F1F749
:10349000F601B182A082F2E0CF0ED11C4E145F047F
:1034A00009F0AECF4AE050E0B80180E391E00E941D
:1034B0000020892B99F18AE0F801A0E3B1E00190A6
:1034C0000D928A95E1F781E080932F010E94891186
:1034D00090932E0180932D0180912D0190912E01CA
:1034E0000E947A110597F0F04AE050E060E371E045
:1034F0008FE391E00E940020892BC9F08AE0E0E38D
:10350000F1E0AFE3B1E001900D928A95E1F781E03F
:1035100010922F0108C090E080E0A9CF80912F0188
:103520008111DACF80E02A96E0E10C94F51E80E06C
:10353000EFCFA6E0B0E0EFE9FAE10C94E51E0E94BF
:1035400089118C0180912B0190912C01801791079A
:1035500081F019821A820E948911682F49815A814B
:10356000792F80E090E00E94571910932C0100936E
:103570002B012696E4E00C94011F1F920F920FB6C8
:103580000F9211242F933F934F935F936F937F93E9
:103590008F939F93AF93BF93EF93FF9380917A00A4
:1035A0008230A1F08F5F80937A00FF91EF91BF91FD
:1035B000AF919F918F917F916F915F914F913F91CB
:1035C0002F910F900FBE0F901F90189581E0809360
:1035D0007A008091CE019091CF01019660ED72E06A
:1035E0000E94C31E9093CF018093CE0165E070E0EE
:1035F0000E94C31E67FD6FE78091CD01823031F4D8
:10360000603441F489B78B7F89BF04C0813011F4E5
:103610006F37C1F3E62FF0E0EA52FC4F2491A6B5D4
:10362000B7B530E00E94C5202FEF30E040E050E019
:103630000E94A320C9016CE070E00E94C31E80912B
:10364000CC01869586958695282F269FC001279FB9
:10365000900D11240E942D0599BD88BDA6CF00D0E4
:1036600000D000D0CDB7DEB784B7806884BF84B700
:10367000806884BF0E9489119093570180935601FE
:1036800083E696E09093F3008093F20085B788601C
:1036900085BF8BB780688BBF8BE48093B602809325
:1036A000EB028093C2028AE58093B5028093EA021E
:1036B0008093C1028B9A80E0815009F063C08B989F
:1036C00078948BE083BF8BEB8CBF82E089BF06EBE5
:1036D00010E02BEBE22E20E0F22EF80181918F0119
:1036E0008F3F11F00E946506E016F106B1F70BEB73
:1036F00010E0D8018D918D018F3F11F00E94650679
:10370000B0E0073C1B07A9F78AE0EFE3F1E0DF0137
:10371000282F1D922A95E9F7E0E3F1E0DF011D92E1
:103720008A95E9F790E080E00E941B20863E9E4F3C
:1037300011F00E94BE1082E090E00E940D20809364
:10374000490184E090E00E941B2090933D0180930A
:103750003C010E94E219EFE3F9E121E0E150F04081
:103760002040E1F700C000000E94E21980913F0173
:1037700080FF10C06FEF7FEF90E080E00E944E204E
:103780000E94690CA895A7EBBBE01197F1F700C068
:10379000000092CF83E090E00E940D2090E00E9414
:1037A000C1098C9A949882E28FBD89E18EBD8FEF1A
:1037B0009FEF97BD86BD0E942C118091CC0181FFA7
:1037C00009C01092CF011092CE011092CD0189B79D
:1037D000846089BF0E942C1180913E01811176C0C6
:1037E00090E080E00E941B20863E9E4F21F00E94C8
:1037F000BE100E94691088E090E00E9415204B01E5
:103800005C0184E290E00E940D20282F30E040E02F
:1038100050E060E070E080E090E000E20E94611F14
:10382000282939294A295B292093C4013093C501ED
:103830004093C6015093C7016093C8017093C901BA
:103840008093CA019093CB012E7F89F50E94691065
:1038500088E090E00E9415206B017C0184E290E0FA
:103860000E940D20282F30E040E050E060E070E042
:1038700080E090E00E94611FB22FA32FF42FE52F6C
:103880005B0197018601BC29A12BFE29E32BB09394
:10389000C401A093C501F093C601E093C7016093F2
:1038A000C801B092C9018093CA019093CB010E94D4
:1038B000BE0510925F018091C40180FF04C060E0EA
:1038C00086950E94F51181E080933E0184E690E0A8
:1038D0009093D3018093D2018FEB94EDA1E08150BE
:1038E0009040A040E1F700C0000084E5482E81E050
:1038F000582E9FEB692E91E0792E8091D002109185
:103900005501882349F11092D0020E9489119093A9
:10391000570180935601112309F40EC110925501ED
:103920000E9494100E942C110E9420058091550144
:10393000882309F401C10E94820A0E94E219EFE380
:10394000F1E089E491E021913191232B09F0DAC073
:103950008E179F07C1F7D1CF1111EDCF809156017E
:10396000909157010E947A11069708F4E5C0B1E0E2
:10397000B09355010E94820ADECF2817390709F05B
:10398000FDC00E94991A80915F018823D1F1809136
:103990005E01E091C401E695E81BE0935A01823094
:1039A00009F045C0F0E0E353FE4FE4910E2F10E024
:1039B000F5E3EF2EFFE0FF2E80915B01882361F09D
:1039C00010925B010E9489119093590180935801D4
:1039D00010925D0110925C010E948911E0915801E2
:1039E000F09159018E1B9F0B8F3F9F4750F4E00FC2
:1039F000F11FF0935901E093580188E591E0F70138
:103A000009950E94200590915401891769F08093CF
:103A100054018FB7F8944091D6015091D70160912D
:103A2000D8017091D9018FBF0E940E0C66CF8630ED
:103A300059F4F0E0E653FE4FE4910E2F10E0E5E27A
:103A4000EE2EEFE0FE2EB8CF893061F4E695F0E07F
:103A5000E953FE4FE4910E2F10E079E9E72E7EE066
:103A6000F72EAACF8F3061F4E695F0E0EC53FE4FCD
:103A7000E4910E2F10E064E3E62E6EE0F62E9CCF6C
:103A8000853159F4F0E0EF53FE4FE4910E2F10E032
:103A900056EEE52E5DE0F52E8FCF08E210E02BE626
:103AA000E22E2DE0F22E883109F486CF833241F4E4
:103AB000F3010591149144EDE42E4EE0F42E7CCFF9
:103AC00004EF11E094E3E92E9DE0F92E843209F42D
:103AD00073CF853281F48E2F63E00E941E1FE92F81
:103AE000F0E0E454FE4FE4910E2F10E03EE9E32EA7
:103AF0003CE0F32E61CF00ED17E087EBE82E84E089
:103B0000F82E5ACFF89421B3939A822F8C6081BB00
:103B100092B33CE0932792BBFFE54AEE80E0F15080
:103B200040408040E1F700C0000082B3832782BBA1
:103B300021BB93987894E1CE0E94AB0A80916502F4
:103B4000882309F471CF8091B50284FF6DCF0E9464
:103B5000E2191AE4A12E11E0B12E0FE3802E01E04C
:103B6000902ED401F501219131918D919D914E16A8
:103B70005F0609F402CF28173907A9F3312CF401A5
:103B8000019111914F01D501CD90DD905D01C016DD
:103B9000D10661F1212CEE24E394F12CC026D1262C
:103BA000C6018E219F21892BB9F029823A820E9479
:103BB00089119C838B83B1E0BD8391E098012E2114
:103BC0003F21232B09F490E09E8349815A816B8128
:103BD0007C818D810E9457192394EE0CFF1CECE030
:103BE0002E12DECFF5013297118300833394F5E076
:103BF0003F12C5CF8FB7F8944091D6015091D701AD
:103C00006091D8017091D9018FBFBDCE11B887E006
:103C100080B985B3836085BB86B7846086BF86B76D
:103C2000816086BF86B7806486BF0895B0E0A0E05B
:103C3000ECE1FEE10C94DE1EB82EEB010E9489112E
:103C40006C01EE24E394F12CC431D10560F025E041
:103C5000E22EF12CCF3FDC0731F0CE0164E170E0C1
:103C60000E94C31E7B0184EAA82E94E8992E16BEFA
:103C7000A6BE0E9489118C0106B607FE0BC081B159
:103C8000887F8830F1F081B1887F8031D1F00FEFEB
:103C90001FEF08C0C8010E947A11E816F90660F704
:103CA0000EEF1FEFCF3FDC0711F3C6010E947A1120
:103CB000C817D907E0F6C801CDB7DEB7EBE00C9422
:103CC000FA1EB3B896BE0E9489118C0106B607FE93
:103CD00009C081B1887F883111F08034C1F610E0CD
:103CE00000E0E9CFC8010E947A11E816F90670F7E2
:103CF000D7CF0F931F93CF93DF93EB0183B984E862
:103D000086BF0E9489118C0106B607FE10C021B142
:103D1000287F81E090E0283211F490E080E09195D6
:103D200081959109DF91CF911F910F910895CF3F18
:103D3000DC0751F3C8010E947A11C817D90720F790
:103D40008EEF9FEFEFCFB0E0A0E0E9EAFEE10C9448
:103D5000E11E6B018A017901B9010E94161EE6017C
:103D60000C0D1D1DC017D10711F097FF07C024E9E6
:103D700026BFCDB7DEB7E8E00C94FD1EB7018991F0
:103D80000E94791EEFCFAA1BBB1B51E107C0AA1FDF
:103D9000BB1FA617B70710F0A61BB70B881F991FEC
:103DA0005A95A9F780959095BC01CD0108952F9261
:103DB0003F924F925F926F927F928F929F92AF92BB
:103DC000BF92CF92DF92EF92FF920F931F93CF9308
:103DD000DF93CDB7DEB7CA1BDB0B0FB6F894DEBF9F
:103DE0000FBECDBF09942A88398848885F846E84C5
:103DF0007D848C849B84AA84B984C884DF80EE800F
:103E0000FD800C811B81AA81B981CE0FD11D0FB617
:103E1000F894DEBF0FBECDBFED010895DB018F9397
:103E20009F930E949020BF91AF91A29F800D911D02
:103E3000A39F900DB29F900D11240895991B79E0D6
:103E400004C0991F961708F0961B881F7A95C9F72A
:103E50008095089587FB082E062687FD819567FDCE
:103E600061950E941E1F0EF4919507FC819508959F
:103E700097FB072E16F4009407D077FD09D00E9417
:103E8000C31E07FC05D03EF4909581959F4F089581
:103E9000709561957F4F0895EE0FFF1F0590F49187
:103EA000E02D09940E94C520332312F48A1B9B0B3A
:103EB0000C945C1F0E94C520B7FF0895821B930BD2
:103EC0000895002E083090F0982F872F762F652FB9
:103ED000542F432F322F22270850F4CF220F331FA5
:103EE000441F551F661F771F881F991F0A95B2F739
:103EF000002D089597FD1094002E083098F008507A
:103F0000232F342F452F562F672F782F892F912D50
:103F1000F4CF15949795879577956795579547951D
:103F2000379527950A95AAF71124002D08958F92A9
:103F30009F92AF92BF92CF92DF92EF92FF92CF9378
:103F4000DF93EC01688179818A819B81611571051C
:103F50008105910521F464E279ED8BE597E02DE18F
:103F600033EF41E050E00E94712049015A019B016A
:103F7000AC01A7EAB1E40E9490206B017C01ACEE99
:103F8000B4EFA50194010E949E20DC01CB018C0DB1
:103F90009D1DAE1DBF1DB7FF03C00197A109B0480D
:103FA00088839983AA83BB839F77DF91CF91FF900A
:103FB000EF90DF90CF90BF90AF909F908F9008953B
:103FC0000E94971F089580E690E00E94971F089531
:103FD000B0E0A0E08093600090936100A093620045
:103FE000B09363000895FC014150504030F00190BF
:103FF0000616D1F73197CF0108958827992708959C
:10400000FB01DC0104C08D910190801921F4415025
:104010005040C8F7881B990B0895E199FECF9FBBCC
:104020008EBBE09A99278DB30895A6E1B0E044E0F5
:1040300050E00C946320A8E1B0E042E050E00C9422
:104040006320DC01A40FB51F4150504048F0CB0164
:10405000840F951F2E910E94322041505040D0F77E
:104060000895262FE199FECF9FBB8EBBE09A019762
:104070000DB2021631F02DBB0FB6F894E29AE19A18
:104080000FBE08950396272F0E9432200E943120F0
:10409000252F0E943220242F0C9432200196272FA6
:1040A0000E9432200C943120262FE199FECF9FBB35
:1040B0008EBB2DBB0FB6F894E29AE19A0FBE019623
:1040C0000895DC01CB01FC01E199FECF06C0FFBBE6
:1040D000EEBBE09A31960DB20D9241505040B8F7C8
:1040E0000895052E97FB1EF400940E94882057FD2A
:1040F00007D00E94A32007FC03D04EF40C94882024
:1041000050954095309521953F4F4F4F5F4F089503
:1041100090958095709561957F4F8F4F9F4F089533
:104120000E94C520A59F900DB49F900DA49F800D67
:10413000911D11240895B7FF0C9490200E949020A7
:10414000821B930B0895A1E21A2EAA1BBB1BFD0133
:104150000DC0AA1FBB1FEE1FFF1FA217B307E40766
:10416000F50720F0A21BB30BE40BF50B661F771FBE
:10417000881F991F1A9469F760957095809590959E
:104180009B01AC01BD01CF010895A29FB001B39F77
:10419000C001A39F700D811D1124911DB29F700D50
:1041A000811D1124911D0895F894FFCF8812B31238
:1041B000E912BB12D51203131A13151515154D1557
:1041C0004D15F61575157515751512169A16A9164D
:1041D000A91628144D14541459145E146314681449
:1041E0006D14721477147C148114841489148C1443
:1041F0008F149214951498149B149E144313471310
:1042000038133F134B134F13531390130514981384
:10421000621366139C136A13A013AC137613FE1378
:104220007A13B0137E13B413DC138213B813E313A1
:104230008813BE13C6136E13A4137213A8138C1322
:0E424000C213D213EC13FC135C1394130C1472
:10424E0001000000B9043D0CB804040C01191A1B3E
:10425E001C1D1E1F20212201020101FF5A81828393
:10426E00E200E900EA00B500B600B700CD00830118
:10427E00CC008A019201940121022302240225021C
:10428E00260227022A02B300B4006F0070009F01BD
:10429E00CB019F02A002606162636490919293943D
:1042AE00959697373635340001020202020606064D
:1042BE000909090909090F0F0F0F0F0F1515151809
:1042CE00191919191919191919192324252525250B
:0242DE00252594
:00000001FF
