:100000000C949D020C94BA020C94D5020C94BA0282
:100010000C94BA020C94BA020C94BA020C94BA0270
:100020000C94BA020C948E1A0C9432100C94BA02EE
:100030000C94BA020C94BA020C94BA020C94BA0250
:100040000C94BA020C94BA020C94BA020C94BA0240
:100050000C94BA024C00130012000C00150017009B
:100060001C00180008001A0014002B0028003300A0
:100070000F000E0009000A000B000D00070016001B
:10008000040029002A002700260025002100220064
:100090002300240020001F001E00640034003800EC
:1000A00037003600190005001100100006001B0083
:1000B0001D00E10000000000E600E50002512C00F8
:1000C0002C000151E300E000E200350001004E0089
:1000D0004B004D003D00010001004A003C003B0088
:1000E0003A00010001004F005200510041000100A0
:1000F0000100500040003F003E00010001000100EF
:1001000001000100010001000100010001000100E7
:100110000100010001000100010001004500010093
:100120000100010044004300420001000100010001
:1001300001000100010001000100010001000100B7
:100140000100010001005700610060000100010092
:1001500001005F00010001000100010001008500B5
:100160005E005D000100010001005C000100010073
:10017000010001000100560055005400010001007B
:1001800001005300A800AA00A900010001006700B7
:100190005B005A000100010001005900010001004C
:1001A0000100010001000100630062000100010084
:1001B00001000100010001000100010000047F3F77
:1001C0001F643214643214783C1E1E140A050001A8
:1001D0000101010101010101020202020202020207
:1001E00002030303030303030304040404040404D9
:1001F000050505050506060606060707070707089D
:10020000080808090909090A0A0A0B0B0B0C0C0C4F
:100210000D0D0D0E0E0E0F0F0F10101111111212E9
:1002200013131414151516161717181819191A1A66
:100230001B1B1C1D1D1E1E1F2020212222232424C7
:10024000252626272829292A2B2C2D2D2E2F303103
:100250003232333435363738393A3B3C3D3E3F4015
:100260004142434445464748494A4C4D4E4F505100
:100270005354555658595A5B5D5E5F6162646566BA
:1002800068696B6C6D6F7072737577787A7B7D7E41
:100290008082838587888A8C8E8F91939596989A91
:1002A0009C9EA0A2A3A5A7A9ABADAFB1B3B5B7BAA9
:1002B000BCBEC0C2C4C6C9CBCDCFD1D4D6D8DBDD7D
:1002C000DFE2E4E7E9EBEEF0F3F5F8FAFDFFFFAA71
:1002D0007F55402223252628292A2C2D2F303233E2
:1002E0003536383A3B3D3E4042434547494A4C4EFD
:1002F0005051535557595A5C5E6062646668696B29
:100300006D6F71737577797B7D7F81838587898A2E
:100310008C8E90929496989A9C9E9FA1A3A5A7A834
:10032000AAACAEAFB1B3B4B6B8B9BBBCBEBFC1C264
:10033000C3C5C6C7C9CACBCCCDCED0D1D2D2D3D4F7
:10034000D5D6D7D7D8D9D9DADADBDBDBDCDCDCDC15
:10035000DCDDDDDDDDDCDCDCDCDCDBDBDBDADAD9E3
:10036000D9D8D7D7D6D5D4D3D2D2D1D0CECDCCCB65
:10037000CAC9C7C6C5C3C2C1BFBEBCBBB9B8B6B483
:10038000B3B1AFAEACAAA8A7A5A3A19F9E9C9A9813
:10039000969492908E8C8A89878583817F7D7B79E4
:1003A000777573716F6D6B6968666462605E5C5AC5
:1003B0005957555351504E4C4A4947454342403E88
:1003C0003D3B3A3836353332302F2D2C2A2928261A
:1003D00025232200000000000000000000000101B1
:1003E0000203040506080A0C0F1114181C20242906
:1003F0002E33393F464C535B626A7179818A929AF7
:10040000A2AAB2B9C1C8CFD5DCE1E7EBF0F4F7FAA4
:10041000FCFDFEFFFEFDFCFAF7F4F0EBE7E1DCD5B6
:10042000CFC8C1B9B2AAA29A928A8179716A625B75
:10043000534C463F39332E2924201C1814110F0C1D
:100440000A08060504030201010000000000000084
:1004500000000005010980A101850319012AB700E8
:10046000150126B700950175108100C0050C090122
:10047000A101850419012AA002150126A0029501F7
:1004800075108100C005010906A101050719E029C1
:10049000E715002501950875018102950175088110
:1004A000030507190029FF150026FF0095067508AA
:1004B000810005081901290595057501910295012D
:1004C00075039103C00A034A004A0035003000005A
:1004D0000016034B0050007200650070007500624A
:1004E000006C006900630000000403090409023B7A
:1004F00000020100A0FA0904000001030101000943
:1005000021010100012240000705810308000109C3
:100510000401000103000000092101010001223251
:100520000007058303080001120110010000000804
:10053000504B500000020102000111241FBECFE504
:10054000D8E0DEBFCDBF22E0A4EEB0E001C01D9236
:10055000A53AB207E1F710E0A0E6B0E0E4E8FFE377
:1005600002C005900D92A43EB107D9F70E94001B6E
:100570000C94AD1F0C940000A82FB92F80E090E0E0
:1005800041E050EA609530E009C02D9182279795AF
:10059000879510F084279527305EC8F36F5FA8F326
:1005A0000895EADF8D939D930895CF93CFB7CF93AE
:1005B000C395839BE9F7839B0EC0839B0CC0839BF1
:1005C0000AC0839B08C0839B06C0C0917F02C3956D
:1005D000C0937F02A6C0DF93C0917E02DD27CD5776
:1005E000DD4F839B02C0DF91E6CF2F930F931F93C4
:1005F00000B32FEF03FB20F94F933F9310B34FEF5E
:10060000012703FB21F93BE031C04E7F012F10B3DE
:10061000216028C0102F4D7F2260000000B329C048
:100620004B7F2460012F000010B32BC010B3477F15
:1006300028602AC04F7E00B320612CC04F7D10B3CC
:1006400020622FC04F7B00B3206432C0422700B32A
:1006500049934FEF0000102713FB20F910B31C70D3
:10066000C9F1297F91F2012703FB21F900B3237F10
:1006700089F2315058F1102713FB22F910B3277E6D
:1006800079F2012703FB23F92F7C81F200B31027B5
:1006900013FB24F92F7971F200C010B3012703FB7B
:1006A00025F92F7359F200C000B3102713FB26F968
:1006B000223040F200C010B3012703FB27F9243099
:1006C00028F64F77206810B30000F9CF10E81ABF62
:1006D00000271CC03B503195C31BD04010E81ABF07
:1006E0000881033C11F10B3401F120917C02198146
:1006F000110F1213EDCF4A81441F093669F10D32F3
:1007000011F0013E29F74F7009F0042F0093820287
:100710003F914F911F910F912F91DF91CAB7C7FD64
:1007200047CFCF91CFBFCF9118952091820222233E
:1007300079F310918002112309F044C034300AF497
:1007400043C03093800220937D0210917E023BE0F3
:10075000311B30937E0238C000918002013094F545
:100760000AE54F7049F430917C0034FD2FC00093AE
:100770007C00C9E5D2E02EC0433059F0443091F0FE
:100780003091640234FD22C000936402C5E6D2E0D9
:1007900021C03091990234FD19C000939902CAE931
:1007A000D2E018C03091700234FD10C00093700286
:1007B000C1E7D2E00FC02795A8F45150A9F4220F49
:1007C0000000F9CF4AE503C042ED01C0432FC4E168
:1007D000D0E032E011B31C60939A11BB02B320E465
:1007E0001CE05F93012756E002BB279520F451508F
:1007F00021F4220FF9CF012756E000003B5A02BB3B
:10080000D0F2279528F4515029F4220F0000F9CF97
:10081000012756E0279502BB20F4515021F4220F06
:10082000F9CF012756E02991332302BB21F6037F3C
:1008300010918102110FC651D04002BB11F01093EC
:100840007C0210E81ABF086011B3137F402F437F6A
:100850005F9100C000C002BB11BB42BB59CFFC017D
:100860009381933059F130F49130C1F09230F1F02E
:1008700080E00895913209F440C09232C9F7848132
:100880009581009709F44AC0019791F783E594E0B8
:10089000909355028093540282E3089588E295E094
:1008A000909355028093540282E108958DEE94E076
:1008B00090935502809354028BE308958281813096
:1008C000A1F0882351F0823099F685EC94E0909362
:1008D0005502809354028AE0089589EE94E0909343
:1008E00055028093540284E0089581ED94E0909342
:1008F00055028093540286E108958281882331F065
:10090000813009F0B5CF88E195E002C08FEF94E027
:10091000909355028093540289E0089585E894E00D
:10092000909355028093540280E4089508950895A9
:10093000089580914F0208959C01FC0132969FEF2B
:1009400080E04191461751F09F3F19F4411101C0D9
:10095000982F8F5F8630A9F79F3F09F40895290FDC
:10096000311D97FD3A95F901628308952091B701F1
:100970003091B8012817390771F09093B80180932E
:10098000B701E091B501F091B601309721F00084F4
:10099000F185E02D099508952091B3013091B401BE
:1009A0002817390771F09093B4018093B301E09157
:1009B000B501F091B601309721F00680F781E02D66
:1009C00009950895E091B501F091B601309729F0AD
:1009D0000190F081E02D0995089580E00895B0E040
:1009E000A0E0E5EFF4E00C94771E8C0186B597B596
:1009F0006CE070E00E945D1E6017710758F0C8013E
:100A000069E070E00E945D1ECB01CDB7DEB7ECE07F
:100A10000C94931E86B597B5E6B4F7B4C6B4D7B4B4
:100A2000C6E0D0E0BE010E945D1E30E020E0060F6F
:100A3000171F211D311D4801590185E0880C991CA3
:100A4000AA1CBB1C8A95D1F7C701BE010E945D1E7E
:100A5000F12CE12CA7019601260F371F411D511DD6
:100A6000C501B4010E947C1F69017A01E6B5F7B5A2
:100A7000CA01B9010E94A81E9B01AC01DF010E94BE
:100A8000691F9B01AC01C701B6010E94A81E2FE09F
:100A900096958795779567952A95D1F706B517B5F9
:100AA00030E020E0061717072807390708F0ACCF19
:100AB00066B577B5A9CF8D30C0F4811117C09FB549
:100AC0009F7D9FBD9498A6B5B7B5282F30E00E94B2
:100AD0009E1F2CE030E040E050E00E947C1FC901E6
:100AE0000E94EF0499BD88BD08958CE09FB5906287
:100AF0009FBDE9CFFA01811101C0FB01099508955D
:100B00008091AA01982F9E7F29F481708260809342
:100B1000AA0108958A34E8F381708864F8CFAF920F
:100B2000BF92DF92EF92FF920F931F93CF93DF93C9
:100B3000082F162FE901E42FF0E0E253FE4F611178
:100B400010C0E4915E2F4E2F4983E8835A83DF91D2
:100B5000CF911F910F91FF90EF90DF90BF90AF90DA
:100B60000895E62EF12C4491D42EE42FF0E026E0F7
:100B7000829FC00111242FEF30E0B9010E945D1E59
:100B8000802F90E0880F991F55E5569FD001579F01
:100B9000B00D11248A1B9B0B982F990F890F5901B7
:100BA000AE18BF08AE9ED001AF9EB00DBE9EB00D78
:100BB00011245B2F189F80011124012F1127590147
:100BC000A01AB10AAE9E8001AF9E100DBE9E100D00
:100BD00011245901A81AB108AE9CC001AF9C900D18
:100BE000BE9C900D1124892F9927281B390B2E9F0D
:100BF000C0012F9F900D3E9F900D1124E92F623070
:100C00007105A1F050F46115710509F49DCF6130B3
:100C1000710581F0EB2F512F97CF6430710569F08A
:100C200080F06630710509F48FCFF4CFE42F4B2F9D
:100C3000592F8ACFE42F412F87CFEB2F542F492FE5
:100C400083CF4B2F5D2DE12F7FCF80E00895F89467
:100C5000E82FE295EF70F0E031A9282F2F7081E0A6
:100C600090E001C0880F2A95EAF7982F909593237A
:100C700091AB92A9892B82AB7894089590915C01F5
:100C800092FF06C0282F28712830F9F4877F8460EE
:100C900093FF06C0282F28712831F1F4877E8461E4
:100CA00020915D0120FF06C0382F38713830D9F40B
:100CB000877F816021FF06C0282F28712831D1F459
:100CC000877E816194FD877E0895282F24712430CA
:100CD000F9F68B7F8860DCCF282F2471243101F74F
:100CE0008B7E8861DDCF382F3171313019F78E7FDF
:100CF0008860E0CF282F2171213121F78E7E886115
:100D0000E1CF972F7530A8F46C3098F470E02CE0A8
:100D1000929F600D711D1124FB019CE3899FE00DE2
:100D2000F11D1124EE0FFF1FEC5AFF4F8591949196
:100D3000089580E090E00895CF93DF93EC0182382E
:100D40009105B1F108F040C08133910509F49DC0CF
:100D500048F58932910509F48DC08A9709F49CC041
:100D6000C11522E5D20708F0BDC0C11531E5D30792
:100D700008F024C1C83ED10508F0A3C0C13ED1058A
:100D800088F5C83AD10508F08EC0C53AD10508F0FB
:100D9000F6C0C130D10531F1209721F1C430D10521
:100DA00008F545C08533910509F45FC0C997C1F6C0
:100DB00080915C01837009F036C180915D0183FFF1
:100DC00011C0C9E2D0E00EC0833E910599F170F4E4
:100DD000803E910501F1823E910511F680915C0102
:100DE00082FD21C0CE01DF91CF910895863E91050D
:100DF00061F1873E910571F1843E910509F0B0CF14
:100E000080915D0181FFEECF80915C01C7EED0E063
:100E100084FD0DC0E7CF80915C0180FD33C09091CF
:100E20005D0190FFDFCFC3EED0E084FFDBCFD0E0E9
:100E3000C0E0D8CF80915C0182FDF2C090915D014D
:100E400090FDF1C084FFCECFF2CF80915C0183FD95
:100E5000DDCFC8CF80915C0183FDE8C090915D013A
:100E600091FFF0CFC4EED0E0BDCF80915C0185FF53
:100E7000B9CFA7CF80915C0185FDDBC080915D017A
:100E800083FFB0CFC9E3D0E0ADCF80915C0186FF96
:100E9000A9CFCAE2D0E0A6CF80915C0186FFA2CFA5
:100EA000C1E3D0E09FCFCF3BD10508F6C85AD0E0D0
:100EB000CC0FDD1FC058DF4F0990D881C02DD464FE
:100EC00091CFC11540E5D40708F064C0C11580E496
:100ED000D80708F05CC0CE019A9581159F4108F4AF
:100EE00081CFA5CFC11536E5D30718F5C11545E566
:100EF000D40708F07CC0C11584E5D80708F072C09B
:100F00009E01237033279C2F96959695C115D34546
:100F100008F459C0C1E0D0E002C0CC0FDD1F2A9513
:100F2000E2F730E2939FC0011124C82BD92BDA6875
:100F300059CFC1158AE5D80778F4C11529E5D2073C
:100F400008F060C0C11538E5D30708F470CFDC2F76
:100F5000CC27C06FD06A46CFCE0190568115904203
:100F600008F065CF8D2F8F710E943E0690E0982F7C
:100F7000882788279F719C012C2BE90141C0C55A05
:100F8000D0E0C358DF4FC881D0E0D0642BCFDF70F2
:100F9000D06A28CFCE018370992721E030E002C0CB
:100FA000220F331F8A95E2F7C695C69580E2C89F47
:100FB000E0011124C22BD32BDD6814CFDC2FCC270A
:100FC000C16FD06A0FCFC1E0D0E002C0CC0FDD1FEF
:100FD0002A95E2F720E2929FC0011124C82BD92B59
:100FE000DC6800CFDC2FCC27C46FD06AFBCE8C2FFF
:100FF0000E943E06C82FD0E0DC2FCC27CC27DF7123
:10100000D062F0CE8C2F8F700E943E0634E0D695D1
:10101000C7953A95E1F7CF709C2FEC01D069E2CEED
:10102000C2EED0E0DFCEC0EED0E0DCCEC6EED0E047
:10103000D9CEC5E3D0E0D6CE80914A01811110927D
:101040004A01089580959091490198239093490110
:1010500008958091490190914801892B8093E60081
:1010600090914A01992391F0892B8093E60020E02A
:1010700088EE90E0FC013191CF0131112F5FF0E05B
:101080008E3E9F07B9F721110E941C08E091B5011F
:10109000F091B601309731F00280F381E02D86EEB9
:1010A00090E009950895809146019091150198135B
:1010B00001C008958F5F8770FACFB0E0A0E0E3E64B
:1010C000F8E00C947A1E7C0100915A0110915B01AA
:1010D00080914B0190914C01082B192BCFE0D0E06F
:1010E000CC24C394D12CBC2EC6010C2E02C0880F78
:1010F000991F0A94E2F780239123892B49F42197C1
:1011000090F7B12C8B2DCDB7DEB7E9E00C94961E8D
:10111000B7018C2F0E9481060E949C06019779F3EB
:10112000F1CFCF93DF93EC010E945D08BE010E94D6
:1011300081060E949C06DF91CF910895953078F545
:101140008C3068F5E82FF0E08CE0989FE00DF11D01
:1011500011249E2F977083E0F695E7958A95E1F725
:10116000EE0FFF1FEE0FFF1FE151FF4F50E040E079
:1011700080E0219130E0092E02C0369527950A942F
:10118000E2F721703327042E01C0220F0A94EAF7F8
:10119000822B4F5F5F4F4430510559F7089580E02F
:1011A0000895953098F58C3088F5E82FF0E08CE0C4
:1011B000989FE00DF11D11248E2F877041E001C032
:1011C000440F8A95EAF783E0F695E7958A95E1F76B
:1011D000EE0FFF1FEE0FFF1FE151FF4F30E020E049
:1011E00070E05191DF011197CB01022E02C096955C
:1011F00087950A94E2F78170819585278423852756
:101200008C932F5F3F4F2430310559F70895FC012F
:1012100083819481892B29F08081918189238F3F5B
:1012200051F480E00895843FE1F717C0883EA8F0AC
:10123000813FB9F712C0808191810E9491089295F7
:101240009F70963099F358F4925F9F70923048F7F0
:10125000803F19F040F7883E20F781E008959A5FBB
:10126000F4CF90E080E00E94CC0490E080E00E9407
:10127000B604109248010E942908089590935B01DA
:1012800080935A010E943109089521E030E002C0A4
:10129000220F331F8A95E2F72095309580915A01ED
:1012A00090915B01822393230E943E0908959091BF
:1012B00047018095892380934701282F277091F457
:1012C000282F082E000C330B9217130659F090911B
:1012D0005D0192FF07C08595859585950E9445091A
:1012E00010924701089521E030E002C0220F331F21
:1012F0008A95E2F780915A0190915B01822B932BA2
:101300000E943E09089590934C0180934B010E94E6
:1013100031090895882321F00E9422080E9429089B
:101320000895882339F090914901982B90934901B1
:101330000E9429080895882391F19CEF980F913A13
:1013400080F4E8EEF0E02EEE30E09191891303C0D6
:10135000DF0111971C922E173F07B9F70E94290849
:10136000089590E2980F983050F4877091E001C092
:10137000990F8A95EAF7892F0E942208EFCF9BE503
:10138000980F933028F490E080E00E94CC040895F8
:10139000885A873120F490E080E00E94B6040895D6
:1013A000CF93C82F8823B1F08CEF8C0F813A00F5D2
:1013B000E8EEF0E08EEE90E0DF012D91C21761F0D3
:1013C0008A179B07D1F76C2F86EE90E00E949C0451
:1013D0000E942908CF9108952191C21303C0DF0113
:1013E00011971C928E179F07B9F70E942908EBCF1F
:1013F00080E28C0F883068F4C77021E030E001C0D3
:10140000220FCA95EAF780914901822B8093490106
:10141000DFCFEBE5EC0FE33040F4F0E0E358FF4FB3
:10142000808190E00E94CC04D5CFC85AC73190F695
:10143000EC2FF0E0EE0FFF1FE058FF4F808191810D
:101440000E94B604C7CFCF93DF9380918002835070
:1014500087FD67C090917E02CCE0D0E0C91BD10926
:10146000CD57DD4F90917D02903108F458C09D32E8
:1014700009F0F4C0883009F052C083EC809359021F
:101480008AE580937C00109253028881807609F46B
:1014900097C0803229F58981813099F48C819D81B2
:1014A000892BF1F486E492E09093550280935402E4
:1014B00088E09F81911131C09E81981770F5892F26
:1014C0002CC0823041F485E492E0909355028093E1
:1014D000540281E0EECF8A3029F48B81809345025B
:1014E00080E0E7CF8930E1F78A819B8181159240C6
:1014F00069F48C819D81892B49F481E080935202AB
:101500008E819F819093510280935002888187FF42
:10151000A3C08E8190E89093530280937B00109239
:10152000800280917C0084FF3EC080917B008F3FD1
:10153000D1F1C82F893008F0C8E0982F9C1B9093F8
:101540007B009091590228E89227909359028823B2
:10155000E9F080915402909155022091530226FFA8
:1015600099C0FC012C2FAAE5B2E034913D9331964D
:101570002150D9F79C012F5F3F4F8FEF8C0F820FC7
:10158000932F911D90935502809354026C2F8AE5FE
:1015900092E00E94D102CC5FCC3019F08FEF8093A3
:1015A0007B00C0937C0084E190B39C7031F4815047
:1015B000D9F71092810210927C02DF91CF910895A9
:1015C0002A8110926202998191110AC010926302DD
:1015D00022E632E082E0309355022093540269CF34
:1015E000953029F42093810222E632E0F4CF963040
:1015F000C9F49B81913051F4CE010E942F0490E4F4
:10160000909353028F3F09F481CF53CF9230A1F3CF
:10161000933091F3913281F3923271F390E490938D
:10162000530247CF983089F0993019F420934E0235
:10163000DBCF9A3071F09B30B9F69BE49093650252
:1016400090939A0290937102CFCF2EE432E081E022
:10165000C2CF22E632E0FBCF8FEF5CCF8091530206
:1016600087FF5DCF8091500290915102892B71F0DC
:1016700080915202813051F4888180934F02109200
:1016800051021092500210927B0049CF8EE180935C
:101690007C0045CFDC012C2FEAE5F2E03D9131934F
:1016A0002150E1F767CF1F93CF93DF93E82F792F76
:1016B000162FEA01888184FF1CC0298188E8282729
:1016C0002983CE010296DC012E2F372F512F5E0F7A
:1016D000F90121912D939F01452F4E1B1416C4F340
:1016E000612F0E94D1021C5F1883DF91CF911F915F
:1016F00008958AE58883E5CF90914402981307C046
:10170000209142023091430226173707B9F08093A7
:101710004402709343026093420280933F027093AD
:101720004102609340028091990284FF07C049E919
:1017300052E063E08FE392E00E94530B0895BC01F6
:1017400084E00E947C0B0895BC0183E00E947C0B26
:101750000895CF93DF93CAE0D0E08091640284FFC4
:101760001CC080913D0290913E02981799F028E0AC
:10177000829FC001112444E652E068E083549E4FEA
:101780000E94530B80913D0290E001968F70992743
:1017900080933D02DF91CF9108950E94230A87EB49
:1017A0009BE00197F1F700C000002197B1F6F2CF5E
:1017B000CF93DF93EC01A0913E02B0E0CD01019602
:1017C0008F70992720913D02281779F093E0AA0F96
:1017D000BB1F9A95E1F7A354BE4F98E0FE0101901C
:1017E0000D929A95E1F780933E020E94230A0E948F
:1017F000A90B88E0FE01A6E4B2E001900D928A9563
:10180000E1F7DF91CF91089560E081E090E00E94E0
:101810004C1F88E19CE00FB6F894A89581BD0FBEDF
:1018200091BDFFCF682F86E090E00E94291F0895A8
:10183000CF93C0915D01C2FB992790F9981791F061
:1018400080FBC2F9C0935D0160915C0184E090E08F
:101850000E94291F6C2F82E290E00E94291F82E0E3
:101860000E945709CF910895CF9384E090E00E94A1
:10187000151FC82F82E290E00E94151F982F8C2F11
:10188000CF9108958091AA0180FD0AC0E6E8F1E0B9
:10189000118210821282339681E0EA3AF807C1F78A
:1018A00080918201811105C00E94A01D81E080937A
:1018B000820124E630E044E250E066E871E080EB2B
:1018C0000E943D1E0895EF92FF920F931F93CF93B6
:1018D000DF938C01C6E8D1E0F12CE12CF801948172
:1018E0006091AC018091AB01F6E0EF16F104ECF4ED
:1018F0009923E9F09E014091AD010E948F052FEFE1
:10190000E21AF20A23968CE0E816F10439F70E94F5
:10191000420CF801848190E00196817099278483BC
:10192000CDB7DEB7E6E00C94991E992319F39E011A
:1019300040E0E3CFB0E0A0E0E0EAFCE00C94771EEA
:10194000EC014C81042F10E09801D8010E949E1FE9
:101950009B01AC010E94691F4B015C01E0E2F0E0D9
:10196000E01BF10BA5E5B0E0AC019B010E94691FF3
:101970006B017C019F01DF010E94E01E9B01AC0115
:101980000E94741F9B01AC01280D391D4A1D5B1D6F
:10199000C701B6010E947C1FF22E822F90E039E22F
:1019A0003F1598F143E0249F900111243595279528
:1019B000122F109596E8C92E91E0D92E00E085E50A
:1019C000E82EEF188E2D01FD8F2D9601412F60918D
:1019D000AC010E948F050F5F53E0C50ED11C0C3087
:1019E00089F70E94420C9C8181E0992319F0903282
:1019F00019F48FEF8093790080917900890F8C839F
:101A0000CDB7DEB7ECE00C94931E25E530E0A901DC
:101A1000481B590BCA019A01220F331F280F391F87
:101A200037FFC4CF2F5F3F4FC1CF0F931F93CF938B
:101A3000DF93C6E8D1E0FE01118210821282339654
:101A400081E0EA3AF807C1F710E000E080918401F4
:101A5000082E000C990B081719078CF1809178005B
:101A6000082E000C990B801791074CF19E014091B4
:101A7000AD016091AC018091AB010E948F050F5FB9
:101A80001F4F23960C30110509F70E94420C8091DC
:101A9000770090918401980F9093840120917800B1
:101AA000280F20937800121614F49B301CF08195B7
:101AB00080937700DF91CF911F910F910895198244
:101AC00018821A82DCCFB0E0A0E0E9E6FDE00C94D9
:101AD0007A1EFC018281DD24DA9480FD02C0DD24BF
:101AE000D39406E811E0D0E0C0E02CE0B22EF8017B
:101AF00011821082128294E0E92EF12CC12C809187
:101B000083018C0D8D30C4F16B2D0E94B81E892F7E
:101B1000082E000C990B8C179D0791F48091AD0154
:101B20008E9DA0018F9D500D11245595479555957B
:101B3000479598016091AC018091AB010E948F059F
:101B4000CD0CF1E0EF1AF108D1F621960D5F1F4F91
:101B5000CC30D10561F60E94420C8091830191E066
:101B6000D91210C081110CC08BE080938301CDB7D6
:101B7000DEB7E9E00C94961E87FFCACF845FC8CF1A
:101B80008150F3CF90E00196BE010E94C61EEDCFBA
:101B9000EF92FF921F93CF93DF93EC0186E8E82E3C
:101BA00081E0F82E10E08C8197014091AD016091A9
:101BB000AC01810F0E948F051B5E83E0E80EF11CD3
:101BC0001C3F89F70E94420C9A818C8190FF08C0CB
:101BD0008F5F8C83DF91CF911F91FF90EF900895DD
:101BE0008150F7CF9091AA0190FF0CC0E6E8F1E098
:101BF000818360834283339691E0EA3AF907C1F723
:101C00000E94420C0895A3E0B0E0E9E0FEE00C94ED
:101C10007F1E8C018091850181110AC09E012F5F7A
:101C20003F4F4FEF6FEF0E948F058A8180938501B0
:101C3000F8016481613069F08091850140E066239C
:101C400061F040E0623011F44091850180E060E095
:101C500004C06091850140E080E00E94F20DF8012F
:101C6000848190E0019663E070E00E94C61E848348
:101C70002396E4E00C949B1EA3E0B0E0E2E4FEE0D7
:101C80000C94811E9091AA0190FF0AC09E012F5FC3
:101C90003F4F0E948F054B8169818A810E94F20D1E
:101CA0002396E2E00C949D1ECF93DF93EC01EAEAC9
:101CB000F1E0438162818C810E943C0E8C818F5FB8
:101CC0008C83DF91CF910895CF93DF93EC01EC816A
:101CD000F0E0ED52FD4F4491EAEAF1E0628181814A
:101CE0000E943C0E8C818F5F8C83DF91CF91089591
:101CF000CF92DF92EF92FF926B017C010E948005F0
:101D0000B701A60188E090E00E943A1FFF90EF9093
:101D1000DF90CF900895A3E0B0E0E1E9FEE00C94FD
:101D2000741EF82E762EE42E622E9091AA0190FF5A
:101D300029C0E92FE695AE2FB0E0A154BF4F8C919A
:101D4000809380019E7F923009F59E012F5F3F4F67
:101D50008F2D0E948F054B8169818A810E94F20D2F
:101D6000F092AB017092AC01E092AD01662051F0AF
:101D70006091AA017091AB018091AC019091AD018D
:101D80000E94780E2396EFE00C94901E823019F496
:101D9000E090AD01E5CF863019F4F090AB01E0CFD3
:101DA0008930D9F38931E1F6E9518E2F8170582EAF
:101DB000E695F0E0E253FD4FE4910E2F10E086E847
:101DC000C82E81E0D82EB12CA12C9CE0892E912C1C
:101DD000C501B4010E945D1E8F2D511013C0860FE6
:101DE00096014E2D672D0E948F05A00EB11E83E037
:101DF000C80ED11C8AEAC81681E0D80649F70E94AD
:101E0000420CAECF861BECCFEAEAF1E0438122E13F
:101E1000421B08F440E021E0628181810E948B0E28
:101E20000895EAEAF1E0438122E1420F08F44FEF1E
:101E300021E0628181810E948B0E0895EAEAF1E03F
:101E400062812FE0621B08F460E021E04381818120
:101E50000E948B0E0895EAEAF1E062812FE0620FA2
:101E600008F46FEF21E0438181810E948B0E089579
:101E7000EAEAF1E0818121E0438162818C500E9495
:101E80008B0E0895EAEAF1E0818121E043816281CD
:101E9000845F0E948B0E08958091AE01882319F013
:101EA00081508093AE016091AA017091AB01809145
:101EB000AC019091AD010E94780E08958091AE0121
:101EC000833018F48F5F8093AE016091AA01709106
:101ED000AB018091AC019091AD010E94780E089504
:101EE000EAEAF1E083E0808311828FEF82838383CB
:101EF000148260817181828193810E94780E08959D
:101F000068EE7EEF90E080E00E94461F60E082E095
:101F100090E00E94291F60E083E090E00E94291F6A
:101F200010924C0110924B0160E084E090E00E941E
:101F3000291F64E082E290E00E94291F60E085E0B2
:101F400090E00E94291F60E086E090E00E94291F37
:101F50006FEF87E090E00E94291F40E050E0BA0157
:101F600088E090E00E943A1F60E08DE090E00E94DF
:101F7000291F40E050E0BA0188E190E00E943A1F3A
:101F800060E087E190E00E94291F40E050E0BA0144
:101F90008CE190E00E943A1F70E060E080E290E007
:101FA0000E94461F40E050E0BA0188E190E00E94A4
:101FB0003A1F40E050E0BA018FE090E00E943A1FE3
:101FC00040E050E0BA0183E190E00E943A1F08959A
:101FD00090E080E00E94231F883E9E4F51F00E94B7
:101FE000800F8091AF01847081668093AF010E9461
:101FF000120C86E090E00E94151F8093AF01883696
:1020000020F0877080668093AF019091AF01892F97
:10201000817090FF04C0892F8695869586950E94D1
:102020005B05089510924901E8EEF0E086E0DF01DB
:102030001D928A95E9F70E94310908950E941210B5
:102040002FEB87E299E0215080409040E1F700C0FB
:10205000000088E19CE00FB6F894A89581BD0FBE02
:1020600091BDFFCF78941F921FB61F9211248F93BA
:102070009F93AF93BF938091B9019091BA01A091C2
:10208000BB01B091BC010196A11DB11D8093B901A6
:102090009093BA01A093BB01B093BC01BF91AF91E3
:1020A0009F918F911F901FBE1F9018959C014FB755
:1020B000F8948091B9019091BA01A091BB01B091BF
:1020C000BC014FBF821B930B08952FB7F8948091EA
:1020D000B9019091BA01A091BB01B091BC012FBF91
:1020E00008950F931F93CF93DF93C62FD42F022F02
:1020F000FC0182818823A9F0609358020E94651038
:102100009093570280935602C77081E001C0880FF8
:10211000CA95EAF70E949109DF91CF911F910F9123
:10212000089580915802681335C0809156029091AD
:1021300057020E945610883C910560F510E21D0F71
:10214000CD17B9F080E28C0F883040F4C77081E081
:1021500001C0880FCA95EAF70E948A09183048F42E
:1021600081E09D2F977001C0880F9A95EAF70E9431
:102170009109802F0E94D009802F0E949B0918305E
:1021800058F6D77081E001C0880FDA95EAF70E940F
:102190008A09C2CFC77081E001C0880FCA95EAF7EB
:1021A000F6CF9091AA0190FF2CC0917081112AC0A6
:1021B00092609093AA01662351F06091AA017091F8
:1021C000AB018091AC019091AD010E94780E6091BD
:1021D000AA01669570E04BE050E08CE690E00E942A
:1021E000FB1E892BB1F01092810181E080937D016B
:1021F00020E04091AD016091AC018091AB010E9463
:102200008B0E0895853210F09864D3CF880F982BE9
:10221000D0CF81E0809381010E94651090937B0173
:1022200080937A01E2CF8091AA018695815009F4CA
:1022300084E261E00E94D11008958091AA01869500
:102240008F5F853208F081E061E00E94D11008952F
:102250009091AA0190FF08C09695981728F09617BC
:1022600018F40E941D11089561E00E94D110089594
:10227000A5E0B0E0EEE3F1E10C94771E7C01FC01F7
:1022800083819481892B31F08081918189238F3FD3
:1022900009F0D1C42596ECE00C94931E0E945D08D1
:1022A000182F682F89819A810E94D10869817A81CB
:1022B000812F0E9481068C01F7018281882309F415
:1022C00000C6F801EC5BFC45E730F10508F087C576
:1022D000E155F04E0C94DA1E8091AF018770806654
:1022E0008093AF01887F91E009F490E08091AF0185
:1022F00090FB80F98093AF018CE00E945B05809198
:10230000AF010E94120C80914701877019F2F7010A
:102310008281882309F4BECF80915D0182FFBACF0C
:1023200082E00E945709B6CF8091AF0187708E7FFF
:102330008093AF0180E0E1CF8091AF01982F987F2B
:1023400079F088508093AF01887F91E009F490E0A4
:102350008091AF0190FB80F98093AF010E94120C35
:102360008091AF018695869586951EC08091AF01BC
:10237000982F9695969596959C3040F49F5F990F6F
:10238000990F990F8770892B8093AF018091AF01CE
:102390008160E2CF8091AF0180FF09C08E7F809382
:1023A000AF010E94120C80E00E945B05ACCF80FD63
:1023B000AACF81608093AF01813019F489E08093C6
:1023C000AF018091AF01CACF9091AF01892F86955F
:1023D000869586958F5F8F7197708D3048F4880F42
:1023E000880F880F892B8093AF018091AF01ACCF0C
:1023F0009093AF01FACF8091AF0181FF09C08D7F2B
:102400008093AF010E94120C89B78B7F89BFA8CF40
:1024100081FD79CF82608093AF010E94120C1092EF
:10242000B2011092B1011092B00189B7846089BFE6
:102430006ACF27E245EE65EEE9C426E241EE60EEA2
:10244000E5C427E245EE64EEE1C426E241EE62EE29
:10245000DDC428E241E0EFCF063A3DE5130709F479
:10246000F6C4E0F402369DE5190709F4F0C406311C
:102470008CE5180709F0F0C3809149018A7A91E050
:1024800009F490E09093EE0069E2811165E386EE35
:1024900090E00E949C040E94290835CFC8018E5A02
:1024A0009D45039720F7D3C480915C01806207307B
:1024B0003CE5130791F108F4BFC080915C01806492
:1024C0002CC00D309CE5190709F4C4C090F480912C
:1024D0005C018E7F0B30FCE51F07F9F080915C01F9
:1024E0008C600C302CE51207C0F080915C018D7F70
:1024F00014C00F303CE5130709F4BCC008F4AEC0AB
:1025000000319CE5190709F4B9C080915C018F7B0B
:102510000131ECE51E0709F0C4C480935C01C1C41D
:102520000115FDE51F0709F4B7C0A8F50B3F3CE511
:10253000130709F479C0C0F404319CE5190709F4C4
:10254000B9C008F4A5C00531FCE51F0709F0A9C40E
:1025500080915C0182FB992790F921E0922790FB02
:1025600082F990FB83F9D9CF0D3F2CE5120709F4CE
:1025700079C008F45DC00E3F8CE5180709F476C0F9
:1025800080915D0183600F3F9CE5190709F089C4C4
:1025900080935D0186C40236EDE51E0709F495C0FF
:1025A00090F402302DE5120709F48DC008F478C0CC
:1025B00060E003308DE5180709F073C48EE090E009
:1025C0000E94291F6EC40E3A9DE51907E9F060F4D8
:1025D00090915C01892F8E7F90FF8160063AFDE526
:1025E0001F0709F49ACF5DC40F3A2DE5120771F168
:1025F000003B3DE5130709F054C490915D01892F1C
:10260000877F93FF8860C4CF80915D018860C0CFD1
:1026100080915C01826081CF80915C0184607DCF7C
:1026200080915C01886079CF80915D018160B0CF3D
:1026300080915D018260ACCF80915C0180616DCF43
:102640000E94121080915C01806867CF80915D01CB
:10265000877F9ECF80915C018B7F5FCF80915C01F3
:10266000877F5BCF80915D018E7F92CF80915D01EE
:102670008D7F8ECF80915C018F7E4FCF80915C01EA
:102680008F7D4BCF0E94121080915C018F7745CFD8
:1026900080915C01837F41CF80915D018C7F78CFF9
:1026A00080915D01982F909591708E7F892B90FB82
:1026B00081F96ECF0E94121090915C01892F97FBD7
:1026C00087F980582ACF61E079CF90915C01892FFA
:1026D0008F7E94FF806121CF85E312C48160809357
:1026E000AA0161E086950E94D1100DCE43E151E12F
:1026F0006DE171E10E947A0506CE4DE151E163E1A1
:1027000071E1F8CF42E45FE068E37FE0F3CF4EE1B0
:102710005FE06BE27FE0EECF44E05FE061E17FE00D
:10272000E9CF41E15FE064E07FE0E4CF4EE55FE0C8
:102730006CE47FE0DFCF61E081E0D5CF65E082E04F
:102740000E942811E0CD68E086E0FACF64E18FE0D6
:10275000F7CF67E185E1F4CF62E289E1F1CF61E093
:1027600083E2C1CF0E9412102FEB37E289E02150A3
:1027700030408040E1F700C000000E94040C8091CE
:102780005D0182FB882780F991E089270E94180C5F
:10279000F701828100811181882309F445C0C801B5
:1027A0000E945D08D82E682FC8010E94D108B80188
:1027B0008D2D0E9481060E949C068C01882EF701B7
:1027C000D280B580B2943FE0B322809147018770F8
:1027D000C1F0AD2CDD20B1F0812F807F803421F05D
:1027E00080E2800F883068F080915D0182FF09C02F
:1027F00082E00E945709809147018770AA24A39420
:102800008111A12C912E92942FE09222FBE0F915D8
:1028100008F476C0E92DF0E0EA54F04E0C94DA1E8C
:1028200081E0B4CF80E0B2CFC8010E949E08D82ECC
:10283000BECF212F2F70C22E107F19F0C29490EFBF
:10284000C922DD20B9F0CC2069F080E2800F883009
:1028500010F0811009C080914901C82AC092490135
:102860000E942908802F4AC080914801C82AC0923E
:102870004801F6CF802F0E949B09CC2009F440C06C
:10288000005E083010F0811004C08C2D0E942208D8
:1028900006C0C09480914801C822C09248010E949D
:1028A00029082EC0312F3F70C32E107F103219F02F
:1028B000C29480EFC822882089F081E0881609F44C
:1028C00077C0DD2009F481C0BB2009F477C0F7018F
:1028D000858180FFC7CF8F70858370C020915D0197
:1028E00022FD43C0DD20D9F1CC2039F0809149018F
:1028F000C82AC09249010E94290880E00E94D0099C
:10290000E92DE850FF0B349710F40E94E204AA204E
:10291000A9F08091470180FD11C0F70112828595D1
:10292000859585950E947309C7010E943811809191
:1029300047018595859585950E94450985E0F701B4
:10294000DE01119601900D928A95E1F709811A81B5
:10295000C8010E949E08B8010E9481069BCC80E0BD
:102960000E949B09CC2061F290CFDD20A1F09091D4
:102970004A018C2D892BB11003C00E949109C0CF50
:10298000E1E0BE12FACF22FFBBCF981709F4B8CF0F
:1029900080934A01B5CFB11006C00E941C088C2D4F
:1029A0000E948A09ADCFF1E0BF1609F4A9CFF5CF97
:1029B000DD2031F025E02B1508F4A2CF8C2DDDCFE2
:1029C00034E03B1508F49CCFEACFBB2041F3F9E398
:1029D0008F122AC12FEF3DEE82E02150304080401F
:1029E000E1F700C0000020C1812F86958695837095
:1029F00061F0813009F084CFC8019370D11002C01A
:102A000090E080E00E94B6047BCFC8019370D110A3
:102A100002C090E080E00E94CC0472CF812F8370CE
:102A200009F03FC0D1106CCF402F429546954770BA
:102A3000440F440F802F8F7090E0042E02C0880F47
:102A4000991F0A94E2F730E020E004FF09C02FE06C
:102A500030E002C0220F331F4A95E2F720953095EF
:102A6000169516951370123099F078F440914B0139
:102A700050914C01113039F0822B932B84239523F4
:102A80000E9483093DCF842B952B822B932BF8CF6B
:102A9000822B932B20914B0130914C01822793275D
:102AA000EFCF8695DD2011F0812F8170882309F406
:102AB00027CF402F429546954770440F440F802FF3
:102AC0008F7090E0042E02C0880F991F0A94E2F7DD
:102AD00030E020E004FF09C02FE030E002C0220F08
:102AE000331F4A95E2F72095309516951695137089
:102AF000123099F078F440915A0150915B011130F5
:102B000039F0822B932B842395230E943E09F8CE23
:102B1000842B952B822B932BF8CF822B932B2091F8
:102B20005A0130915B0182279327EFCF1F70DD2080
:102B300029F0812F0E947309802F1FCF802F0E94C0
:102B40008A09812F0E944509DBCE802F92EF8916DA
:102B500099F1981570F0E0EF8E16D1F0F1EF8F1625
:102B600091F0DD2009F45BC0B1107CCE812F8F7114
:102B700027C023EF821639F134EF8312F2CF809110
:102B80005D0182FD2EC0812F8F71DD20D9F218C02A
:102B9000DD2069F084E08B1508F4B2CE1F7181E06E
:102BA00090E002C0880F991F1A95E2F7B8CF95E020
:102BB0009B1508F4A5CEF2CF812F8F71D110C2CF13
:102BC0000E9473099DCE90E080E0DD2009F49DCF46
:102BD0001F7181E090E002C0880F991F1A95E2F7FB
:102BE00094CFDD2089F01F71812F0E94730980919D
:102BF0005D0182FF07C0E8E01E9FC00111248360D1
:102C000080934701812FDCCF81E00E945709F1E0DA
:102C1000FB1508F075CE82E00E94570971CEBB20EB
:102C200039F0893309F4D6CE802F0E949B0968CEF3
:102C3000812F8F7187CF85E0DE01119601900D9273
:102C40008A95E1F7F701228189819A81211126CBAA
:102C50000E949E08182F2ACB0B352DE5120709F488
:102C6000DFCD68F401158CE5180709F47BCD0F3D25
:102C70001C4509F08DCD0E94800F0E941E100D355D
:102C8000EDE51E0709F47BCD08F4CCCD083A1D45CF
:102C9000A1F37ECD8091490182720D3C3CE5130782
:102CA00009F444CD08F063C0073CECE51E0709F4C5
:102CB00029CDC8F5043C2CE5120709F417CD20F501
:102CC000033C8CE5180709F063CD8091AA0180FFD1
:102CD00005CD8E7F8093AA016091AA017091AB010E
:102CE0008091AC019091AD010E94780E109281010B
:102CF0009FEBE4EDF1E09150E040F040E1F700C0DF
:102D000000000E94420CFFCA053C9CE5190709F42B
:102D1000F4CC48E35FE062E47FE0063CECE51E07AC
:102D200009F4E8CC35CD0A3CFCE51F0709F4F4CCE6
:102D300078F4083C3CE5130709F4E9CC4BE25FE08A
:102D40006EE17FE0093C9CE5190709F4D3CC20CD66
:102D50000B3CECE51E0709F4E4CC4CE45FE06EE5C7
:102D60007FE00C3CFCE51F0709F4C4CC11CD023D0B
:102D70002CE5120709F4EACCA0F40F3C8CE5180707
:102D800009F4DCCC08F4D7CC003DECE51E0709F4CF
:102D9000DACC6EE089E0013DFCE51F0709F4D0CCF8
:102DA000F7CC053D2CE5120709F4D6CC68F4033DB9
:102DB0008CE5180709F4CDCC61E088E1043D9CE581
:102DC000190709F490CCE4CC063DECE51E0709F4A4
:102DD000C6CC0E35FDE51F0709F495CAD9CC043FD2
:102DE0002CE5120709F429CBA8F4093D8CE5180756
:102DF00009F41FCB0A3D9CE5190709F42ACB083DCD
:102E0000ECE51E0799F426E241EE61EEC7010E944F
:102E1000711079CA063FFCE51F0709F416CB08F4C8
:102E200010CB073F3CE5130709F483C0109258020A
:102E30000430FDE51F0708F00FCB0B3F2CE5120710
:102E400030F4C80182509C45449708F010CB0E9492
:102E5000340C90935D0180935C010231ECE51E0718
:102E600009F410CC08F05CCB09302CE5120709F40A
:102E7000E7CB08F026CB05308CE5180709F4D0CB5A
:102E800008F012CB0330ECE51E0709F4C1CB08F0C3
:102E9000C3CB80915C01816002302CE5120709F4FC
:102EA0003CCB60915C0110915D0184E090E00E9458
:102EB000291F612F82E290E00E94291F0E941210B8
:102EC00022CA043F8CE5180709F4B7CA38F5093D52
:102ED000ECE51E0709F4ADCA0A3DFCE51F0709F43D
:102EE000B8CA083D2CE5120709F48DCF0631FCE580
:102EF0001F0709F0CFCE8091EE008111EDCB89E262
:102F0000E8EEF0E02EEE30E09191891303C0DF018E
:102F100011971C922E173F07B9F7BDCA063F3CE533
:102F2000130709F492CA08F48CCA073F9CE51907F5
:102F3000E9F627E245EE66EE69CF1F93CF93DF9364
:102F400080911401807F09F049C08091110188238C
:102F500009F444C080914601D091150160910F01A0
:102F600070911001A0911201B0911301C62FC723D7
:102F700016E0D81799F190E0109711F0CF3F19F4AF
:102F800001968770F6CF189F9001199F300D11247C
:102F9000F901EA5EFE4F41814713F2CF40814613AB
:102FA000EFCF42814111ECCF438154814A1B5B0B2F
:102FB000483C510528F7809114018F7080618093FF
:102FC0001401F901E55EFE4F80818F70806180837E
:102FD0008FE091E00E9438110E945308DF91CF9159
:102FE0001F910895A1E1B0E0E8EFF7E10C94791E9C
:102FF0008C0185E0F801DE011D9601900D928A9505
:10300000E1F7F801E2808FE0A82E81E0B82E609110
:103010001201709113016115710509F426C1909197
:103020000F0140911001892F84238F3F09F41DC1A6
:1030300020813181C380D480F0901101F601E61B1C
:10304000F70BFF2009F4DCC080911401582F507F4A
:10305000E83CF10508F09FC051116BC0FE2C4313F2
:1030600014C0921312C0E11010C08F708061809361
:103070001401C5010E94381180911401F801858363
:103080008F2D6196EAE00C94951EC114D10429F0AD
:10309000822F83238F3F09F003C180E0F82FF17066
:1030A000DF2E80FF3CC0809146014091150156E023
:1030B000841315C02D873E878D859E850E949108BB
:1030C000292F22952F702230F0F0243018F59F70B0
:1030D000F1F0F8019581907FD1F4D12C1EC090E0E1
:1030E000589FF001599FF00D1124EA5EFE4F618157
:1030F000361306C06081261303C06281E6120FC03A
:1031000001968770D5CF9F7011F0882331F3805ED0
:10311000883018F3C8010E943811FD2CB1CFEE2081
:1031200009F4AECF80911401816080931401F12CD9
:10313000A7CF431306C0921304C0F801EE2009F490
:1031400079C0C8010E940709882309F1EE20F9F02F
:1031500080911401803270F020910F0130911001A4
:1031600038872F831986DB86CA868C87CE0107961F
:103170000E94381186E0F801AFE0B1E001900D92B5
:103180008A95E1F70E949D17FF24F39479CFC80137
:103190000E943811F9CF51110AC08FE091E00E94CE
:1031A000381186E0F50111928A95E9F7C0CF4313F3
:1031B0000FC092130DC0E1100BC0F8018583C80148
:1031C0000E94381186E0F50111928A95E9F758CFEF
:1031D000C8010E9407098823D1F2EE20C1F2809134
:1031E0001401803238F220910F01309110013A839E
:1031F00029831B82DD82CC828E83CE010196B8CFDB
:10320000E83CF105F8F6FE2CEE2009F243131FC04E
:1032100092131DC08091140180FD10C0982F907FE3
:1032200069F0F8018583903F31F0982F907F905F8F
:103230008F70892B8583C8010E94381186E0F801C0
:10324000AFE0B1E001900D928A95E1F719CFC80186
:103250000E94070981118ECF8091140181608093B3
:103260001401C8010E9438110BCFEE2009F48FCF52
:10327000C8010E940709F82E882309F488CF86E048
:10328000F801AFE0B1E001900D928A95E1F78091ED
:103290000F01909110010E9491080E949D17F0CE9D
:1032A00081E08E25FBCEA7E1B0E0E9E5F9E10C94E1
:1032B000801E4B8B5C8B6D8B7E8B8F8B6111109284
:1032C00048011A8A198A85E0FE017396DE011D966F
:1032D00001900D928A95E1F786E0FE013D96DE01B0
:1032E000179601900D928A95E1F7CE0107960E94FC
:1032F000F217811112C086E0FE013796DE011196A9
:1033000001900D928A95E1F78A859B85892B29F09A
:1033100088859F8189238F3F81F516E08091460142
:1033200090911501891317C06796E3E00C949C1ED9
:1033300096E0929FD001939FB00D1124AA5EBE4FDC
:10334000FE01319601900D929A95E1F78093150157
:103350000E945308E2CF819FC00111248A5E9E4FD4
:103360000E94F217882301F38091460190E00196B4
:103370008770992780934601D1CF2091150130E0C5
:10338000C90101968770992740914601481719068F
:1033900079F60E941210109215011092460186E0F3
:1033A000EFE0F1E0DF011D928A95E9F7B6CFAAE0E0
:1033B000B0E0EDEDF9E10C94731E8E010F5F1F4F2D
:1033C0008AE0F80111928A95E9F79EEAE92E90E0E9
:1033D000F92E680123EB422E20E0522E66246394DE
:1033E000712C4FEB842E40E0942EF70181917F01E8
:1033F0008F3F09F445C0F894E82FE295EF70F0E0B4
:1034000021A98F70A30102C0440F551F8A95E2F7CE
:10341000CA01922F982B91AB92A98095892382ABF8
:10342000789400C0E3EBF0E021E030E0B12CA12C77
:1034300041914F3F09F464C0A42FA295AF70B0E052
:10344000D0968C9190E04F7002C0959587954A95E3
:10345000E2F780FD55C0C901A82AB92A220F331FFF
:103460008E169F0629F7F701319780818F3F11F063
:103470000E94270658E75A95F1F7F601B182A0821B
:10348000F2E0CF0ED11C4E145F0409F0AECF4AE03B
:1034900050E0B80180E591E00E94081F892B99F166
:1034A0008AE0F801A0E5B1E001900D928A95E1F77C
:1034B00081E080934F010E94651090934E018093AC
:1034C0004D0180914D0190914E010E94561005973B
:1034D000F0F04AE050E060E571E081E691E00E94A2
:1034E000081F892BC9F08AE0E0E5F1E0A1E6B1E030
:1034F00001900D928A95E1F781E010924F0108C08A
:1035000090E080E0A9CF80914F018111DACF80E077
:103510002A96E0E10C948F1E80E0EFCF1F920F926D
:103520000FB60F9211242F933F934F935F936F9396
:103530007F938F939F93AF93BF93EF93FF9380916C
:103540007A008230A1F08F5F80937A00FF91EF9133
:10355000BF91AF919F918F917F916F915F914F91AB
:103560003F912F910F900FBE0F901F90189581E003
:1035700080937A008091B1019091B201019660ED43
:1035800072E00E945D1E9093B2018093B10165E0EC
:1035900070E00E945D1E67FD6FE78091B001823090
:1035A00031F4603441F489B78B7F89BF04C0813026
:1035B00011F46F37C1F3E62FF0E0ED52FC4F249188
:1035C000A6B5B7B530E00E949E1F2FEF30E040E077
:1035D00050E00E947C1FC9016CE070E00E945D1EFB
:1035E0008091AF01869586958695282F269FC001EC
:1035F000279F900D11240E94EF0499BD88BDA6CF8E
:10360000CDB7DEB72A970FB6F894DEBF0FBECDBF99
:1036100084B7806884BF84B7806884BF0E946510C7
:10362000909379018093780185E296E09093E5008C
:103630008093E40085B7886085BF8BB780688BBFB7
:103640008BE48093650280939A02809371028AE5ED
:103650008093640280939902809370028B9A80E039
:10366000815009F061C08B9878948BE083BF8BEB1D
:103670008CBF82E089BF0EEA10E0F80181918F01D2
:103680008F3F11F00E942706F0E0033B1F07A9F7C8
:1036900003EB10E08FEBE82E80E0F82ED8018D913F
:1036A0008D018F3F11F00E942706E016F106B1F759
:1036B0008AE0E1E6F1E0DF01282F1D922A95E9F783
:1036C000E0E5F1E0DF011D928A95E9F790E080E006
:1036D0000E94231F883E9E4F11F00E94800F82E0BF
:1036E00090E00E94151F80936B010E94340C909310
:1036F0005D0180935C010E94D719EFE3F9E121E0BD
:10370000E150F0402040E1F700C000000E94D719CE
:103710008091610180FF10C06FEF7FEF90E080E04B
:103720000E94461F0E94040CA895A7EBBBE01197CE
:10373000F1F700C0000094CF83E090E00E94151FD5
:1037400090E00E9483098C9A949882E28FBD89E16F
:103750008EBD8FEF9FEF97BD86BD0E94E80F8091D1
:10376000AF0181FF09C01092B2011092B101109215
:10377000B00189B7846089BF0E94E80F80915E0123
:10378000811136C090E080E00E94231F883E9E4F4A
:1037900021F00E94800F0E94700F88E090E00E944C
:1037A0001D1F6093AA017093AB018093AC019093AD
:1037B000AD016E7F71F40E94700F88E090E00E946E
:1037C0001D1F6093AA017093AB018093AC0190938D
:1037D000AD010E948005109281018091AA0180FFB5
:1037E00004C060E086950E94D11081E080935E0164
:1037F00080E690E09093B6018093B5018FEB94ED55
:10380000A1E081509040A040E1F700C000000CEB27
:10381000602E01E0702E5524539480917F02109108
:103820007701882349F110927F020E9465109093DE
:10383000790180937801112309F418C1109277015E
:103840000E9412100E94E80F0E94E204809177010A
:10385000882309F40BC180E00E945B050E94D71900
:10386000E1E6F1E081919191892B09F0E5C0B1E0A9
:10387000EB36FB07B9F7D1CF1111EDCF809178016D
:10388000909179010E945610069708F4EFC050926B
:10389000770180E00E945B05DECF2817390709F029
:1038A00008C10E9465108C0180915F0190916001B8
:1038B00008171907A1F08FEF89838A831B820E9462
:1038C00065108160782F9D838C8349815A816B813B
:1038D0008D810E9453191093600100935F018091C4
:1038E00081018823D1F180918001E091AA01E695C0
:1038F000E81BE0937C01823009F045C0F0E0E6531C
:10390000FE4FE4910E2F10E0E4E6EE2EEEE0FE2EE8
:1039100080917D01882361F010927D010E946510E5
:1039200090937B0180937A0110927F0110927E0127
:103930000E946510E0917A01F0917B018E1B9F0B34
:103940008F3F9F4750F4E00FF11FF0937B01E0930E
:103950007A018AE791E0F70109950E94E2049091CB
:103960007601891769F0809376018FB7F8944091BA
:10397000B9015091BA016091BB017091BC018FBF38
:103980000E94A90B4ACF863059F4F0E0E953FE4F6C
:10399000E4910E2F10E074E5E72E7EE0F72EB8CF0D
:1039A000893061F4E695F0E0EC53FE4FE4910E2F80
:1039B00010E068ECE62E6DE0F62EAACF8F3061F4B1
:1039C000E695F0E0EF53FE4FE4910E2F10E053E642
:1039D000E52E5DE0F52E9CCF853159F4F0E0E25400
:1039E000FE4FE4910E2F10E045E1E42E4DE0F42E61
:1039F0008FCF08E210E09AE9E92E9CE0F92E883199
:103A000009F486CF833241F4F3010591149133E038
:103A1000E32E3EE0F32E7CCF04EF11E023E6E22E0E
:103A20002CE0F22E843209F473CF00ED17E087E921
:103A3000E82E84E0F82E6CCFF89421B3939A822F6D
:103A40008C6081BB92B33CE0932792BBFFE54AEECA
:103A500080E0F15040408040E1F700C0000082B3B8
:103A6000832782BB21BB93987894D7CE0E94230AE8
:103A700080914E02882309F483CF8091640284FFF1
:103A80007FCF0E94D719BCE6AB2EB1E0BB2E11E66A
:103A9000812E11E0912ED401F501219131918D916A
:103AA0009D9141E0E637F40709F4F7CE281739076E
:103AB000A1F3412CD4010D911D914D01F501C1904F
:103AC000D1905F01C016D10659F1312CEE24E39458
:103AD000F12CC026D126C6018E219F21892BB1F061
:103AE0003E824F8221E0C70180239123892B09F474
:103AF00020E028870E9465108160782F9A87898747
:103B00004E815F8168858A850E9453193394EE0C3B
:103B1000FF1CFCE03F12DFCFF501329711830083D9
:103B2000439425E04212C6CF8FB7F8944091B90173
:103B30005091BA016091BB017091BC018FBFCFCE93
:103B400011B887E080B985B3836085BB86B7846090
:103B500086BF86B7816086BF86B7806486BF0895BA
:103B6000B0E0A0E0E6EBFDE10C94781EB82EEB018E
:103B70000E9465106C01EE24E394F12CC431D10550
:103B800060F025E0E22EF12CCF3FDC0731F0CE01D2
:103B900064E170E00E945D1E7B0184EAA82E94E837
:103BA000992E16BEA6BE0E9465108C0106B607FEB1
:103BB0000BC081B1887F8830F1F081B1887F80317E
:103BC000D1F00FEF1FEF08C0C8010E945610E81691
:103BD000F90660F70EEF1FEFCF3FDC0711F3C601C8
:103BE0000E945610C817D907E0F6C801CDB7DEB756
:103BF000EBE00C94941EB3B896BE0E9465108C0145
:103C000006B607FE09C081B1887F883111F0803483
:103C1000C1F610E000E0E9CFC8010E945610E81696
:103C2000F90670F7D7CF0F931F93CF93DF93EB0174
:103C300083B984E886BF0E9465108C0106B607FE32
:103C400010C021B1287F81E090E0283211F490E08B
:103C500080E0919581959109DF91CF911F910F910E
:103C60000895CF3FDC0751F3C8010E945610C817D2
:103C7000D90720F78EEF9FEFEFCFB0E0A0E0E3E4AD
:103C8000FEE10C947B1E6B018A017901B9010E944F
:103C9000B01DE6010C0D1D1DC017D10711F097FFD7
:103CA00007C024E926BFCDB7DEB7E8E00C94971E25
:103CB000B70189910E94131EEFCFAA1BBB1B51E1D4
:103CC00007C0AA1FBB1FA617B70710F0A61BB70B8C
:103CD000881F991F5A95A9F780959095BC01CD0131
:103CE00008952F923F924F925F926F927F928F92A0
:103CF0009F92AF92BF92CF92DF92EF92FF920F937B
:103D00001F93CF93DF93CDB7DEB7CA1BDB0B0FB684
:103D1000F894DEBF0FBECDBF09942A883988488841
:103D20005F846E847D848C849B84AA84B984C884D7
:103D3000DF80EE80FD800C811B81AA81B981CE0FCE
:103D4000D11D0FB6F894DEBF0FBECDBFED010895B3
:103D5000DB018F939F930E94691FBF91AF91A29F38
:103D6000800D911DA39F900DB29F900D1124089579
:103D700087FB082E062687FD819567FD61950E94C9
:103D8000EF1E0EF4919507FC8195089597FB072E81
:103D900016F4009407D077FD09D00E945D1E07FC41
:103DA00005D03EF4909581959F4F0895709561954B
:103DB0007F4F0895EE0FFF1F0590F491E02D0994B9
:103DC0000E949E1F332312F48A1B9B0B0C94EA1E45
:103DD0000E949E1FB7FF0895821B930B0895991BA5
:103DE00079E004C0991F961708F0961B881F7A95F2
:103DF000C9F780950895FC014150504030F0019082
:103E00000616D1F73197CF0108958827992708958D
:103E1000FB01DC0104C08D910190801921F4415017
:103E20005040C8F7881B990B0895E199FECF9FBBBE
:103E30008EBBE09A99278DB30895A6E1B0E044E0E7
:103E400050E00C945B1FA8E1B0E042E050E00C941D
:103E50005B1F262FE199FECF9FBB8EBBE09A019797
:103E60000DB2021631F02DBB0FB6F894E29AE19A2A
:103E70000FBE08950396272F0E942A1F0E94291F14
:103E8000252F0E942A1F242F0C942A1F0196272FCA
:103E90000E942A1F0C94291F262FE199FECF9FBB59
:103EA0008EBB2DBB0FB6F894E29AE19A0FBE019635
:103EB0000895DC01CB01FC01E199FECF06C0FFBBF8
:103EC000EEBBE09A31960DB20D9241505040B8F7DA
:103ED00008950E949E1FA59F900DB49F900DA49FD2
:103EE000800D911D11240895B7FF0C94691F0E9445
:103EF000691F821B930B0895A1E21A2EAA1BBB1BFC
:103F0000FD010DC0AA1FBB1FEE1FFF1FA217B307A5
:103F1000E407F50720F0A21BB30BE40BF50B661FBB
:103F2000771F881F991F1A9469F76095709580957F
:103F300090959B01AC01BD01CF010895A29FB001F6
:103F4000B39FC001A39F700D811D1124911DB29FCD
:103F5000700D811D1124911D0895F894FFCF6C11EF
:103F600094119C11B611CA11E411FB111914191402
:103F700052145214F4148014801480140E159615E3
:043F8000A515A515C9
:103F84009904D80B9804A40B9F0B960401191A1BCF
:103F94001C1D1E1F20212201020101FF5A81828360
:103FA400E200E900EA00B500B600B700CD008301E5
:103FB400CC008A01920194012102230224022502E9
:103FC400260227022A02B300B4006F007000606169
:103FD4006263649091929394959697373635340042
:103FE40001020202020606060909090909090F0F5E
:103FF4000F0F0F0F15151518191919191919191962
:04400400191923243F
:00000001FF
