:100000000C94D9040C9411050C9411050C94110551
:100010000C9411050C9411050C9411050C94110508
:100020000C9411050C9411050C94F4230C94C82421
:100030000C94391E0C9411050C9411050C941105A7
:100040000C9411050C94F6170C9411050C941105E1
:100050000C941A180C94C01E0C9411050C941105E4
:100060000C9411050C9411050C9411050C941105B8
:100070000C9411050C9411050C9411050C941105A8
:100080000C9411050C9411050C9411050C94110598
:100090000C9411050C9411050C9411050C94110588
:1000A0000C9411050C9411050C94110539000000F5
:1000B0003A003B003C003D003E003F004000410054
:1000C0004200430044004500460047004800350018
:1000D0001E001F0020002100220023002400250014
:1000E000260027002D002E002A0049004A004B0060
:1000F0002B0014001A000800150017001C0018003F
:100100000C00120013002F00300000004C004D00C6
:100110004E00290004001600070009000A000B0029
:100120000D000E000F0033003400320028000000E4
:1001300000000000E10064001D001B000600190023
:10014000050011001000360037003800E5000000FF
:10015000000052000000E000E300E2410000000067
:100160000000000000002C000000E600E700650031
:10017000E400500051004F000100000001000100A8
:100180000100010001000100010001000100010067
:100190000100010001000100010001000100010057
:1001A0000100010001000100010001000100010047
:1001B0000100010001000100010001000100010037
:1001C000010001000100010001004A004D004B0048
:1001D0004E000100010000000100010001000100CB
:1001E00001000100010001000A000100500051005F
:1001F00052004F000100010001000000000000005B
:100200000100010001001B000600010001000100C7
:1002100001000100010001000100000000000100D8
:10022000000001000100E2000000000000000000EA
:1002300000000100000001000100010001000100B8
:100240000100010044454255473A206469736162E8
:100250006C65642E0A0044454255473A20656E613C
:10026000626C65642E0A000A0025303258006C6505
:10027000645F7461736B3A20004F6E6573686F74CE
:100280003A206163746976653A2025640A000A00A1
:10029000253033326C62003A200025303258000A93
:1002A000722F63203031323334353637383941429A
:1002B000434445463031323334353637383941429C
:1002C000434445460A006261636B6C696768742049
:1002D000737465703A2025750A006261636B6C69FE
:1002E0006768742064697361626C650A00626163A7
:1002F0006B6C6967687420656E61626C650A006288
:1003000061636B6C6967687420746F67676C653ACA
:100310002025750A006261636B6C696768742064EC
:10032000656372656173653A2025750A00626163D1
:100330006B6C6967687420696E6372656173653A96
:100340002025750A003F00433E20004C25640A002A
:100350000A092D20537461747573202D0A686F7318
:10036000745F6B6579626F6172645F6C656473283A
:10037000293A20253032580A6B6579626F617264C0
:100380005F70726F746F636F6C3A20253032580A59
:100390006B6579626F6172645F69646C653A202590
:1003A0003032580A74696D65725F72656164333208
:1003B00028293A202530386C580A000A092D205681
:1003C000657273696F6E202D0A5649443A20307861
:1003D00037383434284B502052657075626C69632D
:1003E00029205049443A2030783837383728584443
:1003F000383720544B4C29205645523A203078301B
:100400003030310A4255494C443A2020284A756C14
:100410002032372032303232290A4F5054494F4E61
:10042000533A204C5546412045585452414B45596A
:1004300020434F4E534F4C4520434F4D4D414E446A
:1004400020343039360A4743433A20382E332E3091
:10045000204156522D4C4942433A20322E302E3004
:10046000204156525F415243483A20617672350A24
:10047000000A092D20436F6E736F6C65202D0A45AD
:1004800053432F713A09717569740A000A092D20C6
:100490004D61676963202D0A443A094465627567B6
:1004A000204D65737361676520546F67676C650ADB
:1004B000583A094D61747269782044656275672005
:1004C0004D6F646520546F67676C65202D205368FD
:1004D0006F77206B65797072657373657320696ED1
:1004E000206D617472697820677269640A4B3A09F9
:1004F0004B6579626F617264204465627567205450
:100500006F67676C65202D2053686F77206B657966
:100510007072657373207265706F72740A4D3A0958
:100520004465627567204D6F75736520546F67670A
:100530006C650A563A0956657273696F6E0A533ACA
:10054000095374617475730A433A09416374697697
:1005500061746520436F6E736F6C65204D6F6465C9
:100560000A46312D4631303A095377697463682061
:10057000746F204C6179657220302D392028463106
:1005800030203D204C30290A302D393A0953776903
:1005900074636820746F204C6179657220302D3946
:1005A0000A47524156453A09537769746368207483
:1005B0006F204C6179657220302028616C746572FF
:1005C0006E617465290A423A094A756D7020746F2C
:1005D00020426F6F746C6F616465720A4553433AD1
:1005E000094A756D7020746F20426F6F746C6F6173
:1005F0006465722028616C7465726E617465290A85
:10060000453A095072696E7420454550524F4D204D
:1006100053657474696E67730A4253504143453A97
:1006200009436C65617220454550524F4D0A006286
:1006300061636B6C696768745F636F6E6669672E70
:100640007261773A20253032580A2E656E61626CED
:10065000653A2025750A2E6C6576656C3A202575FD
:100660000A006B65796D61705F636F6E6669672EF6
:100670007261773A20253032580A2E737761705FA5
:10068000636F6E74726F6C5F636170736C6F636BBA
:100690003A2025750A2E636170736C6F636B5F740B
:1006A0006F5F636F6E74726F6C3A2025750A2E73DC
:1006B0007761705F6C63746C5F6C6775693A202555
:1006C000750A2E737761705F7263746C5F72677501
:1006D000693A2025750A2E737761705F6C616C74BE
:1006E0005F6C6775693A2025750A2E737761705FB4
:1006F00072616C745F726775693A2025750A2E6E97
:100700006F5F6775693A2025750A2E737761705F90
:1007100067726176655F6573633A2025750A2E738B
:100720007761705F6261636B736C6173685F626154
:10073000636B73706163653A2025750A2E6E6B7268
:100740006F3A2025750A0064656275675F636F6E96
:100750006669672E7261773A20253032580A2E6515
:100760006E61626C653A2025750A2E6D617472693E
:10077000783A2025750A2E6B6579626F6172643A4A
:100780002025750A2E6D6F7573653A2025750A0050
:100790006565636F6E6669673A0A64656661756C64
:1007A000745F6C617965723A2025750A003F000A12
:1007B0006D6F7573653A206F66660A000A6D6F7516
:1007C00073653A206F6E0A000A6B6579626F617219
:1007D000643A206F66660A000A6B6579626F61721F
:1007E000643A206F6E0A000A6D61747269783A206B
:1007F0006F66660A000A6D61747269783A206F6EDE
:100800000A000A64656275673A206F66660A000A24
:1008100064656275673A206F6E0A000A0A4A756D50
:1008200070696E6720746F20626F6F746C6F6164A3
:1008300065722E2E2E2000433E2000436C656172AF
:10084000696E6720454550524F4D0A000A00253019
:10085000325820006B6579626F6172645F726570F7
:100860006F72743A20005B735D005B575D005B53F1
:100870005D005B525D005B445D005B435D00120305
:100880005800440038003700200054004B004C0052
:10089000000018034B00500020005200650070005B
:1008A000750062006C006900630000000403090425
:1008B00009025B00030100A0FA0904000001030122
:1008C00001000921110100012240000705810308F0
:1008D00000010904010001030000000921110100C9
:1008E00001223200070582032000010904020002F0
:1008F00003000000092111010001222200070583E5
:10090000032000010705030320000112010002007B
:10091000000008447887870100010200010631FFCA
:100920000974A1010975150026FF0095207508813D
:10093000020976150026FF00952075089102C00572
:10094000010980A101850319012AB700150126B705
:1009500000950175108100C0050C0901A1018504F5
:1009600019012AA002150126A00295017510810027
:10097000C005010906A101050719E029E7150025B1
:100980000195087501810295017508810105071916
:100990000029FF150026FF0095067508810005084F
:1009A00019012905950575019102950175039101BC
:1009B000C00011241FBECFEFDAE0DEBFCDBF04B60A
:1009C00003FE18C08091B6029091B702A091B802C0
:1009D000B091B9028730904BA740B04B59F41092B8
:1009E000B6021092B7021092B8021092B902E0E07B
:1009F000F8E3099511E0A0E0B1E0ECEFFEE402C0FD
:100A000005900D92A839B107D9F722E0A8E9B1E025
:100A100001C01D92A63BB207E1F70E9460160C943C
:100A200066270C940000FF93EF93E0919801F091FA
:100A30009901309709F00995EF91FF910895FC0114
:100A40008591803011F0EFDFFBCF0895FF27E0E2C2
:100A500030E247FF0CC0419597FF09C0EDE2609579
:100A6000709580959095611D711D811D911D27FFC9
:100A700002C0219530E350E2AA27660F771F881F36
:100A8000991FAA1FA41710F0A41B63955A95A9F7E4
:100A9000AA3008F0A95FA05DAF93F39561157105C9
:100AA0008105910541F7ED3211F4EF93F395F217BB
:100AB00018F43F93F395FBCF8F91B5DFFA95E1F7EB
:100AC0000895E991F9918591803021F0853219F0EE
:100AD000AADFF9CF089520E0E89455915532C1F38B
:100AE000503311F4689455915A3348F4505390F3AD
:100AF000220F022E220F220F200D250FF4CF0EF40D
:100B0000219589919991533619F3533729F153352A
:100B100059F1BC0188279927E8945C3621F4899122
:100B2000999168945591543639F446EF7EF077FFE9
:100B30000DC08FEF9FEF0AC055374AE039F05835A6
:100B400040E121F0523642E009F00895FF93EF931F
:100B50007DDFEF91FF91B7CFFF93EF93FC01819180
:100B60008030B9F360DFFBCFFF93EF9368DFF1CF05
:100B7000DF93CF93CDB7DEB72596A3DFCF91DF917B
:100B8000089581E0089581E008950E94C3050895C5
:100B900008950E94C8050895A5E0B0E0E2EDF5E0F3
:100BA0000C94EF2649835A8330919B0189819A8165
:100BB000311119C0662399F0222389F00E94C60CD6
:100BC000182F682F89819A810E94A20C69817A81ED
:100BD000812F0E9473132596E3E00C940B270E944B
:100BE000B40C182FF3CF0E94C60C69817A81F1CF23
:100BF000FC01262F408151816281738184810E9492
:100C0000CC05089581E00895CF93DF93EC0160E077
:100C10000E94F805BE010E94C905DF91CF91089599
:100C20000E94AD1408950E94B114089508950E9481
:100C3000F10A0E9416062FEF84E39CE021508040C9
:100C40009040E1F700C0000008950E9417060E943E
:100C5000E41E08950E9417060E94081F08950F932E
:100C60001F93CF93DF938C0161E00E94F805EC01A4
:100C7000B8010E94C505811106C080E0DF91CF91C7
:100C80001F910F910895B801CE010E94BF178823CC
:100C9000A1F3B801CE010E94C31C882371F3B801EF
:100CA000CE010E941E19882341F3B801CE010E9493
:100CB000351C882311F3F80182818823D9F0CB35C4
:100CC000FDE5DF07A9F170F4C130ECE5DE07B1F016
:100CD000CF3DFCE5DF0721F1C115DC4559F40E9449
:100CE0002506CBCFCD35EDE5DE07F9F020F1C83A8A
:100CF000DD45C1F0C8010E94C105C0CF90915102ED
:100D0000892F8E7F90FF81608093510280FF05C004
:100D100086E592E00E941F05B0CF84E492E0FACF0E
:100D20000E949F110E942A06A8CF0E94D910E2CFEC
:100D30000E94E310DFCF0E94E710DCCF0E94131E59
:100D400080E00E944F180E94120708950E948116A9
:100D50000E9416070E94181E0895829590E09C013B
:100D6000220F331F220F331F2C7C95958795959565
:100D700087958373282B30E0C901880F991F8A7AE1
:100D8000359527952575822B0895CF93DF93D92F1D
:100D90000E94AD06C82F8D2F0E94AD069C2FDF91BB
:100DA000CF910895B0E0A0E0E8EDF6E00C94EA26DB
:100DB0006B017C01CB010E94C506EC01C7010E94BA
:100DC000C5068C01BE0190E080E0CB017727662745
:100DD00030E020E0602B712B822B932BCDB7DEB758
:100DE000E8E00C94062708950E94F306089581E038
:100DF0000895CF93C82F0E94F706882319F0C1FDEC
:100E000003C0729ACF9108957298FCCF6A9A729A31
:100E10000895CF93C82F0E94F4068C2F0E94F906E4
:100E2000CF91089580E00E94090708950E941F1D38
:100E30000E9409070895CF930E941F1DC82F80911B
:100E40009A018C1739F1C0939A018091510282FF67
:100E50001EC080FF1CC08EE692E00E941F0580919C
:100E6000510280FF14C01F92CF9389E692E09F93B6
:100E70008F930E94B805809151020F900F900F90B0
:100E80000F9080FF04C087E692E00E941F058C2F20
:100E90000E940907CF910895ABE0B0E0E2E5F7E0EA
:100EA0000C94F0264F83588769877A878B87611166
:100EB0000E9411101E821D8285E0FE013796DE0120
:100EC000119601900D928A95E1F78C819D81892B75
:100ED00061F449815A816B817C818D819E810E9460
:100EE0003A0F2B96E2E00C940C2789819A81892392
:100EF0008F3F79F3CE0101960E9402068111E9CF5E
:100F0000F0CFFC01808191810E94000D0895CF9364
:100F1000C82F8823C9F08238C9F40E941F1D81FDA3
:100F200013C089E30E94C90F0E9432102FEF81EE97
:100F300094E0215080409040E1F700C0000089E338
:100F40000E94D10F0E943210CF9108958338A1F4EE
:100F50000E941F1D80FDF8CF83E50E94C90F0E94EB
:100F600032102FEF81EE94E0215080409040E1F765
:100F700000C0000083E5E4CF8438A1F40E941F1D67
:100F800082FDE2CF87E40E94C90F0E9432102FEF4A
:100F900081EE94E0215080409040E1F700C00000D5
:100FA00087E4CECF8CEF8C0F813AB8F48C2F0E945F
:100FB000F21B8111C9CF6C2F80910001909101012A
:100FC0000E94AE1D882329F08C2F0E94D10F0E9411
:100FD00032108C2F0E94C90FB5CF80E28C0F883061
:100FE00048F4C77081E001C0880FCA95EAF70E94F3
:100FF000F40FA8CFEBE5EC0FE33040F4F0E0E35C56
:10100000FE4F808190E00E94701D9ECFC85AC7316C
:1010100008F09ACFEC2FF0E0EE0FFF1FE15FFE4FDC
:10102000808191810E94861D8FCF882309F44DC055
:10103000823879F40E941F1D81FF47C089E30E9416
:10104000C90F0E94321089E30E94D10F0E94321012
:101050000895833859F40E941F1D80FF36C083E530
:101060000E94C90F0E94321083E5EECF843859F4F4
:101070000E941F1D82FF29C087E40E94C90F0E94A1
:10108000321087E4E1CF9CEF980F913AE8F290E2BA
:10109000980F983050F4877091E001C0990F8A95AD
:1010A000EAF7892F0E94FA0FD1CF9BE5980F933072
:1010B00028F490E080E00E94701D0895885A8731DE
:1010C00020F490E080E00E94861D08951F93CF9346
:1010D000DF93182FEB010E948707209739F4812FA7
:1010E0000E941508DF91CF911F9108958FE99FE02D
:1010F0000197F1F700C000002197EFCF70E060E0AA
:10110000893311F460E570E00E9466080895882331
:1011100021F00E94F40F0E9432100895882321F0DC
:101120000E94FA0F0E9432100895B0E0A0E0EBE9AF
:10113000F8E00C94E9266C01D62FC72FFC01128130
:10114000F580F2949FE0F9220E94EA0FE82E8823AE
:10115000B9F0E12E1123A1F08C2F807F803421F093
:1011600080E28D0F8830D0F08091730282FF16C02C
:1011700082E00E9495100E94EA0F91E0E82EE92695
:10118000BC2EB2948FE0B822FBE0FB1508F468C0D7
:10119000EB2DF0E0E859F84D0C94C026E12CF0CF8F
:1011A0000C2F0F70C07F11F00295007F112399F072
:1011B000002359F080E28D0F883010F0D11107C064
:1011C000802F0E94F40F0E9432108D2F41C0802F7B
:1011D0000E940410F8CF8D2F0E941508002309F4F7
:1011E0003FC080E28D0F883010F0D11104C0802FF5
:1011F0000E94FA0F03C0802F0E940A100E94321032
:101200002FC00C2F0F70C07FC03211F00295007FED
:10121000DD2381F0D13009F463C0112309F46DC0DE
:10122000FF2009F463C0F601858180FFCECF8F7067
:1012300085835CC08091730282FD33C0112359F015
:10124000002329F0802F0E94F40F0E94321080E0CA
:101250000E94870705C080E00E9415080111C7CFD2
:10126000EB2DE850FF0B349720F40E941F1D0E94C5
:101270000907EE2089F00E94E60F80FD0DC0F601FF
:1012800012820E94E00F0E94AA0BC6010E94B50ABA
:101290000E94E00F0E94CC0BCDB7DEB7E9E00C94C2
:1012A0000527112389F0F11006C00E941410802B2D
:1012B0000E948708D5CF21E0F212F7CF0E941410C8
:1012C000802B0E941B10CCCFF11006C00E9428106A
:1012D000802F0E948E08C4CF31E0F31609F2F6CFBA
:1012E000112331F085E08F1508F4BACF802FE0CFBD
:1012F00094E09F1508F4B4CFEBCFFF2049F3D93326
:1013000049F4FFEF27EE33E0F15020403040E1F7A1
:1013100000C000008D2F0E941508A2CF8C2F86954B
:101320008695837069F0813009F09ACF8D2F9C2FBC
:101330009370111102C090E080E00E94861D90CF52
:101340008D2F9C2F9370111102C090E080E00E94BD
:10135000701D86CF8C2F837009F041C0111180CF92
:101360004D2F429546954770440F440F0D2F0F7037
:1013700010E030E020E0042E04C0000F111F221FF7
:10138000331F0A94D2F760E070E0CB01D4FF0FC0A6
:101390006FE070E080E090E004C0660F771F881F68
:1013A000991F4A95D2F76095709580959095C6954E
:1013B000C695C370602B712B822B932BC23049F0E2
:1013C00058F4C13019F00E94550B4ACF0E94420BCD
:1013D00047CF0E94680B44CF0E943F0B41CF8695B8
:1013E000112311F08C2F8170882309F439CF4D2FF0
:1013F000429546954770440F440F0D2F0F7010E033
:1014000030E020E0042E04C0000F111F221F331F04
:101410000A94D2F760E070E0CB01D4FF0FC06FE018
:1014200070E080E090E004C0660F771F881F991F6E
:101430004A95D2F76095709580959095C695C6951A
:10144000C370602B712B822B932BC23049F058F460
:10145000C13019F00E94250C03CF0E94120C00CF5E
:101460000E94380CFDCE0E94810BFACECF70112362
:1014700029F08C2F0E94AA0B8D2F1ACF8D2F0E943E
:101480008E088C2F0E94CC0BEBCED23F51F160F432
:10149000D03FB9F0D13F81F0112309F449C0F110D8
:1014A00094CE8C2F8F7121C0D33F11F1D43FA1F77F
:1014B0008091730282FD26C08C2F8F71112311F34E
:1014C00014C0112349F084E08F1508F4C9CE8C2F85
:1014D0008F710E94F00BC4CE95E09F1508F4C0CE2A
:1014E000F6CF8C2F8F711111CDCF0E94AA0BB8CEE1
:1014F000112329F08C2F8F710E94940BB1CE0E9482
:101500008E0BAECE112349F0CF718C2F0E94AA0B07
:1015100063E08C2F0E947710A3CE81E00E9495108B
:10152000E1E0EF1508F09CCE82E00E94951098CE85
:10153000F110E5CE8C2F8F71A5CF0F931F93CF9312
:10154000DF93EC01688179818A810E940B0D8C0107
:101550000E944B0C0E943E0BB801CE010E949508E0
:10156000DF91CF911F910F910895CF93DF93EC01FD
:101570008B819C81892B29F08881998189238F3FD8
:1015800051F4DF91CF910895CE010E949D0ACE01C2
:101590000E940406F6CFCE010E942F068111F4CFDF
:1015A0000E94EA0F882369F38A81882351F380918E
:1015B000730282FFE6CF82E00E949510E2CF90E0B6
:1015C00080E00E94701D90E080E00E94861D0E94D5
:1015D00011100E94321008950E94D90F0E94DF0A54
:1015E00008950E9401100E94EC0A089592959F7040
:1015F000963091F058F4925F9F70923058F4803F8B
:1016000019F030F4883E30F481E008959A5FF4CF09
:10161000843FD1F380E00895883EB0F3813FD1F755
:10162000F3CFFC01808191810E94000D0E94F60A97
:101630000895A5E0B0E0EFE1FBE00C94F0262596DC
:10164000E2E00C940C27A6E0B0E0E9E2FBE00C94A9
:10165000F0262696E2E00C940C2708950E942D0BAC
:1016600008950E942E0B6093E1017093E201809334
:10167000E3019093E4010E94DF0A089508950E9417
:10168000310B08950F931F930091E1011091E20136
:101690002091E3013091E401602B712B822B932B7D
:1016A0000E94310B1F910F9108950F931F9300918A
:1016B000E1011091E2012091E3013091E401602306
:1016C0007123822393230E94310B1F910F91089560
:1016D0000F931F930091E1011091E2012091E3012A
:1016E0003091E40160277127822793270E94310BF4
:1016F0001F910F9108950E942D0B08950E947B0B5E
:1017000008950E947E0B6093DD017093DE0180934B
:10171000DF019093E0010E94DF0A089560E070E02D
:10172000CB010E94810B08950F931F9341E050E07D
:1017300060E070E08A019B0104C0000F111F221FAE
:10174000331F8A95D2F7C901B8010E94810B1F91FE
:101750000F9108950F931F9341E050E060E070E017
:1017600004C0440F551F661F771F8A95D2F78091DA
:10177000DD019091DE01A091DF01B091E0018A01CD
:101780009B01082B192B2A2B3B2BC901B8010E9466
:10179000810B1F910F9108950F931F9341E050E02B
:1017A00060E070E004C0440F551F661F771F8A95E4
:1017B000D2F7CB01BA016095709580959095009114
:1017C000DD011091DE012091DF013091E001602305
:1017D0007123822393230E94810B1F910F910895FF
:1017E0000F931F9341E050E060E070E004C0440FAD
:1017F000551F661F771F8A95D2F78091DD01909162
:10180000DE01A091DF01B091E0018A019B01082770
:1018100019272A273B27C901B8010E94810B1F9174
:101820000F9108950F931F930091DD011091DE0138
:101830002091DF013091E001602B712B822B932BE3
:101840000E94810B1F910F9108950F931F93009198
:10185000DD011091DE012091DF013091E001602374
:101860007123822393230E94810B1F910F9108956E
:101870000F931F930091DD011091DE012091DF0194
:101880003091E00160277127822793270E94810B06
:101890001F910F9108950895262F277091E001C0A0
:1018A000990F2A95EAF723E0769567952A95E1F74F
:1018B00025E0269FF001279FF00D1124E40FF51F6E
:1018C00050E040E0682F70E08191DF0111979B01AB
:1018D000042E02C0369527950A94E2F721702195CF
:1018E0002827292328272C934F5F5F4F4530510528
:1018F00059F70895A82FA77023E0969587952A9504
:10190000E1F725E0289FF001299FF00D1124E60F53
:10191000F71F50E040E080E0219130E00A2E02C045
:10192000369527950A94E2F721703327042E01C0DB
:10193000220F0A94EAF7822B4F5F5F4F4530510523
:1019400059F70895262F963070F4813160F4682F8E
:1019500070E081E1989F600D711D11244CE951E008
:10196000822F0E944C0C0895292F963068F4813103
:1019700058F490E06CE971E031E1239F800D911DF6
:1019800011240E947A0C089580E00895B0E0A0E050
:10199000ECECFCE00C94E9268C01C090DD01D090C9
:1019A000DE01E090DF01F090E0018091E101909193
:1019B000E201A091E301B091E401C82AD92AEA2A00
:1019C000FB2ACFE1D0E0BC2ED701C6010C2E04C00B
:1019D000B695A795979587950A94D2F780FD09C08B
:1019E000219788F7B12C8B2DCDB7DEB7E9E00C94A9
:1019F0000527B8018C2F0E948E13019789F3F3CF2E
:101A0000CF93DF93EC010E94C60CBE010E948E139F
:101A1000DF91CF9108951F93CF93DF93EB019091C6
:101A20009B01992339F0CB010E94000DDF91CF91EA
:101A30001F910895882369F0CB010E94C60C182FCE
:101A4000682FCE010E94A20CBE01812F0E948E132E
:101A5000EDCFCB010E94B40C182FF6CF1F93CF937C
:101A6000DF93C091E50116E08091E6018C1304C07C
:101A7000DF91CF911F910895D0E01C9FF0011D9F31
:101A8000F00D1124E951FE4F408151816281738133
:101A9000848195810E94230B2196C770E5CF4091E8
:101AA0001702509118026091190270911A028091E8
:101AB0001B0290911C020E94230B08951F93CF9349
:101AC000DF9380911C02807F09F049C08091190248
:101AD000882309F444C08091E501C091E60160913A
:101AE000170270911802A0911A02B0911B02D62F12
:101AF000D72316E0C81799F190E0109711F0DF3F57
:101B000019F401968770F6CF189F9001199F300D38
:101B10001124F901E951FE4F41814713F2CF408171
:101B20004613EFCF42814111ECCF438154814A1BD0
:101B30005B0B483C510528F780911C028F70806137
:101B400080931C02F901E451FE4F80818F70806107
:101B5000808387E192E00E94B50A0E942E0DDF91FA
:101B6000CF911F910895A1E1B0E0E9EBFDE00C9465
:101B7000E8268C0185E0F801DE011D9601900D92AA
:101B80008A95E1F7F801E28087E1C82E82E0D82E3D
:101B900060911A0270911B026115710509F44EC122
:101BA0009091170220911802892F82238F3F09F408
:101BB00045C140815181A380B480F0901902F501A4
:101BC000E61BF70BFF2009F4EAC080911C02382FB6
:101BD000307FE83CF10508F0A3C031116DC0FE2C48
:101BE000251316C0941314C0E11012C08F708061C9
:101BF00080931C020E944F0DC6010E94B50A80917D
:101C00001C02F80185838F2D6196EAE00C9404276D
:101C1000A114B10429F0842F85238F3F09F027C137
:101C200080E0F82FF170DF2E80FF3CC08091E5014D
:101C30002091E60136E0821315C04D875E878D85C1
:101C40009E850E94000D292F22952F702230F0F0E2
:101C5000243018F59F70F1F0F8019581907FD1F450
:101C6000D12C1EC090E0389FF001399FF00D112457
:101C7000E951FE4F6181651306C06081641303C0A2
:101C80006281E6120FC001968770D5CF9F7011F068
:101C9000882331F3805E883018F3C8010E94B50AAA
:101CA000FD2CB1CFEE2009F4AECF80911C028160F3
:101CB00080931C02F12CA7CF251306C0941304C0F7
:101CC000F801EE2009F487C0C8010E94110B882397
:101CD00019F1EE2009F180911C02803270F0209100
:101CE00017023091180238872F831986BB86AA867F
:101CF0008C87CE0107960E94B50A86E0F801A7E11D
:101D0000B2E001900D928A95E1F70E945E0D0E946B
:101D10004F0DFF24F39477CFC8010E94B50AF9CF85
:101D2000311113C07A2DB98AA88A6E2D89890E9433
:101D3000190B87E192E00E94B50A86E0F601119244
:101D40008A95E9F70E944F0DB5CF25130FC0941364
:101D50000DC0E1100BC0F8018583C8010E94B50ACF
:101D600086E0F60111928A95E9F74DCFC8010E94ED
:101D7000110B882389F2EE2079F280911C028032C7
:101D800008F4BBCF20911702309118023A832983BF
:101D90001B82BD82AC828E83CE010196ACCFE83C23
:101DA000F10508F03EC0FE2CEE2009F4B5CF251356
:101DB0002AC0941328C080911C0280FD1BC0982F5C
:101DC000907FC1F0F8018583903F31F0982F907F8C
:101DD000905F8F70892B8583C8010E94B50A86E0C9
:101DE000F801A7E1B2E001900D928A95E1F70E9417
:101DF0004F0D09CF86E0F801A7E1B2E001900D9206
:101E00008A95E1F700CFC8010E94110B811175CFAF
:101E100080911C02816080931C02C8010E94B50A57
:101E2000F2CE7A2DB98AA88A6E2D89890E94190B63
:101E300086E0F60111928A95E9F7D9CFEE2009F4F0
:101E40006BCFC8010E94110BF82E882309F464CFD0
:101E500086E0F801A7E1B2E001900D928A95E1F7E2
:101E600087E192E00E9481070E945E0DC0CF81E071
:101E70008E25D7CEACE0B0E0E0E4FFE00C94EF2696
:101E80004F83588769877A878B879C87CE0107960F
:101E90000E94B30D882369F08A859B85892B39F0D0
:101EA0004F815885842F85238F3F09F06BC016E042
:101EB0005FC086E0FE013796DE01119601900D921B
:101EC0008A95E1F78A859B85892B89F388859F818F
:101ED00089238F3F61F32091E60130E0C90101962B
:101EE000877099274091E5014817190671F40E94FF
:101EF000F10A1092E6011092E50186E0E7E1F2E0D6
:101F0000DF011D928A95E9F7D2CF96E0929FD0012A
:101F1000939FB00D1124A951BE4FFE01319601903F
:101F20000D929A95E1F78093E6010E942E0DBFCFA6
:101F3000819FC001112489519E4F0E94B30D8823B7
:101F4000E9F0E091E5011E9FF0011124E951FE4FF7
:101F50004081518162817381848195810E94230B2C
:101F60008091E50190E00196877099278093E501C3
:101F70008091E5019091E6018913DACF2C96E3E098
:101F80000C940B2769857A858B859C850E94230B91
:101F90008ECF682F80910001909101010E94E41D75
:101FA0000895682F80910001909101010E94E71D22
:101FB000089580910001909101010E94EA1D089509
:101FC00080912502859585958595089580912502B6
:101FD0008770089590912502977081E009F480E060
:101FE000089580913002089590913002892B80935A
:101FF000300208958095909130029823909330029A
:10200000089510923002089590912F02892B8093A9
:102010002F020895809590912F02982390932F027C
:10202000089510922F020895809126020895089530
:102030000E94171008959091730292FF08C090912A
:102040002602981721F0809326020E941810089506
:1020500080912602882329F01092260280E00E94B7
:1020600018100895CF93DF93E0910001F0910101E2
:10207000809130028083E0910001F0910101808124
:1020800090912F02892B808390912602992381F0D1
:10209000E0910001F09101018081892B8083809182
:1020A0000001909101010E949C1D81110E94281045
:1020B000C0910001D091010148E050E06DE172E073
:1020C000CE010E941727892B59F088E0FE01ADE16F
:1020D000B2E001900D928A95E1F7CE010E942C1D8D
:1020E000DF91CF91089508950E9473100895909103
:1020F000730292FF11C098E0899F90011124622B16
:10210000609325020E94AA0B8091250285958595F2
:1021100085950E94741008950E94AA0B089510924C
:10212000250280E00E947410089590912502809508
:10213000892380932502282F277091F4282F082EB9
:10214000000C330B9217130659F09091730292FF13
:1021500007C08595859585950E94CC0B0E948F10B0
:102160000895CF93C82F8091730282FB992790F92D
:102170009C17E9F0C0FB82F9809373028091720290
:10218000909173020E94151182E00E949510809137
:10219000510280FF0CC01F92CF9389E792E09F937A
:1021A0008F930E94B8050F900F900F900F90CF91D2
:1021B00008958091730282FB882780F991E0892736
:1021C0000E94B110089581E00E94B110089580E04E
:1021D0000E94B11008956FEF7FEF90E080E00E94C1
:1021E0005027089590E080E00E942C2721E0883E4F
:1021F0009E4F09F020E0822F089582E090E00E9437
:102200002427089583E090E00E9424270895CF9327
:1022100084E090E00E942427C82F82E290E00E9490
:102220002427982F8C2FCF910895CF93C92F682FF3
:1022300084E090E00E9432276C2F82E290E00E94BE
:102240003227CF910895AB01BC018FE090E00E944E
:1022500044270895AB01BC0183E190E00E9444272C
:10226000089560E070E0CB010E942A11089560E0BB
:1022700070E0CB010E9423110E943111089568EE95
:102280007EEF90E080E00E94502760E082E090E0E6
:102290000E94322760E083E090E00E943227109293
:1022A000E1011092E2011092E3011092E40160E07A
:1022B00084E090E00E94322764E082E290E00E9495
:1022C000322760E085E090E00E94322760E086E0FF
:1022D00090E00E9432276FEF87E090E00E94322763
:1022E00040E050E0BA0188E090E00E94442760E0BE
:1022F0008DE090E00E94322740E050E0BA0188E192
:1023000090E00E94442760E087E190E00E9432273D
:1023100040E050E0BA018CE190E00E94442770E078
:1023200060E080E290E00E94502740E050E0BA0177
:1023300088E190E00E9444270E94371108950E948E
:102340003F110895682F8EE090E00E943227089593
:102350000E94A51E60934D0270934E0280934F021F
:10236000909350026093490270934A0280934B020B
:1023700090934C020895089508950E94BC11089509
:1023800008950E94C01108958BEC90E20E94151DE3
:102390000E94BB110E94BD11089581E008950E9422
:1023A000CD110895089508950E94D2110E94D3116D
:1023B00008950E9487140E9406070E940D1908952F
:1023C0000E94901E0E94C5150E94D9110E9481167C
:1023D0000E94C1110895ADE0B0E0E1EFF1E10C948D
:1023E000E0260E94DB15682E81110E94A81181E36E
:1023F00092E09C878B8710E000E00D87802F0E9481
:10240000B4144B015C01EB85FC8521903190419027
:102410005190FC87EB87281439044A045B0409F4C3
:102420005AC08091510281FD0E94BF14712CC12CB1
:10243000D12C7601C394282439244A245B24D20168
:10244000C1018C219D21AE21BF21892B8A2B8B2B91
:10245000D1F10E94CF118823D9F07E82FD85FF83C0
:102460008C209D20AE20BF2081E081149104A10426
:10247000B10409F480E088870E94991E8160782F5A
:102480009A8789874E815F8168858A850E944C077B
:10249000000F111F000F111FF801EF5CFD4F80812D
:1024A0009181A281B3818C259D25AE25BF25808396
:1024B0009183A283B38381E0611001C080E02D96F7
:1024C000E2E10C94FC267394CC0CDD1CEE1CFF1C8A
:1024D00081E17812B4CF0F5F1F4F0630110509F06C
:1024E0008CCF8FEF89838A831B820E94991E816023
:1024F000782F9D838C8349815A816B818D810E94C5
:102500004C07D9CF0E94EB110E940C190E941B07A7
:102510000895CF93DF930E949313EC01811522E578
:102520009207E8F5811531E5930708F0ACC0883EC5
:10253000910510F5803E910570F5883A910570F48B
:10254000853A910508F078C08130910521F1009716
:1025500011F1049700F5D0E0C0E01DC08F3B91055C
:10256000D0F7C85AD0E0CC0FDD1FC05CDE4F099019
:10257000D881C02DD4640FC0811540E5940708F0C0
:1025800066C0C11580E4D80708F05EC0CE019A95F8
:1025900081159F4100F7CE01DF91CF9108958115FC
:1025A00036E5930718F5811545E5940708F083C0D3
:1025B000C11584E5D80708F079C09C2F96959695AB
:1025C0009E0123703327C115D34508F461C0C1E0D3
:1025D000D0E002C0CC0FDD1F2A95E2F730E2939FD6
:1025E000C0011124C82BD92BDA68D5CFC1158AE5D3
:1025F000D80778F4C11599E5D90708F066C0C11568
:1026000028E5D20708F4A7CFDC2FCC27C06FD06A0B
:10261000C2CFCE0190568115904208F09CCF8D2FED
:102620008F710E942A1490E0982F882788279F7125
:102630009C012C2BE90147C0C55AD0E0C259DE4F9E
:10264000C881D0E0D064A7CFDF70D06AA4CFE4E027
:1026500096958795EA95E1F783702C2F2695269518
:10266000237040E2249F90011124382B8C2F83701B
:10267000C1E0D0E002C0CC0FDD1F8A95E2F7C22B8B
:10268000D32BDC6888CFD82FCC27C16FD06A83CFFB
:10269000C1E0D0E002C0CC0FDD1F2A95E2F720E2B6
:1026A000929FC0011124C82BD92BEBCFDC2FCC2754
:1026B000C46FD06A70CF0E942A14C82FD0E0DC2FDC
:1026C000CC27CC27DF71D06266CF8C2F8F700E9411
:1026D0002A1434E0D695C7953A95E1F7CF709C2F30
:1026E000EC01D06958CF972F7630A8F4613198F477
:1026F00070E021E1929F600D711D1124FB0196E6AF
:10270000899FE00DF11D1124EE0FFF1FE455FF4FCF
:1027100085919491089580E090E008950E9473134C
:102720000E948912089582389105B1F1B0F4813385
:10273000910509F475C048F48932910509F469C01E
:102740008A32910509F473C008958533910509F41F
:1027500059C08933910501F10895833E9105A9F18E
:1027600038F4803E9105F9F0823E910549F10895D3
:10277000863E9105A9F1873E9105C9F1843E9105F8
:1027800019F52091730221FF1FC08091720284FD10
:1027900014C087EE90E00895209172022370A1F09A
:1027A00080EE90E008952091720220FD47C03091A4
:1027B000730230FF09C024FF44C090E080E004C0F1
:1027C0002091720222FDF7CF08952091720222FD1E
:1027D0003BC03091730230FDE3CF24FFF5CFEDCF46
:1027E0002091720223FFF0CF24FDE7CFD2CF2091BA
:1027F000720223FD2CC03091730231FFEECF84EEC4
:1028000090E008952091720225FFDECF89E290E0EA
:1028100008952091720225FFD7CF85E390E00895B7
:102820002091720226FFD0CF8AE290E00895209195
:10283000720226FFC9CF81E390E0089589E390E01A
:10284000089583EE90E0089582EE90E0089586EE7C
:1028500090E008959091720292FF06C0282F28718F
:102860002830F9F4877F846093FF06C0282F2871F1
:102870002831F1F4877E84612091730220FF06C025
:10288000382F38713830D9F4877F816021FF06C036
:10289000282F28712831D1F4877E816194FD877EAD
:1028A0000895282F24712430F9F68B7F8860DCCFBF
:1028B000282F2471243101F78B7E8861DDCF382FDA
:1028C0003171313019F78E7F8860E0CF282F217168
:1028D000213121F78E7E8861E1CF0E94EB100895AF
:1028E0000E94DB158FE39CE90197F1F700C000001F
:1028F0000E94DB1580E00E94B41460FF04C00E94B7
:102900006D140E94E41E08950E94701408950E94A0
:10291000F210811102C00E949F110E94FD1080934D
:1029200051020E94071190937302809372020E94D9
:1029300084140E940211682F70E090E080E00E94F1
:102940003F0B6091DD017091DE018091DF0190917C
:10295000E0010E947E0B089508950E94AC14089532
:1029600008950E94B014089594E0899FF001112405
:10297000E457FD4F60817181828193810895B0E0B9
:10298000A0E0E5ECF4E10C94EA268FE992E00E94E5
:102990001F058CE8E82E82E0F82ED0E0C0E09AE92E
:1029A000C92E92E0D92E00E912E0DF93CF93DF9297
:1029B000CF920E94B80587E992E00E941F05F701B7
:1029C00061917191819191917F010E94D2069F93B3
:1029D0008F937F936F931F930F930E94B8058EE898
:1029E00092E00E941F0521968DB79EB70A960FB6FA
:1029F000F8949EBF0FBE8DBFC630D105B1F6CDB7DE
:102A0000DEB7E8E00C94062780EA8A95F1F708958E
:102A100000C008950E9404150895F894E82FE295E7
:102A2000EF70F0E031A1282F2F7081E090E001C01D
:102A3000880F2A95EAF7982F9095932391A392A156
:102A4000892B82A3789408950F931F93CF93DF93DC
:102A5000C2E8D1E089918F3F11F00E940D1581E00D
:102A6000C838D807B9F7C1E7D1E002E811E0899189
:102A70008F3F11F00E940D150C171D07C1F7DF9154
:102A8000CF911F910F9108958F929F92AF92BF9215
:102A9000DF92EF92FF920F931F93CF93DF938C01FE
:102AA000D62EC62FD0E0CE018E579E4F7C01FC0162
:102AB00020812F3F09F45DC0F894E22FE295EF707A
:102AC000F0E031A12F7081E090E001C0880F2A95DD
:102AD000EAF7932F982B91A392A18095892382A343
:102AE00078940E940815E1E7F1E041E050E060E0F1
:102AF00070E0812C912C540181918F3F89F0A82F97
:102B0000A295AF70B0E090962C9130E08F7002C02B
:102B1000359527958A95E2F7DB01CA0120FF03C0AE
:102B200080E090E0DC01882A992AAA2ABB2A440F77
:102B3000551F661F771F81E0E238F807E9F6F701B5
:102B400080818F3F11F00E940D1561E08114910486
:102B5000A104B10409F460E08D2D0E940A15CC0F88
:102B6000DD1FCC0FDD1FC00FD11F88829982AA8282
:102B7000BB82DF91CF911F910F91FF90EF90DF907B
:102B8000BF90AF909F908F9008950E94241588E188
:102B9000ECE8F2E0DF01982F1D929A95E9F7E4E75F
:102BA000F2E0DF011D928A95E9F786E00E94171690
:102BB0000E9410060895A8E1B0E0E1EEF5E10C9462
:102BC000ED268E010F5F1F4F88E1F80111928A9563
:102BD000E9F7F12C6F2DC8010E944415F394F6E03B
:102BE000FF12F8CF48E150E0B80184E792E00E947C
:102BF0001727FF24F394009709F4F12C892B41F057
:102C000088E1F801A4E7B2E001900D928A95E1F71E
:102C10002F2D46E06CE872E084E792E00E941816DF
:102C20000E9413068F2D6896E5E00C9409270895FD
:102C3000FF920F931F93CF93DF93F82ED92F8B0121
:102C4000C42F222349F081E0809354020E94991EF0
:102C5000909353028093520280915402882399F0FA
:102C600080915202909153020E94B11E059758F034
:102C7000EF2DFD2FD80190E080E0D0E08C179D076C
:102C80003CF010925402CDB7DEB7E5E00C94092772
:102C900001911191219131910D931D932D933D93AC
:102CA0000196ECCF0E9447210E94E0110E9454211E
:102CB00008950E9459210E9482120E94772108954E
:102CC0000E94321E0E942D210E94C4110E945216A1
:102CD0000E9459160E94D411FBCF86E090E00E941A
:102CE00024270895682F86E090E00E9432270895F7
:102CF000E4EAF2E080818470896180830E94721628
:102D000008950E94F210811104C00E949F110E9438
:102D100078160E946D168093A402803220F087708E
:102D200088618093A4029091A402892F817090FF02
:102D300004C0892F8695869586950E944F18089520
:102D40008091A402982F969596959695933040F48D
:102D50009F5F990F990F990F8770892B8093A40219
:102D60008091A40281608093A4020E9472168091D7
:102D7000510280FF11C08091A402869586958695A8
:102D80001F928F938DE293E09F938F930E94B805DB
:102D90000F900F900F900F908091A40286958695CA
:102DA00086950E944F1808958091A402982F987FCD
:102DB00079F088508093A402887F91E009F490E034
:102DC0008091A40290FB80F98093A4020E94721665
:102DD0008091510280FF11C08091A4028695869552
:102DE00086951F928F9385E193E09F938F930E9426
:102DF000B8050F900F900F900F908091A4028695C8
:102E0000869586950E944F1808958091A40280FDB2
:102E10001FC081608093A402813019F489E08093FF
:102E2000A4028091A4020E9472168091510280FF38
:102E300008C08DEE92E09F938F930E94B8050F908B
:102E40000F908091A4028695869586950E944F18D2
:102E500008958091A40280FF14C08E7F8093A40205
:102E60000E9472168091510280FF08C08AED92E0A4
:102E70009F938F930E94B8050F900F9080E00E945F
:102E80004F180895CF93C091A402C1708091510250
:102E900080FF0CC01F92CF938FEF92E09F938F9390
:102EA0000E94B8050F900F900F900F90CC2321F047
:102EB0000E942917CF9108950E940517FBCF90918A
:102EC000A402892F8695869586958F5F8F7197705E
:102ED000843088F5880F880F880F892B8093A4028F
:102EE0008091A402887F91E009F490E08091A4028F
:102EF00090FB80F98093A4020E9472168091510287
:102F000080FF11C08091A4028695869586951F92B8
:102F10008F9386EC92E09F938F930E94B8050F9059
:102F20000F900F900F908091A402869586958695BC
:102F30000E944F1808959093A402D2CF843008F0D5
:102F400083E09091A4029770282F220F220F220F66
:102F5000922B9093A402987F21E009F420E09091B5
:102F6000A40220FB90F99093A4020E944F180895A8
:102F70000E949E178091A4020E94721608959C01DF
:102F8000FB018281882349F12E3BFCE53F07C9F014
:102F900040F42C3BECE53E0769F02D3B3C4579F0D5
:102FA0000895203C9CE5390791F070F0213C3C45A8
:102FB00089F0089583E00E94B81780E0089580E0CA
:102FC000FACF0E94D416F9CF0E94A016F6CF0E9425
:102FD0004217F3CF0E945F17F0CF81E00895509A17
:102FE000589A089558980895589A08951F920F92E4
:102FF0000FB60F9211242F933F934F935F936F93CC
:103000007F938F939F93AF93BF93EF93FF930E9410
:10301000F417FF91EF91BF91AF919F918F917F91A5
:103020006F915F914F913F912F910F900FBE0F9035
:103030001F9018951F920F920FB60F9211242F9385
:103040003F934F935F936F937F938F939F93AF9330
:10305000BF93EF93FF932091880030918900809176
:103060008600909187006AEF70E00E948A266B5F6D
:103070007F4F6217730710F40E94F217FF91EF91D0
:10308000BF91AF919F918F917F916F915F914F9180
:103090003F912F910F900FBE0F901F9018958F9218
:1030A0009F92AF92BF92EF92FF920F931F93CF9395
:1030B000DF93C82F843008F043C0811142C0809153
:1030C000880090918900892B51F080916F008D7F4D
:1030D00080936F0080916F008E7F80936F000E94BD
:1030E000F417A0918600B09187002C2F30E00E9449
:1030F000C62623E030E040E050E00E949E26890191
:103100009A0180918600909187006CE070E00E94A7
:103110008A266017710730F1C80169E070E00E94EB
:103120008A267093890060938800DF91CF911F9168
:103130000F91FF90EF90BF90AF909F908F90089568
:10314000C3E08091880090918900892B51F680918D
:103150006F00826080936F0080916F008160809328
:103160006F00BFCF8091860090918700E09086002D
:10317000F0908700E0918600F0918700C6E0D0E0F3
:10318000BE010E948A26060F171F211D311D48010E
:10319000590185E0880C991CAA1CBB1C8A95D1F7A3
:1031A000C701BE010E948A269F0150E040E0260F21
:1031B000371F411D511DC501B4010E949E264901C2
:1031C0005A01E0918600F0918700CA01B9010E947E
:1031D0006E269B01AC01DF010E94D5269B01AC014C
:1031E000C501B4010E946E262FE0969587957795CC
:1031F00067952A95D1F7009186001091870030E0FD
:1032000020E0061717072807390708F08ACF6091D2
:1032100086007091870085CF08950E94EF1782E0A5
:103220008093800089E1809381008FEF9FEF9093DE
:103230008700809386000E9481160895CF93DF93C4
:10324000EC01FB018281882309F433C1C430FDE520
:10325000DF07C0F5CB3F9CE5D90730F49E01225033
:103260003C4524313105B0F50E940711909373025B
:1032700080937202C1318CE5D80709F4EEC008F0E2
:1032800069C0C930ECE5DE0709F4D5C0C8F5C53022
:103290008CE5D80709F4C7C000F5C330ECE5DE07BC
:1032A00009F4B9C008F0BBC0C230DC4509F4ADC0B8
:1032B00080917202909173020E9415110E94F10A8E
:1032C00080E008C0C236EDE5DE0771F2C63AFDE5E2
:1032D000DF0751F2DF91CF910895809172028062F1
:1032E000C7309CE5D90709F493C0809172028061D0
:1032F000C830DC4508F48CC080917202806488C0BC
:10330000809172028B7FCD30FCE5DF0709F480C02D
:1033100098F4809172028E7FCB309CE5D90709F436
:1033200077C0809172028C60CC30DC4508F470C0AC
:10333000809172028D7F6CC0809172028F7ECF303F
:10334000FCE5DF0709F464C008F47BC080917202D9
:103350008F7D5EC0CE3F9CE5D90709F47AC050F559
:10336000C531FCE5DF0709F486C098F4809172024C
:10337000837FC3319CE5D90709F44AC008F471C0C2
:103380000E94F10A90917202892F97FB87F9805869
:103390003FC0CC3FFCE5DF0709F449C008F055C049
:1033A000809173028160CB3FDC4509F081CF80932F
:1033B00073027ECFC230EDE5DE0709F468C0A8F4E1
:1033C000C1158DE5D80709F452C08091730283605E
:1033D000C130DD4560F380917302982F9095917014
:1033E0008E7F892B90FB81F9E2CFC236EDE5DE07B7
:1033F00009F451C0C63AFDE5DF0709F453C0C330F4
:10340000DD4509F055CF80E043C0809172028160B4
:10341000809372024DCF809172028260F9CF8091C9
:1034200072028460F5CF809172028860F1CF809142
:1034300073028260BCCF0E94F10A809172028068A0
:10344000E7CF80917202877FE3CF809173028E7FF6
:10345000AECF809173028D7FAACF809172028F7B55
:10346000D7CF0E94F10A809172028F77D1CF8091DD
:1034700073028C7F9CCF8091720282FB992790F916
:1034800021E0922790FB82F990FB83F9C1CF81E084
:103490000E94A2110DCF90917202892F8F7E94FF0E
:1034A0008061B6CF90917202892F8E7F90FF8160EC
:1034B000AFCF81E00FCFCF93C82F1F928F938BE4B4
:1034C00093E09F938F930E94B80561E070E080E0E5
:1034D00090E004C0660F771F881F991FCA95D2F726
:1034E0000E943F0B0E94F10A0F900F900F900F90D7
:1034F000CF910895EF92FF920F931F93CF93DF9395
:103500008B3109F41BC108F0BBC08B3009F4D7C064
:1035100008F099C0863009F4E5C048F4853009F414
:10352000BDC08DEA97E00E941F0580E0EBC08730A8
:1035300009F4EDC08830A9F70E9402111F928F9301
:1035400080E997E09F938F930E94B8050E94FD1039
:1035500083FB992790F91F929F9382FB992790F9FB
:103560001F929F9381FB992790F91F929F93982F09
:1035700091701F929F931F928F9387E497E09F9380
:103580008F930E94B8050E94071187FB222720F91C
:103590001F922F9386FB222720F91F922F9385FBE2
:1035A000222720F91F922F9384FB222720F91F92B4
:1035B0002F9383FB222720F91F922F9382FB222730
:1035C00020F91F922F9391FB222720F91F922F930E
:1035D000292F21701F922F9381FB222720F91F9200
:1035E0002F93282F21701F922F939F938F9382E602
:1035F00096E09F938F930E94B8058DB79EB78896EB
:103600000FB6F8949EBF0FBE8DBF0E946D16982F07
:103610009695969596951F929F93982F91701F92CD
:103620009F931F928F938FE296E09F938F930E94B8
:10363000B8058DB79EB708960FB6F8949EBF0FBE1B
:103640008DBF81E05FC0803109F490C080F48E307E
:1036500009F067CF90915102892F8B7F92FF846090
:103660008093510282FF7FC088ED97E073C086315E
:1036700009F48CC0893109F054CF8BEB93E021C061
:103680008A3249F190F4873211F128F48E3108F42E
:1036900048CF8D511DC0893209F043CF8BE198E0AE
:1036A0000E941F050E942506CCCF833468F48A331C
:1036B00008F091C0853359F0883309F032CF8CE897
:1036C00094E00E941F05BDCF833409F02ACF80E02B
:1036D0000E945B1AB6CF8BE398E00E941F050E9400
:1036E0009F11AFCF80915102807F8093510281E77B
:1036F00094E00E941F0587E398E00E941F0581E087
:1037000080935502CDB7DEB7E6E00C940827909180
:103710005102892F8E7F90FF81608093510280FF3C
:1037200003C08FE098E0CDCF82E098E00E941F05B3
:1037300080915102817F8093510283CF90915102F9
:10374000892F8D7F91FF82608093510281FF08C095
:1037500085EF97E00E941F05809151028160EBCFB9
:1037600087EE97E0AECF88EC97E0ABCF9091510217
:10377000892F877F93FF88608093510283FF03C066
:103780008CEB97E0E7CF8FEA97E09BCF0E94A51ED6
:10379000162F072FF82EE92ED0917102C0910E013D
:1037A0000E941F1DEF92FF920F931F931F92DF93B2
:1037B0001F92CF931F928F9380E593E09F938F93F7
:1037C0000E94B8058DB79EB70C960FB6F8949EBFB1
:1037D0000FBE8DBF36CF89537BCF80E008950E9406
:1037E000ED1B0895CF93C82F80915502882331F0A7
:1037F000813099F01092550280E00DC00E94F10FC7
:103800008232D1F78C2F0E94ED1B811119C08C2FB1
:103810000E947A1A8170CF9108950E94F10F82322E
:1038200089F38C2F0E94EF1B811119C0C431C9F09C
:1038300050F4CB3061F085E493E00E941F0513C083
:1038400081E090E0E7CFC93261F0C833A1F781E7AA
:1038500094E00E941F0587E493E00E941F0581E029
:10386000D9CF1092550280E0D5CFCF93DF93EB01F3
:1038700086319C4511F50E94F10F9A81992399F0A8
:103880008A7A91E009F490E090935602811109C080
:1038900089E20E94C90F0E94321080E0DF91CF912F
:1038A000089585E3F6CF80915602811104C089E224
:1038B0000E94D10FF0CF85E3FBCF81E0EFCF0F93D4
:1038C0001F93CF93DF93C42FD22FFC0182818823D3
:1038D000C9F0409359020E94991E90935802809318
:1038E000570280E28C0F883040F4C77081E001C03D
:1038F000880FCA95EAF70E948708DF91CF911F9140
:103900000F91089510915902141332C080915702FB
:10391000909158020E94B11E883C910548F5C0E282
:10392000CD0F1D17B9F080E2810F883040F4177079
:1039300081E001C0880F1A95EAF70E948E08C8300E
:1039400048F481E09D2F977001C0880F9A95EAF79F
:103950000E948708802F0E947E08C83070F6D770BA
:1039600081E001C0880FDA95EAF70E948E08C5CF82
:1039700080E28C0F883008F6C77081E001C0880FA4
:10398000CA95EAF7F2CF0F939C01CB01243F4CE597
:10399000340759F1A8F4293DFCE53F0701F12A3D20
:1039A0004CE53407D1F1283D3C4591F406E221EE87
:1039B00041EE68ED7CE50E945F1C80E00F91089568
:1039C000263FFCE53F07E9F0B0F0273F3C45F9F022
:1039D000FC018281882339F110925902EFCF07E26E
:1039E00025EE45EE69ED7CE5E6CF06E221EE40EE00
:1039F00064EF7CE5E0CF07E225EE44EE65EF7CE581
:103A0000DACF06E221EE42EE66EF7CE5D4CF07E2A4
:103A100025EE46EE67EF7CE5CECF08E221E045EEED
:103A20006AED7CE5C8CF81E0C9CF9093990180937E
:103A30009801089590935F0280935E020895E0914B
:103A40005E02F0915F02309729F00190F081E02D45
:103A50000995089580E00895EF92FF920F931F93C8
:103A6000CF93DF938C01E0915E02F0915F0230977B
:103A700091F10280F381E02D09958091510282FF3E
:103A80002AC080FF04C084E598E00E941F05D0E0B2
:103A9000C0E08EE4E82E88E0F82E8091510280FF8D
:103AA0000EC0F801EC0FFD1F80811F928F93FF92D3
:103AB000EF920E94B8050F900F900F900F902196F3
:103AC000C830D10551F78091510280FF04C08CE4C9
:103AD00098E00E941F05CDB7DEB7E6E00C940827FA
:103AE00020915C0230915D022817390771F09093A4
:103AF0005D0280935C02E0915E02F0915F0230977C
:103B000021F00680F781E02D0995089520915A0251
:103B100030915B022817390771F090935B02809314
:103B20005A02E0915E02F0915F02309721F000842A
:103B3000F185E02D099508959C012E5F3F4FAC0162
:103B4000485F5F4F80E02417350709F40895F901B5
:103B500091919F019923B9F38F5FF5CF662349F0C7
:103B6000FC01329608962191261729F0E817F907EB
:103B7000D1F780E0089581E008959C01FC01329620
:103B80009FEF80E04191461751F09F3F19F441119A
:103B900001C0982F8F5F8630A9F79F3F09F40895E1
:103BA000290F311D97FD3A95F90162830895FC01B3
:103BB000329608962191261303C0DF0111971C92BB
:103BC000E817F907B9F708950E94BD1D08950E94EE
:103BD000D71D0895029626E0FC0111922A95E9F777
:103BE000089508950E94F11D0895811106C081E095
:103BF000809360020E94F21D089582E0F9CF83E075
:103C0000809360020E94F21D08950E94F51D0895A0
:103C100081E0809360020E94F21D08950E94081EB8
:103C20000895089508950E94121E08950895089514
:103C30000E94111E0895CF930E94161E0E94DB154C
:103C40000E94171EC0E08C2F0E94B414672B682BB3
:103C5000692B31F4CF5FC630B1F780E0CF91089582
:103C600081E0FCCF85B7806885BF85B7806885BF58
:103C700008951F921FB61F9211248F939F93AF93A5
:103C8000BF9380916102811113C08091A502909130
:103C9000A602A091A702B091A8024196A11DB11D54
:103CA0008093A5029093A602A093A702B093A802C6
:103CB000BF91AF919F918F911F901FBE1F9018953C
:103CC0008091AD02843031F10E949E061092610213
:103CD00088E190E020E40FB6F894A8958093600006
:103CE0000FBE2093600083B7817F846083BF83B75A
:103CF000816083BF7894889583B78E7F83BF0FB62A
:103D0000F894A8958091600088618093600010927B
:103D100060000FBE08950E94F10A0E94A606089551
:103D200082E084BD93E095BD9AEF97BD80936E00CD
:103D300008952FB7F8948091A5029091A602A091C2
:103D4000A702B091A8022FBF08952FB7F8946091F1
:103D5000A5027091A6028091A7029091A8022FBFA0
:103D600008959C014FB7F8948091A5029091A60206
:103D7000A091A702B091A8024FBF821B930B089598
:103D800078941F921FB61F9211248F939F93AF9325
:103D9000BF938091A5029091A602A091A702B09135
:103DA000A8020196A11DB11D8093A5029093A602C1
:103DB000A093A702B093A802BF91AF919F918F915A
:103DC0001F901FBE1F90189581E08093E00080E255
:103DD0008093D8001092C9008FE19EE40197F1F71B
:103DE00000C0000087E090EBDC018093B602909366
:103DF000B702A093B802B093B90288E19CE00FB675
:103E0000F894A895809360000FBE90936000FFCF58
:103E100088E19CE00FB6F894A895809360000FBEEF
:103E200090936000FFCF8091700208950895CF9322
:103E3000DF93EC0181E08093E9008FEF9091E8003F
:103E4000815095FD06C095ED9A95F1F7000081111E
:103E5000F5CF8091E80085FF14C050E040E068E0B5
:103E600070E0CE010E94E8218091E8008E77809377
:103E7000E80088E0FE01A8E6B2E001900D928A9584
:103E8000E1F7DF91CF910895809364027093660209
:103E9000609365028091AD02843001F582E08093E9
:103EA000E9008FEF9091E800815095FD06C095EDF7
:103EB0009A95F1F700008111F5CF8091E80085FF18
:103EC0000DC050E040E063E070E084E692E00E94C4
:103ED000E8218091E8008E778093E8000895BC0186
:103EE00084E00E94441F0895BC0183E00E94441FA7
:103EF000089508958AE798E00E941F058091AC021A
:103F0000811109C00E9478230E94D5238091E2008C
:103F100084608093E200089586E798E00E941F0580
:103F20001092AC02089582E798E00E941F050E945B
:103F3000081E08958EE698E00E941F056091A90270
:103F400081E0611101C080E00E94FF1D08958AE6B2
:103F500098E00E941F059091AD0281E0943009F035
:103F600080E06091A9020E94051E089520916302DD
:103F70002F5F822F62E30E947E26992319F02093FF
:103F80006302089510926302809167028823F1F022
:103F90008091AD028430C1F49091E9009F7020912E
:103FA000EC00822F817020FD80E8892B93E09093B4
:103FB000E9009091EB0090FF04C09091EE0097FD16
:103FC00008C08F708093E9001092670208951092E4
:103FD000F1009091E80095FDFACF9091E80090FFF4
:103FE000F0CF9091E8009E779093E800EACF42E00E
:103FF00061EC81E00E94F42242E261EC82E00E94E6
:10400000F42242E261EC83E00E94F4229091AD023E
:1040100081E0943009F080E06091A9020E94F51DD2
:1040200008958091AF02833009F461C030F481308B
:10403000D1F1823009F49EC008958A3009F48AC013
:104040008B3009F46FC0893009F050C08091AE0206
:10405000813209F04BC08091B2029091B302029775
:1040600008F044C08091E800877F8093E800809149
:10407000E80082FF37C09091F3008091F200029730
:1040800031F48091F100813011F0863021F480917B
:10409000F100809370028091E8008B778093E800B4
:1040A0000E94282323C08091AE02813AF9F48091C6
:1040B000E800877F8093E8008091B2029091B3027C
:1040C000892B61F468E088E692E070E00E94372274
:1040D0008091E8008B778093E800089560E090E09D
:1040E00080E0F3CF8091AD028111C1CF089580911E
:1040F000AE02813AD9F78091B2029091B302892B36
:10410000A9F78091E800877F8093E8008091E8001C
:1041100080FFFCCF80910E018093F1008091E80038
:104120008E77BCCF8091AE02813201F78091B202CE
:104130009091B302892BD1F68091E800877F80931C
:10414000E8000E9428238091B00280930E010E9413
:10415000F10A08958091AE02813241F68091E80023
:10416000877F8093E8000E9428238091B10280938A
:10417000710208958091AE02813A09F0B7CF809123
:10418000E800877F8093E8008091E80080FFFCCF03
:1041900080917102C1CF9FB7F894109267029FBFC0
:1041A0009091AD02943009F048C02091E9002F7041
:1041B0003091EC00932F917030FD90E8922B23E02A
:1041C0002093E9002091EB0020FF34C02091EE0005
:1041D00027FF30C020916202222321F02091E800C5
:1041E00025FF28C01092620226E03091E80035FFDA
:1041F00014C08093F1008091E80085FD27C0809174
:10420000E80080FFFCCF8091E8008E778093E80083
:104210009F709093E90080E008953091AD023430B2
:1042200049F43091EB0035FD05C0215041F481E0A7
:10423000809362029F709093E9008FEF0895EFE9F9
:10424000FFE03197F1F700C00000CFCF8FB7F894AF
:1042500021E0209367028FBFDBCF84B7877F84BFC5
:104260000FB6F894A89580916000886180936000F3
:10427000109260000FBE80E890E00FB6F894809333
:104280006100909361000FBE0E940E1E08950E946F
:1042900078230E94D523E2EEF0E080818460808361
:1042A00078940E945326089582E091E00E941A1D9E
:1042B00008958091AD02853051F486E698E00E9421
:1042C0001F058091AD02853019F00E948B1E089564
:1042D0000E94601E8091AB02882399F30E941B1EEE
:1042E000882379F30E94D2210E94F10AEACF08952F
:1042F0000E947B210895292F33272330310521F196
:1043000068F42130310509F443C02230310509F445
:1043100044C090E080E030E020E026C0213231054A
:1043200051F122323105A9F76330710590F7FB0195
:10433000EE0FFF1FE557FE4F2081318168577E4FFA
:10434000FB01808190E010C099278130910581F0B8
:10435000009729F00297E9F6EEE7F8E002C0ECEAF0
:10436000F8E0849190E09F01FA0131832083089561
:10437000E2E9F8E0F6CF6330710558F6660F771F73
:10438000FB01EF56FE4F2081318189E090E0ECCFB8
:1043900082E190E02BE039E0E7CF8BE590E020EB85
:1043A00038E0E2CF80E189BD82E189BD09B400FE39
:1043B000FDCF8091D8008F7D8093D8008091E00060
:1043C00082608093E0008091E00081FDFCCF089541
:1043D000AF92BF92CF92DF92FF920F931F93CF9332
:1043E000DF936C01EB018A010E944723F82E8111B3
:1043F00023C00115110539F0F80180819181C81B96
:10440000D90BC80ED91EB12CA12C2097A9F08091F0
:10441000E80085FD22C08091E8008E778093E80057
:1044200001151105A1F0F80180819181A80EB91E36
:10443000B182A08285E0F82E8F2DDF91CF911F9160
:104440000F91FF90DF90CF90BF90AF9008950E94A2
:1044500047238823D1F2F82EEFCFF60181916F0127
:104460008093F1002197FFEFAF1ABF0ACECFFC0176
:104470008091B4029091B50286179707A0F061155C
:10448000710529F49091E8009E779093E80090E000
:104490006115710551F4911108C08091E80082FF07
:1044A00034C080E00895BC01F2CF8091AD02882332
:1044B000C1F18530C1F18091E80083FD30C0809169
:1044C000E80082FDEACF8091E80080FFE1CF809193
:1044D000F3002091F200382F6115710519F0283092
:1044E000310558F091E02830310509F090E0209135
:1044F000E8002E772093E800CBCF81918093F100E4
:10450000615071092F5F3F4FE7CF8091AD02882343
:1045100041F0853041F08091E80083FFBECF81E01B
:10452000089582E0089583E00895FC018091B4022B
:104530009091B50286179707A0F06115710529F4CF
:104540008091E8008E778093E80090E06115710516
:1045500051F4911108C08091E80082FF35C080E0DD
:104560000895BC01F2CF8091AD028823C9F1853056
:10457000C9F18091E80083FD31C08091E80082FD9F
:10458000EACF8091E80080FFE1CF8091F300209195
:10459000F200382F6115710519F02830310558F0F7
:1045A00091E02830310509F090E08091E8008E77A5
:1045B0008093E800CBCF84918093F10031966150D5
:1045C00071092F5F3F4FE6CF8091AD02882341F004
:1045D000853041F08091E80083FFBDCF81E00895F0
:1045E00082E0089583E00895982F973028F08F7027
:1045F0008093E90081E008959093E900242F762FBD
:1046000050E0981731F07091EC002091ED0050913E
:10461000F00021FD02C09F5FE8CF3091EB003E7FAC
:104620003093EB003091ED003D7F3093ED00309101
:10463000EB0031603093EB007093EC002093ED00C1
:104640005093F0002091EE0027FDE5CF80E0089523
:104650008091AE0287FF13C08091E80082FF06C000
:104660008091E8008B778093E80004C08091AD02D0
:104670008111F2CF08958091AD028823D9F3809102
:10468000E80080FFF8CF8091E8008E77ECCF209192
:10469000E4003091E50095E6A9012091EC00822F1D
:1046A000817020FF06C08091E80080FF06C080E096
:1046B00008952091E80022FD1AC08091AD02882360
:1046C00089F0853089F08091EB0085FD0FC0209145
:1046D000E4003091E50042175307F9F29150E1F6FA
:1046E00084E0089582E0089583E0089581E00895CC
:1046F0000E94E7230E94EF23E0EEF0E080818160DA
:104700008083E8EDF0E080818F77808319BCA7ED8E
:10471000B0E08C918E7F8C9380818F7E808310920D
:10472000AC0208950F931F93CF93DF930E94E7236A
:104730000E94EF23C8EDD0E088818F77888388813D
:104740008068888388818F7D888319BC1092AD0230
:104750001092A9021092AB021092AA0200EE10E091
:10476000F80180818B7F808388818160888342E02B
:1047700060E080E00E94F422E1EEF0E080818E7F34
:104780008083E2EEF0E080818160808380818860B8
:104790008083F80180818E7F808388818061888317
:1047A000DF91CF911F910F910895E8EDF0E08081A6
:1047B0008F7E8083E7EDF0E080818160808384E0FC
:1047C00082BF81E08093AC020E9492230895E8EDBD
:1047D000F0E080818E7F80831092E2000895109235
:1047E000DA001092E10008951F920F920FB60F9217
:1047F00011242F933F934F935F936F937F938F93E6
:104800009F93AF93BF93EF93FF938091E10082FF5B
:104810000BC08091E20082FF07C08091E1008B7F96
:104820008093E1000E94B61F8091DA0080FF19C0DA
:104830008091D80080FF15C08091DA008E7F809330
:10484000DA008091D90080FF96C080E189BD82E1C5
:1048500089BD09B400FEFDCF81E08093AD020E94C6
:104860007A1F8091E10080FF19C08091E20080FFF3
:1048700015C08091E2008E7F8093E2008091E2007B
:1048800080618093E2008091D80080628093D8009C
:1048900019BC85E08093AD020E949A1F8091E100CF
:1048A00084FF2BC08091E20084FF27C080E189BD96
:1048B00082E189BD89B5982F917080FFFBCF8091EF
:1048C000D8008F7D8093D8008091E1008F7E809307
:1048D000E1008091E2008F7E8093E2008091E2000F
:1048E00081608093E2008091A902882309F449C085
:1048F00084E08093AD020E94A71F8091E10083FFB6
:1049000029C08091E20083FF25C08091E100877F6C
:104910008093E10082E08093AD021092A902809121
:10492000E1008E7F8093E1008091E2008E7F809392
:10493000E2008091E20080618093E20042E060E06A
:1049400080E00E94F4228091F00088608093F00063
:104950000E94931FFF91EF91BF91AF919F918F9113
:104960007F916F915F914F913F912F910F900FBE6B
:104970000F901F90189519BC1092AD020E948C1FC9
:1049800070CF8091E30087FD93E09093AD02B3CFA9
:104990001F920F920FB60F9211242F933F934F93B4
:1049A0005F936F937F938F939F93AF93BF93CF93B7
:1049B000DF93EF93FF93D091E900DF708091EC00DB
:1049C000C82FC17080FDC0E81092E9008091F0000E
:1049D000877F8093F00078940E940C251092E90064
:1049E0008091F00088608093F000CD2BCF70C09351
:1049F000E900FF91EF91DF91CF91BF91AF919F912E
:104A00008F917F916F915F914F913F912F910F9077
:104A10000FBE0F901F901895AAE2B0E0E2E1F5E218
:104A20000C94EF268EEA92E02091F100FC01219394
:104A3000CF01F2E0863B9F07B9F70E9411208091D9
:104A4000E80083FF1EC18091AE029091AF029A30C0
:104A500008F017C1E92FF0E0EC58F84D0C94C0268F
:104A6000803899F0823809F00CC18091B2028F70C1
:104A7000873008F006C18093E9008091EB0085FB48
:104A8000882780F91092E90006C08091AA029091CF
:104A9000AB02911182609091E800977F9093E800BB
:104AA0008093F1001092F1008091E8008E77E5C0CC
:104AB000882309F4D3C0823009F0E3C08091B002AA
:104AC0008111D6C08091B2028F702FEF280F26304F
:104AD00008F0D7C08093E9002091EB0020FFC8C008
:104AE000933031F48091EB0080628093EB00C0C082
:104AF0009091EB0090619093EB0021E030E001C0D9
:104B0000220F8A95EAF72093EA001092EA0080913A
:104B1000EB008860EACF8111B4C01091B0021F771A
:104B20008091E3008078812B8093E3008091E800FE
:104B3000877F8093E8000E9428238091E80080FF0F
:104B4000FCCF8091E30080688093E30082E0111144
:104B500083E08093AD0295C08058823008F091C008
:104B60008091B0029091B1028C3D23E09207A1F5B3
:104B700083E08A838AE289834FB7F894DE01139633
:104B800020E03EE051E2E32FF0E050935700E49143
:104B900020FF03C0E295EF703F5FEF708E2F90E033
:104BA000EA30C0F0C7968D939D932F5F243159F75B
:104BB0004FBF8091E800877F8093E8006AE270E051
:104BC000CE0101960E9437228091E8008B77809376
:104BD000E80057C0C096E7CF6091B2027091B3026F
:104BE000AE014F5F5F4F0E947821BC01892B09F411
:104BF00048C09091E800977F9093E80089819A815E
:104C00000E949522E1CF8038E1F58091E800877F0E
:104C10008093E8008091A9028093F10045CF811133
:104C200030C09091B002923060F58091E800877FAB
:104C30008093E8009093A9020E9428238091A90202
:104C4000882311F084E005C08091E30087FDFACF4E
:104C500081E08093AD020E94F71F13C08091B002E3
:104C6000813079F481E0933009F080E08093AB02E9
:104C70001092E9008091E800877F8093E8000E940D
:104C800028238091E80083FF0AC08091E800877F95
:104C90008093E8008091EB0080628093EB00AA96FD
:104CA000E3E00C940B27CF938091AD028823A1F011
:104CB000C091E900CF709091EC00892F817090FD38
:104CC00080E8C82B1092E9008091E80083FD0E94E3
:104CD0000C25CF70C093E900CF910895DB018F932D
:104CE0009F930E94D526BF91AF91A29F800D911DE9
:104CF000A39F900DB29F900D11240895991B79E008
:104D000004C0991F961708F0961B881F7A95C9F75B
:104D100080950895AA1BBB1B51E107C0AA1FBB1FAA
:104D2000A617B70710F0A61BB70B881F991F5A9537
:104D3000A9F780959095BC01CD010895A1E21A2EA6
:104D4000AA1BBB1BFD010DC0AA1FBB1FEE1FFF1F2F
:104D5000A217B307E407F50720F0A21BB30BE40B7F
:104D6000F50B661F771F881F991F1A9469F76095C6
:104D70007095809590959B01AC01BD01CF01089580
:104D8000EE0FFF1F0590F491E02D0994A29FB00152
:104D9000B39FC001A39F700D811D1124911DB29F6F
:104DA000700D811D1124911D08950E94C626A59F96
:104DB000900DB49F900DA49F800D911D1124089516
:104DC0002F923F924F925F926F927F928F929F921B
:104DD000AF92BF92CF92DF92EF92FF920F931F9309
:104DE000CF93DF93CDB7DEB7CA1BDB0B0FB6F894BA
:104DF000DEBF0FBECDBF09942A88398848885F84FA
:104E00006E847D848C849B84AA84B984C884DF806A
:104E1000EE80FD800C811B81AA81B981CE0FD11D4E
:104E20000FB6F894DEBF0FBECDBFED010895FB01B4
:104E3000DC0104C08D910190801921F44150504053
:104E4000C8F7881B990B0895F999FECF92BD81BDD3
:104E5000F89A992780B50895A8E1B0E042E050E0C3
:104E60000C945827262FF999FECF92BD81BDF89A50
:104E7000019700B4021639F01FBA20BD0FB6F8949E
:104E8000FA9AF99A0FBE08950396272F0E943327A6
:104E90000E943227252F0E943327242F0C9433277A
:104EA0000196272F0E9433270C943227DC01CB0177
:104EB000FC01F999FECF06C0F2BDE1BDF89A31962A
:104EC00000B40D9241505040B8F70895F894FFCFC8
:104ED000D008D008010901098E09300930093009CC
:104EE000AA09360A450A450A30255825412658257B
:0C4EF00041268B25AC25412603260F2609
:104EFC002702131F171F791F741F6F1F161F01E244
:104F0C0000E900EA00B500B600B700CD008301CC83
:104F1C00008A019201940121022302240225022617
:104F2C000227022A02B300B4006F00700081828352
:104F3C00E200E900EA00B500B600B700CD0083013D
:104F4C00CC008A0192019401210223022402250241
:104F5C00260227022A02B300B4006F00700081827F
:104F6C0083C6F0F1F4F5F6F735366694969734323D
:104F7C00339291303167939540322271093F091D6C
:084F8C0009C208DB08F408006B
:00000001FF
