:100000000C9489040C94C1040C94C1040C94C10494
:100010000C94C1040C94C1040C94C1040C94C1044C
:100020000C94C1040C94C1040C9458230C942C24FB
:100030000C949D1D0C94C1040C94C1040C94C10437
:100040000C94C1040C941C170C94C1040C94C104AE
:100050000C9440170C94241E0C94C1040C94C104FD
:100060000C94C1040C94C1040C94C1040C94C104FC
:100070000C94C1040C94C1040C94C1040C94C104EC
:100080000C94C1040C94C1040C94C1040C94C104DC
:100090000C94C1040C94C1040C94C1040C94C104CC
:1000A0000C94C1040C94C1040C94C10439000000E8
:1000B0003A003B003C003D003E003F004000410054
:1000C0004200430044004500460047004800350018
:1000D0001E001F0020002100220023002400250014
:1000E000260027002D002E002A0049004A004B0060
:1000F0002B0014001A000800150017001C0018003F
:100100000C00120013002F00300000004C004D00C6
:100110004E00290004001600070009000A000B0029
:100120000D000E000F0033003400320028000000E4
:1001300000000000E10064001D001B000600190023
:10014000050011001000360037003800E5000000FF
:10015000000052000000E000E241E3000000000067
:100160000000000000002C000000E700E600E400B2
:100170006500500051004F00010000000100010027
:100180000100010001000100010001000100010067
:10019000010001000100010001000100AA00A90006
:1001A000A8000100010001000100010001000100A0
:1001B0000100010001000100010001000100010037
:1001C000010001000100010001004A004D004B0048
:1001D0004E000100010000000100010001000100CB
:1001E0000100010001000100010001005000510068
:1001F00052004F000100010001000000000000005B
:1002000001000100010001000100010001000100E6
:1002100001000100010001000100000000000100D8
:10022000000001000100E2000000000000000000EA
:1002300000000100000001000100010001000100B8
:100240000100010044454255473A206469736162E8
:100250006C65642E0A0044454255473A20656E613C
:10026000626C65642E0A000A0025303258006C6505
:10027000645F7461736B3A20004F6E6573686F74CE
:100280003A206163746976653A2025640A000A00A1
:10029000253033326C62003A200025303258000A93
:1002A000722F63203031323334353637383941429A
:1002B000434445463031323334353637383941429C
:1002C000434445460A006261636B6C696768742049
:1002D000737465703A2025750A006261636B6C69FE
:1002E0006768742064697361626C650A00626163A7
:1002F0006B6C6967687420656E61626C650A006288
:1003000061636B6C6967687420746F67676C653ACA
:100310002025750A006261636B6C696768742064EC
:10032000656372656173653A2025750A00626163D1
:100330006B6C6967687420696E6372656173653A96
:100340002025750A003F00433E20004C25640A002A
:100350000A092D20537461747573202D0A686F7318
:10036000745F6B6579626F6172645F6C656473283A
:10037000293A20253032580A6B6579626F617264C0
:100380005F70726F746F636F6C3A20253032580A59
:100390006B6579626F6172645F69646C653A202590
:1003A0003032580A74696D65725F72656164333208
:1003B00028293A202530386C580A002573000A098C
:1003C0002D20436F6E736F6C65202D0A4553432FAC
:1003D000713A09717569740A000A092D204D616727
:1003E0006963202D0A443A094465627567204D65AA
:1003F000737361676520546F67676C650A583A09C3
:100400004D6174726978204465627567204D6F6430
:100410006520546F67676C65202D2053686F7720C7
:100420006B65797072657373657320696E206D6199
:100430007472697820677269640A4B3A094B65796E
:10044000626F61726420446562756720546F6767EC
:100450006C65202D2053686F77206B65797072650D
:100460007373207265706F72740A4D3A0944656245
:100470007567204D6F75736520546F67676C650AEB
:10048000563A0956657273696F6E0A533A09537486
:10049000617475730A433A094163746976617465DE
:1004A00020436F6E736F6C65204D6F64650A463133
:1004B0002D4631303A0953776974636820746F2090
:1004C0004C6179657220302D392028463130203D2D
:1004D000204C30290A302D393A0953776974636802
:1004E00020746F204C6179657220302D390A475293
:1004F0004156453A0953776974636820746F204CFC
:100500006179657220302028616C7465726E617447
:1005100065290A423A094A756D7020746F20426F4E
:100520006F746C6F616465720A4553433A094A758A
:100530006D7020746F20426F6F746C6F61646572B0
:100540002028616C7465726E617465290A453A09E8
:100550005072696E7420454550524F4D205365745A
:1005600074696E67730A4241434B53504143453AA5
:1005700009436C65617220454550524F4D0A006237
:1005800061636B6C696768745F636F6E6669672E21
:100590007261773A20253032580A2E656E61626C9E
:1005A000653A2025750A2E6C6576656C3A202575AE
:1005B0000A006B65796D61705F636F6E6669672EA7
:1005C0007261773A20253032580A2E737761705F56
:1005D000636F6E74726F6C5F636170736C6F636B6B
:1005E0003A2025750A2E636170736C6F636B5F74BC
:1005F0006F5F636F6E74726F6C3A2025750A2E738D
:100600007761705F6C63746C5F6C6775693A202505
:10061000750A2E737761705F7263746C5F726775B1
:10062000693A2025750A2E737761705F6C616C746E
:100630005F6C6775693A2025750A2E737761705F64
:1006400072616C745F726775693A2025750A2E6E47
:100650006F5F6775693A2025750A2E737761705F41
:1006600067726176655F6573633A2025750A2E733C
:100670007761705F6261636B736C6173685F626105
:10068000636B73706163653A2025750A2E6E6B7219
:100690006F3A2025750A2E737761705F6573636109
:1006A00070655F636170736C6F636B3A2025750AC8
:1006B0000064656275675F636F6E6669672E72615D
:1006C000773A20253032580A2E656E61626C653AA1
:1006D0002025750A2E6D61747269783A2025750A95
:1006E0002E6B6579626F6172643A2025750A2E6DF2
:1006F0006F7573653A2025750A006565636F6E66D0
:1007000069673A0A64656661756C745F6C617965E6
:10071000723A2025750A003F000A6D6F7573653ABD
:10072000206F66660A000A6D6F7573653A206F6EFA
:100730000A000A6B6579626F6172643A206F6666BF
:100740000A000A6B6579626F6172643A206F6E0A03
:10075000000A6D61747269783A206F66660A000A51
:100760006D61747269783A206F6E0A000A6465627E
:1007700075673A206F66660A000A64656275673AB3
:10078000206F6E0A000A0A4A756D70696E672074E0
:100790006F20626F6F746C6F616465722E2E2E20F5
:1007A00000433E2000436C656172696E67204545D9
:1007B00050524F4D0A000A002530325820006B6518
:1007C00079626F6172645F7265706F72743A200053
:1007D0005B735D005B575D005B535D005B525D00CA
:1007E0005B445D005B435D000A0358004400380031
:1007F0003700000016034B005000720065007000C7
:10080000750062006C0069006300000004030904C5
:1008100009025B00030100A0FA09040000010301C2
:100820000100092111010001224000070581030890
:100830000001090401000103000000092111010069
:100840000122320007058203200001090402000290
:100850000300000009211101000122220007058385
:10086000032000010705030320000112010002001C
:10087000000008447887870100010200010631FF6B
:100880000974A1010975150026FF009520750881DE
:10089000020976150026FF00952075089102C00513
:1008A000010980A101850319012AB700150126B7A6
:1008B00000950175108100C0050C0901A101850496
:1008C00019012AA002150126A002950175108100C8
:1008D000C005010906A101050719E029E715002552
:1008E00001950875018102950175088101050719B7
:1008F0000029FF150026FF009506750881000508F0
:10090000190129059505750191029501750391015C
:10091000C00011241FBECFEFDAE0DEBFCDBF04B6AA
:1009200003FE18C080915B0390915C03A0915D036E
:10093000B0915E038730904BA740B04B59F41092B2
:100940005B0310925C0310925D0310925E03E0E083
:10095000F8E3099512E0A0E0B1E0E6EDFDE402C0A5
:1009600005900D92A834B107D9F723E0A8E4B2E0CE
:1009700001C01D92AB35B207E1F70E9486150C94B9
:10098000D3260C940000FF93EF93E0914802F0917E
:100990004902309709F00995EF91FF910895FC0104
:1009A0008591803011F0EFDFFBCF0895FF27E0E263
:1009B00030E247FF0CC0419597FF09C0EDE260951A
:1009C000709580959095611D711D811D911D27FF6A
:1009D00002C0219530E350E2AA27660F771F881FD7
:1009E000991FAA1FA41710F0A41B63955A95A9F785
:1009F000AA3008F0A95FA05DAF93F395611571056A
:100A00008105910541F7ED3211F4EF93F395F2175B
:100A100018F43F93F395FBCF8F91B5DFFA95E1F78B
:100A20000895E991F9918591803021F0853219F08E
:100A3000AADFF9CF089520E0E89455915532C1F32B
:100A4000503311F4689455915A3348F4505390F34D
:100A5000220F022E220F220F200D250FF4CF0EF4AD
:100A6000219589919991533619F3533729F15335CB
:100A700059F1BC0188279927E8945C3621F48991C3
:100A8000999168945591543639F446EF7EF077FF8A
:100A90000DC08FEF9FEF0AC055374AE039F0583547
:100AA00040E121F0523642E009F00895FF93EF93C0
:100AB0007DDFEF91FF91B7CFFF93EF93FC01819121
:100AC0008030B9F360DFFBCFFF93EF9368DFF1CFA6
:100AD000DF93CF93CDB7DEB72596A3DFCF91DF911C
:100AE000089581E0089581E008950E9473050895B6
:100AF00008950E9478050895A5E0B0E0E2E8F5E0E9
:100B00000C94532649835A8330914F0289819A81EC
:100B1000311119C0662399F0222389F00E94E90B54
:100B2000182F682F89819A810E94C50B69817A816B
:100B3000812F0E9490122596E3E00C946F260E946C
:100B4000D70B182FF3CF0E94E90B69817A81F1CF7F
:100B5000FC01262F408151816281738184810E9432
:100B60007C05089581E00895CF93DF93EC0160E068
:100B70000E94A805BE010E947905DF91CF910895DA
:100B80000E94CE1308950E94D213089508950E94E2
:100B9000900A0E94C6052FEF84E39CE0215080401C
:100BA0009040E1F700C0000008950E94C7050E9430
:100BB000481E08950E94C7050E946C1E08950F9359
:100BC0001F93CF93DF938C0161E00E94A805EC0195
:100BD000B8010E947505811106C080E0DF91CF91B8
:100BE0001F910F910895B801CE010E94E516882348
:100BF000A1F3B801CE010E94271C882371F3B8012C
:100C0000CE010E944418882341F3B801CE010E940E
:100C1000991B882311F3F80182818823D9F0CB3501
:100C2000FDE5DF07A9F170F4C130ECE5DE07B1F0B6
:100C3000CF3DFCE5DF0721F1C115DC4559F40E94E9
:100C4000D505CBCFCD35EDE5DE07F9F020F1C83A7B
:100C5000DD45C1F0C8010E947105C0CF9091F60238
:100C6000892F8E7F90FF81608093F60280FF05C000
:100C700086E592E00E94CF04B0CF84E492E0FACF00
:100C80000E94B6100E94DA05A8CF0E94F40FE2CFAE
:100C90000E94FE0FDFCF0E940210DCCF0E94771D62
:100CA00080E00E9475170E94C20608950E94A71551
:100CB0000E94C6060E947C1D0895829590E09C01CA
:100CC000220F331F220F331F2C7C95958795959506
:100CD00087958373282B30E0C901880F991F8A7A82
:100CE000359527952575822B0895CF93DF93D92FBE
:100CF0000E945D06C82F8D2F0E945D069C2FDF91FC
:100D0000CF910895B0E0A0E0E8E8F6E00C944E261C
:100D10006B017C01CB010E947506EC01C7010E94AA
:100D200075068C01BE0190E080E0CB017727662735
:100D300030E020E0602B712B822B932BCDB7DEB7F8
:100D4000E8E00C946A2608950E94A306089581E0C5
:100D50000895CF93C82F0E94A706882319F0C1FDDC
:100D600003C0729ACF9108957298FCCF6A9A729AD2
:100D70000895CF93C82F0E94A4068C2F0E94A90625
:100D8000CF91089580E00E94B90608950E94831CC7
:100D90000E94B9060895CF930E94831CC82F8091AA
:100DA0004A028C1789F1C0934A020E94091E60937F
:100DB0004B0270934C0280934D0290934E028091AF
:100DC000F60282FF1EC080FF1CC08EE692E00E94E9
:100DD000CF048091F60280FF14C01F92CF9389E662
:100DE00092E09F938F930E9468058091F6020F9086
:100DF0000F900F900F9080FF04C087E692E00E9452
:100E0000CF048C2F0E94B906CF910895ABE0B0E0DB
:100E1000ECE0F7E00C9454264F83588769877A8773
:100E20008B8761110E942C0F1E821D8285E0FE01BE
:100E30003796DE01119601900D928A95E1F78C812B
:100E40009D81892B61F449815A816B817C818D81DF
:100E50009E810E94550E2B96E2E00C9470268981AB
:100E60009A8189238F3F79F3CE0101960E94B205C2
:100E70008111E9CFF0CFFC01808191810E941B0C90
:100E80000895CF93C82F8823C9F08238C9F40E94EF
:100E9000831C81FD13C089E30E94E40E0E944D0F64
:100EA0002FEF87EE93E0215080409040E1F700C0A3
:100EB000000089E30E94EC0E0E944D0FCF9108952F
:100EC0008338A1F40E94831C80FDF8CF83E50E9443
:100ED000E40E0E944D0F2FEF81EE94E021508040F0
:100EE0009040E1F700C0000083E5E4CF8438A1F42E
:100EF0000E94831C82FDE2CF87E40E94E40E0E94E0
:100F00004D0F2FEF81EE94E0215080409040E1F7AB
:100F100000C0000087E4CECF8CEF8C0F813AB8F48C
:100F20008C2F0E94561B8111C9CF6C2F809100011C
:100F3000909101010E94121D882329F08C2F0E949C
:100F4000EC0E0E944D0F8C2F0E94E40EB5CF80E274
:100F50008C0F883048F4C77081E001C0880FCA95B3
:100F6000EAF70E940F0FA8CFEBE5EC0FE33040F457
:100F7000F0E0E35CFE4F808190E00E94D41C9ECFA5
:100F8000C85AC73108F09ACFEC2FF0E0EE0FFF1FE0
:100F9000E15FFE4F808191810E94EA1C8FCF882300
:100FA00009F44DC0823879F40E94831C81FF47C048
:100FB00089E30E94E40E0E944D0F89E30E94EC0E2B
:100FC0000E944D0F0895833859F40E94831C80FFBE
:100FD00036C083E50E94E40E0E944D0F83E5EECFFC
:100FE000843859F40E94831C82FF29C087E40E9440
:100FF000E40E0E944D0F87E4E1CF9CEF980F913AE9
:10100000E8F290E2980F983050F4877091E001C0B8
:10101000990F8A95EAF7892F0E94150FD1CF9BE58A
:10102000980F933028F490E080E00E94D41C08953B
:10103000885A873120F490E080E00E94EA1C0895ED
:101040001F93CF93DF93182FEB010E944107209746
:1010500039F4812F0E94CF07DF91CF911F9108951E
:101060008FE99FE00197F1F700C000002197EFCFD3
:1010700070E060E0893311F460E570E00E942008C0
:101080000895882321F00E940F0F0E944D0F0895AC
:10109000882321F00E94150F0E944D0F0895B0E0A3
:1010A000A0E0E5E5F8E00C944D266C01D62FC72FA3
:1010B000FC011281F580F2949FE0F9220E94050F55
:1010C000E82E8823B9F0E12E1123A1F08C2F807F28
:1010D000803421F080E28D0F8830D0F080911803A9
:1010E00082FF16C082E00E94B00F0E94050F91E0BF
:1010F000E82EE926BC2EB2948FE0B822FBE0FB1567
:1011000008F468C0EB2DF0E0EB52F94D0C94242666
:10111000E12CF0CF0C2F0F70C07F11F00295007FF3
:10112000112399F0002359F080E28D0F883010F0E0
:10113000D11107C0802F0E940F0F0E944D0F8D2FDD
:1011400041C0802F0E941F0FF8CF8D2F0E94CF0724
:10115000002309F43FC080E28D0F883010F0D111D8
:1011600004C0802F0E94150F03C0802F0E94250FFE
:101170000E944D0F2FC00C2F0F70C07FC03211F096
:101180000295007FDD2381F0D13009F463C0112383
:1011900009F46DC0FF2009F463C0F601858180FF6A
:1011A000CECF8F7085835CC08091180382FD33C0E1
:1011B000112359F0002329F0802F0E940F0F0E9465
:1011C0004D0F80E00E94410705C080E00E94CF07DC
:1011D0000111C7CFEB2DE850FF0B349720F40E948C
:1011E000831C0E94B906EE2089F00E94010F80FD49
:1011F0000DC0F60112820E94FB0E0E94230BC60155
:101200000E94540A0E94FB0E0E94330BCDB7DEB73A
:10121000E9E00C946926112389F0F11006C00E94C0
:101220002F0F802B0E944108D5CF21E0F212F7CF7B
:101230000E942F0F802B0E94360FCCCFF11006C0DA
:101240000E94430F802F0E944808C4CF31E0F3165C
:1012500009F2F6CF112331F085E08F1508F4BACFEB
:10126000802FE0CF94E09F1508F4B4CFEBCFFF20A0
:1012700049F3D93349F4FFEF27EE33E0F150204032
:101280003040E1F700C000008D2F0E94CF07A2CFB1
:101290008C2F86958695837069F0813009F09ACFFE
:1012A0008D2F9C2F9370111102C090E080E00E945E
:1012B000EA1C90CF8D2F9C2F9370111102C090E0EB
:1012C00080E00E94D41C86CF8C2F8370A1F5111171
:1012D00081CF4D2F429546954770440F440F2D2FD7
:1012E0002F7030E0042E02C0220F331F0A94E2F761
:1012F00090E080E0D4FF09C08FE090E002C0880F4A
:10130000991F4A95E2F780959095C695C695C3704A
:10131000822B932BC23049F058F4C13019F00E944F
:10132000F10A58CF0E94E80A55CF0E94FA0A52CF1C
:101330000E94E50A4FCF8695112311F08C2F817002
:10134000882309F447CF4D2F429546954770440FA7
:10135000440F2D2F2F7030E0042E02C0220F331FB8
:101360000A94E2F790E080E0D4FF09C08FE090E0BB
:1013700002C0880F991F4A95E2F780959095C6950F
:10138000C695C370822B932BC23049F058F4C130FC
:1013900019F00E945E0B1ECF0E94550B1BCF0E94BE
:1013A000670B18CF0E94090B15CFCF70112329F0BE
:1013B0008C2F0E94230B8D2F35CF8D2F0E94480834
:1013C0008C2F0E94330B06CFD23F51F160F4D03FF7
:1013D000B9F0D13F81F0112309F449C0F110AFCE2B
:1013E0008C2F8F7121C0D33F11F1D43FA1F7809191
:1013F000180382FD26C08C2F8F71112311F314C0A6
:10140000112349F084E08F1508F4E4CE8C2F8F71FE
:101410000E94450BDFCE95E09F1508F4DBCEF6CF9A
:101420008C2F8F711111CDCF0E94230BD3CE11239E
:1014300029F08C2F8F710E94170BCCCE0E94120BBB
:10144000C9CE112349F0CF718C2F0E94230B63E08A
:101450008C2F0E94920FBECE81E00E94B00FE1E07F
:10146000EF1508F0B7CE82E00E94B00FB3CEF110B6
:1014700000CF8C2F8F71A5CF0F931F93CF93DF9346
:10148000EC01688179818A810E94260C8C010E947E
:10149000700B0E94E40AB801CE010E944F08DF9150
:1014A000CF911F910F910895CF93DF93EC018B8122
:1014B0009C81892B29F08881998189238F3F51F460
:1014C000DF91CF910895CE010E943C0ACE010E9487
:1014D000B405F6CFCE010E94DF058111F4CF0E9442
:1014E000050F882369F38A81882351F380911803BB
:1014F00082FFE6CF82E00E94B00FE2CF90E080E072
:101500000E94D41C90E080E00E94EA1C0E942C0FF4
:101510000E944D0F08950E94F40E0E947E0A0895C5
:101520000E941C0F0E948B0A089592959F7096301E
:1015300091F058F4925F9F70923058F4803F19F008
:1015400030F4883E30F481E008959A5FF4CF843F10
:10155000D1F380E00895883EB0F3813FD1F7F3CF17
:10156000FC0183819481892B29F0808191818923D9
:101570008F3F11F480E00895808191810E941B0CBF
:101580000E94950A0895A5E0B0E0E9ECFAE00C9419
:1015900054262596E2E00C947026A6E0B0E0E3ED38
:1015A000FAE00C9454262696E2E00C9470260895F6
:1015B0000E94D70A08950E94D80A909387028093C8
:1015C00086020E947E0A089508950E94DB0A08950B
:1015D0002091860230918702822B932B0E94DB0A96
:1015E00008952091860230918702822393230E94DE
:1015F000DB0A089520918602309187028227932783
:101600000E94DB0A08950E94D70A08950E94030BE6
:1016100008950E94060B90938502809384020E9495
:101620007E0A089590E080E00E94090B089521E071
:1016300030E0A90102C0440F551F8A95E2F7CA01A4
:101640000E94090B089521E030E002C0220F331FF1
:101650008A95E2F78091840290918502822B932BE8
:101660000E94090B089521E030E002C0220F331FD1
:101670008A95E2F7209530958091840290918502B9
:10168000822393230E94090B089521E030E002C0D9
:10169000220F331F8A95E2F7809184029091850290
:1016A000822793270E94090B08952091840230918C
:1016B0008502822B932B0E94090B089520918402AE
:1016C00030918502822393230E94090B0895209173
:1016D000840230918502822793270E94090B089586
:1016E0000895262F277091E001C0990F2A95EAF7F7
:1016F00023E0769567952A95E1F7660F771F660FC9
:10170000771FFA01E60FF71F50E040E0682F70E006
:101710008191DF0111979B01042E02C03695279518
:101720000A94E2F7217021952827292328272C9352
:101730004F5F5F4F4430510559F70895A82FA770A8
:1017400023E0969587952A95E1F7880F991F880FD2
:10175000991FFB01E80FF91F50E040E080E0219164
:1017600030E00A2E02C0369527950A94E2F72170E0
:101770003327042E01C0220F0A94EAF7822B4F5F11
:101780005F4F4430510559F70895262F963070F475
:10179000813160F4682F70E081E1989F600D711DC8
:1017A000112440E552E0822F0E94710B0895292FE9
:1017B000963068F4813158F490E060E572E031E1F0
:1017C000239F800D911D11240E949E0B089580E09F
:1017D0000895B0E0A0E0EFEEFBE00C944D267C0114
:1017E0000091840210918502809186029091870277
:1017F000082B192BCFE0D0E0CC24C394D12CBC2EE5
:10180000C6010C2E02C0880F991F0A94E2F78023AC
:101810009123892B49F4219790F7B12C8B2DCDB7CB
:10182000DEB7E9E00C946926B7018C2F0E94AB1259
:10183000019789F3F3CFCF93DF93EC010E94E90B7B
:10184000BE010E94AB12DF91CF9108951F93CF93F9
:10185000DF93EB0190914F02992339F0CB010E9465
:101860001B0CDF91CF911F910895882369F0CB0164
:101870000E94E90B182F682FCE010E94C50BBE01F4
:10188000812F0E94AB12EDCFCB010E94D70B182FF6
:10189000F6CF1F93CF93DF93C091880216E080911B
:1018A00089028C1304C0DF91CF911F910895D0E07D
:1018B0001C9FF0011D9FF00D1124E657FD4F408144
:1018C000518162817381848195810E94CD0A219624
:1018D000C770E5CF4091BA025091BB026091BC0243
:1018E0007091BD028091BE029091BF020E94CD0A0C
:1018F00008951F93CF93DF938091BF02807F09F0FB
:1019000049C08091BC02882309F444C080918802B8
:10191000C09189026091BA027091BB02A091BD0290
:10192000B091BE02D62FD72316E0C81799F190E0E8
:10193000109711F0DF3F19F401968770F6CF189FCA
:101940009001199F300D1124F901E657FD4F418197
:101950004713F2CF40814613EFCF42814111ECCFC4
:10196000438154814A1B5B0B483C510528F7809109
:10197000BF028F7080618093BF02F901E157FD4F74
:1019800080818F70806180838AEB92E00E94540A8C
:101990000E94490CDF91CF911F910895A1E1B0E021
:1019A000E4EDFCE00C944C268C0185E0F801DE01AE
:1019B0001D9601900D928A95E1F7F801E2808AEB7D
:1019C000C82E82E0D82E6091BD027091BE026115D2
:1019D000710509F44EC19091BA022091BB02892F82
:1019E00082238F3F09F445C140815181A380B48097
:1019F000F090BC02F501E61BF70BFF2009F4EAC0EA
:101A00008091BF02382F307FE83CF10508F0A3C079
:101A100031116DC0FE2C251316C0941314C0E110B3
:101A200012C08F7080618093BF020E946A0CC60151
:101A30000E94540A8091BF02F80185838F2D619620
:101A4000EAE00C946826A114B10429F0842F8523C0
:101A50008F3F09F027C180E0F82FF170DF2E80FF63
:101A60003CC0809188022091890236E0821315C023
:101A70004D875E878D859E850E941B0C292F2295A0
:101A80002F702230F0F0243018F59F70F1F0F8013B
:101A90009581907FD1F4D12C1EC090E0389FF00149
:101AA000399FF00D1124E657FD4F6181651306C083
:101AB0006081641303C06281E6120FC001968770D3
:101AC000D5CF9F7011F0882331F3805E883018F3F2
:101AD000C8010E94540AFD2CB1CFEE2009F4AECF0C
:101AE0008091BF0281608093BF02F12CA7CF2513A4
:101AF00006C0941304C0F801EE2009F487C0C801A1
:101B00000E94B00A882319F1EE2009F18091BF02EA
:101B1000803270F02091BA023091BB0238872F8357
:101B20001986BB86AA868C87CE0107960E94540A26
:101B300086E0F801AAEBB2E001900D928A95E1F7F8
:101B40000E94790C0E946A0CFF24F39477CFC8019D
:101B50000E94540AF9CF311113C07A2DB98AA88A8C
:101B60006E2D89890E94C30A8AEB92E00E94540A72
:101B700086E0F60111928A95E9F70E946A0CB5CFCA
:101B800025130FC094130DC0E1100BC0F80185831D
:101B9000C8010E94540A86E0F60111928A95E9F77D
:101BA0004DCFC8010E94B00A882389F2EE2079F255
:101BB0008091BF02803208F4BBCF2091BA023091ED
:101BC000BB023A8329831B82BD82AC828E83CE0105
:101BD0000196ACCFE83CF10508F03EC0FE2CEE20AB
:101BE00009F4B5CF25132AC0941328C08091BF02F1
:101BF00080FD1BC0982F907FC1F0F8018583903F36
:101C000031F0982F907F905F8F70892B8583C8016A
:101C10000E94540A86E0F801AAEBB2E001900D920E
:101C20008A95E1F70E946A0C09CF86E0F801AAEBD9
:101C3000B2E001900D928A95E1F700CFC8010E94B1
:101C4000B00A811175CF8091BF0281608093BF027D
:101C5000C8010E94540AF2CE7A2DB98AA88A6E2D44
:101C600089890E94C30A86E0F60111928A95E9F7F4
:101C7000D9CFEE2009F46BCFC8010E94B00AF82E2C
:101C8000882309F464CF86E0F801AAEBB2E0019062
:101C90000D928A95E1F78AEB92E00E943B070E9441
:101CA000790CC0CF81E08E25D7CEACE0B0E0EBE57B
:101CB000FEE00C9453264F83588769877A878B8779
:101CC0009C87CE0107960E94CE0C882369F08A85F6
:101CD0009B85892B39F04F815885842F85238F3F31
:101CE00009F06BC016E05FC086E0FE013796DE01AA
:101CF000119601900D928A95E1F78A859B85892B33
:101D000089F388859F8189238F3F61F32091890220
:101D100030E0C901019687709927409188024817E1
:101D2000190671F40E94900A10928902109288029A
:101D300086E0EAEBF2E0DF011D928A95E9F7D2CF67
:101D400096E0929FD001939FB00D1124A657BD4FEE
:101D5000FE01319601900D929A95E1F780938902E8
:101D60000E94490CBFCF819FC001112486579D4F0F
:101D70000E94CE0C8823E9F0E09188021E9FF001BA
:101D80001124E657FD4F4081518162817381848126
:101D900095810E94CD0A8091880290E0019687701B
:101DA00099278093880280918802909189028913F3
:101DB000DACF2C96E3E00C946F2669857A858B85C3
:101DC0009C850E94CD0A8ECF682F80910001909152
:101DD00001010E94481D0895682F80910001909193
:101DE00001010E944B1D0895809100019091010115
:101DF0000E944E1D08958091C80285958595859510
:101E000008958091C802877008959091C8029770D4
:101E100081E009F480E008958091D30208959091C3
:101E2000D302892B8093D302089580959091D30299
:101E300098239093D30208951092D302089590911D
:101E4000D202892B8093D202089580959091D2027C
:101E500098239093D20208951092D202089580910F
:101E6000C902089508950E94320F089590911803B1
:101E700092FF08C09091C902981721F08093C9027F
:101E80000E94330F08958091C902882329F010928F
:101E9000C90280E00E94330F0895CF93DF93E09151
:101EA0000001F09101018091D3028083E091000153
:101EB000F091010180819091D202892B80839091D1
:101EC000C902992381F0E0910001F0910101808124
:101ED000892B808380910001909101010E94001D57
:101EE00081110E94430FC0910001D091010148E08F
:101EF00050E060EC72E0CE010E947B26892B59F005
:101F000088E0FE01A0ECB2E001900D928A95E1F725
:101F1000CE010E94901CDF91CF91089508950E94F8
:101F20008E0F08959091180392FF11C098E0899F39
:101F300090011124622B6093C8020E94230B8091B0
:101F4000C8028595859585950E948F0F08950E94FA
:101F5000230B08951092C80280E00E948F0F08950D
:101F60009091C802809589238093C802282F2770FA
:101F700091F4282F082E000C330B9217130659F0FA
:101F80009091180392FF07C08595859585950E94CD
:101F9000330B0E94AA0F0895CF93C82F8091180386
:101FA00082FB992790F99C17E9F0C0FB82F9809396
:101FB000180380911703909118030E94301082E05B
:101FC0000E94B00F8091F60280FF0CC01F92CF9349
:101FD00089E792E09F938F930E9468050F900F907E
:101FE0000F900F90CF9108958091180382FB88275E
:101FF00080F991E089270E94CC0F089581E00E942A
:10200000CC0F089580E00E94CC0F08956FEF7FEF12
:1020100090E080E00E94BD26089590E080E00E945C
:10202000992621E0883E9E4F09F020E0822F0895F6
:1020300082E090E00E949126089583E090E00E9463
:1020400091260895CF9384E090E00E949126C82FB6
:1020500082E290E00E949126982F8C2FCF910895D4
:10206000CF93C92F682F84E090E00E949F266C2FA9
:1020700082E290E00E949F26CF910895AB01BC01BF
:102080008FE090E00E94B1260895AB01BC0183E18E
:1020900090E00E94B126089560E070E0CB010E94BC
:1020A0004510089560E070E0CB010E943E100E9450
:1020B0004C10089568EE7EEF90E080E00E94BD260F
:1020C00060E082E090E00E949F2660E083E090E084
:1020D0000E949F26109287021092860260E084E0A0
:1020E00090E00E949F2664E082E290E00E949F269A
:1020F00060E085E090E00E949F2660E086E090E04E
:102100000E949F266FEF87E090E00E949F2640E0AC
:1021100050E0BA0188E090E00E94B12660E08DE0D6
:1021200090E00E949F2640E050E0BA0188E190E0F4
:102130000E94B12660E087E190E00E949F2640E087
:1021400050E0BA018CE190E00E94B12670E060E0BE
:1021500080E290E00E94BD2640E050E0BA0188E1B4
:1021600090E00E94B1260E94521008950E945A10D9
:102170000895682F8EE090E00E949F2608950E94A7
:10218000091E6093F2027093F3028093F40290931D
:10219000F5026093EE027093EF028093F002909349
:1021A000F1020895089508950E94D31008950895A6
:1021B0000E94D71008958FE290E20E94791C0E943D
:1021C000D2100E94D410089581E008950E94E41076
:1021D0000895089508950E94E9100E94EA10089554
:1021E0000E94AF130E94B6060E94331808950E9401
:1021F000F41D0E94E6140E94F0100E94A7150E9490
:10220000D8100895ACE0B0E0E8E0F1E10C94452688
:102210000E94FC1486ED92E09C878B877C0110E085
:10222000F70141905190619071907F01812F0E9440
:10223000D5131F5F163009F465C0461657066806A9
:10224000790671F38091F60281FD0E94E0130E94ED
:10225000E610382E10E0812F0E94D5136B017C010F
:10226000EB85FC854190519061907190FC87EB87E4
:10227000C414D504E604F704F1F100E0812C912C9C
:10228000540183944C245D246E247F24D301C20125
:1022900088219921AA21BB21892B8A2B8B2BE9F03C
:1022A0003320D9F00E831F8321E0D701C601882196
:1022B0009921AA21BB21892B8A2B8B2B09F420E0A1
:1022C00028870E94FD1D8160782F9A8789874E811B
:1022D0005F8168858A850E9406070F5F880C991CBC
:1022E000AA1CBB1C013191F6EB85FC853497C0829A
:1022F000D182E282F3821F5F163009F0ACCF0E94D8
:10230000BF1024C0461657066806790609F09ACF12
:102310000E94FD1D8C018091D4029091D502081776
:102320001907A1F08FEF89838A831B820E94FD1D0C
:102330008160782F9D838C8349815A816B818D8147
:102340000E9406071093D5020093D4020E9432180F
:102350000E94CB062C96E1E10C946126CF93DF938B
:102360000E94B012EC01811522E59207E8F5811573
:1023700031E5930708F0A3C0883E910510F5803E33
:10238000910570F5883A910570F4853A910508F049
:1023900078C08130910521F1009711F1049700F583
:1023A000D0E0C0E01DC08F3B9105D0F7C85AD0E007
:1023B000CC0FDD1FC05CDE4F0990D881C02DD464E6
:1023C0000FC0811540E5940708F066C0C11580E490
:1023D000D80708F05EC0CE019A9581159F4100F79D
:1023E000CE01DF91CF910895811536E5930718F559
:1023F000811545E5940708F07BC0C11584E5D80731
:1024000008F071C09E01237033279C2F96959695F6
:10241000C115D34508F458C0C1E0D0E002C0CC0FCC
:10242000DD1F2A95E2F730E2939FC0011124C82BEB
:10243000D92BDA68D5CFC1158AE5D80778F4C1154C
:1024400029E5D20708F05EC0C11538E5D30708F4C6
:10245000A7CFDC2FCC27C06FD06AC2CFCE01905659
:102460008115904208F09CCF8D2F8F710E945213DE
:1024700090E0982F882788279F719C012C2BE901D9
:102480003FC0C55AD0E0C259DE4FC881D0E0D06409
:10249000A7CFDF70D06AA4CF8370992721E030E006
:1024A00002C0220F331F8A95E2F7C695C69580E2D7
:1024B000C89FE0011124C22BD32BDD6891CFD82F08
:1024C000CC27C16FD06A8CCFC1E0D0E002C0CC0F66
:1024D000DD1F2A95E2F720E2929FC0011124C82B4C
:1024E000D92BDC687DCFDC2FCC27C46FD06A78CFA6
:1024F0000E945213C82FD0E0DC2FCC27CC27DF71ED
:10250000D0626ECF8C2F8F700E94521334E0D6951C
:10251000C7953A95E1F7CF709C2FEC01D06960CF59
:10252000972F7630A8F4613198F470E021E1929F02
:10253000600D711D1124FB0196E6899FE00DF11DD0
:102540001124EE0FFF1FE455FF4F859194910895DC
:1025500080E090E008950E9490120E94AE110895CC
:1025600082389105B9F1B0F48133910509F47DC049
:1025700048F48932910509F46DC08A32910509F455
:102580007BC008958533910509F45FC089339105B7
:1025900009F10895833E9105D9F138F4803E910503
:1025A00029F1823E910579F10895863E9105D9F190
:1025B000873E910509F43EC0843E910541F5209186
:1025C000180321FF24C08091170384FD19C087EEF2
:1025D00090E0089520911703237009F05AC02091CC
:1025E000180323FF14C089E290E008952091170397
:1025F00020FD38C03091180330FF09C024FF43C0CC
:1026000090E080E008952091170322FDF7CF089510
:102610002091170322FD3AC03091180330FD39C0D4
:1026200024FFF5CFEDCF2091170323FFF0CF24FD3A
:10263000E7CFCDCF2091170323FD2EC03091180393
:1026400031FFEECF84EE90E008952091170325FF2F
:10265000DECFC9CF2091170325FD21C0209118039B
:1026600023FFD5CF89E390E0D2CF2091170326FF37
:10267000CECF8AE290E008952091170326FFC7CFBE
:1026800081E390E0089583EE90E0089582EE90E07B
:10269000089580EE90E0089586EE90E0089585E339
:1026A00090E008959091170392FF06C0282F28719B
:1026B0002830F9F4877F846093FF06C0282F2871A3
:1026C0002831F1F4877E84612091180320FF06C031
:1026D000382F38713830D9F4877F816021FF06C0E8
:1026E000282F28712831D1F4877E816194FD877E5F
:1026F0000895282F24712430F9F68B7F8860DCCF71
:10270000282F2471243101F78B7E8861DDCF382F8B
:102710003171313019F78E7F8860E0CF282F217119
:10272000213121F78E7E8861E1CF0E940610089545
:102730000E94FC148FE39CE90197F1F700C00000B0
:102740000E94FC1480E00E94D51360FF04C00E9428
:1027500095130E94481E08950E94981308950E94A0
:102760000D10811102C00E94B6100E9418108093B3
:10277000F6020E94221090931803809317030E9480
:10278000AC130E941D1090E00E94E50A8091840223
:10279000909185020E94060B089508950E94CD1322
:1027A000089508950E94D113089594E0899FF0013F
:1027B0001124EF5CFC4F60817181828193810895C7
:1027C000B0E0A0E0E6EEF3E10C944E268FE992E053
:1027D0000E94CF0481E3E82E83E0F82ED0E0C0E031
:1027E0009AE9C92E92E0D92E00E912E0DF93CF9347
:1027F000DF92CF920E94680587E992E00E94CF04A1
:10280000F70161917191819191917F010E948206FE
:102810009F938F937F936F931F930F930E946805ED
:102820008EE892E00E94CF0421968DB79EB70A965B
:102830000FB6F8949EBF0FBE8DBFC630D105B1F65E
:10284000CDB7DEB7E8E00C946A2680EA8A95F1F706
:10285000089500C008950E9425140895F894E82F63
:10286000E295EF70F0E031A1282F2F7081E090E029
:1028700001C0880F2A95EAF7982F9095932391A38A
:1028800092A1892B82A3789408950F931F93CF93DD
:10289000DF93C2E8D1E089918F3F11F00E942E149E
:1028A00081E0C838D807B9F7C1E7D1E002E811E004
:1028B00089918F3F11F00E942E140C171D07C1F74C
:1028C000DF91CF911F910F9108958F929F92AF92B8
:1028D000BF92DF92EF92FF920F931F93CF93DF93FC
:1028E0008C01D62EC62FD0E0CE018E579E4F7C0194
:1028F000FC0120812F3F09F45DC0F894E22FE2959E
:10290000EF70F0E031A12F7081E090E001C0880FFE
:102910002A95EAF7932F982B91A392A1809589236A
:1029200082A378940E942914E1E7F1E041E050E0AD
:1029300060E070E0812C912C540181918F3F89F0EF
:10294000A82FA295AF70B0E090962C9130E08F70D8
:1029500002C0359527958A95E2F7DB01CA0120FF71
:1029600003C080E090E0DC01882A992AAA2ABB2AC9
:10297000440F551F661F771F81E0E238F807E9F61C
:10298000F70180818F3F11F00E942E1461E08114C5
:102990009104A104B10409F460E08D2D0E942B1470
:1029A000CC0FDD1FCC0FDD1FC00FD11F8882998295
:1029B000AA82BB82DF91CF911F910F91FF90EF9080
:1029C000DF90BF90AF909F908F9008950E94451424
:1029D00088E1E1E3F3E0DF01982F1D929A95E9F792
:1029E000E9E1F3E0DF011D928A95E9F786E00E94B4
:1029F00037150E94C0050895A8E1B0E0E2E0F5E1D6
:102A00000C9451268E010F5F1F4F88E1F80111923F
:102A10008A95E9F7F12C6F2DC8010E946514F39493
:102A2000F6E0FF12F8CF48E150E0B80189E193E009
:102A30000E947B2621E0009709F420E0892B41F0D9
:102A400088E1F801A9E1B3E001900D928A95E1F7E0
:102A500046E061E373E089E193E00E943815182FA6
:102A60000E94C305812F6896E5E00C946D260895B9
:102A7000CF92DF92EF92FF920F931F93CF936C014F
:102A80007B01042F222349F081E08093F9020E9408
:102A9000FD1D9093F8028093F702C091F902C111D5
:102AA0000AC0C0E08C2FCF911F910F91FF90EF9043
:102AB000DF90CF9008958091F7029091F8020E94E4
:102AC000151E059770F384E0089F80011124A8016A
:102AD000B601C7010E947B26892B41F0A801B601EF
:102AE000C7010E9488261092F902DCCFC0E0FBCF1C
:102AF0000E94AB200E94F7100E94B82008950E9407
:102B0000BD200E9402110E94DB2008950E94961DA4
:102B10000E9491200E94DB100E9478150E947F1570
:102B20000E94EB10FBCF86E090E00E949126089572
:102B3000682F86E090E00E949F260895E9E4F3E084
:102B400080818470896180830E94981508950E9415
:102B50000D10811104C00E94B6100E949E150E94A3
:102B6000931580934903803220F0877088618093A9
:102B7000490390914903892F817090FF04C0892FE8
:102B80008695869586950E947517089580914903CC
:102B9000982F969596959695933040F49F5F990F50
:102BA000990F990F8770892B80934903809149036E
:102BB0008160809349030E9498158091F60280FFFE
:102BC00011C0809149038695869586951F928F93B3
:102BD0008DE293E09F938F930E9468050F900F9072
:102BE0000F900F90809149038695869586950E9457
:102BF0007517089580914903982F987F79F0885030
:102C000080934903887F91E009F490E08091490323
:102C100090FB80F9809349030E9498158091F602F9
:102C200080FF11C0809149038695869586951F92F5
:102C30008F9385E193E09F938F930E9468050F9097
:102C40000F900F900F9080914903869586958695F9
:102C50000E94751708958091490380FD1FC081600F
:102C600080934903813019F489E08093490380916E
:102C700049030E9498158091F60280FF08C08DEEEE
:102C800092E09F938F930E9468050F900F90809120
:102C900049038695869586950E94751708958091BB
:102CA000490380FF14C08E7F809349030E949815CA
:102CB0008091F60280FF08C08AED92E09F938F9387
:102CC0000E9468050F900F9080E00E94751708958C
:102CD000CF93C0914903C1708091F60280FF0CC070
:102CE0001F92CF938FEF92E09F938F930E9468057E
:102CF0000F900F900F900F90CC2321F00E944F1651
:102D0000CF9108950E942B16FBCF90914903892FF4
:102D10008695869586958F5F8F719770843088F53C
:102D2000880F880F880F892B80934903809149036E
:102D3000887F91E009F490E08091490390FB80F94D
:102D4000809349030E9498158091F60280FF11C07C
:102D5000809149038695869586951F928F9386EC80
:102D600092E09F938F930E9468050F900F900F90B1
:102D70000F90809149038695869586950E947517D8
:102D8000089590934903D2CF843008F083E0909166
:102D900049039770282F220F220F220F922B909316
:102DA0004903987F21E009F420E09091490320FB3A
:102DB00090F9909349030E94751708950E94C416D4
:102DC000809149030E94981508959C01FB0182811E
:102DD000882349F12E3BFCE53F07C9F040F42C3B2A
:102DE000ECE53E0769F02D3B3C4579F00895203C29
:102DF0009CE5390791F070F0213C3C4589F008953D
:102E000083E00E94DE1680E0089580E0FACF0E9401
:102E1000FA15F9CF0E94C615F6CF0E946816F3CFB7
:102E20000E948516F0CF81E00895509A589A08952F
:102E300058980895589A08951F920F920FB60F92BE
:102E400011242F933F934F935F936F937F938F93AF
:102E50009F93AF93BF93EF93FF930E941A17FF9135
:102E6000EF91BF91AF919F918F917F916F915F9102
:102E70004F913F912F910F900FBE0F901F9018957B
:102E80001F920F920FB60F9211242F933F934F93DF
:102E90005F936F937F938F939F93AF93BF93EF93C2
:102EA000FF93209188003091890080918600909155
:102EB00087006AEF70E00E94EE256B5F7F4F62171C
:102EC000730710F40E941817FF91EF91BF91AF9113
:102ED0009F918F917F916F915F914F913F912F9132
:102EE0000F900FBE0F901F9018958F929F92AF92E8
:102EF000BF92EF92FF920F931F93CF93DF93C82F50
:102F0000843008F043C0811142C0809188009091C4
:102F10008900892B51F080916F008D7F80936F0025
:102F200080916F008E7F80936F000E941A17A0918E
:102F30008600B09187002C2F30E00E942A2623E0E3
:102F400030E040E050E00E94022689019A01809121
:102F50008600909187006CE070E00E94EE2560177B
:102F6000710730F1C80169E070E00E94EE257093AE
:102F7000890060938800DF91CF911F910F91FF909E
:102F8000EF90BF90AF909F908F900895C3E0809195
:102F9000880090918900892B51F680916F008260A2
:102FA00080936F0080916F00816080936F00BFCF2E
:102FB0008091860090918700E0908600F0908700D5
:102FC000E0918600F0918700C6E0D0E0BE010E944B
:102FD000EE25060F171F211D311D4801590185E0FF
:102FE000880C991CAA1CBB1C8A95D1F7C701BE018D
:102FF0000E94EE259F0150E040E0260F371F411D43
:10300000511DC501B4010E94022649015A01E091F7
:103010008600F0918700CA01B9010E94D2259B0168
:10302000AC01DF010E9439269B01AC01C501B4014E
:103030000E94D2252FE096958795779567952A95DA
:10304000D1F7009186001091870030E020E006174C
:1030500017072807390708F08ACF6091860070911A
:10306000870085CF08950E94151782E08093800025
:1030700089E1809381008FEF9FEF90938700809389
:1030800086000E94A7150895CF93DF93EC01FB0102
:103090008281882309F464C1C430FDE5DF07E0F5CF
:1030A000CB3F9CE5D90730F49E0122503C452431AA
:1030B0003105D8F50E9422109093180380931703CE
:1030C000C231ECE5DE0709F41FC108F06EC0C9305B
:1030D0008CE5D80709F4F2C008F03FC0C530ECE534
:1030E000DE0709F4DBC058F5C3308CE5D80709F4D6
:1030F000CDC008F0CFC0809117038160C230DC459D
:1031000009F4AEC080911703909118030E9430100B
:103110000E94900A80E009C0C63AEDE5DE0751F250
:1031200038F4C2369DE5D90729F2DF91CF91089591
:103130009E012E5A3D4523303105B8F7BBCF809113
:1031400017038062C730FCE5DF0709F489C008F483
:10315000B1C080911703806483C0CD309CE5D9074E
:1031600009F4BAC070F4809117038E7FCB30FCE570
:10317000DF0709F475C008F4A7C0809117038D7F9D
:103180006FC0CF309CE5D90709F4B6C008F4A8C0D9
:10319000C031FCE5DF0709F4B3C0C131DC4509F0FB
:1031A000B1CF809117038F7B5BC0C1159DE5D90717
:1031B00009F4B4C098F5CB3FFCE5DF0709F472C011
:1031C000B8F4C4319CE5D90709F4B6C008F4A2C02C
:1031D000C531DC4509F096CF8091170382FB992712
:1031E00090F921E0922790FB82F990FB83F938C097
:1031F000CD3F8CE5D80709F477C008F457C0CE3F1F
:10320000ECE5DE0709F474C0809118038360CF3FBA
:10321000DC4509F077CF8093180374CFC2368DE573
:10322000D80709F496C068F4C230EDE5DE0709F46A
:103230008CC008F477C0C330DD4509F063CF80E06F
:1032400085C0CE3A9DE5D907E9F068F4909117035F
:10325000892F8E7F90FF8160C63ADD4509F052CFFD
:10326000809317034FCFCF3A8DE5D80789F1C03B44
:10327000DD4509F047CF90911803892F877F93FF91
:103280008860C9CF809118038860C5CF80911703EB
:103290008260E6CF809117038460E2CF80911703AC
:1032A0008860DECF809118038160B5CF80911803CC
:1032B0008260B1CF809117038061D2CF0E94900AC3
:1032C000809117038068CCCF809117038C60C8CFA2
:1032D00080911803877F9FCF809117038B7FC0CF8A
:1032E00080911703877FBCCF809118038E7F93CF87
:1032F000809118038D7F8FCF809117038F7EB0CF81
:10330000809117038F7DACCF0E94900A80911703A4
:103310008F77A6CF80911703837FA2CF8091180368
:103320008C7F79CF80911803982F909591708E7F24
:10333000892B90FB81F96FCF0E94900A909117031F
:10334000892F97FB87F980588BCF81E00E94B910B5
:10335000D9CE90911703892F8F7E94FF806180CF03
:1033600081E0E3CECF93C82F1F928F938BE493E03D
:103370009F938F930E94680581E090E002C0880FC0
:10338000991FCA95E2F70E94E50A0E94900A0F90E1
:103390000F900F900F90CF910895EF92FF920F939F
:1033A0001F93CF93DF938B3109F42CC108F0CCC06D
:1033B0008B3009F4E8C008F09EC0863009F4F6C0EE
:1033C00048F4853009F4CEC087E197E00E94CF042D
:1033D00080E0FCC0873009F4FEC08830A9F70E9465
:1033E0001D101F928F938AEF96E09F938F930E94F8
:1033F00068050E94181083FB992790F91F929F93EC
:1034000082FB992790F91F929F9381FB992790F94E
:103410001F929F93982F91701F929F931F928F934B
:1034200081EB96E09F938F930E9468050E94221083
:1034300093FB222720F91F922F9387FB222720F945
:103440001F922F9386FB222720F91F922F9385FB33
:10345000222720F91F922F9384FB222720F91F9205
:103460002F9383FB222720F91F922F9382FB222781
:1034700020F91F922F9391FB222720F91F922F935F
:10348000292F21701F922F9381FB222720F91F9251
:103490002F93282F21701F922F939F938F9382EB4E
:1034A00095E09F938F930E9468058DB79EB78A968B
:1034B0000FB6F8949EBF0FBE8DBF0E949315982F34
:1034C0009695969596951F929F93982F91701F921F
:1034D0009F931F928F938FE795E09F938F930E9406
:1034E00068058DB79EB708960FB6F8949EBF0FBEBD
:1034F0008DBF81E06BC0803109F49CC080F48E30B8
:1035000009F062CF9091F602892F8B7F92FF846041
:103510008093F60282FF8BC082E497E07FC0863101
:1035200009F498C0893109F04FCF88E891E09F9362
:103530008F938BEB93E09F938F930E9468050F907E
:103540000F900F900F90D5CF8A3249F190F48732C7
:1035500011F128F48E3108F437CF8D511DC0893216
:1035600009F032CF85E897E00E94CF040E94D5058C
:10357000C0CF833468F48A3308F091C0853359F0A2
:10358000883309F021CF89ED93E00E94CF04B1CFB9
:10359000833409F019CF80E00E94B219AACF85EADE
:1035A00097E00E94CF040E94B610A3CF8091F6024C
:1035B000807F8093F6028EEB93E00E94CF0481EA35
:1035C00097E00E94CF0481E08093FA02CDB7DEB786
:1035D000E6E00C946C269091F602892F8E7F90FF86
:1035E00081608093F60280FF03C089E797E0CDCF2A
:1035F0008CE697E00E94CF048091F602817F809351
:10360000F60277CF9091F602892F8D7F91FF82602D
:103610008093F60281FF08C08FE597E00E94CF04F7
:103620008091F6028160EBCF81E597E0AECF82E337
:1036300097E0ABCF9091F602892F877F93FF886048
:103640008093F60283FF03C086E297E0E7CF89E12B
:1036500097E09BCF0E94091E162F072FF82EE92E08
:10366000D0911603C0910E010E94831CEF92FF922D
:103670000F931F931F92DF931F92CF931F928F93ED
:1036800080E593E09F938F930E9468058DB79EB766
:103690000C960FB6F8949EBF0FBE8DBF2ACF8953EC
:1036A0007BCF80E008950E94511B0895CF93C82FCF
:1036B0008091FA02882331F0813099F01092FA0259
:1036C00080E00DC00E940C0F8232D1F78C2F0E9437
:1036D000511B811119C08C2F0E94CD198170CF917F
:1036E00008950E940C0F823289F38C2F0E94531B85
:1036F000811119C0C431C9F050F4CB3061F085E4B8
:1037000093E00E94CF0413C081E090E0E7CFC9327C
:1037100061F0C833A1F78EEB93E00E94CF0487E4F9
:1037200093E00E94CF0481E0D9CF1092FA0280E0AA
:10373000D5CFCF93DF93EB0186319C4511F50E94E5
:103740000C0F9A81992399F08A7A91E009F490E01C
:103750009093FB02811109C089E20E94E40E0E944D
:103760004D0F80E0DF91CF91089585E3F6CF8091F2
:10377000FB02811104C089E20E94EC0EF0CF85E3C8
:10378000FBCF81E0EFCF0F931F93CF93DF93C42F35
:10379000D22FFC0182818823C9F04093FE020E944F
:1037A000FD1D9093FD028093FC0280E28C0F883017
:1037B00040F4C77081E001C0880FCA95EAF70E9403
:1037C0004108DF91CF911F910F9108951091FE0252
:1037D000141332C08091FC029091FD020E94151ECC
:1037E000883C910548F5C0E2CD0F1D17B9F080E285
:1037F000810F883040F4177081E001C0880F1A955E
:10380000EAF70E944808C83048F481E09D2F97707D
:1038100001C0880F9A95EAF70E944108802F0E9404
:103820003808C83070F6D77081E001C0880FDA958B
:10383000EAF70E944808C5CF80E28C0F883008F66E
:10384000C77081E001C0880FCA95EAF7F2CF0F93E5
:103850009C01CB01243F4CE5340759F1A8F4293DE4
:10386000FCE53F0701F12A3D4CE53407D1F1283D45
:103870003C4591F406E221EE41EE68ED7CE50E94C4
:10388000C31B80E00F910895263FFCE53F07E9F058
:10389000B0F0273F3C45F9F0FC018281882339F1E3
:1038A0001092FE02EFCF07E225EE45EE69ED7CE5D2
:1038B000E6CF06E221EE40EE64EF7CE5E0CF07E2E2
:1038C00025EE44EE65EF7CE5DACF06E221EE42EE2E
:1038D00066EF7CE5D4CF07E225EE46EE67EF7CE5A8
:1038E000CECF08E221E045EE6AED7CE5C8CF81E06D
:1038F000C9CF90934902809348020895909304039E
:10390000809303030895E0910303F091040330973B
:1039100029F00190F081E02D0995089580E0089547
:10392000EF92FF920F931F93CF93DF938C01E0915F
:103930000303F0910403309791F10280F381E02DAD
:1039400009958091F60282FF2AC080FF04C08EEBA9
:1039500097E00E94CF04D0E0C0E088EBE82E87E03B
:10396000F82E8091F60280FF0EC0F801EC0FFD1FCB
:1039700080811F928F93FF92EF920E9468050F90B3
:103980000F900F900F902196C830D10551F780917C
:10399000F60280FF04C086EB97E00E94CF04CDB70B
:1039A000DEB7E6E00C946C2620910103309102030F
:1039B0002817390771F09093020380930103E09177
:1039C0000303F0910403309721F00680F781E02D86
:1039D000099508952091FF023091000328173907B7
:1039E00071F0909300038093FF02E0910303F09144
:1039F0000403309721F00084F185E02D09950895A6
:103A00009C012E5F3F4FAC01485F5F4F80E0241761
:103A1000350709F40895F90191919F019923B9F3AC
:103A20008F5FF5CF662349F0FC013296089621910D
:103A3000261729F0E817F907D1F780E0089581E00B
:103A400008959C01FC0132969FEF80E0419146175A
:103A500051F09F3F19F4411101C0982F8F5F8630BC
:103A6000A9F79F3F09F40895290F311D97FD3A9555
:103A7000F90162830895FC0132960896219126137C
:103A800003C0DF0111971C92E817F907B9F70895F1
:103A90000E94211D08950E943B1D0895029626E074
:103AA000FC0111922A95E9F7089508950E94551D89
:103AB0000895811106C081E0809305030E94561D80
:103AC000089582E0F9CF83E0809305030E94561D9C
:103AD00008950E94591D089581E0809305030E9476
:103AE000561D08950E946C1D0895089508950E9422
:103AF000761D0895089508950E94751D0895CF9329
:103B00000E947A1D0E94FC140E947B1DC0E08C2F35
:103B10000E94D513672B682B692B31F4CF5FC63019
:103B2000B1F780E0CF91089581E0FCCF85B7806840
:103B300085BF85B7806885BF08951F921FB61F9205
:103B400011248F939F93AF93BF93809106038111AC
:103B500013C080914A0390914B03A0914C03B09104
:103B60004D034196A11DB11D80934A0390934B03D1
:103B7000A0934C03B0934D03BF91AF919F918F9150
:103B80001F901FBE1F90189580915203843031F111
:103B90000E944E061092060388E190E020E40FB6E2
:103BA000F894A895809360000FBE2093600083B7BF
:103BB000817F846083BF83B7816083BF7894889559
:103BC00083B78E7F83BF0FB6F894A895809160006D
:103BD000886180936000109260000FBE08950E947B
:103BE000900A0E945606089582E084BD93E095BD38
:103BF0009AEF97BD80936E0008952FB7F894809147
:103C00004A0390914B03A0914C03B0914D032FBFF9
:103C100008952FB7F89460914A0370914B038091F7
:103C20004C0390914D032FBF08959C014FB7F8941A
:103C300080914A0390914B03A0914C03B0914D03A6
:103C40004FBF821B930B089578941F921FB61F924B
:103C500011248F939F93AF93BF9380914A039091C8
:103C60004B03A0914C03B0914D030196A11DB11DD2
:103C700080934A0390934B03A0934C03B0934D035E
:103C8000BF91AF919F918F911F901FBE1F9018956C
:103C900081E08093E00080E28093D8001092C90018
:103CA0008FE19EE40197F1F700C0000087E090EB00
:103CB000DC0180935B0390935C03A0935D03B0935E
:103CC0005E0388E19CE00FB6F894A89580936000AD
:103CD0000FBE90936000FFCF88E19CE00FB6F89490
:103CE000A895809360000FBE90936000FFCF8091F5
:103CF000150308950895CF93DF93EC0181E080933D
:103D0000E9008FEF9091E800815095FD06C095ED98
:103D10009A95F1F700008111F5CF8091E80085FFB9
:103D200014C050E040E068E070E0CE010E944C21F9
:103D30008091E8008E778093E80088E0FE01ADE096
:103D4000B3E001900D928A95E1F7DF91CF9108954C
:103D50008093090370930B0360930A0380915203CD
:103D6000843001F582E08093E9008FEF9091E800C4
:103D7000815095FD06C095ED9A95F1F700008111EF
:103D8000F5CF8091E80085FF0DC050E040E063E092
:103D900070E089E093E00E944C218091E8008E77EA
:103DA0008093E8000895BC0184E00E94A81E089555
:103DB000BC0183E00E94A81E0895089584EE97E058
:103DC0000E94CF0480915103811109C00E94DC221E
:103DD0000E9439238091E20084608093E20008957C
:103DE00080EE97E00E94CF041092510308958CED6D
:103DF00097E00E94CF040E946C1D089588ED97E023
:103E00000E94CF0460914E0381E0611101C080E007
:103E10000E94631D089584ED97E00E94CF04909165
:103E2000520381E0943009F080E060914E030E94DB
:103E3000691D0895209108032F5F822F62E30E947D
:103E4000E225992319F0209308030895109208039E
:103E500080910C038823F1F0809152038430C1F4E7
:103E60009091E9009F702091EC00822F817020FDDD
:103E700080E8892B93E09093E9009091EB0090FF0C
:103E800004C09091EE0097FD08C08F708093E90008
:103E900010920C0308951092F1009091E80095FDA6
:103EA000FACF9091E80090FFF0CF9091E8009E77D4
:103EB0009093E800EACF42E061EC81E00E94582252
:103EC00042E261EC82E00E94582242E261EC83E02F
:103ED0000E9458229091520381E0943009F080E0D2
:103EE00060914E030E94591D0895809154038330C0
:103EF00009F461C030F48130D1F1823009F49EC000
:103F000008958A3009F48AC08B3009F46FC0893073
:103F100009F050C080915303813209F04BC0809169
:103F2000570390915803029708F044C08091E8002D
:103F3000877F8093E8008091E80082FF37C09091EE
:103F4000F3008091F200029731F48091F10081300A
:103F500011F0863021F48091F10080931503809157
:103F6000E8008B778093E8000E948C2223C0809128
:103F70005303813AF9F48091E800877F8093E80049
:103F80008091570390915803892B61F468E08DE08C
:103F900093E070E00E949B218091E8008B778093F2
:103FA000E800089560E090E080E0F3CF8091520354
:103FB0008111C1CF089580915303813AD9F780913F
:103FC000570390915803892BA9F78091E800877FC8
:103FD0008093E8008091E80080FFFCCF80910E0183
:103FE0008093F1008091E8008E77BCCF80915303DD
:103FF000813201F78091570390915803892BD1F6B4
:104000008091E800877F8093E8000E948C22809155
:10401000550380930E010E94900A089580915303E6
:10402000813241F68091E800877F8093E8000E940A
:104030008C22809156038093160308958091530338
:10404000813A09F0B7CF8091E800877F8093E8003C
:104050008091E80080FFFCCF80911603C1CF9FB70D
:10406000F89410920C039FBF90915203943009F082
:1040700048C02091E9002F703091EC00932F91708F
:1040800030FD90E8922B23E02093E9002091EB0093
:1040900020FF34C02091EE0027FF30C0209107039D
:1040A000222321F02091E80025FF28C01092070369
:1040B00026E03091E80035FF14C08093F100809134
:1040C000E80085FD27C08091E80080FFFCCF80914B
:1040D000E8008E778093E8009F709093E90080E07D
:1040E000089530915203343049F43091EB0035FD9E
:1040F00005C0215041F481E0809307039F709093A5
:10410000E9008FEF0895EFE9FFE03197F1F700C084
:104110000000CFCF8FB7F89421E020930C038FBF1E
:10412000DBCF84B7877F84BF0FB6F894A8958091C2
:104130006000886180936000109260000FBE80E88C
:1041400090E00FB6F89480936100909361000FBEE9
:104150000E94721D08950E94DC220E943923E2EE23
:10416000F0E080818460808378940E94B725089570
:1041700082E091E00E947E1C089580915203853078
:1041800051F480ED97E00E94CF0480915203853076
:1041900019F00E94EF1D08950E94C41D80915003E4
:1041A000882399F30E947F1D882379F30E9436218A
:1041B0000E94900AEACF08950E94DF200895292FD7
:1041C00033272330310521F168F42130310509F41A
:1041D00043C02230310509F444C090E080E030E073
:1041E00020E026C02132310551F122323105A9F7F4
:1041F0006330710590F7FB01EE0FFF1FE45CFD4F8C
:1042000020813181675C7D4FFB01808190E010C08F
:1042100099278130910581F0009729F00297E9F6FE
:10422000E8EEF7E002C0ECE0F8E0849190E09F0156
:10423000FA01318320830895E4EFF7E0F6CF63308D
:10424000710558F6660F771FFB01EE5BFD4F20816D
:10425000318189E090E0ECCF82E190E02BE638E01C
:10426000E7CF8BE590E020E138E0E2CF80E189BD47
:1042700082E189BD09B400FEFDCF8091D8008F7D19
:104280008093D8008091E00082608093E00080916C
:10429000E00081FDFCCF0895AF92BF92CF92DF92F4
:1042A000FF920F931F93CF93DF936C01EB018A0171
:1042B0000E94AB22F82E811123C00115110539F09F
:1042C000F80180819181C81BD90BC80ED91EB12C71
:1042D000A12C2097A9F08091E80085FD22C0809153
:1042E000E8008E778093E80001151105A1F0F80130
:1042F00080819181A80EB91EB182A08285E0F82E3E
:104300008F2DDF91CF911F910F91FF90DF90CF9074
:10431000BF90AF9008950E94AB228823D1F2F82E6F
:10432000EFCFF60181916F018093F1002197FFEFAC
:10433000AF1ABF0ACECFFC018091590390915A0366
:1043400086179707A0F06115710529F49091E80090
:104350009E779093E80090E06115710551F49111FA
:1043600008C08091E80082FF34C080E00895BC015D
:10437000F2CF809152038823C1F18530C1F1809141
:10438000E80083FD30C08091E80082FDEACF809193
:10439000E80080FFE1CF8091F3002091F200382FF8
:1043A0006115710519F02830310558F091E0283079
:1043B000310509F090E02091E8002E772093E80085
:1043C000CBCF81918093F100615071092F5F3F4FF6
:1043D000E7CF80915203882341F0853041F08091EE
:1043E000E80083FFBECF81E0089582E0089583E076
:1043F0000895FC018091590390915A0386179707FD
:10440000A0F06115710529F48091E8008E77809302
:10441000E80090E06115710551F4911108C0809198
:10442000E80082FF35C080E00895BC01F2CF8091A2
:1044300052038823C9F18530C9F18091E80083FDDA
:1044400031C08091E80082FDEACF8091E80080FFD2
:10445000E1CF8091F3002091F200382F61157105B2
:1044600019F02830310558F091E02830310509F075
:1044700090E08091E8008E778093E800CBCF849124
:104480008093F1003196615071092F5F3F4FE6CF65
:1044900080915203882341F0853041F08091E800FB
:1044A00083FFBDCF81E0089582E0089583E0089501
:1044B000982F973028F08F708093E90081E008955D
:1044C0009093E900242F762F50E0981731F07091E7
:1044D000EC002091ED005091F00021FD02C09F5FA3
:1044E000E8CF3091EB003E7F3093EB003091ED0050
:1044F0003D7F3093ED003091EB0031603093EB0065
:104500007093EC002093ED005093F0002091EE00AA
:1045100027FDE5CF80E008958091530387FF13C006
:104520008091E80082FF06C08091E8008B7780933D
:10453000E80004C0809152038111F2CF0895809168
:1045400052038823D9F38091E80080FFF8CF80914F
:10455000E8008E77ECCF2091E4003091E50095E6FD
:10456000A9012091EC00822F817020FF06C080916C
:10457000E80080FF06C080E008952091E80022FD59
:104580001AC080915203882389F0853089F0809188
:10459000EB0085FD0FC02091E4003091E50042174B
:1045A0005307F9F29150E1F684E0089582E008950E
:1045B00083E0089581E008950E944B230E945323D5
:1045C000E0EEF0E0808181608083E8EDF0E08081C2
:1045D0008F77808319BCA7EDB0E08C918E7F8C9390
:1045E00080818F7E80831092510308950F931F93D3
:1045F000CF93DF930E944B230E945323C8EDD0E05A
:1046000088818F77888388818068888388818F7D7F
:10461000888319BC1092520310924E0310925003DB
:1046200010924F0300EE10E0F80180818B7F8083B1
:1046300088818160888342E060E080E00E945822A7
:10464000E1EEF0E080818E7F8083E2EEF0E0808119
:1046500081608083808188608083F80180818E7F83
:104660008083888180618883DF91CF911F910F9132
:104670000895E8EDF0E080818F7E8083E7EDF0E043
:1046800080818160808384E082BF81E080935103D8
:104690000E94F6220895E8EDF0E080818E7F80830D
:1046A0001092E20008951092DA001092E10008954D
:1046B0001F920F920FB60F9211242F933F934F9397
:1046C0005F936F937F938F939F93AF93BF93EF937A
:1046D000FF938091E10082FF0BC08091E20082FF96
:1046E00007C08091E1008B7F8093E1000E941A1F38
:1046F0008091DA0080FF19C08091D80080FF15C03A
:104700008091DA008E7F8093DA008091D90080FF5B
:1047100096C080E189BD82E189BD09B400FEFDCF6C
:1047200081E0809352030E94DE1E8091E10080FFB1
:1047300019C08091E20080FF15C08091E2008E7F59
:104740008093E2008091E20080618093E20080919A
:10475000D80080628093D80019BC85E08093520312
:104760000E94FE1E8091E10084FF2BC08091E20038
:1047700084FF27C080E189BD82E189BD89B5982F7A
:10478000917080FFFBCF8091D8008F7D8093D800FF
:104790008091E1008F7E8093E1008091E2008F7E26
:1047A0008093E2008091E20081608093E20080913A
:1047B0004E03882309F449C084E0809352030E9489
:1047C0000B1F8091E10083FF29C08091E20083FFED
:1047D00025C08091E100877F8093E10082E0809393
:1047E000520310924E038091E1008E7F8093E1008E
:1047F0008091E2008E7F8093E2008091E2008061F0
:104800008093E20042E060E080E00E9458228091C4
:10481000F00088608093F0000E94F71EFF91EF91F6
:10482000BF91AF919F918F917F916F915F914F91C8
:104830003F912F910F900FBE0F901F90189519BCAC
:10484000109252030E94F01E70CF8091E30087FD0A
:1048500093E090935203B3CF1F920F920FB60F9233
:1048600011242F933F934F935F936F937F938F9375
:104870009F93AF93BF93CF93DF93EF93FF93D09129
:10488000E900DF708091EC00C82FC17080FDC0E8A6
:104890001092E9008091F000877F8093F000789477
:1048A0000E9470241092E9008091F000886080934B
:1048B000F000CD2BCF70C093E900FF91EF91DF9115
:1048C000CF91BF91AF919F918F917F916F915F91A8
:1048D0004F913F912F910F900FBE0F901F90189501
:1048E000AAE2B0E0E6E7F4E20C94532683E593E015
:1048F0002091F100FC012193CF01F3E08B359F075C
:10490000B9F70E94751F8091E80083FF1EC1809156
:104910005303909154039A3008F017C1E92FF0E047
:10492000EF51F94D0C942426803899F0823809F023
:104930000CC1809157038F70873008F006C18093B7
:10494000E9008091EB0085FB882780F91092E9004F
:1049500006C080914F039091500391118260909115
:10496000E800977F9093E8008093F1001092F100A7
:104970008091E8008E77E5C0882309F4D3C08230A7
:1049800009F0E3C0809155038111D6C0809157038F
:104990008F702FEF280F263008F0D7C08093E900E2
:1049A0002091EB0020FFC8C0933031F48091EB00E0
:1049B00080628093EB00C0C09091EB009061909377
:1049C000EB0021E030E001C0220F8A95EAF7209346
:1049D000EA001092EA008091EB008860EACF811132
:1049E000B4C0109155031F778091E3008078812B2C
:1049F0008093E3008091E800877F8093E8000E9425
:104A00008C228091E80080FFFCCF8091E3008068D9
:104A10008093E30082E0111183E08093520395C0FC
:104A20008058823008F091C08091550390915603D0
:104A30008C3D23E09207A1F583E08A838AE2898393
:104A40004FB7F894DE01139620E03EE051E2E32FE9
:104A5000F0E050935700E49120FF03C0E295EF701F
:104A60003F5FEF708E2F90E0EA30C0F0C7968D93D5
:104A70009D932F5F243159F74FBF8091E800877FC6
:104A80008093E8006AE270E0CE0101960E949B21CB
:104A90008091E8008B778093E80057C0C096E7CFFD
:104AA0006091570370915803AE014F5F5F4F0E94B2
:104AB000DC20BC01892B09F448C09091E800977F65
:104AC0009093E80089819A810E94F921E1CF803892
:104AD000E1F58091E800877F8093E80080914E03A4
:104AE0008093F10045CF811130C0909155039230F1
:104AF00060F58091E800877F8093E80090934E03F3
:104B00000E948C2280914E03882311F084E005C01E
:104B10008091E30087FDFACF81E0809352030E94E9
:104B20005B1F13C080915503813079F481E093308D
:104B300009F080E0809350031092E9008091E80032
:104B4000877F8093E8000E948C228091E80083FF99
:104B50000AC08091E800877F8093E8008091EB0095
:104B600080628093EB00AA96E3E00C946F26CF93CB
:104B7000809152038823A1F0C091E900CF709091F9
:104B8000EC00892F817090FD80E8C82B1092E9001D
:104B90008091E80083FD0E947024CF70C093E900EB
:104BA000CF910895DB018F939F930E943926BF9187
:104BB000AF91A29F800D911DA39F900DB29F900D6C
:104BC00011240895991B79E004C0991F961708F0E5
:104BD000961B881F7A95C9F780950895AA1BBB1B61
:104BE00051E107C0AA1FBB1FA617B70710F0A61BED
:104BF000B70B881F991F5A95A9F780959095BC010E
:104C0000CD010895A1E21A2EAA1BBB1BFD010DC008
:104C1000AA1FBB1FEE1FFF1FA217B307E407F5076C
:104C200020F0A21BB30BE40BF50B661F771F881F48
:104C3000991F1A9469F760957095809590959B01DE
:104C4000AC01BD01CF010895EE0FFF1F0590F49157
:104C5000E02D0994A29FB001B39FC001A39F700DE6
:104C6000811D1124911DB29F700D811D1124911D74
:104C700008950E942A26A59F900DB49F900DA49F91
:104C8000800D911D112408952F923F924F925F92B3
:104C90006F927F928F929F92AF92BF92CF92DF924C
:104CA000EF92FF920F931F93CF93DF93CDB7DEB7B1
:104CB000CA1BDB0B0FB6F894DEBF0FBECDBF099445
:104CC0002A88398848885F846E847D848C849B849C
:104CD000AA84B984C884DF80EE80FD800C811B81AA
:104CE000AA81B981CE0FD11D0FB6F894DEBF0FBED9
:104CF000CDBFED010895FB01DC0104C08D91019051
:104D0000801921F441505040C8F7881B990B089531
:104D1000FB01DC0102C001900D9241505040D8F7D8
:104D20000895F999FECF92BD81BDF89A992780B573
:104D30000895A8E1B0E042E050E00C94C526262F8B
:104D4000F999FECF92BD81BDF89A019700B4021681
:104D500039F01FBA20BD0FB6F894FA9AF99A0FBE2F
:104D600008950396272F0E94A0260E949F26252F94
:104D70000E94A026242F0C94A0260196272F0E9483
:104D8000A0260C949F26DC01CB01FC01F999FECFF3
:104D900006C0F2BDE1BDF89A319600B40D924150C3
:104DA0005040B8F70895F894FFCF8A088A08BB08E6
:104DB000BB084809EA08EA08EA086409D509E409D1
:104DC000E4099424BC24A525BC24A525EF241025A2
:064DD000A52567257325EF
:104DD600CA02771E7B1EDD1ED81ED31E7A1E01E276
:104DE60000E900EA00B500B600B700CD008301CCAB
:104DF600008A01920194012102230224022502263F
:104E06000227022A02B300B4006F00700081828379
:104E1600E200E900EA00B500B600B700CD00830164
:104E2600CC008A0192019401210223022402250268
:104E3600260227022A02B300B4006F0070008182A6
:104E460083C6F0F1F4F5F6F7353666949697343264
:104E560033929130316793950A092D205665727306
:104E6600696F6E202D0A5649443A20307837383417
:104E760034284B5072657075626C696329205049FD
:104E8600443A20307838373837285844383729207C
:104E96005645523A203078303030310A4255494C26
:104EA600443A202028536570202033203230323295
:104EB600290A4F5054494F4E533A204C55464120EB
:104EC60045585452414B455920434F4E534F4C453C
:104ED60020434F4D4D414E4420343039360A474326
:104EE600433A20382E332E30204156522D4C49421B
:104EF600433A20322E302E30204156525F415243E3
:104F0600483A20617672350A00403222D1089F085D
:084F16007D0822083B08540845
:00000001FF
