:100000000C94EF040C9427050C9427050C942705F9
:100010000C9427050C9427050C9427050C942705B0
:100020000C9427050C9427050C9451250C94232639
:100030000C94A51F0C9427050C9427050C942705F8
:100040000C9427050C9421190C9427050C94270572
:100050000C9445190C942D200C9427050C9427051D
:100060000C9427050C9427050C9427050C94270560
:100070000C9427050C9427050C9427050C94270550
:100080000C9427050C9427050C9427050C94270540
:100090000C9427050C9427050C9427050C94270530
:1000A0000C9427050C9427050C942705280928098A
:1000B00054095409BC09E70AE70AE70ADA09730A8E
:1000C000840A840A9026B726AF27B726AF270327CE
:1000D0002627AF277D278C27390000003A003B00F8
:1000E0003C003D003E003F00400041004200430014
:1000F0004400450046004700480035001E001F0030
:1001000020002100220023002400250026002700D3
:100110002D002E002A0049004A004B002B0014003D
:100120001A000800150017001C0018000C0012002F
:1001300013002F00300000004C004D004E0029003D
:1001400004001600070009000A000B000D000E0055
:100150000F003300340032002800000000000000CF
:10016000E10064001D001B000600190005001100DD
:100170001000360037003800E50000000000520093
:100180000000E000E300E241000000000000000089
:1001900000002C000000E600E7006500E4005000CD
:1001A00051004F00010000000100010001000100AA
:1001B0000100010001000100010001000100010037
:1001C0000100010001000100010001000100010027
:1001D0000100010001000100010001000100010017
:1001E0000100010001000100010001000100010007
:1001F0000100010001004A004D004B004E000100CB
:1002000001000000010001000100010001000100E7
:1002100001000100010001005000510052004F0098
:1002200001000100010000000000000001000100C9
:1002300001000100010001000100010001000100B6
:1002400001000100010000000000010000000100A9
:10025000010001000000000000000000000001009B
:100260000000010001000100010001000100010087
:1002700044454255473A2064697361626C65642E57
:100280000A0044454255473A20656E61626C6564D8
:100290002E0A000A0025303258006C65645F7461D4
:1002A000736B3A20004F6E6573686F743A20616318
:1002B000746976653A2025640A000A0025303332D5
:1002C0006C62003A200025303258000A722F6320F9
:1002D000303132333435363738394142434445467C
:1002E000303132333435363738394142434445466C
:1002F0000A006261636B6C6967687420737465706F
:100300003A2025750A006261636B6C696768742026
:1003100064697361626C650A006261636B6C696732
:10032000687420656E61626C650A006261636B6C63
:100330006967687420746F67676C653A2025750A71
:10034000006261636B6C69676874206465637265E1
:100350006173653A2025750A006261636B6C696799
:10036000687420696E6372656173653A2025750A49
:10037000003F00433E20004C25640A000A092D205E
:10038000537461747573202D0A686F73745F6B65A5
:1003900079626F6172645F6C65647328293A202505
:1003A0003032580A6B6579626F6172645F70726F88
:1003B000746F636F6C3A20253032580A6B6579622E
:1003C0006F6172645F69646C653A20253032580A47
:1003D00074696D65725F72656164333228293A20F1
:1003E0002530386C580A000A092D20566572736949
:1003F0006F6E202D0A5649443A203078373834340D
:10040000284B502052657075626C696329205049F1
:10041000443A203078383738372858443837205411
:100420004B4C29205645523A203078303030310A32
:100430004255494C443A20202841707220313820DE
:1004400032303232290A4F5054494F4E533A204CE1
:100450005546412045585452414B455920434F4E33
:10046000534F4C4520434F4D4D414E44203430397D
:10047000360A4743433A20352E342E302041565217
:100480002D4C4942433A20322E302E3020415652D4
:100490005F415243483A20617672350A000A092DBD
:1004A00020436F6E736F6C65202D0A4553432F7187
:1004B0003A09717569740A000A092D204D6167694E
:1004C00063202D0A443A094465627567204D6573BF
:1004D0007361676520546F67676C650A583A094D08
:1004E0006174726978204465627567204D6F646538
:1004F00020546F67676C65202D2053686F77206BE1
:1005000065797072657373657320696E206D6174AF
:1005100072697820677269640A4B3A094B6579629F
:100520006F61726420446562756720546F67676C01
:1005300065202D2053686F77206B65797072657325
:1005400073207265706F72740A4D3A094465627562
:1005500067204D6F75736520546F67676C650A5629
:100560003A0956657273696F6E0A533A095374619A
:100570007475730A433A094163746976617465203E
:10058000436F6E736F6C65204D6F64650A46312D45
:100590004631303A0953776974636820746F204C90
:1005A0006179657220302D392028463130203D2078
:1005B0004C30290A302D393A095377697463682021
:1005C000746F204C6179657220302D390A47524191
:1005D00056453A0953776974636820746F204C61FB
:1005E00079657220302028616C7465726E61746563
:1005F000290A423A094A756D7020746F20426F6F64
:10060000746C6F616465720A4553433A094A756DAB
:100610007020746F20426F6F746C6F61646572201C
:1006200028616C7465726E617465290A453A0950D7
:1006300072696E7420454550524F4D205365747455
:10064000696E67730A4253504143453A09436C65EA
:10065000617220454550524F4D0A006261636B6CD8
:10066000696768745F636F6E6669672E7261773A57
:1006700020253032580A2E656E61626C653A20255D
:10068000750A2E6C6576656C3A2025750A006B65D7
:10069000796D61705F636F6E6669672E7261773A1C
:1006A00020253032580A2E737761705F636F6E7445
:1006B000726F6C5F636170736C6F636B3A2025754A
:1006C0000A2E636170736C6F636B5F746F5F636F2F
:1006D0006E74726F6C3A2025750A2E737761705FA5
:1006E0006C63746C5F6C6775693A2025750A2E73AC
:1006F0007761705F7263746C5F726775693A202509
:10070000750A2E737761705F6C616C745F6C6775CE
:10071000693A2025750A2E737761705F72616C7477
:100720005F726775693A2025750A2E6E6F5F67756F
:10073000693A2025750A2E737761705F677261765A
:10074000655F6573633A2025750A2E737761705F64
:100750006261636B736C6173685F6261636B73701A
:100760006163653A2025750A2E6E6B726F3A2025FB
:10077000750A0064656275675F636F6E6669672EF0
:100780007261773A20253032580A2E656E61626CAC
:10079000653A2025750A2E6D61747269783A2025B4
:1007A000750A2E6B6579626F6172643A2025750A4D
:1007B0002E6D6F7573653A2025750A006565636F48
:1007C0006E6669673A0A64656661756C745F6C6130
:1007D0007965723A2025750A003F000A6D6F7573BE
:1007E000653A206F66660A000A6D6F7573653A2078
:1007F0006F6E0A000A6B6579626F6172643A206FEE
:1008000066660A000A6B6579626F6172643A206FEE
:100810006E0A000A6D61747269783A206F66660A22
:10082000000A6D61747269783A206F6E0A000A647A
:10083000656275673A206F66660A000A64656275CC
:10084000673A206F6E0A000A0A4A756D70696E6712
:1008500020746F20626F6F746C6F616465722E2EEE
:100860002E2000433E2000436C656172696E672054
:10087000454550524F4D0A000A002530325820009D
:100880006B6579626F6172645F7265706F72743AE2
:1008900020005B735D005B575D005B535D005B5246
:1008A0005D005B445D005B435D0012035800440043
:1008B00038003700200054004B004C0000001803A3
:1008C0004B0050002000520065007000750062006F
:1008D0006C006900630000000403090409025B0066
:1008E000030100A0FA09040000010301010009212D
:1008F00011010001224000070581030800010904DD
:100900000100010300000009211101000122320051
:100910000705820320000109040200020300000011
:100920000921110100012222000705830320000193
:100930000705030320000112010002000000084423
:100940007887870100010200010631FF0974A101C7
:100950000975150026FF0095207508810209761596
:100960000026FF00952075089102C005010980A1AD
:1009700001850319012AB700150126B700950175F5
:10098000108100C0050C0901A101850419012AA0EC
:1009900002150126A002950175108100C00501090C
:1009A00006A101050719E029E7150025019508753D
:1009B0000181029501750881010507190029FF15BC
:1009C0000026FF0095067508810005081901290514
:1009D000950575019102950175039101C0001124DF
:1009E0001FBECFEFDAE0DEBFCDBF04B603FE18C0F6
:1009F0008091B8029091B902A091BA02B091BB0265
:100A00008730904BA740B04B59F41092B802109227
:100A1000B9021092BA021092BB02E0E0F8E3099525
:100A200011E0A0E0B1E0EAE4F1E502C005900D922A
:100A3000AA39B107D9F722E0AAE9B1E001C01D92B5
:100A4000A83BB207E1F70E9484170C94A3280C94EA
:100A50000000FF93EF93E0919A01F0919B01309792
:100A600009F00995EF91FF910895FC01859180307F
:100A700011F0EFDFFBCF0895FF27E0E230E247FF00
:100A80000CC0419597FF09C0EDE260957095809587
:100A90009095611D711D811D911D27FF02C021953B
:100AA00030E350E2AA27660F771F881F991FAA1FFD
:100AB000A41710F0A41B63955A95A9F7AA3008F063
:100AC000A95FA05DAF93F39561157105810591054F
:100AD00041F7ED3211F4EF93F395F21718F43F93C9
:100AE000F395FBCF8F91B5DFFA95E1F70895E99182
:100AF000F9918591803021F0853219F0AADFF9CF84
:100B0000089520E0E89455915532C1F3503311F423
:100B1000689455915A3348F4505390F3220F022EA3
:100B2000220F220F200D250FF4CF0EF4219589916D
:100B30009991533619F3533729F1533559F1BC01C3
:100B400088279927E8945C3621F4899199916894D3
:100B50005591543639F446EF7EF077FF0DC08FEF94
:100B60009FEF0AC055374AE039F0583540E121F08F
:100B7000523642E009F00895FF93EF937DDFEF9145
:100B8000FF91B7CFFF93EF93FC0181918030B9F3D0
:100B900060DFFBCFFF93EF9368DFF1CFDF93CF935D
:100BA000CDB7DEB72596A3DFCF91DF91089581E021
:100BB000089581E008950C94D90508950C94DD05FD
:100BC0001F93CF93DF9300D000D01F92CDB7DEB735
:100BD00049835A836B8330919D0189819A813111B8
:100BE00014C0662359F0222349F00E94200D182FCB
:100BF000682F89819A810E94C90C03C00E94F40C5D
:100C0000182F69817A81812F04C00E94200D69818B
:100C10007A810F900F900F900F900F90DF91CF91EE
:100C20001F910C948614FC01262F40815181628112
:100C3000738184810C94E00581E00895CF93DF9364
:100C4000EC0160E00E941306BE01DF91CF910C948D
:100C5000DE050C9417160C94131608950E94730B5E
:100C60000E942D062FEF84E39CE0215080409040AD
:100C7000E1F700C000000C9453200F931F93CF9313
:100C8000DF938C0161E00E941306EC01B8010E9421
:100C9000DB05882309F462C0B801CE010E94EA187E
:100CA000882309F45BC0B801CE010E943E1E882350
:100CB00009F454C0B801CE010E94561A882309F4E1
:100CC0004DC0B801CE010E949A1D882309F446C088
:100CD000F80182818823D9F1CF3D8CE5D80779F1DD
:100CE00040F4C115FCE5DF0791F0C130DC4591F01F
:100CF0002EC0CC35EDE5DE0741F1CD35FDE5DF0752
:100D000009F1CB35DD4519F50E94B71120C00E94CD
:100D10002E0624C080915302C82FC095C170C0FB1D
:100D200080F980935302CC2329F082E892E00E945C
:100D3000350514C080E792E00E94350510C00E947E
:100D40006B120CC00E94AE1102C00E94BA11C80101
:100D5000DF91CF911F910F910C94D705C0E08C2F9C
:100D6000DF91CF911F910F9108950E94851F80E020
:100D70000E947A190C9430070E94A2170E94330730
:100D80000C948B1F8295982F937344E0949F90014D
:100D900011248C7C86958695282B822F8575880F4B
:100DA0002A7A2695822B0895CF93DF93D92F0E941C
:100DB000C206C82F8D2F0E94C2062C2F30E0322F82
:100DC0002227A901482BCA01DF91CF910895CF9224
:100DD000DF92EF92FF920F931F93CF93DF936B01FC
:100DE0007C01CB010E94D406EC01C7010E94D4060D
:100DF000AC01CE01A0E0B0E0DC019927882760E0DB
:100E000070E08C019D01042B152B262B372BC9017B
:100E1000B801DF91CF911F910F91FF90EF90DF907C
:100E2000CF90089508950C94120781E00895CF9310
:100E3000C82F0E941507882329F0C1FD02C0729AAD
:100E400001C07298CF9108956A9A729A0895CF93CB
:100E5000C82F0E9413078C2F0E941707CF91089567
:100E600080E00C9427070E949A1E0C942707CF93CA
:100E70000E949A1EC82F80919C01C81741F1C0930F
:100E80009C018091530282FF1EC080FF04C08AE94A
:100E900092E00E9435058091530280FF0CC01F92A2
:100EA000CF9385E992E09F938F930E94CE050F9098
:100EB0000F900F900F908091530280FF04C083E940
:100EC00092E00E9435058C2FCF910C942707CF918B
:100ED0000895CF93DF93CDB7DEB72B970FB6F89475
:100EE000DEBF0FBECDBF4F83588769877A878B8758
:100EF00061110E94E6109E012F5F3F4F86E0F901CD
:100F000011928A95E9F785E0FE013796D9010190A3
:100F10000D928A95E1F789819A814C815D81452BFB
:100F200031F09F3F31F491E08F3F19F403C091E01D
:100F300001C090E090FF09C049815A816B817C819A
:100F40008D819E810E94071005C0C9010E941C0668
:100F50008111F2CF2B960FB6F894DEBF0FBECDBF36
:100F6000DF91CF910895FC01808191810E94620DF3
:100F70000895CF93882309F4A1C0C82F8238C1F403
:100F80000E949A1E81FD9AC069E3809102019091AE
:100F900003010E945D1F0E9408112FEF81EE94E073
:100FA000215080409040E1F700C0000069E319C083
:100FB000833801F50E949A1E80FD80C063E5809110
:100FC0000201909103010E945D1F0E9408112FEF02
:100FD00081EE94E0215080409040E1F700C0000095
:100FE00063E580910201909103010E945F1FCF9100
:100FF0000C9408118438C1F40E949A1E82FD5EC0D0
:1010000067E480910201909103010E945D1F0E949C
:1010100008112FEF81EE94E0215080409040E1F7DD
:1010200000C0000067E4DDCF8CEF8C0F813AF8F44C
:101030008C2F0E94511D811141C06C2F80910201A3
:10104000909103010E94271F882349F06C2F809103
:101050000201909103010E945F1F0E9408116C2FF2
:1010600080910201909103010E945D1FC0CF80E238
:101070008C0F883048F4C77081E001C0880FCA9592
:10108000EAF70E94C910B3CFEBE5EC0FE33040F470
:10109000F0E0E15CFE4F808190E0CF910C94EF1E78
:1010A000C85AC73158F4EC2FF0E0EE0FFF1FEF5E87
:1010B000FE4F80819181CF910C94051FCF910895AF
:1010C000882309F45BC0682F823879F40E949A1E45
:1010D00081FF54C069E380910201909103010E9455
:1010E0005D1F0E94081169E310C08338B1F40E94AB
:1010F0009A1E80FF43C063E5809102019091030135
:101100000E945D1F0E94081163E580910201909189
:1011100003010E945F1F0C940811843879F40E9427
:101120009A1E82FF2BC067E4809102019091030117
:101130000E945D1F0E94081167E4E7CF8CEF860FC5
:10114000813A18F380E2860F883048F4677081E0B6
:1011500001C0880F6A95EAF70E94CF10DCCF8BE5BB
:10116000860F833020F480E090E00C94EF1E685AE4
:10117000673120F480E090E00C94051F08951F93E0
:10118000CF93DF93182FEB010E94B907209741F00E
:101190008FE99FE00197F1F700C000002197F6CF9B
:1011A000812FDF91CF911F910C946008893319F042
:1011B00060E070E002C060E570E00C94BF08882336
:1011C00021F00E94C9100C9408110895882321F081
:1011D0000E94CF100C9408110895CF92DF92EF92E5
:1011E000FF920F931F93CF93DF937C01D62FC72FCE
:1011F000FC011281058102950F700E94BF108823A7
:10120000B9F01123A9F08C2F807F803421F080E287
:101210008D0F883068F08091750282FD09C082E0F0
:101220000E9468110E94BF1091E0D82ED92601C0FB
:10123000D12CCC2EC2948FE0C8228C2D90E08C3023
:10124000910508F0C4C1FC01EA5AFF4F0C94342800
:101250008C2F807FCF70882311F0C295C07F11231F
:1012600099F0CC2309F49FC180E28D0F883010F0F3
:10127000D11104C08C2F0E94C91003C08C2F0E9472
:10128000D9100E9408118FC18D2F0E946008CC23B5
:1012900009F49DC180E28D0F883038F1DD2329F1FA
:1012A0008C2F0E94DF1024C08C2F807FCF70803263
:1012B00011F0C295C07FDD2319F0D130A1F13DC0FE
:1012C0008091750282FF17C0112349F0CC2329F0C9
:1012D0008C2F0E94C9100E94081180E065C180E037
:1012E0000E946008CC2309F472C18C2F0E94CF1099
:1012F0000E9408116CC1112371F0002341F00130EC
:1013000031F40E94E9108C2B0E94F11060C10E9400
:10131000E9108C2B1DC0002319F0013009F457C1CE
:101320000E94FE1025C0112321F0063008F04FC1A5
:101330000EC0053008F04BC11BC0112361F0002323
:1013400031F0F701858180FF2EC18F7085838C2F4E
:101350000E94DF083CC1002359F0D93309F034C1A1
:10136000FFEF07EE13E0F15000401040E1F72AC113
:101370008C2F0E94E6082BC18C2F86958695837052
:1013800019F0813061F023C1112321F08D2F9C2FA2
:10139000937002C080E090E00E94EF1E20C11123F4
:1013A00021F08D2F9C2F937002C080E090E00E946E
:1013B000051F15C18C2F837009F047C011110BC197
:1013C0002D2F229526952770220F220F6D2F6F70DB
:1013D000862F90E0A0E0B0E0022E04C0880F991F95
:1013E000AA1FBB1F0A94D2F7D4FF10C04FE050E0F1
:1013F00060E070E004C0440F551F661F771F2A95F8
:10140000D2F7409550956095709503C040E050E04C
:10141000BA01C695C695C3708A019B01082B192B8A
:101420002A2B3B2BC901B801C23049F058F4C13016
:1014300019F00E94DF0BCFC00E94CD0BCCC00E94E0
:10144000F10BC9C00E94CB0BC6C0112319F08C2F21
:10145000817001C08695882309F4BDC02D2F229587
:1014600026952770220F220F6D2F6F70862F90E028
:10147000A0E0B0E0022E04C0880F991FAA1FBB1F76
:101480000A94D2F7D4FF10C04FE050E060E070E063
:1014900004C0440F551F661F771F2A95D2F7409549
:1014A00050956095709503C040E050E0BA01C69534
:1014B000C695C3708A019B01082B192B2A2B3B2B45
:1014C000C901B801C23049F058F4C13019F00E9486
:1014D000A40C81C00E94920C7EC00E94B60C7BC0FE
:1014E0000E94050C78C0CF70112339F08C2F0E9418
:1014F0002B0C8D2F0E94DF086EC08D2F0E94E608F6
:101500008C2F0E944C0C67C0D23F21F128F4D03FB1
:1015100041F0D13FC1F043C0D33F19F1D43F79F03E
:101520003EC0112341F0053008F051C08C2F8F715F
:101530000E94710C4CC0063008F049C0F7CF809172
:10154000750282FF18C0112339F08C2F8F710E9411
:101550002B0C3DC01123C9F38C2F8F710E944C0CB2
:1015600036C0112329F08C2F8F710E94160C2FC0CA
:101570000E94110C2CC0112349F0CF718C2F0E94B6
:101580002B0C63E08C2F0E944D1121C081E00E9442
:1015900068110230E0F082E00E94681118C0112347
:1015A00031F0002391F28D2F0E94B90710C0002363
:1015B00099F2D93349F41FEF27EE33E01150204060
:1015C0003040E1F700C000008D2F0E94600888EFD6
:1015D0008C0D843020F40E949A1E0E942707DD2083
:1015E000C9F00E94BB1080FD15C0F70112820E9455
:1015F000B5100E942B0CC7010E942B0B0E94B51046
:10160000DF91CF911F910F91FF90EF90DF90CF90DE
:101610000C944C0CDF91CF911F910F91FF90EF90A4
:10162000DF90CF9008950F931F93CF93DF93EC013A
:10163000688179818A810E946D0D8C010E94C80C9D
:101640000E94B90BB801CE010E94ED08DF91CF9145
:101650001F910F910895CF93DF93EC0198818981B9
:101660002B813C81232B31F08F3F31F481E09F3F70
:1016700019F403C081E001C080E080FD1DC0CE01EF
:101680000E943D06811110C00E94BF108823A1F066
:101690008A81882389F08091750282FD0DC082E0E5
:1016A000DF91CF910C946811CE010E94130BCE01F3
:1016B000DF91CF910C941E06DF91CF91089580E0C9
:1016C00090E00E94EF1E80E090E00E94051F0E94C3
:1016D000E6100C94081180910201909103010E9480
:1016E000611F0C945F0B0E94D6100C946B0B9295AB
:1016F0009F70963079F010F4925001C09A50923059
:1017000068F4803F69F018F4883E40F409C0843FD3
:1017100029F406C0883E20F0813F11F080E0089552
:1017200081E00895FC01808191810E94620D0E94F8
:10173000770B0895CF93DF9300D000D01F92CDB7E1
:10174000DEB70F900F900F900F900F90DF91CF9119
:101750000895CF93DF9300D000D000D0CDB7DEB78F
:1017600026960FB6F894DEBF0FBECDBFDF91CF91A6
:101770000895089508950C94BA0B0C94BB0B0E9425
:10178000BD0B6093E3017093E4018093E5019093B6
:10179000E6010C945F0B0C94BF0B0F931F93009109
:1017A000E3011091E4012091E5013091E601602B05
:1017B000712B822B932B1F910F910C94BF0B0F93C6
:1017C0001F930091E3011091E4012091E501309114
:1017D000E60160237123822393231F910F910C94C0
:1017E000BF0B0F931F930091E3011091E40120912F
:1017F000E5013091E60160277127822793271F9129
:101800000F910C94BF0B0C94BA0B0E94030C6093C5
:10181000DF017093E0018093E1019093E2010C9469
:101820005F0B60E070E0CB010C94050C0F931F93ED
:1018300041E050E060E070E08A019B0104C0000FCD
:10184000111F221F331F8A95D2F7C901B8011F91BA
:101850000F910C94050C0F931F9341E050E060E052
:1018600070E004C0440F551F661F771F8A95D2F79A
:101870008091DF019091E001A091E101B091E2013E
:101880008A019B01082B192B2A2B3B2BC901B8017C
:101890001F910F910C94050C0F931F9341E050E0A2
:1018A00060E070E004C0440F551F661F771F8A95E3
:1018B000D2F740955095609570958091DF01909199
:1018C000E001A091E101B091E2018A019B010823AE
:1018D00019232A233B23C901B8011F910F910C94AE
:1018E000050C0F931F9341E050E060E070E004C0EE
:1018F000440F551F661F771F8A95D2F78091DF012D
:101900009091E001A091E101B091E2018A019B0177
:10191000082719272A273B27C901B8011F910F91D2
:101920000C94050C0F931F930091DF011091E001BF
:101930002091E1013091E201602B712B822B932BDE
:101940001F910F910C94050C0F931F930091DF01D1
:101950001091E0012091E1013091E20160237123B7
:10196000822393231F910F910C94050C0F931F93C7
:101970000091DF011091E0012091E1013091E2013D
:1019800060277127822793271F910F910C94050CD4
:10199000089521E1929F800D1124E82FE695E695A8
:1019A000E695877051E001C0550F8A95EAF785E00A
:1019B000E89FF0011124E256FE4F20E030E070E095
:1019C0004081CB01022E02C0969587950A94E2F7DA
:1019D0008170819584278523842781932F5F3F4FD2
:1019E0002530310569F7089521E1929F800D11247A
:1019F000682F669566956695982F977085E0689F25
:101A0000B001112440E050E080E0FB01E40FF51F3D
:101A1000E256FE4F208130E0092E02C03695279510
:101A20000A94E2F721703327042E01C0220F0A9492
:101A3000EAF7822B4F5F5F4F4530510531F708952C
:101A4000BF92CF92DF92EF92FF920F931F93CF93AB
:101A5000DF938C01C090DF01D090E001E090E101C4
:101A6000F090E2018091E3019091E401A091E50101
:101A7000B091E601C82AD92AEA2AFB2ACFE1D0E0B0
:101A8000D701C6010C2E04C0B695A79597958795EA
:101A90000A94D2F780FD04C0219790F7B12C07C0BB
:101AA000BC2EB8018C2F0E9499140197A9F38B2D9D
:101AB000DF91CF911F910F91FF90EF90DF90CF902A
:101AC000BF900895CF93DF93EC010E94200DBE01DB
:101AD0000E949914DF91CF9108951F93CF93DF93C4
:101AE000EB0190919D01992321F0CB010E94620DA1
:101AF00013C0882349F0CB010E94200D182F682FB6
:101B0000CE010E94C90C04C0CB010E94F40C182F16
:101B1000BE01812F0E949914DF91CF911F910895EA
:101B20001F93CF93DF93C091E70116E08091E80106
:101B3000C81799F0D0E01C9FF0011D9FF00D1124F3
:101B4000E751FE4F4081518162817381848195818B
:101B50000E94A90B2196C770E9CFDF91CF911F9109
:101B600008954091190250911A0260911B027091E0
:101B70001C0280911D0290911E020C94A90BEF9201
:101B8000FF920F931F93CF93DF9380911E02829554
:101B90008F7009F065C080911B02882309F460C032
:101BA0008091E701F090E8011091190200911A026A
:101BB00060911C0270911D0291E01F3F09F090E0BE
:101BC000C0910001D0910101292F96E0E92E8F15D7
:101BD00009F446C06115710521F00F3F21F030E096
:101BE00003C031E001C0322F90E030FD36C0E89EE6
:101BF000F001E99EF00D1124DF01A751BE4F1196AF
:101C00003C911197301329C03C91311326C0129694
:101C10003C911297311121C013964D915C9114970C
:101C2000461B570B4C175D07C0F480911E028F7046
:101C3000806180931E02E251FE4F80818F7080612F
:101C4000808389E192E00E942B0BDF91CF911F915D
:101C50000F91FF90EF900C94900D01968770B7CF85
:101C6000DF91CF911F910F91FF90EF9008959F9278
:101C7000AF92BF92CF92DF92EF92FF920F931F939A
:101C8000CF93DF93CDB7DEB761970FB6F894DEBF81
:101C90000FBECDBF8C0185E0F801DE011D960190DD
:101CA0000D928A95E1F7D8011296EC909091190265
:101CB000E0911A0220911C0230911D02211531057C
:101CC00031F0EF3F31F481E09F3F19F403C081E030
:101CD00001C080E0B82FB1709B2E80FD47C1D801B4
:101CE0004C9111965C9111971396AD90BC901497FE
:101CF00089E1C82E82E0D82EF0901B02B501621B4C
:101D0000730B2091000130910101FF2009F4D9C02B
:101D100080911E026217730708F095C0282F207F5C
:101D200009F052C05E1313C0491311C0FE2CE1101C
:101D30000EC08F70806180931E020E94B10DC6019B
:101D40000E942B0B80911E02F80185834DC1AB28A8
:101D500031F05F3F31F481E04F3F19F403C081E07F
:101D600001C080E080FD03C081E08E2502C080E0DC
:101D700090E0F82FF170FF2E80FF1CC08091E701EA
:101D80002091E80136E0821709F40BC190E0389FFA
:101D9000F001399FF00D1124E751FE4F6181561378
:101DA00006C06081461303C06281E61203C001963B
:101DB0008770E9CFFE2CEE2009F416C180911E0237
:101DC000816080931E0254C05E1306C0491304C094
:101DD000E11002C0F80199C0C8010E94920B88234B
:101DE00061F1EE2051F120911E02822F82958F70B9
:101DF00090E0029774F08091190290911A029887EE
:101E00008F831986BB86AA862C87CE0107960E94EF
:101E10002B0B86E0F801A9E1B2E001900D928A95C2
:101E2000E1F70E94BF0D0E94B10D0AC05E1711F1CB
:101E3000C8010E94920B81112CC0C8010E942B0B7B
:101E4000FF24F394D1C0282F207F81F77A2DB98AFF
:101E5000A88A6E2D89890E949A0B89E192E00E94DE
:101E60002B0B86E0D6011D928A95E9F70E94B10DF1
:101E7000F12CBAC04913DCCFE110DACFF801858329
:101E8000C8010E942B0B86E0D6011D928A95E9F7C6
:101E9000ABC0EE2091F220911E02822F82958F70AE
:101EA00090E002970CF4B5CF8091190290911A023C
:101EB0009A8389831B82BD82AC822E83CE010196D8
:101EC000A6CF6217730708F044C0FE2CEE2009F479
:101ED000B4CF5E1330C049132EC020911E0220FDE6
:101EE00021C0822F82958F70482F50E041155105F7
:101EF000C9F0F80125834F30510541F08F5F982FCD
:101F00009295907F822F8F70892B8583C8010E94C4
:101F10002B0B86E0F801A9E1B2E001900D928A95C1
:101F2000E1F73CC086E0F801A9E1B2E001900D9232
:101F30008A95E1F759C0C8010E94920B811169CFBF
:101F400080911E02816080931E02C8010E942B0BAB
:101F50004BC07A2DB98AA88A6E2D89890E949A0B66
:101F600086E0D6011D928A95E9F718C0EE2009F4A3
:101F700064CFC8010E94920BF82E882309F45DCF2C
:101F800086E0F801A9E1B2E001900D928A95E1F7AF
:101F900089E192E00E94B3070E94BF0D0E94B10D3B
:101FA00023C04D875E878D859E850E94620D292FF7
:101FB00022952F70223028F49F7039F0811105C0CE
:101FC0000BC0243028F49F7049F4805E883020F0E4
:101FD000C8010E942B0B9F2CF92C06C0D801159626
:101FE0009C91907F91F7F8CF8F2D61960FB6F89462
:101FF000DEBF0FBECDBFDF91CF911F910F91FF903C
:10200000EF90DF90CF90BF90AF909F9008951F9377
:10201000CF93DF93CDB7DEB72C970FB6F894DEBF22
:102020000FBECDBF4F83588769877A878B879C8780
:10203000CE0107960E94370E8823D1F09F818885B4
:102040002A853B85232B31F08F3F31F481E09F3F80
:1020500019F403C081E001C080E080FD47C04F81DA
:10206000588569857A858B859C850E94A90B3EC021
:1020700086E0FE013796DE01119601900D928A9559
:10208000E1F7FF81E8856A857B856115710531F08F
:10209000EF3F31F481E0FF3F19F403C081E001C05C
:1020A00080E080FD23C02091E80130E0C901019665
:1020B000877099274091E70150E084179507F1F167
:1020C000F983EA837D836C8396E0929FD001939F8E
:1020D000B00D1124A751BE4FFE01319601900D9213
:1020E0009A95E1F78093E8010E94900D16E08091A7
:1020F000E7019091E801891771F1189FC00111243F
:1021000087519E4F0E94370E882329F1E091E70105
:102110001E9FF0011124E751FE4F408151816281E1
:102120007381848195810E94A90B8091E70190E0E1
:102130000196877099278093E701D9CF0E94730B8E
:102140001092E8011092E701E9E1F2E086E0DF0198
:102150001D928A95E9F72C960FB6F894DEBF0FBE54
:10216000CDBFDF91CF911F91089580912702859572
:10217000859585950895809127028770089590919F
:102180002702977081E009F480E00895809132027F
:10219000089590913202892B8093320208958095A0
:1021A0009091320289238093320208951092320274
:1021B000089590913102892B809331020895809582
:1021C0009091310289238093310208951092310257
:1021D000089580912802089508950C94EC100C94B1
:1021E000ED109091750292FD08C090912802981709
:1021F00021F0809328020C94EF100895809128021A
:10220000882329F01092280280E00C94EF100895A2
:10221000CF93DF93E0910201F091030180913202AC
:102220008083E0910201F09103019081809131025D
:10223000892B808380912802882381F0E09102011C
:10224000F09103019081892B80838091020190910C
:1022500003010E941B1F81110E94FE10C091020108
:10226000D091030148E050E06FE172E0CE010E949E
:102270005428892B69F088E0FE01AFE1B2E00190BB
:102280000D928A95E1F7CE01DF91CF910C94A61EB5
:10229000DF91CF9108950C94EC109091750292FD0E
:1022A00010C098E0899F90011124262B20932702CB
:1022B0000E942B0C809127028595859585950C941D
:1022C0004B110C942B0C1092270280E00C944B11B4
:1022D000209127028095822380932702982F977060
:1022E00099F430E0482F082E000C550B24173507C1
:1022F00059F09091750292FD07C085958595859559
:102300000E944C0C0C9463110895CF939091750228
:1023100092FB222720F92817F9F0C82F892FC0FB3C
:1023200082F98093750280917402909175020E94E7
:10233000E71182E00E9468118091530280FF0CC077
:102340001F92CF9385EA92E09F938F930E94CE05D0
:102350000F900F900F900F90CF910895809175027C
:1023600082FB882780F991E089270C94851181E010
:102370000C94851180E00C9485116FEF7FEF80E065
:1023800090E00C948D2880E090E00E94692821E084
:10239000893E9E4F09F020E0822F089582E090E070
:1023A0000C94612883E090E00C946128CF9384E042
:1023B00090E00E946128C82F82E290E00E9461288C
:1023C0002C2F30E0A901582BCA01CF910895CF934B
:1023D000C92F682F84E090E00E946F286C2F82E262
:1023E00090E0CF910C946F28AB01BC018FE090E09E
:1023F0000C948128AB01BC0183E190E00C9481280E
:1024000060E070E0CB010C94FA1160E070E0CB0169
:102410000E94F4110C94001269EE7EEF80E090E0CF
:102420000E948D2860E082E090E00E946F2860E0CA
:1024300083E090E00E946F281092E3011092E40183
:102440001092E5011092E60160E084E090E00E94C5
:102450006F2860E082E290E00E946F2860E085E0F3
:1024600090E00E946F2860E086E090E00E946F2874
:102470006FEF87E090E00E946F2840E050E0BA01E3
:1024800088E090E00E94812860E08DE090E00E946A
:102490006F2840E050E0BA0188E190E00E94812876
:1024A00060E087E190E00E946F2840E050E0BA01D0
:1024B0008CE190E00E94812860E070E080E290E092
:1024C0000E948D2840E050E0BA0188E190E00E942F
:1024D00081280C9405120C940C12682F8EE090E069
:1024E0000C946F280E94122060934F027093500248
:1024F000809351029093520260934B0270934C026E
:1025000080934D0290934E02089585B7806885BFF1
:1025100085B7806885BF089581E008950C948C127A
:1025200008950C9490120C9490120C9493120C94A5
:1025300090120C9497120C9490120E9485128CE2C7
:1025400092E20E94901E0E949B120C9499120E948B
:1025500091120C9490120E948D150E9424070C94E5
:10256000461A0E94FD1F0E94DB160E94AB120E94B9
:10257000A2170C9495122F923F924F925F926F92F6
:102580007F928F929F92AF92BF92CF92DF92EF9203
:10259000FF920F931F93CF93DF93CDB7DEB72D97A5
:1025A0000FB6F894DEBF0FBECDBF0E94F016282EE6
:1025B00081110E94721283E392E09D878C8700E074
:1025C00010E0302E802F0E94B1152B013C01EC85CC
:1025D000FD8581919191A191B191FD87EC87530186
:1025E000420188269926AA26BB2681149104A104BB
:1025F000B104B1F40F5F1F4F0630110511F78FEFD3
:1026000089838A831B820E9406208160782F9D83A4
:102610008C8349815A816B818D810E94690751C0E9
:102620008091530281FD0E94BD151B86C12CD12CC7
:102630007601C394D501C4018C219D21AE21BF2117
:10264000892B8A2B8B2B91F10E948E128823D1F03B
:10265000FB85FE833F824C205D206E207F2081E041
:1026600045284628472809F480E088870E940620EC
:102670008160782F9A8789874E815F8168858A85F6
:102680000E946907000F111F000F111FF801ED5C78
:10269000FD4F80819181A281B381C826D926EA2687
:1026A000FB26C082D182E282F3820BC08B858F5FD2
:1026B0008B87CC0CDD1CEE1CFF1C813109F0BACFDE
:1026C00099CF81E0211001C080E02D960FB6F894DB
:1026D000DEBF0FBECDBFDF91CF911F910F91FF9055
:1026E000EF90DF90CF90BF90AF909F908F907F90B2
:1026F0006F905F904F903F902F9008950E94BB1273
:102700000E94451A0C943707CF93DF930E949E14C2
:10271000EC01811522E59207E8F5811531E5930773
:1027200008F0B6C0883E910528F5803E910508F076
:10273000E9C0883A910570F4853A910508F07AC0AD
:102740008130910509F473C008F4D9C0049708F0EA
:10275000D9C0D5C08F3B910508F0D1C0C85AD0E090
:10276000CC0FDD1FCE5BDE4F0990D881C02DCE018E
:102770009464C9C0811540E5940708F069C08115CB
:1027800050E4950708F060C09A9581159F4108F4C0
:10279000B9C0B5C0811536E5930728F5811545E523
:1027A000940708F092C0811554E5950708F087C09A
:1027B000AC0143705527282F26952695C115D34582
:1027C00008F06CC081E090E002C0880F991F4A9524
:1027D000E2F740E2249F90011124EC01C22BD32B9D
:1027E000CE019C6890C081152AE5920780F481157E
:1027F00039E5930708F072C0811548E5940708F49D
:102800007EC0D82FCC27CE01806F906A7CC09056B6
:102810008115904208F073C08D2F8F710E94321580
:10282000DD27D0628F71AE01582BCA016CC081E0E8
:1028300090E069C0C55AD0E0C059DE4F8881C82FEA
:10284000D0E0CE0190645FC0DF70CE01906A5BC0C3
:1028500074E0969587957A95E1F7282F23703C2FA1
:10286000337081E090E002C0880F991F3A95E2F73B
:102870009C68AC01522B9A019C2F9F70969596955F
:1028800050E2959FE0011124C9018C2B9D2B3BC088
:10289000D82FCC27CE01816F906A35C081E090E0BF
:1028A00002C0880F991F4A95E2F750E2259F9001D8
:1028B0001124EC01C22BD32BCE019A6824C0D82F4F
:1028C000CC27CE01846F906A1EC00E9432158F7192
:1028D00090E0D82FCC27CE01906215C08F700E9457
:1028E000321594E0D695C7959A95E1F7CF70D0E070
:1028F000DC2FCC27D0699E01282BC90104C080E0C1
:1029000090E001C0CE01DF91CF91089526E6829F2D
:10291000C0011124FC0121E1729FE00DF11D112481
:10292000E60FF11DEE0FFF1FE852FF4F85919491C6
:1029300008950E9486140E94841308958238910598
:1029400069F1B0F48133910509F46DC048F489321E
:10295000910509F463C08A32910509F469C00895AC
:102960008533910509F455C089339105B9F008956F
:10297000833E910569F138F4803E9105B1F0823EC5
:10298000910509F10895863E9105A9F1873E9105CB
:10299000B9F1843E910509F064C023C0209174020E
:1029A00020FD4FC021FD4DC008958091740280FD2F
:1029B00044C08091750280FF44C08091740284FD00
:1029C00042C083EE4DC08091740282FF38C0F5CFC3
:1029D0008091740282FD33C08091750280FD31C008
:1029E000ECCF8091750281FF32C08091740284FD2A
:1029F0002AC087EE35C08091740283FF26C0F5CFD0
:102A00008091740283FD21C08091750281FD1FC0F9
:102A1000ECCF8091740285FD1CC01DC080917402B2
:102A200085FD19C016C08091740286FD16C017C0BE
:102A30008091740286FD13C010C089E311C082EE3C
:102A40000FC080EE0DC080E00BC086EE09C084EEA2
:102A500007C089E205C085E303C08AE201C081E3C3
:102A600090E008959091740292FF0DC0282F287174
:102A7000283019F4877F846006C0282F2471243001
:102A800011F48B7F886093FF0DC0282F28712831A7
:102A900019F4877E846106C0282F2471243111F433
:102AA0008B7E88612091750220FF0DC0382F387110
:102AB000383019F4877F816006C0382F317131308A
:102AC00011F48E7F886021FF0DC0282F28712831D6
:102AD00019F4877E816106C0282F2171213111F4FC
:102AE0008E7E886194FD877E08950C94BD110E94AE
:102AF000F0168FE39CE90197F1F700C000000E94F7
:102B0000F01680E00E94B11560FF04C00E947515A8
:102B10000C94532008950C9477150E94C3118111D1
:102B200002C00E946B120E94CE11809353020E9439
:102B3000D61190937502809374020E948B150E94A7
:102B4000D211682F70E080E090E00E94CB0B609182
:102B5000DF017091E0018091E1019091E2010C941C
:102B6000030C24E0829FC0011124FC01E257FD4FB9
:102B700060817181828193810895CF92DF92EF927B
:102B8000FF920F931F93CF93DF938BEC92E00E9401
:102B900035058EE8E82E82E0F82EC0E0D0E096EC15
:102BA000C92E92E0D92E0CEB12E0DF93CF93DF9287
:102BB000CF920E94CE0583EC92E00E943505F7018A
:102BC00061917191819191917F010E94E7069F939C
:102BD0008F937F936F931F930F930E94CE058AEB81
:102BE00092E00E94350521968DB79EB70A960FB6E2
:102BF000F8949EBF0FBE8DBFC630D105B1F6DF91F0
:102C0000CF911F910F91FF90EF90DF90CF9008959B
:102C100080EA8A95F1F7089500C008950C9408168B
:102C200008950C9410160C9411160C9410160C9414
:102C30001516F894E82FE295EF70F0E031A1282FF7
:102C40002F7081E090E001C0880F2A95EAF7982F55
:102C50009095932391A392A1892B82A378940895B0
:102C60000F931F93CF93DF93C4E8D1E089918F3FF7
:102C700011F00E94191681E0CA38D807B9F7C3E7E6
:102C8000D1E004E811E089918F3F11F00E941916FC
:102C90000C171D07C1F7DF91CF911F910F91089578
:102CA0004F925F926F927F928F929F92AF92BF925C
:102CB000DF92EF92FF920F931F93CF93DF938C01DC
:102CC000C62FD0E0CE018C579E4F7C01FC01908135
:102CD0009F3F09F460C0D62EF894E92FE295EF707B
:102CE000F0E081A19F7021E030E001C0220F9A95B1
:102CF000EAF7822B81A382A12095282322A378942E
:102D00000E940C16E3E7F1E024E831E0412C512C5D
:102D100032014394812C912C540181918F3F99F081
:102D2000A82FA295AF70B0E090964C9150E08F70B4
:102D3000BA0102C0759567958A95E2F760FD03C0F8
:102D4000D301C20103C080E090E0DC01882A992A07
:102D5000AA2ABB2A440C551C661C771C2E173F0759
:102D6000E1F6F70180818F3F11F00E94191661E0B2
:102D700081149104A104B10409F460E08D2D0E9436
:102D80000E16CC0FDD1FCC0FDD1FC00FD11F8882A8
:102D90009982AA82BB82DF91CF911F910F91FF9000
:102DA000EF90DF90BF90AF909F908F907F906F904B
:102DB0005F904F9008950E94301688E1EEE8F2E0AF
:102DC000DF01982F1D929A95E9F7E6E7F2E0DF011F
:102DD0001D928A95E9F786E00E943B170C9429061C
:102DE000FF920F931F93CF93DF93CDB7DEB7689712
:102DF0000FB6F894DEBF0FBECDBF8E010F5F1F4F21
:102E000088E1F80111928A95E9F7F12C6F2DC8013C
:102E10000E945016F394F6E0FF12F8CF48E150E01C
:102E2000B80186E792E00E945428FF24F3940097AB
:102E300009F4F12C892B41F088E1F801A6E7B2E012
:102E400001900D928A95E1F72F2D46E06EE872E031
:102E500086E792E00E943C170E942B068F2D689611
:102E60000FB6F894DEBF0FBECDBFDF91CF911F919B
:102E70000F91FF9008950895FF920F931F93CF93A2
:102E8000DF93F82ED92F8B01C42F222349F081E044
:102E9000809356020E94062090935502809354021C
:102EA000809156028823F1F080915402909155024E
:102EB0000E941E200597B0F0EF2DFD2FD80180E075
:102EC00090E04C2F50E08417950754F40191119134
:102ED000219131910D931D932D933D930196F3CF45
:102EE00010925602DF91CF911F910F91FF9008959C
:102EF0000E94A8220E94B1120C94B4220E94B8220F
:102F00000E947E130C94D6220E94A41F0E948F223E
:102F10000E949D120E9478170E947E170E94A7129D
:102F2000FBCF86E090E00C946128682F86E090E06B
:102F30000C946F288091A602847089618093A60208
:102F40000C9495170E94C311811104C00E946B124A
:102F50000E949A170E9491178093A602282F269507
:102F60002695269530E02430310524F0877088615D
:102F70008093A6028091A60280FF04C08695869564
:102F8000869501C080E00C947A192091A602822FC8
:102F9000869586958695482F50E04330510554F428
:102FA0008F5F982F990F990F990F822F8770892B18
:102FB0008093A6028091A60281608093A6020E945F
:102FC00095178091530280FF11C08091A6028695CB
:102FD000869586951F928F9389E593E09F938F93B3
:102FE0000E94CE050F900F900F900F908091A60237
:102FF0008695869586950C947A198091A602982FCD
:10300000969596959695A1F0915E990F990F990FC7
:103010008770892B8093A602887F91E009F490E065
:103020008091A60290FB80F98093A6020E949517DA
:103030008091530280FF11C08091A60286958695EB
:1030400086951F928F9381E493E09F938F930E94C4
:10305000CE050F900F900F900F908091A60286954D
:10306000869586950C947A198091A60280FD1FC0E2
:1030700081608093A602813019F489E08093A602D2
:103080008091A6020E9495178091530280FF08C08C
:1030900089E193E09F938F930E94CE050F900F904C
:1030A0008091A6028695869586950C947A19089546
:1030B0008091A60280FF14C08E7F8093A6020E949A
:1030C00095178091530280FF08C086E093E09F939C
:1030D0008F930E94CE050F900F9080E00C947A1988
:1030E0000895CF93C091A602C1708091530280FFD2
:1030F0000CC01F92CF938BE293E09F938F930E941B
:10310000CE050F900F900F900F90CC2319F0CF9118
:103110000C945818CF910C9434189091A602892FD2
:103120008695869586958F5F8F719770843038F479
:10313000880F880F880F892B8093A60202C0909376
:10314000A6028091A602887F91E009F490E0809128
:10315000A60290FB80F98093A6020E9495178091A9
:10316000530280FF11C08091A602869586958695B0
:103170001F928F9382EF92E09F938F930E94CE05D0
:103180000F900F900F900F908091A60286958695D4
:1031900086950C947A19843008F083E09091A60209
:1031A0009770282F220F220F220F922B9093A602A6
:1031B000987F21E009F420E09091A60220FB90F98D
:1031C0009093A6020C947A190E94CB188091A602C3
:1031D0000C9495179C01FB018281882349F12E3BB9
:1031E000FCE53F07C9F040F42C3BECE53E0769F0F5
:1031F0002D3B3C4561F00895203C9CE5390791F05A
:1032000070F0213C3C4589F0089583E001C080E0E6
:103210000E94E41880E008950E94FD17FBCF0E94F1
:10322000C517F8CF0E947118F5CF0E948D18F2CF04
:1032300081E00895509A589A089558980895589A98
:1032400008951F920F920FB60F9211242F933F9360
:103250004F935F936F937F938F939F93AF93BF939E
:10326000EF93FF930E941F19FF91EF91BF91AF91D0
:103270009F918F917F916F915F914F913F912F918E
:103280000F900FBE0F901F9018951F920F920FB6C0
:103290000F9211242F933F934F935F936F937F93DC
:1032A0008F939F93AF93BF93EF93FF9320918800E9
:1032B0003091890080918600909187006AEF70E0DC
:1032C0000E94FE276B5F7F4F6217730710F40E9406
:1032D0001D19FF91EF91BF91AF919F918F917F91B8
:1032E0006F915F914F913F912F910F900FBE0F9073
:1032F0001F9018958F929F92AF92BF92CF92DF92BC
:10330000EF92FF920F931F93CF93DF93C82F8430D8
:10331000A8F4811114C08091880090918900892BB4
:1033200051F080916F008D7F80936F0080916F00CE
:103330008E7F80936F000E941F1911C0C3E080919F
:10334000880090918900892B51F480916F008260F0
:1033500080936F0080916F00816080936F00A091D7
:103360008600B09187002C2F30E00E943A2823E09D
:1033700030E040E050E00E9412280027122F232F57
:10338000342F012F122F232F332780918600909105
:1033900087006CE070E00E94FE276017710730F034
:1033A000C80169E070E00E94FE275EC0809186003F
:1033B00090918700E0908600F0908700E091860071
:1033C000F0918700C6E0D0E0BE010E94FE27060F04
:1033D000171F211D311D4801590185E0880C991CDA
:1033E000AA1CBB1C8A95D1F7C701BE010E94FE270B
:1033F0006F01E12CF12CA7019601260F371F411D0B
:10340000511DC501B4010E94122869017A01E091A1
:103410008600F0918700CA01B9010E94E2279B0152
:10342000AC01DF010E9449289B01AC01C701B60134
:103430000E94E227DC01CB012FE0B695A795979576
:1034400087952A95D1F7009186001091870020E09A
:1034500030E0081719072A073B0728F46091860017
:1034600070918700CB01BC01709389006093880044
:10347000DF91CF911F910F91FF90EF90DF90CF9050
:10348000BF90AF909F908F90089508950E941A1951
:1034900082E08093800089E1809381008FEF9FEF2D
:1034A00090938700809386000C94A217CF93DF93AC
:1034B000EC01FB018281882309F43CC1C430FDE5A5
:1034C000DF0760F4CB3F9CE5D90788F49E012250CA
:1034D0003C452431310508F02EC109C0C236EDE566
:1034E000DE0729F0C63AFDE5DF0709F024C10E9496
:1034F000D6119093750280937402C1318CE5D80780
:1035000009F4C6C008F042C0C930ECE5DE0709F492
:103510009BC000F5C5308CE5D80709F485C078F468
:10352000C330ECE5DE0709F478C008F07AC0C23099
:10353000DC4509F0F5C0809174028160EFC0C730AE
:103540009CE5D90709F478C008F07AC0809174022C
:103550008061E4C0CD30FCE5DF0709F487C058F492
:10356000CB309CE5D90709F479C008F07BC0809185
:10357000740288606FC0CF30FCE5DF0709F480C0BB
:1035800008F082C080917402877FC8C0CE3F9CE55E
:10359000D90709F471C000F5C531FCE5DF0709F46E
:1035A00085C068F4C3319CE5D90709F475C008F0FB
:1035B00095C00E94730B809174028F77AFC0CC3F8F
:1035C000FCE5DF07A9F108F054C0CB3FDC4509F06A
:1035D000A7C08091750240C0C230EDE5DE0709F456
:1035E00089C058F4C1158DE5D80709F45AC008F010
:1035F00069C08091750282602FC0C236EDE5DE079A
:1036000009F47CC0C63AFDE5DF0709F481C0C33088
:10361000DD4509F085C080E06EC080917402826053
:103620007DC08091740216C080917402886076C05B
:103630008091750282604FC08091740280626EC07A
:103640008091740280646AC00E94730B809174023E
:10365000806864C0846062C081603DC080917402F3
:103660008E7F5CC0809174028D7F58C080917402FF
:1036700016C08091750218C0809175028D7F2BC095
:10368000809174028F7E4AC0809174028F7D46C003
:10369000809174028F7B42C080917402877F8B7F00
:1036A0003DC0809175028D7F8E7F15C08091740220
:1036B00082FB222720F991E0922790FB82F990FB70
:1036C00083F92CC080917502982F909591708E7F10
:1036D000892B90FB81F98093750222C00E94730BA5
:1036E0008091740287FB222720F991E0922790FBBA
:1036F00087F914C081E00E946D1212C0809174029B
:1037000084FB222720F991E0922790FB84F906C0E0
:1037100080917402982F909590FB80F980937402A9
:1037200080917402909175020E94E7110E94730BC0
:1037300080E001C081E0DF91CF910895CF93C82F41
:103740001F928F9387E793E09F938F930E94CE05FC
:1037500081E090E0A0E0B0E0BC01CD0104C0660FC4
:10376000771F881F991FCA95D2F70E94CB0B0F9025
:103770000F900F900F90CF910C94730BEF92FF92DC
:103780000F931F93CF93DF938B3109F409C108F096
:10379000AAC08B3009F4CDC008F094C0863009F47B
:1037A000CBC020F4853009F4D9C06AC1873009F450
:1037B000DCC0883009F064C10E94D2111F928F933F
:1037C0008CEB97E09F938F930E94CE050E94CE11C1
:1037D00083FB992790F91F929F9382FB992790F979
:1037E0001F929F9381FB992790F91F929F93982F87
:1037F00091701F929F931F928F9383E797E09F93FF
:103800008F930E94CE050E94D61187FB222720F9B4
:103810001F922F9386FB222720F91F922F9385FB5F
:10382000222720F91F922F9384FB222720F91F9231
:103830002F9383FB222720F91F922F9382FB2227AD
:1038400020F91F922F9391FB222720F91F922F938B
:10385000292F21701F922F9381FB222720F91F927D
:103860002F93282F21701F922F939F938F938EE871
:1038700096E09F938F930E94CE058DB79EB7889652
:103880000FB6F8949EBF0FBE8DBF0E949117982F60
:103890009695969596951F929F93982F91701F924B
:1038A0009F931F928F938BE596E09F938F930E9437
:1038B000CE058DB79EB708960FB6F8949EBF0FBE83
:1038C0008DBF35C0803109F495C020F48E3009F4E5
:1038D0007BC0D6C0863109F4A8C0893109F0D0C0B8
:1038E00087EE93E084C08A32E1F060F4873209F415
:1038F000C3C028F48E3108F4C3C08D51BEC08932D4
:1039000069F1BEC0833448F48A3308F0B3C085330C
:1039100009F4B2C0883369F0B3C0833409F4ACC091
:10392000AFC087E698E00E9435050E946B12C1E0A7
:10393000ACC088EB94E05BC080915302817F8E7FA6
:10394000809353028DE994E00E94350583E698E068
:103950000E94350581E080935702E9CF87E498E023
:103960000E9435050E942E06E2CF80915302C82F97
:10397000C095C170C0FB80F980935302CC2329F01D
:103980008BE398E00E94350580C08EE298E00E94AB
:10399000350580915302897F877F80935302C7CF7B
:1039A0009091530291FBCC27C0F981E0C827892F61
:1039B000C0FB81F980935302CC2319F081E298E097
:1039C00029C083E198E013C09091530292FBCC2769
:1039D000C0F981E0C827892FC0FB82F98093530288
:1039E000CC2319F084E098E015C084EF97E00E94A2
:1039F00035059DCF9091530293FBCC27C0F981E010
:103A0000C827892FC0FB83F980935302CC2351F040
:103A100088EE97E00E943505809153028160809383
:103A2000530233C08BED97E0E2CF0E941220162F95
:103A3000072FF82EE92ED0917302C09110010E9439
:103A40009A1EEF92FF920F931F931F92DF931F9284
:103A5000CF931F928F938CE793E09F938F930E9455
:103A6000CE058DB79EB70C960FB6F8949EBF0FBECD
:103A70008DBF5DCF895301C080E00E949E1B57CF50
:103A800089ED97E00E943505C0E08C2FDF91CF9142
:103A90001F910F91FF90EF90089580E008950C948E
:103AA0004D1DCF93C82F80915702882319F0813084
:103AB00031F038C00E94C6108232B1F504C00E94B5
:103AC000C610823261F48C2F0E944F1D811104C0F8
:103AD0008C2F0E94BE1B24C081E090E021C08C2F5F
:103AE0000E944D1D81111BC0C43189F018F4CB30E8
:103AF00029F010C0C93259F0C83361F48DE994E05F
:103B00000E94350583E793E00E94350508C01092B6
:103B100057020CC081E793E00E94350507C081E0A1
:103B2000817006C01092570280E002C080E0F8CF9A
:103B3000CF910895CF93DF9386319C4541F5EB01FA
:103B40000E94C610982F8A812091020130910301B2
:103B5000882379F09A7A81E009F480E08093580212
:103B6000911102C069E201C065E3C9010E945D1FB5
:103B70000AC080915802811102C069E201C065E368
:103B8000C9010E945F1F0E94081180E001C081E00E
:103B9000DF91CF9108950F931F93CF93DF93C42F9D
:103BA000D22FFC0182818823C9F040935B020E94DE
:103BB000062090935A028093590280E28C0F88303D
:103BC00008F057C0C77081E001C0880FCA95EAF7B6
:103BD000DF91CF911F910F910C94DF0880915B02D0
:103BE000481330C08091590290915A020E941E20C1
:103BF000883C910538F510E21D0FCD17B9F080E231
:103C00008C0F883040F4C77081E001C0880FCA95DE
:103C1000EAF70E94E608183028F581E09D2F97709A
:103C200001C0880F9A95EAF70E94DF08802F0E9452
:103C3000D6081830F0F4D77081E001C0880FDA950B
:103C4000EAF70AC080E28C0F883098F4C77081E0F0
:103C500001C0880FCA95EAF7DF91CF911F910F91AC
:103C60000C94E608802FDF91CF911F910F910C9457
:103C7000D608DF91CF911F910F9108950F939C016A
:103C8000CB01243F4CE5340731F188F4293DFCE5B4
:103C90003F07D9F02A3D4CE5340779F1283D3C45F2
:103CA000A9F506E221EE41EE68ED7CE52BC0263F4A
:103CB000FCE53F07E1F0A8F0273F3C4539F507E276
:103CC00025EE46EE67EF7CE51DC007E225EE45EEEA
:103CD00069ED7CE517C006E221EE40EE64EF7CE57D
:103CE00011C007E225EE44EE65EF7CE50BC006E26D
:103CF00021EE42EE66EF7CE505C008E221E045EEEC
:103D00006AED7CE50E94CB1D80E008C0FC01828149
:103D1000882319F010925B0201C081E00F91089591
:103D200090939B0180939A010895909361028093F0
:103D300060020895E0916002F0916102309721F0F5
:103D40000190F081E02D099480E00895EF92FF92B8
:103D50000F931F93CF93DF93E0916002F091610284
:103D60003097B1F18C010280F381E02D09958091AB
:103D7000530282FF2DC080FF04C080E898E00E94BB
:103D80003505E80118E08AE7E82E88E0F82E8091F2
:103D9000530280FF0BC088811F928F93FF92EF9296
:103DA0000E94CE050F900F900F900F90115021960A
:103DB0001111EDCF8091530280FF0AC088E798E08F
:103DC000DF91CF911F910F91FF90EF900C943505EB
:103DD000DF91CF911F910F91FF90EF900895209167
:103DE0005E0230915F022817390771F090935F02ED
:103DF00080935E02E0916002F0916102309721F0C1
:103E00000680F781E02D0994089520915C0230919D
:103E10005D022817390771F090935D0280935C0270
:103E2000E0916002F0916102309721F00084F18509
:103E3000E02D09940895FC01329697E080E09150BE
:103E400029F021912223D9F38F5FF9CF08956623BA
:103E500049F0FC01329608962191621729F0E81783
:103E6000F907D1F780E0089581E008959C01FC01F5
:103E700032969FEF80E04191461789F09F3F19F4F9
:103E8000411101C0982F8F5F8630A9F79F3F39F00D
:103E9000F901E90FF11D97FDFA95628308950895E0
:103EA0009C012A5F3F4FFC014281461301C01282F0
:103EB000019682179307B9F708950C94361F0C9456
:103EC000501F029626E0FC0111922A95E9F7089509
:103ED00008950C94681F83E0809362020C94691F1C
:103EE000811102C081E001C082E0809362020C94E3
:103EF000691F0C94701F81E0809362020C94691F0B
:103F00000C947B1F08950C94821F0C94831F0C94B7
:103F1000821F0C94821F0C94821FCF930E94891FD2
:103F20000E94F0160E94871FC0E08C2F0E94B115DE
:103F3000672B682B692B29F4CF5FC630B1F780E07F
:103F400001C081E0CF91089508951F920F920FB69E
:103F50000F9211248F939F93AF93BF93809163022D
:103F6000811113C08091A7029091A802A091A9028B
:103F7000B091AA024196A11DB11D8093A702909312
:103F8000A802A093A902B093AA02BF91AF919F91FA
:103F90008F910F900FBE0F901F9018958091AF02D8
:103FA000843031F10E94B5061092630220E488E16A
:103FB00090E00FB6F894A895809360000FBE209310
:103FC000600083B7817F846083BF83B7816083BFD4
:103FD0007894889583B78E7F83BF0FB6F894A895A1
:103FE00080916000886180936000109260000FBE35
:103FF00008950E94730B0C94BC0682E084BD93E08C
:1040000095BD9AEF97BD80936E0008952FB7F894F1
:104010008091A7029091A802A091A902B091AA0252
:104020002FBF08952FB7F8946091A7027091A8024E
:104030008091A9029091AA022FBF08959C014FB7C9
:10404000F8948091A7029091A802A091A902B09142
:10405000AA024FBF821B930B089578941F920F9270
:104060000FB60F9211248F939F93AF93BF938091BC
:10407000A7029091A802A091A902B091AA0201966C
:10408000A11DB11D8093A7029093A802A093A9023D
:10409000B093AA02BF91AF919F918F910F900FBEE5
:1040A0000F901F90189581E08093E00080E280934C
:1040B000D8001092C9008FE19EE40197F1F700C08B
:1040C000000087E090EBDC018093B8029093B90286
:1040D000A093BA02B093BB029CE088E10FB6F894BB
:1040E000A895809360000FBE90936000FFCF8091F1
:1040F000720208950895CF93DF9321E02093E900A1
:104100002FEF3091E800215035FD06C035ED3A958E
:10411000F1F700002111F5CF2091E80025FF14C030
:10412000EC0140E050E068E070E00E94452380919F
:10413000E8008E778093E80088E0FE01AAE6B2E00E
:1041400001900D928A95E1F7DF91CF9108958093C8
:10415000660270936802609367028091AF028430B8
:1041600001F582E08093E9008FEF9091E8008150A3
:1041700095FD06C095ED9A95F1F700008111F5CFF8
:104180008091E80085FF0DC040E050E063E070E002
:1041900086E692E00E9445238091E8008E77809326
:1041A000E8000895BC0184E00C94A720BC0183E0E2
:1041B0000C94A720089586EA98E00E943505809126
:1041C000AE02811109C00E94D6240E94332580913D
:1041D000E20084608093E200089582EA98E00E9401
:1041E00035051092AE0208958EE998E00E943505DB
:1041F0000C94801F8AE998E00E9435056091AB021B
:1042000081E0611101C080E00C946B1F86E998E0A9
:104210000E9435059091AF0281E0943009F080E072
:104220006091AB020C94701F209165022F5F822F6A
:1042300062E30E94F227992319F020936502089502
:104240001092650280916902882371F18091AF021A
:10425000843041F58091E9008F702091EC00922F1D
:10426000917020FD90E8892B93E09093E900909164
:10427000EB0090FF14C09091EE0097FF10C090915A
:10428000E80095FF03C01092F100F9CF9091E8008B
:1042900090FF05C09091E8009E779093E8008F70A2
:1042A0008093E90010926902089542E061EC81E098
:1042B0000E944F2442E261EC82E00E944F2442E2DD
:1042C00061EC83E00E944F249091AF0281E0943032
:1042D00009F080E06091AB020C94791F8091B102EB
:1042E000833009F461C030F4813071F0823009F418
:1042F0009AC008958A3009F486C08B3009F46CC0E6
:10430000893009F0A8C020C08091B002813A09F03C
:10431000A2C08091E800877F8093E8008091B4027A
:104320009091B502892B21F468E08AE692E003C0FF
:1043300060E080E090E070E00E9490238091E800CF
:104340008B778093E80008958091B002813209F064
:1043500082C08091B4029091B502029708F07BC0B0
:104360008091E800877F8093E8008091E80082FDDB
:1043700005C08091AF028111F8CF6DC02091F3008C
:104380008091F20090E0922B029731F48091F1003D
:10439000813011F0863021F48091F1008093720217
:1043A0008091E8008B7753C08091B002813A09F088
:1043B00052C08091B4029091B502892B09F04BC094
:1043C0008091E800877F8093E8008091E80080FF7B
:1043D000FCCF8091100136C08091B0028132D9F5B6
:1043E0008091B4029091B502892BA9F58091E800E3
:1043F000877F8093E8000E9484248091B20280939A
:1044000010010C94730B8091B002813221F58091E0
:10441000E800877F8093E8000E9484248091B302A3
:104420008093730208958091B002813AA1F4809143
:10443000E800877F8093E8008091E80080FFFCCF50
:10444000809173028093F1008091E8008E778093D1
:10445000E8000C94842408959FB7F89410926902A0
:104460009FBF9091AF02943009F057C09091E9003E
:104470009F703091EC00232F217030FD20E8922BAB
:1044800023E02093E9002091EB0020FF43C020911E
:10449000EE0027FF3FC020916402222321F02091EB
:1044A000E80025FF37C01092640226E03091E80052
:1044B00035FD15C03091AF02343061F53091EB001D
:1044C00035FD28C0215021F481E08093640222C090
:1044D000EFE9FFE03197F1F700C00000E7CF8093EC
:1044E000F1008091E80085FD0AC08091E80080FF1E
:1044F000FCCF8091E8008E778093E80006C08FB7EC
:10450000F89421E0209369028FBF9F709093E90097
:1045100080E008959F709093E9008FEF089584B72D
:10452000877F84BF0FB6F894A8958091600088615A
:1045300080936000109260000FBE90E080E80FB69C
:10454000F89480936100909361000FBE0C947B1FE0
:104550000E94D6240E943325E2EEF0E08081846040
:10456000808378940C94C72784E091E00C94951E86
:104570008091AF028530C9F482E998E00E94350548
:104580008091AF02853079F40E94CE1F8091AD02F8
:104590008823B1F30E948D1F882391F30E942F235B
:1045A0000E94730BEDCF0C94F91F089508950C949D
:1045B000D922292F332723303105C9F060F4213067
:1045C000310581F02230310509F041C08BE590E0E2
:1045D0002CED38E040C021323105E1F022323105C6
:1045E00031F135C082E190E027E339E034C099270A
:1045F0008130910549F028F0029749F5EAEAF8E0A0
:1046000005C0E8EDF8E002C0EEEBF8E0849190E040
:104610009F0121C063307105D0F4660F771FFB0145
:10462000ED56FE4F2081318189E090E014C0633067
:10463000710568F4FB01EE0FFF1FE357FE4F208169
:104640003181FB01E657FE4F808190E004C080E09D
:1046500090E020E030E0FA0131832083089580E18A
:1046600089BD82E189BD09B400FEFDCF8091D800EB
:104670008F7D8093D8008091E00082608093E0007D
:104680008091E00081FDFCCF0895CF92DF92EF9200
:10469000FF920F931F93CF93DF93EC018B017A016D
:1046A0000E94A324811133C0E114F10439F0F70111
:1046B00080819181081B190BC80FD91FC12CD12CE7
:1046C0000115110519F18091E80085FD16C0809152
:1046D000E8008E778093E800E114F10449F0F701D7
:1046E00080819181C80ED91ED182C08285E00FC021
:1046F0000E94A324882321F30AC089918093F100AA
:1047000001501109FFEFCF1ADF0ADACF80E0DF9105
:10471000CF911F910F91FF90EF90DF90CF90089570
:104720002091B6023091B7022617370748F061157D
:10473000710539F42091E8002E772093E80001C03C
:10474000B901FC0120E06115710579F18091AF029A
:104750008823F1F18530F1F18091E80083FD3CC0C0
:104760008091E80082FD2EC08091E80080FFEBCFB1
:104770002091F3008091F20090E0922B6115710579
:1047800051F08830910538F421912093F100615067
:1047900071090196F3CF21E0089709F020E080919C
:1047A000E8008E778093E800CECF2111CFCF0AC0EA
:1047B0008091AF02882361F0853061F08091E8003C
:1047C00083FD0AC08091E80082FFF2CF80E0089567
:1047D00082E0089583E0089581E008952091B60273
:1047E0003091B7022617370748F06115710539F483
:1047F0002091E8002E772093E80001C0B901FC0168
:1048000020E06115710591F18091AF02882309F4D0
:1048100040C0853009F43FC08091E80083FD3DC071
:104820008091E80082FD2FC08091E80080FFE9CFF1
:104830002091F3008091F20090E0922B61157105B8
:1048400059F08830910540F424912093F10031967D
:10485000615071090196F2CF21E0089709F020E03C
:104860008091E8008E778093E800CBCF2111CCCFE8
:104870000AC08091AF02882361F0853061F0809199
:10488000E80083FD0AC08091E80082FFF2CF80E05B
:10489000089582E0089583E0089581E00895982FB7
:1048A000973068F59093E900981739F07091EC0013
:1048B0002091ED005091F00003C0242F762F50E09E
:1048C00021FD02C09F5FECCF3091EB003E7F309323
:1048D000EB003091ED003D7F3093ED003091EB0027
:1048E00031603093EB007093EC002093ED00509317
:1048F000F0002091EE0027FDE5CF80E008958F7055
:104900008093E90081E008958091B00287FF11C093
:104910008091E80082FD05C08091AF028111F8CF3F
:1049200011C08091E8008B770BC08091AF02882383
:1049300049F08091E80080FFF8CF8091E8008E7701
:104940008093E80008952091E4003091E50095E619
:104950004091EC00842F817040FF23C08091E800DB
:1049600080FD1DC08091AF02882399F0853099F0B9
:104970008091EB0085FD11C04091E4005091E5006D
:104980002417350729F3915011F09A01E1CF84E003
:10499000089582E0089583E0089581E0089580E01D
:1049A00008954091E80042FFDDCF08950E9444251C
:1049B0000E944C25E0EEF0E0808181608083E8ED8C
:1049C000F0E080818F77808319BCA7EDB0E08C91F7
:1049D0008E7F8C9380818F7E80831092AE020895AB
:1049E0000F931F93CF93DF930E9444250E944C2581
:1049F000C8EDD0E088818F7788838881806888833C
:104A000088818F7D888319BC1092AF021092AB020F
:104A10001092AD021092AC0200EE10E0F80180811D
:104A20008B7F808388818160888342E060E080E0C2
:104A30000E944F24E1EEF0E080818E7F8083E2EEE1
:104A4000F0E0808181608083808188608083F801CC
:104A500080818E7F8083888180618883DF91CF9180
:104A60001F910F910895E8EDF0E080818F7E8083A3
:104A7000E7EDF0E080818160808384E082BF81E0A7
:104A80008093AE020C94F024E8EDF0E080818E7FFC
:104A900080831092E20008951092DA001092E100F3
:104AA00008951F920F920FB60F9211242F933F93E8
:104AB0004F935F936F937F938F939F93AF93BF9326
:104AC000EF93FF938091E10082FF0BC08091E200A1
:104AD00082FF07C08091E1008B7F8093E1000E94FC
:104AE00014218091DA0080FF1FC08091D80080FFE0
:104AF0001BC08091DA008E7F8093DA008091D9000C
:104B000080FF0DC080E189BD82E189BD09B400FE4E
:104B1000FDCF81E08093AF020E94DB2005C019BC6D
:104B20001092AF020E94ED208091E10080FF19C039
:104B30008091E20080FF15C08091E2008E7F80931B
:104B4000E2008091E20080618093E2008091D800D1
:104B500080628093D80019BC85E08093AF020E94E8
:104B6000FA208091E10084FF30C08091E20084FF50
:104B70002CC080E189BD82E189BD09B400FEFDCF72
:104B80008091D8008F7D8093D8008091E1008F7E46
:104B90008093E1008091E2008F7E8093E20080911B
:104BA000E20081608093E2008091AB02882311F0E3
:104BB00084E007C08091E30087FD02C081E001C06E
:104BC00083E08093AF020E9406218091E10083FF81
:104BD00029C08091E20083FF25C08091E100877F9A
:104BE0008093E10082E08093AF021092AB0280914B
:104BF000E1008E7F8093E1008091E2008E7F8093C0
:104C0000E2008091E20080618093E20042E060E097
:104C100080E00E944F248091F00088608093F00033
:104C20000E94F420FF91EF91BF91AF919F918F91DE
:104C30007F916F915F914F913F912F910F900FBE98
:104C40000F901F9018951F920F920FB60F9211247C
:104C50002F933F934F935F936F937F938F939F9384
:104C6000AF93BF93CF93DF93EF93FF93C091E9008E
:104C7000CF708091EC00D82FD17080FDD0E81092D9
:104C8000E9008091F000877F8093F00078940E9483
:104C900067261092E9008091F00088608093F00010
:104CA000CD2BCF70C093E900FF91EF91DF91CF91B1
:104CB000BF91AF919F918F917F916F915F914F9134
:104CC0003F912F910F900FBE0F901F9018951F933B
:104CD000CF93DF93CDB7DEB7AA970FB6F894DEBFB8
:104CE0000FBECDBFE0EBF2E08091F100819322E0B6
:104CF000E83BF207C9F70E946E218091E80083FF2C
:104D00002EC18091B0029091B102492F50E04A30FB
:104D1000510508F024C1FA01EE59FF4F0C943428D4
:104D2000803821F0823809F01AC108C08091AC02A5
:104D30009091AD02992389F082600FC08091B402F6
:104D40008F70873008F00BC18093E9008091EB00F1
:104D500085FB882780F91092E9009091E800977F01
:104D60009093E8008093F1001092F100D1C0282FB9
:104D70002D7F09F0F4C0882319F0823061F0EFC074
:104D80008091B202813009F0EAC0933009F080E0EE
:104D90008093AD022EC08091B20281112AC0809111
:104DA000B4028F702FEF280F263008F0D8C0809300
:104DB000E9002091EB0020FF1CC0933021F480918A
:104DC000EB00806214C09091EB0090619093EB0037
:104DD00021E030E0A90102C0440F551F8A95E2F797
:104DE0004093EA001092EA008091EB008860809383
:104DF000EB001092E9008091E800877F8093E80043
:104E00000E948424ACC08111AAC01091B2021F7705
:104E10008091E3008078812B8093E3008091E8000B
:104E2000877F8093E8000E9484248091E80080FFBF
:104E3000FCCF8091E30080688093E300111102C0F1
:104E400082E001C083E08093AF0289C08058823045
:104E500008F085C08091B2029091B3028C3D53E07E
:104E6000950779F583E08A838AE289834FB7F894BE
:104E7000DE01139620E03EE051E2E32FF0E0509394
:104E80005700E49120FF03C0E295EF703F5FEF70A1
:104E90008E2F90E0EA3010F0C79601C0C0968D9337
:104EA0009D932F5F243149F74FBF8091E800877FA2
:104EB0008093E8006AE270E0CE0101960E949023A0
:104EC00016C06091B4027091B502AE014F5F5F4FA2
:104ED0000E94D722BC01892B09F441C09091E800BF
:104EE000977F9093E80089819A810E94EE238091B8
:104EF000E8008B778093E80032C0803881F580919C
:104F0000E800877F8093E8008091AB028093F100F6
:104F10008091E8008E7772CF811121C08091B2021A
:104F20009091B30299270297D4F48091E800877F8B
:104F30008093E8008091B2028093AB020E948424A7
:104F40008091AB02811106C08091E30087FD02C011
:104F500081E001C084E08093AF020E9455218091DE
:104F6000E80083FF0AC08091E800877F8093E80013
:104F70008091EB0080628093EB00AA960FB6F894C4
:104F8000DEBF0FBECDBFDF91CF911F910895CF93AC
:104F90008091AF028823A1F0C091E900CF70909179
:104FA000EC00892F817090FD80E8C82B1092E900F9
:104FB0008091E80083FD0E946726CF70C093E900CE
:104FC000CF910895DB018F939F930E944928BF9151
:104FD000AF91A29F800D911DA39F900DB29F900D48
:104FE00011240895991B79E004C0991F961708F0C1
:104FF000961B881F7A95C9F780950895AA1BBB1B3D
:1050000051E107C0AA1FBB1FA617B70710F0A61BC8
:10501000B70B881F991F5A95A9F780959095BC01E9
:10502000CD010895A1E21A2EAA1BBB1BFD010DC0E4
:10503000AA1FBB1FEE1FFF1FA217B307E407F50748
:1050400020F0A21BB30BE40BF50B661F771F881F24
:10505000991F1A9469F760957095809590959B01BA
:10506000AC01BD01CF010895EE0FFF1F0590F49133
:10507000E02D0994A29FB001B39FC001A39F700DC2
:10508000811D1124911DB29F700D811D1124911D50
:1050900008950E943A28A59F900DB49F900DA49F5B
:1050A000800D911D11240895FB01DC0104C08D9138
:1050B0000190801921F441505040C8F7881B990B8A
:1050C0000895F999FECF92BD81BDF89A992780B5D0
:1050D0000895A8E1B0E042E050E00C949528262F16
:1050E000F999FECF92BD81BDF89A019700B40216DE
:1050F00039F01FBA20BD0FB6F894FA9AF99A0FBE8C
:1051000008950396272F0E9470280E946F28252F4C
:105110000E947028242F0C9470280196272F0E943B
:1051200070280C946F28DC01CB01FC01F999FECFAB
:1051300006C0F2BDE1BDF89A319600B40D9241501F
:0A5140005040B8F70895F894FFCF2F
:10514A00C800290277207B20DA20D620D2207A20B4
:10515A0001E200E900EA00B500B600B700CD00831D
:10516A0001CC008A01920194012102230224022522
:10517A0002260227022A02B300B4006F00700081DF
:10518A008283E200E900EA00B500B600B700CD006C
:10519A008301CC008A019201940121022302240294
:1051AA002502260227022A02B300B4006F0070000B
:1051BA00818283C6F0F1F4F5F6F735366694969750
:1051CA00343233929130316793954032229D096B84
:0A51DA00094909EE08070920090041
:00000001FF
